:020000040000fa
:10000000f07f0020514b0000cf390000cf390000b5
:1000100000000000000000000000000000000000e0
:10002000000000000000000000000000cf390000c8
:100030000000000000000000cf390000374600003b
:10004000cf390000cf390000cf390000af460000a3
:10005000e146000013470000cf390000cf3900000f
:10006000cf39000045470000cf390000cf390000ec
:10007000cf390000cf390000cf390000cf39000060
:10008000cf390000cf390000cf390000cf39000050
:10009000cf390000cf390000cf390000cf39000040
:1000a000cf390000cf390000cf390000cf39000030
:1000b000cf390000cf390000cf390000cf39000020
:1000c000cf390000cf390000cf390000cf39000010
:1000d000cf390000cf390000cf390000cf39000000
:1000e000cf390000cf390000cf3900005d2a000071
:1000f000cf390000632b0000cf390000cf3900005a
:10010000cf390000cf390000cf390000cf390000cf
:10011000cf390000cf390000cf390000cf390000bf
:10012000cf390000cf390000cf390000cf390000af
:10013000cf390000cf390000cf390000cf3900009f
:10014000cf390000cf390000cf390000cf3900008f
:0c015000cf390000cf390000cf3900008b
:020000040000fa
:10015c00f8b5c046f8bc08bc9e467047954e0000ea
:10016c00f8b5c046f8bc08bc9e467047714e0000fe
:020000040000fa
:08017c00083f00000100000033
:020000040000fa
:1001840080b582b000af78607b68002b01da14235d
:100194007b607b68642b01dd64237b607b68002bc0
:1001a40004dd7b68132b01dc14237b6043f20043e2
:1001b400c4f200239b68802213402bb943f200430e
:1001c400c4f200237a685a677b681800bd4602b0ff
:1001d40080bd80b582b000af78607b68002b01da07
:1001e40014237b607b68642b01dd64237b607b6864
:1001f400002b04dd7b68132b01dc14237b6043f2aa
:100204000043c4f200239b68802213402bb943f2bd
:100214000043c4f200237a681a677b681800bd465d
:1002240002b080bd80b584b000af78600023fb606d
:1002340002e0fb680133fb607a6813009b009a18a4
:10024400fb689a42f5d8c046bd4604b080bd80b56f
:1002540082b000af00237b6043f20023c4f20003aa
:100264009422042199500220fff7dcff43f200237b
:10027400c4f200039822042199500a20fff7d2ff08
:1002840043f20023c4f2000394220421995047f25c
:1002940030533b6009e03b68013b3b603b6823b95a
:1002a40048f29f63c0f2010327e043f20023c4f243
:1002b4000003a0229a588023db031340002bead0ca
:1002c40047f230533b600ce07b6801337b603b6852
:1002d400013b3b603b6823b948f29f63c0f20103d2
:1002e4000be043f20023c4f20003a0229a588023b7
:1002f400db031340002be7d17b681800bd4602b036
:1003040080bd80b582b000af00237b6043f2002340
:10031400c4f20003802292025a610220fff782ff96
:1003240043f20023c4f20003802292029a610a205d
:10033400fff778ff43f20023c4f200038022920205
:100344005a6147f230533b6009e03b68013b3b6034
:100354003b6823b948f29f63c0f2010325e043f2ee
:100364000023c4f200031a6a8023db021340002b2b
:10037400ebd047f230533b600ce07b6801337b6089
:100384003b68013b3b603b6823b948f29f63c0f282
:1003940001030ae043f20023c4f200031a6a802333
:1003a400db021340002be8d17b681800bd4602b085
:1003b40080bd80b582b000af00237b6043f2002390
:1003c400c4f2000301225a610220fff72bff43f21b
:1003d4000023c4f2000301229a610a20fff722ffde
:1003e40043f20023c4f2000301225a6147f230535e
:1003f4003b6009e03b68013b3b603b6823b948f242
:100404009f63c0f2010323e043f20023c4f200031c
:100414001b6a02221340002becd047f230533b609e
:100424000ce07b6801337b603b68013b3b603b68cd
:1004340023b948f29f63c0f2010309e043f20023a9
:10044400c4f200031b6a02221340002be9d17b682b
:100454001800bd4602b080bd80b500af43f2002352
:10046400c4f20003802292029a6043f20023c4f291
:1004740000038022d2025a6043f20023c4f2000334
:1004840052220221995443f20023c4f200030122b0
:100494009a6043f20023c4f2000302225a6043f23a
:1004a4000023c4f2000341220221995443f20023a1
:1004b400c4f2000388220421995043f20023c4f2b9
:1004c400000384218022d2035a5043f20023c4f251
:1004d4000003d62202219954c046bd4680bd80b592
:1004e40082b000af78607b68552b01d8012356e0b9
:1004f4007b686e2b01d8022351e07b68822b01d8e4
:1005040003234ce07b68be2b01d8042347e07b68bf
:10051400dc2b01d8052342e07b6840f204129342ad
:1005240001d806233be07b6840f22c12934201d8a9
:10053400072334e07b6840f25e12934201d808231b
:100544002de07b6840f2ae12934201d8092326e0e5
:100554007b6840f2d612934201d80a231fe07b68dd
:1005640040f20822934201d80b2318e07b6840f242
:100574003022934201d80c2311e07b6840f25822c8
:10058400934201d80d230ae07b6840f28a22934209
:1005940001d80e2303e07b682c22b3fbf2f318008e
:1005a400bd4602b080bd80b582b000af78607b6884
:1005b400642b01d801233ae07b68782b01d802230d
:1005c40035e07b68872b01d8032330e07b68be2ba2
:1005d40001d804232be07b68e62b01d8052326e011
:1005e4007b6840f21812934201d806231fe07b680f
:1005f40040f24012934201d8072318e07b6840f28e
:100604007c12934201d8082311e07b6840f29012d7
:10061400934201d809230ae07b6840f2c212934254
:1006240001d80a2303e07b682c22b3fbf2f3180001
:10063400bd4602b080bd80b582b000af78607b68f3
:10064400642b01d801233ce07b68782b01d802237a
:1006540037e07b68962b01d8032332e07b68e62bd6
:1006640001d804232de07b6840f21812934201d88c
:10067400052326e07b6840f24012934201d806230a
:100684001fe07b6840f27c12934201d8072318e0f4
:100694007b6840f29a12934201d8082311e07b68e8
:1006a40040f2d612934201d809230ae07b6840f253
:1006b4000822934201d80a2303e07b682c22b3fb6f
:1006c400f2f31800bd4602b080bd80b586b000af1d
:1006d4007860c046bd4606b080bd80b582b000af2c
:1006e40078607b68012b0dd07b6833b17b68022b6b
:1006f4000dd07b68032b0fd013e043f6d013c0f268
:10070400000312e043f6d813c0f200030de043f6f1
:10071400e413c0f2000308e043f6f013c0f2000350
:1007240003e043f6fc13c0f200031800bd4602b018
:1007340080bd80b584b000aff860b9607a600023f2
:100744001800bd4604b080bd80b586b000aff86027
:10075400b9607a603b60fb68642b01d9002314e024
:10076400fb68053b3b6100237b613b69022b02dd97
:1007740001237b6108e03b69023303da01235b4216
:100784007b6101e000237b617b691800bd4606b0f4
:1007940080bd80b582b000af78607b68073304da2f
:1007a40043f60423c0f200031be07b68002b04da49
:1007b40043f61823c0f2000313e07b68072b04dd23
:1007c40043f62823c0f200030be07b68002b04dd12
:1007d40043f63c23c0f2000303e043f64c23c0f28b
:1007e40000031800bd4602b080bdf0b5d9b008af13
:1007f40040f2cc23c2f200031b78abb940f2cc2305
:10080400c2f2000301221a70fff726fe43f65823b2
:10081400c0f200031800fff758ff43f66023c0f24c
:1008240000031800fff751ff03f0ecfe030040f251
:100834001012ba181360fff70afd030040f20c14fb
:100844003a191360fff75dfd030040f208157a19a9
:100854001360fff7aefd03007a1dff3213603b19ee
:100864001b681800fff73bfe030040f23c16ba1960
:1008740013607b191b681800fff795fe030040f214
:100884003812ba1813607b1dff331b681800fff77a
:10089400d2fe030040f23412ba1813603b191b68ed
:1008a40041f28832934203d8bb191b68032b04d846
:1008b400012340f23c12ba18136040f20813fb18eb
:1008c4001b6841f28832934205d840f23813fb1872
:1008d4001b68032b04d8012340f23812ba181360a2
:1008e4007b1dff331b6841f28832934205d840f2e6
:1008f4003413fb181b68032b04d8012340f2341271
:10090400ba18136040f23813fb181b68022b29d85d
:1009140040f2cd23c2f200031b78022b22d040f216
:10092400cd23c2f200031b78012b1bd040f2cd2350
:10093400c2f200031b78032b14d003f01dfe08231e
:100944005b421800fff745fc08235b421800fff7e1
:1009540017fc43f6a423c0f200031800fff7b5fe0a
:1009640000f070fc40f23413fb181b68022b25d8ee
:1009740040f2cd23c2f200031b78022b1ed040f2ba
:10098400cd23c2f200031b78012b17d040f2cd23f4
:10099400c2f200031b78032b10d003f0edfd0a20f4
:1009a400fff717fc0020fff7ebfb43f6c023c0f270
:1009b40000031800fff789fe00f044fc40f23c13ea
:1009c400fb181b68022b25d840f2cd23c2f200038a
:1009d4001b78022b1ed040f2cd23c2f200031b78f9
:1009e400012b17d040f2cd23c2f200031b78032b56
:1009f40010d003f0aafd0020fff7ebfb0a20fff75d
:100a0400bffb43f6e023c0f200031800fff75dfece
:100a140000f018fc40f23813fb181b680c2b46d866
:100a240040f23c13fb181b680f2b40d840f23413e0
:100a3400fb181b680f2b3ad840f2cd23c2f20003f7
:100a44001b78032b00d178e040f2cd23c2f20003df
:100a54001b78022b71d040f2cd23c2f200031b7825
:100a6400012b6ad043f60033c0f200031800fff7ed
:100a74002cfe40f2cd23c2f2000303221a7040f28e
:100a8400ce23c2f2000301221a7040f2d023c2f234
:100a9400000340f21012ba1812681a6003f06cfdd9
:100aa4003220fff796fb3220fff76afb45e040f265
:100ab4003813fb181b680c2b40d840f23c13fb186e
:100ac4001b680f2b3ad840f2cd23c2f200031b78e7
:100ad400022b33d040f2cd23c2f200031b78012b4a
:100ae4002cd040f2cd23c2f200031b78032b25d077
:100af40043f62033c0f200031800fff7e6fd40f28e
:100b0400cd23c2f2000302221a7040f2ce23c2f2b5
:100b1400000301221a7040f2d023c2f2000340f213
:100b24001012ba1812681a6003f00ffdfa20fff7ca
:100b340050fbfa20fff724fb00e0c04640f2d42328
:100b4400c2f200031b6893b140f2d423c2f2000343
:100b54001a6840f21013fb181b681100180003f008
:100b640015fe40f2d423c2f2000300221a6040f2c0
:100b7400cd23c2f200031b78042b00d97ee29a0035
:100b8400e94bd3181b689f4640f23c33c2f2000382
:100b94001b6840f23c12ba1812689a4252d140f2d1
:100ba400d823c2f200031b685a1c40f2d823c2f2b5
:100bb40000031a6040f2d823c2f200031b68312bf1
:100bc4004fd940f2d423c2f200031b68002b48d152
:100bd40040f2ce23c2f200031b78002b41d140f235
:100be400cd23c2f200031b78dbbb43f64433c0f2cf
:100bf40000031800fff769fd03f0befc0a235b4203
:100c04001800fff7e6fa0a235b421800fff7b8fa68
:100c140003f09bfc0020fff7dcfa0a20fff7b0fa90
:100c240040f2d823c2f2000300221a6040f21013eb
:100c3400fb181b6832331a0040f2d423c2f20003bb
:100c44001a601be240f2d823c2f2000300221a60a9
:100c540040f23c33c2f2000340f23c12ba1812686c
:100c64001a6040f23c13fb181b680522d31a40f2a9
:100c74003012b9180b60bb181b68013306dbbb18b4
:100c84001b68012b02dc0023ba18136040f23013f6
:100c9400fb18186804f0e3f9031c4cf6cd41c3f6c5
:100ca4004c51181c03f0a5fd031c181c04f01ef97c
:100cb400030040f22c12b9180b60bb181b68012bff
:100cc40002dd0123ba18136040f22c12bb181b6812
:100cd400013303da01235b42ba18136040f22c1289
:100ce400bb181b681e3340f2281178180360bb1828
:100cf4001b681e22d31a40f22412ba1813607b1800
:100d04001b68282b02dd28237a18136040f228126e
:100d1400bb181b68132b02dc1423ba18136040f2af
:100d24002412bb181b68282b02dd2823ba18136071
:100d340040f22412bb181b68132b02dc1423ba18cc
:100d4400136003f030fc40f22813fb181b681800f2
:100d5400fff73ffa40f22413fb181b681800fff753
:100d64000ffa40f23c13fb181b680f2b4ed940f2cc
:100d7400dc23c2f200031b780133dab240f2dc2335
:100d8400c2f200031a7040f2dc23c2f200031b78a3
:100d9400012b00d869e140f2d423c2f200031b689e
:100da400002b00d061e140f2cd23c2f200031b7896
:100db400002b00d059e140f2cd23c2f200030122fe
:100dc4001a7040f2ce23c2f2000301221a7040f2dc
:100dd400d023c2f2000340f21012ba1812681a604b
:100de40043f66833c0f200031800fff76efc03f00b
:100df400c3fb3220fff7edf93220fff7c1f940f2cf
:100e0400dc23c2f2000300221a702ee140f2dc233c
:100e1400c2f2000300221a7027e140f2ce23c2f28c
:100e240000031b78002b00d121e140f2d023c2f251
:100e340000031a6840f210143b191b6811001800d3
:100e440003f0a4fc0300182b00d810e140f2ce23d9
:100e5400c2f2000300221a7040f2cd23c2f2000352
:100e640004221a703b191b6832331a0040f2d4234f
:100e7400c2f200031a6043f68433c0f20003180080
:100e8400fff723fc40f2e023c2f200033a19126890
:100e94001a6040f2d823c2f2000300221a60e6e08e
:100ea40040f2ce23c2f200031b78002b00d1e0e015
:100eb40040f2d023c2f200031a6840f210143b1926
:100ec4001b681100180003f061fc03000a2b00d812
:100ed400cfe040f2ce23c2f2000300221a7040f2a7
:100ee400cd23c2f2000304221a703b191b6832336b
:100ef4001a0040f2d423c2f200031a6043f6a0336e
:100f0400c0f200031800fff7e0fb40f2e023c2f256
:100f140000033a1912681a6040f2d823c2f200039f
:100f240000221a60a5e0c0462c3d000040f2ce230a
:100f3400c2f200031b78002b00d19ce040f2d023c6
:100f4400c2f200031a6840f210143b191b68110026
:100f5400180003f01bfc03002c2b00d88be040f29c
:100f6400ce23c2f2000300221a7040f2cd23c2f253
:100f7400000304221a703b191b6832331a0040f232
:100f8400d423c2f200031a6043f6bc33c0f2000358
:100f94001800fff79afb40f2e023c2f200033a196b
:100fa40012681a6040f2d823c2f2000300221a60c9
:100fb40061e003f0f8fa1e20fff70bf91e20fff79b
:100fc400dff843f6d833c0f200031800fff77dfbc7
:100fd40040f23c13fb181b680f2b26d840f2e42385
:100fe400c2f200031b780133dab240f2e423c2f206
:100ff40000031a7040f2e423c2f200031b78022bb0
:1010040019d940f2cd23c2f2000300221a7040f233
:10101400e423c2f2000300221a7043f6e433c0f260
:1010240000031800fff751fb05e040f2e423c2f28d
:10103400000300221a7040f2e023c2f200031a688f
:1010440040f21013fb181b681100180003f09efbfc
:10105400020040f22b139a420fd943f6fc33c0f23c
:1010640000031800fff731fb07e0c04606e0c04666
:1010740004e0c04602e0c04600e0c04640f2cd2392
:10108400c2f200031b78042b31d89a006f4bd3189b
:101094001b689f4643f62443c0f2000340f220122b
:1010a400ba1813602ce043f6d813c0f2000340f2e0
:1010b4002012ba18136023e043f6e413c0f20003cd
:1010c40040f22012ba1813601ae043f6f013c0f28b
:1010d400000340f22012ba18136011e043f62c43c7
:1010e400c0f2000340f22012ba18136008e043f67d
:1010f400fc13c0f2000340f22012ba181360c04679
:10110400002340f21c12ba18136043f63443c0f2b1
:10111400000340f21812ba18136040f2cd23c2f251
:1011240000031b78002b49d140f23c13fb181b68c9
:101134000522d31a40f21412b9180b60bb181b68ad
:10114400013306dbbb181b68012b02dc0023ba1831
:10115400136040f21413fb18186803f080ff031c9b
:101164004cf6cd41c3f64c51181c03f042fb031c52
:10117400181c03f0bbfe030040f21c12b9180b60ec
:10118400bb181b68012b02dd0123ba18136040f25f
:101194001c12bb181b68013303da01235b42ba1823
:1011a400136040f21c13fb181b681800fff7f1fad8
:1011b400030040f21812ba18136007e043f63443f0
:1011c400c0f2000340f21812ba18136040f20c1374
:1011d400fb18196843f63c42c0f20002381d40f285
:1011e4001813fb181b68079340f21c13fb181b68a9
:1011f400069340f22013fb181b68059340f2341346
:10120400fb181b6804937b1dff331b68039340f298
:101214003813fb181b68029340f20813fb181b6871
:10122400019340f23c13fb181b6800930b0040f23f
:10123400001103f069ff3b1d1800fff746fa052073
:1012440000f0a0fcbd4651b0f0bdc046403d0000da
:020000040000fa
:1012540080b582b000af7860396001f070fe0300a1
:101264003bb17b681b88984a13439ab27b681a8007
:101274006be37b681b885b045b0c9ab27b681a8007
:101284007b681b88002b00d15ce37b6840f2201252
:10129400002199527b681b881a0001231340002bfc
:1012a40061d07b681b8847f6fb7213439ab27b6854
:1012b4001a807b681b881a00042313409bb17b6847
:1012c40040f28c129b585a1c7b6840f28c115a5085
:1012d4007b6840f28c129b58072b04d97b6840f240
:1012e4008c12002199507b6840f28c1299587b68cb
:1012f40040f220129b5a78680133da0043f2e84343
:10130400c0f20003c90082185b1803cb03c27b68d8
:1013140040f220129b5a013399b27b6840f22012aa
:1013240099527b6840f220129b5a7a680133d900a3
:1013340043f20c13c0f200038b507b6840f220127e
:101344009b5a7a680133db00d318043340f27932b4
:101354001a607b6840f220129b5a013399b27b6871
:1013640040f2201299527b681b881a000223134012
:10137400002b00d1d3e27b6840f220129b5a78689c
:101384000133da0043f2e843c0f200033968c900cc
:1013940082185b1803cb03c27b6840f220129b5a6d
:1013a400013399b27b6840f2201299527b6840f273
:1013b40020129b5a7a680133d90043f22853c0f2b1
:1013c40000038b507b6840f220129b5a7a680133e9
:1013d400db00d31804330c221a607b6840f220121d
:1013e4009b5a013399b27b6840f22012995240f221
:1013f4001003c2f200031b68042b00d980e09a009a
:10140400324bd3181b689f467b6840f220129b5acc
:101414007a680133d90043f23853c0f200038b5089
:101424007b6840f220129b5a7a680133db00d318a0
:10143400043304221a6063e07b6840f220129b5a52
:101444007a680133d90043f24053c0f200038b5051
:101454007b6840f220129b5a7a680133db00d31870
:10146400043307221a604be07b6840f220129b5a37
:101474007a680133d90043f24853c0f200038b5019
:101484007b6840f220129b5a7a680133db00d31840
:10149400043308221a6033e07b6840f220129b5a1e
:1014a4007a680133d90043f25453c0f200038b50dd
:1014b4007b6840f220129b5a7a680133db00d31810
:1014c400043305221a601be00080ffff043600008d
:1014d4007b6840f220129b5a7a680133d90043f2a8
:1014e4005c53c0f200038b507b6840f220129b5a7d
:1014f4007a680133db00d318043304221a60c0462f
:101504007b6840f220129b5a013399b27b6840f207
:10151400201299527b6840f220129b5a7a68013358
:10152400d90043f26453c0f200038b507b6840f24d
:1015340020129b5a7a680133db00d31804330c223f
:101544001a607b6840f220129b5a013399b27b687f
:1015540040f22012995240f20c03c2f200031b68bd
:10156400bbb97b6840f220129b5a7a680133d900d8
:1015740043f27453c0f200038b507b6840f2201294
:101584009b5a7a680133db00d31804330b221a60a8
:10159400c0467b6840f220129b5a013399b27b68a3
:1015a40040f2201299527b6840f220129b5a7a68ca
:1015b4000133d90043f28053c0f200038b507b689f
:1015c40040f220129b5a7a680133db00d3180433ab
:1015d4000c221a607b6840f220129b5a013399b2a4
:1015e4007b6840f2201299523b68022b25d03b685d
:1015f400022b03dc3b68012b07d066e03b68032b1e
:1016040033d03b68042b48d05fe07b6840f2201263
:101614009b5a7a680133d90043f29053c0f2000315
:101624008b507b6840f220129b5a7a680133db00ae
:10163400d318043306221a6047e07b6840f2201274
:101644009b5a7a680133d90043f29853c0f20003dd
:101654008b507b6840f220129b5a7a680133db007e
:10166400d31804330e221a602fe07b6840f2201254
:101674009b5a7a680133d90043f2a853c0f200039d
:101684008b507b6840f220129b5a7a680133db004e
:10169400d31804330e221a6017e07b6840f220123c
:1016a4009b5a7a680133d90043f2b853c0f200035d
:1016b4008b507b6840f220129b5a7a680133db001e
:1016c400d318043304221a60c0467b6840f2201207
:1016d4009b5a013399b27b6840f2201299527b687d
:1016e40040f220129b5a7a680133d90043f2c05366
:1016f400c0f200038b507b6840f220129b5a7a6838
:101704000133db00d31804330c221a607b6840f2e7
:1017140020129b5a013399b27b6840f220129952ed
:1017240040f20703c2f200031b78bbb17b6840f2ae
:1017340020129b5a7a680133d90043f2d053c0f285
:1017440000038b507b6840f220129b5a7a68013365
:10175400db00d318043308221a6016e07b6840f2d9
:1017640020129b5a7a680133d90043f2dc53c0f249
:1017740000038b507b6840f220129b5a7a68013335
:10178400db00d318043304221a607b6840f2201271
:101794009b5a013399b27b6840f2201299527b68bc
:1017a40040f220129b5a7a680133d90043f2e45381
:1017b400c0f200038b507b6840f220129b5a7a6877
:1017c4000133db00d31804330c221a607b6840f227
:1017d40020129b5a013399b27b6840f2201299522d
:1017e40040f20803c2f200031b78bbb17b6840f2ed
:1017f40020129b5a7a680133d90043f2d053c0f2c5
:1018040000038b507b6840f220129b5a7a680133a4
:10181400db00d318043308221a6016e07b6840f218
:1018240020129b5a7a680133d90043f2dc53c0f288
:1018340000038b507b6840f220129b5a7a68013374
:10184400db00d318043304221a607b6840f22012b0
:101854009b5a013399b27b6840f2201299527b68fb
:1018640040f220129b5a7a680133d90043f2f453b0
:10187400c0f200038b507b6840f220129b5a7a68b6
:101884000133db00d31804330c221a607b6840f266
:1018940020129b5a013399b27b6840f2201299526c
:1018a40040f20903c2f200031b78bbb17b6840f22b
:1018b40020129b5a7a680133d90043f2d053c0f204
:1018c40000038b507b6840f220129b5a7a680133e4
:1018d400db00d318043308221a6016e07b6840f258
:1018e40020129b5a7a680133d90043f2dc53c0f2c8
:1018f40000038b507b6840f220129b5a7a680133b4
:10190400db00d318043304221a607b6840f22012ef
:101914009b5a013399b27b6840f2201299527b683a
:1019240040f220129b5a7bb17b68083318007b6815
:1019340040f220129b5a190001f00efa7b68044a07
:101944001a8002e0c04600e0c046bd4602b080bd39
:101954000080ffff80b582b000af78607b685b6871
:10196400012b17d02bb1022b29d0032b00d1f1e08e
:10197400fbe07b689d33ff331021180001f0eefa81
:101984000300002b00d1f2e07b685b685a1c7b6883
:101994005a60ece07b689133ff33180001f074fb6c
:1019a40003002bb17b685b685a1c7b685a6006e0b5
:1019b40040f21003c2f2000300221a60dee07b68ea
:1019c4001b881bb2002b00dad3e07b6840f288123c
:1019d400002199507b681b88022213439ab27b68ca
:1019e4001a807b685b685a1c7b685a607b6840f28b
:1019f40094129b58032b4ad17b6840f290129b5857
:101a040001331b785b2b42d17b6840f290129b58c8
:101a140002331b78412b06d140f21003c2f20003bb
:101a240001221a6095e07b6840f290129b580233c1
:101a34001b78422b06d140f21003c2f200030222ab
:101a44001a6086e07b6840f290129b5802331b7840
:101a5400432b06d140f21003c2f2000303221a60a2
:101a640077e07b6840f290129b5802331b78442b3a
:101a740006d140f21003c2f2000304221a6068e0a7
:101a840040f21003c2f2000300221a6061e07b6896
:101a940040f294129b58012b29d17b6840f290129a
:101aa4009b581b78312b06d140f20003c2f200038d
:101ab40001221a605fe07b6840f290129b581b7809
:101ac400322b06d140f20003c2f2000302221a6054
:101ad40051e07b6840f290129b581b78332b4ad11b
:101ae40040f20003c2f2000303221a6043e07b6861
:101af40040f294129b58012b23d97b6840f2901238
:101b04009b581b781b2b1cd17b6840f294129b586a
:101b1400052b1dd17b6840f290129b58581c43f250
:101b24001863c0f200030422190003f0bafa030098
:101b340073b97b681b88012213439ab27b681a80ad
:101b440006e040f21003c2f2000300221a6012e021
:101b5400c04610e07b681b881a0048f20203134059
:101b64005bb97b6800225a6008e000f08efec04634
:101b740004e0c04602e0c04600e0c046c046bd46a0
:101b840002b080bd80b584b000af78600023fb60f4
:101b94000de00023bb6002e0bb680133bb60bb689f
:101ba40040f69f729342f7ddfb680133fb60fa68ed
:101bb4007b689a42eddbc046bd4604b080bd80b56b
:101bc40086b000af00233b6100237b6000f07cf90a
:101bd40000f076fe00f08cf940f22003c2f200031c
:101be40001221a8002f02fff03005a1e9341dab239
:101bf40040f20703c2f200031a7002f035ff03003b
:101c04005a1e9341dab240f20803c2f200031a707a
:101c140002f03bff03005a1e9341dab240f209037b
:101c2400c2f200031a7040f20003c2f20003012260
:101c34001a60fb68072b28d9bb687b6002f003ff9e
:101c440003005a1e9341dab240f20703c2f20003c2
:101c54001a7002f009ff03005a1e9341dab240f2ef
:101c64000803c2f200031a7002f00fff03005a1ea9
:101c74009341dab240f20903c2f200031a7040f24f
:101c84002003c2f2000302221a8002f0bbfc03000c
:101c9400bb607a68bb681100180002f077fd03008e
:101ca400fb6040f20003c2f200031a6840f2200312
:101cb400c2f2000311001800fff7cafa40f2200331
:101cc400c2f200031800fff745fe40f20003c2f21f
:101cd40000031b68022b43d0032b56d0012ba8d141
:101ce40040f21003c2f200031b68042b23d89a00ad
:101cf400284bd3181b689f4602f010fc1be002f02f
:101d040052fc1e237b6121233b6114e002f062fc40
:101d140032237b6123233b610de002f02dfc32234f
:101d24007b6132233b6106e002f00ffc32237b61ce
:101d340032233b61c04643f20043c4f200239b6854
:101d44008022134023bb43f20043c4f200237a6988
:101d54005a6743f20043c4f200233a691a6717e052
:101d640040f20703c2f200031b78180040f2080394
:101d7400c2f200031b78190040f20903c2f2000307
:101d84001b781a0001f071fc03e0fef72efd00e061
:081d9400c0464ee720360000b6
:020000040000fa
:101d9c0080b582b000af0200fb1d1a70fb1d1b78d2
:101dac007f2b12d8fb1d1b781a001f231a40110021
:101dbc004ef20013cef20003fa1d127852b2520901
:101dcc000120884001009200d150c046bd4602b0af
:101ddc0080bd90b583b000af02003960fb1d1a7056
:101dec00fb1d1b787f2b2fd84ef20013cef2000375
:101dfc00fa1d127852b29208c0329200d358fa1dd2
:101e0c001278110003220a40d200ff2191400a00ef
:101e1c00d2431a4010003b689b01ff221a40fb1d65
:101e2c001b78190003230b40db009a4011004ef283
:101e3c000013cef20003fa1d127852b2920801433d
:101e4c00c0329200d15037e04ef60053cef2000370
:101e5c00fa1d127811000f220a40083a9208063235
:101e6c0092009b1804331b68fa1d12781100032290
:101e7c000a40d200ff2191400a00d2431a401000c0
:101e8c003b689b01ff221a40fb1d1b7819000323a2
:101e9c000b40db009a404ef60053cef20003f91dc6
:101eac0009780c000f2121400839890802430631ba
:101ebc0089005b1804331a60c046bd4603b090bd60
:101ecc0080b500af00f023f800f0daf800f0fcf970
:101edc0000f0f1fa4ef21003cef2000340f6a662c7
:101eec005a60c046bd4680bd80b500af00f0d1fb46
:101efc0000f090fb00f072fb03212b20fff769ff31
:101f0c0003212d20fff765ffc046bd4680bd80b57f
:101f1c0082b000af00237b6040f20043c4f20003a8
:101f2c0001229a7140f20043c4f2000302229a701b
:101f3c0000e0c04640f20043c4f200039b79dbb2e0
:101f4c001a0001231340002bf3d040f20043c4f2db
:101f5c00000301229a7145f20003c4f20013062219
:101f6c005a6041f60003c4f2000340f202221a62e6
:101f7c0000e0c04641f60003c4f20003da68802397
:101f8c00db021340002bf4d041f20003c4f2000337
:101f9c0000221a8600e0c04641f20003c4f200039e
:101fac001a6980235b041340002bf4d046f2200303
:101fbc00c0f280031a68fc23db0513407b60c0462b
:101fcc007b68db0b7b607b6840f2002213437b60f9
:101fdc0041f20003c4f200037a685a6300e0c04681
:101fec0041f20003c4f200031a6980235b0413401e
:101ffc00002bf4d041f20003c4f200031b8e9ab202
:10200c0041f20003c4f2000302210a4392b21a8681
:10201c0000e0c04641f20003c4f200031a698023b9
:10202c005b041340002bf4d041f60043c4f20003d0
:10203c0040f20512c0f201029a6200e0c04641f67d
:10204c000043c4f200035b6810221340002bf5d14f
:10205c0041f60043c4f2000340f20712c0f2020240
:10206c001a6200e0c04641f60043c4f200035b680c
:10207c0004221340002bf5d1c046bd4602b080bdf2
:10208c0080b500af43f20023c4f2000301225a6072
:10209c0043f20023c4f2000340220221995443f27c
:1020ac000023c4f2000302225a6043f20023c4f25c
:1020bc00000341220221995443f20023c4f200038d
:1020cc0004225a6143f20023c4f2000304229a60f2
:1020dc0043f20023c4f2000308225a6143f20023a6
:1020ec00c4f2000308229a6043f20023c4f20003f6
:1020fc0040225a6143f20023c4f2000340229a604a
:10210c0043f20023c4f2000380225a6143f20023fd
:10211c00c4f2000380229a6043f20023c4f200034d
:10212c0040f200225a6043f20023c4f20003492219
:10213c000221995443f20023c4f2000340f20042fe
:10214c005a6043f20023c4f200034a22022199543c
:10215c0043f20023c4f2000340f600025a6043f23b
:10216c000023c4f200034b220221995443f20023b2
:10217c00c4f2000344f200025a6143f20023c4f299
:10218c00000344f200029a6043f20023c4f20003fd
:10219c0048f200025a6143f20023c4f2000348f2f1
:1021ac0000029a6043f20023c4f20003802212035f
:1021bc005a6143f20023c4f20003802212039a6096
:1021cc0043f20023c4f20003802292025a6043f2cd
:1021dc000023c4f2000351220221995443f200233c
:1021ec00c4f200038022d2025a6043f20023c4f2ec
:1021fc00000352220221995443f20023c4f200033b
:10220c00802252035a6143f20023c4f2000380225d
:10221c0052039a6043f20023c4f20003802292031b
:10222c005a6043f20023c4f2000355220221995450
:10223c0043f20023c4f200038022d2035a6043f21b
:10224c000023c4f2000356220221995443f20023c6
:10225c00c4f20003802212045a6043f20023c4f239
:10226c00000357220221995443f20023c4f20003c5
:10227c0094220821995043f20023c4f200038822cf
:10228c000821995043f20023c4f2000384218022d8
:10229c00d2035a5043f20023c4f200035622022107
:1022ac00995443f20023c4f20003942180221204b7
:1022bc005a5043f20023c4f20003882180221204f6
:1022cc005a50c046bd4680bd80b582b000affb1de4
:1022dc0000221a7041f60043c4f2000390224221fe
:1022ec00995000e0c04641f60043c4f2000390222e
:1022fc009b5840221340002bf4d042f60023c4f22a
:10230c00000301221a7000e0c04642f60023c4f21a
:10231c0000035b6801221340002bf5d142f6002329
:10232c00c4f2000340f6aa22c0f20022da6142f69f
:10233c000023c4f200031a6b42f60023c4f200031c
:10234c0003210a431a6342f60023c4f200030e224f
:10235c005a6342f60023c4f2000347221a6143f287
:10236c000023c4f20003fa1d3b215b5c1370fb1dc0
:10237c00fa1d12780f210a401a70fb1dfa1d1278f3
:10238c001a7043f20023c4f20003fa1d3b211278a9
:10239c005a5443f20023c4f2000357229b5cdab276
:1023ac0043f20023c4f2000301210a43d1b25722a5
:1023bc00995443f20023c4f20003fa1dbb215b5c69
:1023cc001370fb1dfa1d12780f218a431a70fb1d26
:1023dc00fa1d12781a7043f20023c4f20003fa1d9e
:1023ec00bb2112785a5443f20023c4f20003d622c4
:1023fc009b5cdab243f20023c4f2000301210a43ce
:10240c00d1b2d622995443f20023c4f20003fa1d30
:10241c0030215b5c1370fb1dfa1d12780f218a436f
:10242c001a70fb1dfa1d12781a7043f20023c4f2c5
:10243c000003fa1d302112785a5443f20023c4f2df
:10244c00000340229b5cdab243f20023c4f2000387
:10245c0001210a43d1b24022995443f20023c4f221
:10246c000003fa1d30215b5c1370fb1dfa1d127802
:10247c000f210a401a70fb1dfa1d12781a7043f2d4
:10248c000023c4f20003fa1d302112785a5443f28f
:10249c000023c4f2000341229b5cdab243f2002316
:1024ac00c4f2000301210a43d1b241229954c0461f
:1024bc00bd4602b080bd80b582b000af41f600438e
:1024cc00c4f20003ec224221995000e0c04641f6d0
:1024dc000043c4f20003ec229b5840221340002b13
:1024ec00f4d043f20043c4f2002301221a6000e04e
:1024fc00c04643f20043c4f200239b680122134000
:10250c00002bf5d143f20043c4f200231a6843f2c6
:10251c000043c4f2002340f200410a431a6043f224
:10252c000043c4f200230222da6343f20043c4f2f4
:10253c00002363221a6443f20043c4f200230022f6
:10254c005a6443f20043c4f2002300229a6400e070
:10255c00c04643f20043c4f200239b68a022134000
:10256c00002bf5d143f20023c4f2000333229b5c11
:10257c00dbb27b607b68ff2293437b607b68992294
:10258c0013437b6043f20023c4f200037a68d1b298
:10259c003322995443f20023c4f2000346229b5c7d
:1025ac00dab243f20023c4f2000341210a43d1b250
:1025bc004622995443f20023c4f2000347229b5c49
:1025cc00dab243f20023c4f2000341210a43d1b230
:1025dc0047229954c046bd4602b080bd80b500afbd
:1025ec0043f20043c4f200231a6843f20043c4f2de
:1025fc00002302210a431a6000e0c04643f2004364
:10260c00c4f200239b6802221340002bf5d1c04674
:10261c00bd4680bd80b500af42f60023c4f2000376
:10262c0002221a7000e0c04642f60023c4f20003f6
:10263c005b6802221340002bf5d142f60023c4f252
:10264c0000034ff6ff725a6102210320fff7c1fb12
:10265c000320fff79dfb03210420fff7bafb0420a6
:10266c00fff796fb03210520fff7b3fb0520fff7cf
:10267c008ffb03210920fff7acfb0920fff788fb38
:10268c004ef21003cef2000307221a60c046bd467c
:10269c0080bd80b584b000af0023fb6043f2002303
:1026ac00c4f20003b1229b5cdbb2fb60fb680f221f
:1026bc009343fb60fb6801221343fb6043f200234e
:1026cc00c4f20003fa68d1b2b122995443f2002348
:1026dc00c4f20003c1229b5cdab243f20023c4f2c1
:1026ec00000301210a43d1b2c122995441f600439f
:1026fc00c4f20003f0224221995000e0c04641f69a
:10270c000043c4f20003f0229b5840221340002bdc
:10271c00f4d043f60003c4f200231b78dab243f67c
:10272c000003c4f2002301210a43d2b21a7000e064
:10273c00c04643f60003c4f200231b8c9bb21a0064
:10274c0001231340002bf3d143f60003c4f2002302
:10275c009b78dab243f60003c4f2002305210a4346
:10276c00d2b29a7043f60003c4f200235b899ab28a
:10277c0043f60003c4f2002320210a4392b25a818b
:10278c0043f60003c4f2002304225a7043f60003fc
:10279c00c4f200231b899ab243f60003c4f200234f
:1027ac000a210a4392b21a8143f60003c4f20023b1
:1027bc001b899ab243f60003c4f2002341f60001d0
:1027cc000a4392b21a8146f22003c0f280031b68be
:1027dc00bb60bb1d00221a80bb689bb21b029bb264
:1027ec001bb240f2007213401ab2bb1d00215b5e9b
:1027fc0013431ab2bb1d1a80bb68db089bb20722bd
:10280c00134099b2bb1dba1d12880a431a8043f6b5
:10281c000003c4f20023ba1d12889a8543f6000304
:10282c00c4f200231b78dab243f60003c4f200238f
:10283c0002210a43d2b21a7000e0c04643f60003ec
:10284c00c4f200231b8c9bb21a0002231340002bf2
:10285c00f3d143f60003c4f200235b899ab243f62a
:10286c000003c4f2002304210a4392b25a8143f6b6
:10287c000003c4f2002302221a76c046bd4604b0ff
:10288c0080bd80b582b000af4ef60053cef200038f
:10289c00db687b607b68042293437b607b68054a22
:1028ac0053407b604ef60053cef200037a68da6038
:0828bc00c046fde70400ffff28
:020000040000fa
:1028c40080b500af41f60043c4f20003d022422198
:1028d400995000e0c04641f60043c4f20003d02200
:1028e4009b5840221340002bf4d040f2cc13c2f288
:1028f4000003a8220021180002f026fc41f2000384
:10290400c4f2002301221a6000e0c04641f2000331
:10291400c4f20023db6901221340002bf5d141f2fc
:102924000003c4f2002304221a6041f20003c4f23b
:1029340000231a6841f20003c4f200238021c90570
:102944000a431a6041f20003c4f200231a6841f2f8
:102954000003c4f20023802149040a431a6041f2af
:102964000003c4f2002300225a6041f20003c4f2bf
:102974000023802212059a6041f20003c4f200236e
:10298400344a9a8141f20003c4f200235a6841f2a6
:102994000003c4f20023c32109040a435a6000e07f
:1029a400c04641f20003c4f20023db690422134051
:1029b400002bf5d143f20023c4f20003942240f229
:1029c4000021995043f20023c4f20003842240f210
:1029d4000021995043f20023c4f20003982240f2ec
:1029e4000011995043f20023c4f20003882240f2fc
:1029f4000011995043f20023c4f20003b42233219e
:102a0400995443f20023c4f20003c92203219954c8
:102a140043f20023c4f20003c8224121995441f235
:102a24000003c4f200231a6841f20003c4f2002335
:102a340002210a431a6000e0c04641f20003c4f2d6
:102a44000023db6906221340002bf5d1c046bd46a6
:102a540080bdc04605c5ffff80b500af40f2cc1372
:102a6400c2f20003a4229b5cdbb2022b00d073e011
:102a740066e040f2cc13c2f2000384229b584bb3ad
:102a840040f2cc13c2f200031a681100083140f27c
:102a9400cc13c2f20003196040f2cc13c2f200035b
:102aa40088215b1803ca03c340f2cc13c2f20003ab
:102ab40084229b585a1e40f2cc13c2f20003842194
:102ac4005a5040f2cc13c2f200038c229b58002bc4
:102ad400cfd000e0c04640f2cc13c2f200038c22f7
:102ae4009b586bb941f20003c4f2002301221a750a
:102af40040f2cc13c2f20003a422002199542ce02a
:102b040040f2cc13c2f2000388229a58511c40f2be
:102b1400cc13c2f2000388201950127841f200034a
:102b2400c4f200239a6240f2cc13c2f200038c2256
:102b34009b585a1e40f2cc13c2f200038c215a5007
:102b440041f20003c4f200231b7edbb21a0001230e
:102b54001340002bb5d100e0c046bd4680bd90b502
:102b640083b000af40f2cc13c2f20003a5229b5cf9
:102b7400dbb2022b00d0b0e0a2e041f20003c4f2c9
:102b84000023ba1d5b8b1380c04641f20003c4f2dc
:102b940000239b6a3b6040f2cc13c2f200039822ec
:102ba4009a5840f2cc13c2f20003a0215b589a4217
:102bb40009d340f2cc13c2f200039c22995c042096
:102bc400014399547ce0bb1d1b880122134043b18f
:102bd40040f2cc13c2f200039c22995c0120014311
:102be4009954bb1d1b88022213409bb140f2cc13a5
:102bf400c2f200039c22995c0220014399543b6871
:102c040043b940f2cc13c2f200039c22995c102019
:102c140001439954bb1d1b880422134043b140f265
:102c2400cc13c2f200039c22995c04200143995402
:102c3400bb1d1b882022134043b140f2cc13c2f2c7
:102c440000039c22995c08200143995440f2cc1360
:102c5400c2f200039422995840f2cc13c2f200034a
:102c640098229a58501c40f2cc13c2f200039824c4
:102c740018518b183a68d2b21a7040f2cc13c2f2cf
:102c8400000390220021995040f2cc13c2f20003b9
:102c940098229a5840f2cc13c2f20003a0215b5848
:102ca4009a420dd341f20003c4f2002304221a75a0
:102cb40040f2cc13c2f20003a522032199540de083
:102cc40041f20003c4f200231b7edbb21a0004238a
:102cd4001340002b00d050e700e0c046bd4603b0cf
:102ce40090bd80b500af40f2cc13c2f20003a52220
:102cf4009b5cdbb2022b2ad140f2cc13c2f200035c
:102d040098229b582bb340f2cc13c2f200039022ba
:102d14009b585a1c40f2cc13c2f2000390215a5023
:102d240040f2cc13c2f2000390229b58062b11d917
:102d340041f20003c4f2002304221a7540f2cc13ba
:102d4400c2f20003a52203219954c04602e0c04602
:102d540000e0c046bd4680bd80b584b000af786059
:102d640039607b680bb13b680bb9012388e040f202
:102d7400cc13c2f20003a4229b5cdbb20bb1002390
:102d84007ee040f2cc13c2f20003a4220121995444
:102d940041f20003c4f200235a6841f20003c4f272
:102da40000238021c9030a435a6000e0c04641f26f
:102db4000003c4f20023db6904221340002bf5d185
:102dc40040f2cc13c2f2000388220021995040f251
:102dd400cc13c2f200038c220021995040f2cc1390
:102de400c2f20003284a1a600023fb6040f2cc13ad
:102df400c2f2000384220021995027e0fb68db0023
:102e04007a68d318bb60bb685b68dbb1bb681b68be
:102e1400c3b140f2cc13c2f2000384229a58511c6d
:102e240040f2cc13c2f200038420195040f2cc13b8
:102e3400c2f20003d20004219b185b18ba6803cacb
:102e440003c300e0c046fb680133fb6040f2cc13cf
:102e5400c2f2000384229b580f2b03d8fa683b6804
:102e64009a42cbd340f2cc13c2f20003a422022133
:102e7400995441f20003c4f2002301229a750123fc
:102e84001800bd4604b080bdd001002080b500af5d
:102e940041f20003c4f2002301221a7540f2cc135c
:102ea400c2f20003a4220121995441f20003c4f2a6
:102eb40000235a6841f20003c4f200238021c903ad
:102ec4000a435a6000e0c04641f20003c4f2002302
:102ed400db6904221340002bf5d100e0c04641f227
:102ee4000003c4f200231b7edbb21a00022313404a
:102ef400002bf3d040f2cc13c2f20003882200214d
:102f0400995040f2cc13c2f200038c220021995054
:102f140040f2cc13c2f2000300221a6040f2cc1338
:102f2400c2f2000384220021995040f2cc13c2f271
:102f34000003a42200219954c046bd4680bd80b53b
:102f440000af40f2cc13c2f20003a4229b5cdbb2bc
:102f54005a1e9341dbb21800bd4680bd80b582b0d5
:102f640000af786039607b680bb13b680bb9012313
:102f74004ae040f2cc13c2f20003a5229b5cdbb210
:102f84000bb1002340e040f2cc13c2f20003a522af
:102f9400012199541e4b0c220021180002f0d4f890
:102fa40040f2cc13c2f2000394217a685a5040f2e2
:102fb400cc13c2f20003a0213a685a5041f2000334
:102fc400c4f200235a6841f20003c4f200238021b2
:102fd40009040a435a6000e0c04641f20003c4f207
:102fe4000023db6904221340002bf5d140f2cc13fb
:102ff400c2f20003a5220221995441f20003c4f253
:10300400002304229a7501231800bd4602b080bd36
:103014006002002080b500af41f20003c4f2002337
:1030240004221a7540f2cc13c2f20003a522012136
:10303400995441f20003c4f200235a6841f2000398
:10304400c4f20023802109040a435a6000e0c04608
:1030540041f20003c4f20023db6904221340002b75
:10306400f5d1084b0c220021180002f06df840f253
:10307400cc13c2f20003a52200219954c046bd46d8
:1030840080bdc0466002002090b583b000af786078
:103094007b680bb9002321e040f2cc13c2f2000399
:1030a400a5229b5cdbb2032b01d0002316e07a68d7
:1030b40040f2cc13c2f2000394215b1813cb13c269
:1030c400084b0c220021180002f03ef840f2cc1309
:1030d400c2f20003a5220021995401231800bd4621
:1030e40003b090bd6002002080b500af40f2cc1365
:1030f400c2f20003a5229b5cdbb25a1e9341dbb2f1
:083104001800bd4680bdc04665
:020000040000fa
:10310c001b5b324a1b5b313b31482b2d2d2d2d2d5a
:10311c002d2d2d2d2d2d2d2d2d2d2d2d2d2d2d2dd3
:10312c002d2d2d2d2d2d2d2d2d2d2d2d2d2d2d2dc3
:10313c002d2d2d2d2d2d2d2d2d2d2d2d2d2d2d2db3
:10314c002d2d2d2d2d2d2d2d2d2d2d2b0d0a7c20a6
:10315c00454545203139323a20456c6563747269b6
:10316c0063616c20616e6420456c656374726f6e74
:10317c0069637320456e67696e656572696e672059
:10318c004c61626f7261746f727920564920207c99
:10319c000d0a7c202020202020202020204163614b
:1031ac0064656d6963205965617220323032352d4a
:1031bc00323032362c2053656d6573746572203253
:1031cc0020202020202020202020202020202020f3
:1031dc002020207c0d0a7c20202020202020202054
:1031ec0020202020202020202020202020202020d3
:1031fc0020202020202020202020202020202020c3
:10320c0020202020202020202020202020202020b2
:10321c00202020202020207c0d0a7c20526f6275fb
:10322c0074742020202020202020202020202020ea
:10323c002020202020202020202020202020202082
:10324c002020202020202020202020202020202072
:10325c0020202020202020202020207c0d0a7c20d3
:10326c002020202020202020202020202020202052
:10327c002020202020202020202020202020202042
:10328c002020202020202020202020202020202032
:10329c002020202020202020202020202020207cc6
:1032ac000d0a7c20417574686f723a204d656f77fa
:1032bc0073212020202020202020202020202020ae
:1032cc0020202020202020202020202020202020f2
:1032dc0020202020202020202020202020202020e2
:1032ec002020207c0d0a7c20202020202020202043
:1032fc0020202020202020202020202020202020c2
:10330c0020202020202020202020202020202020b1
:10331c0020202020202020202020202020202020a1
:10332c00202020202020207c0d0a7c204461746504
:10333c003a2020202032303236202020202020201d
:10334c002020202020202020202020202020202071
:10335c002020202020202020202020202020202061
:10336c0020202020202020202020207c0d0a2b2d06
:10337c002d2d2d2d2d2d2d2d2d2d2d2d2d2d2d2d71
:10338c002d2d2d2d2d2d2d2d2d2d2d2d2d2d2d2d61
:10339c002d2d2d2d2d2d2d2d2d2d2d2d2d2d2d2d51
:1033ac002d2d2d2d2d2d2d2d2d2d2d2d2d2d2d2b43
:1033bc000d0a7c20494e535452554354494f4e5399
:1033cc003a2031202d2052656d6f74652c203220ef
:1033dc002d204c696e652c2033202d2057616c6c90
:1033ec0020202020202020202020202020202020d1
:1033fc002020207c0d0a2b2d2d2d2d2d2d2d2d2d0e
:10340c002d2d2d2d2d2d2d2d2d2d2d2d2d2d2d2de0
:10341c002d2d2d2d2d2d2d2d2d2d2d2d2d2d2d2dd0
:10342c002d2d2d2d2d2d2d2d2d2d2d2d2d2d2d2dc0
:10343c002d2d2d2d2d2d2d2b0d0a0d0a4469726568
:10344c006374696f6e3a200d0a53706565643a2097
:10345c000d0a4d6f64653a200d0a49520d0a4c4510
:10346c0046543a200d0a43454e5445523a200d0a13
:10347c0052494748543a200d0a00c0461b5b33376b
:10348c003b34306d0000c0461b5b33363b34306d33
:10349c000000c0461b5b33353b34306d0000c0462a
:1034ac001b5b33333b34306d0000c0461b5b39373c
:1034bc003b34316d0000c0461b5b39323b34306d00
:1034cc000000c0461b5b39373b34346d0000c046ee
:1034dc001b5b33303b34376d0000c0468834000032
:1034ec00080000009434000008000000a034000024
:1034fc0008000000ac34000008000000b8340000e4
:10350c0008000000c434000008000000d0340000a3
:10351c0008000000dc340000080000001b5b3134a4
:10352c003b3230481b5b304b0000c04653544f506d
:10353c000000c046464f5257415244004241434b53
:10354c00574152440000c046524947485400c046b7
:10355c004c4546540000c0461b5b31353b3230486d
:10356c001b5b304b0000c046706c616365686f6c10
:10357c00646572001b5b31363b3230481b5b304b51
:10358c000000c04652454d4f544500004c494e4535
:10359c002d464f4c4c4f57494e47000057414c4c11
:1035ac002d464f4c4c4f57494e4700005341464512
:1035bc000000c0461b5b31383b3230481b5b304b44
:1035cc000000c04644455445435445440000c046a1
:1035dc004e4f4e450000c0461b5b31393b323048e4
:1035ec001b5b304b0000c0461b5b32303b3230481b
:1035fc001b5b304b0000c0460c1400003c14000058
:10360c006c1400009c140000d41400005b31357e57
:10361c000000c046fc1c0000021d0000101d000034
:08362c001e1d00002c1d000012
:020000040000fa
:1036340080b582b000af7860396043f20043c4f2d1
:1036440000239b68802213405bb943f20043c4f219
:1036540000237a685a6743f20043c4f200233a68ad
:103664001a67c046bd4602b080bd90b583b000afb6
:10367400040008001100fb1d221c1a70bb1d021c53
:103684001a707b1d0a1c1a70fb1d1b7843b3bb1deb
:103694001b782bb37b1d1b7813b300f084ff40f21f
:1036a4002033c2f200031e221a6040f22433c2f215
:1036b400000321221a6040f22033c2f200031a6888
:1036c40040f22433c2f200031b6819001000fff714
:1036d400afff40f22833c2f2000300221a6071e106
:1036e400fb1d1b7863b3bb1d1b7801225340dbb267
:1036f40033b37b1d1b781bb300f027ff40f220334c
:10370400c2f200030f221a6040f22433c2f2000313
:103714000f221a6040f22033c2f200031a6840f20a
:103724002433c2f200031b6819001000fff780ff66
:1037340040f22833c2f20003022252421a6041e1ed
:10374400fb1d1b7801225340dbb243b3bb1d1b7826
:1037540001225340dbb213b37b1d1b78012253407b
:10376400dbb2e3b100f036ff40f22033c2f20003d3
:103774001e221a6040f22433c2f200031e221a6091
:1037840040f22033c2f200031a6840f22433c2f23a
:1037940000031b6819001000fff74aff12e1fb1d2c
:1037a4001b787bb3bb1d1b7801225340dbb24bb3a8
:1037b4007b1d1b7801225340dbb21bb300f0c5fe16
:1037c40040f22033c2f2000315221a6040f224337f
:1037d400c2f2000315221a6040f22033c2f2000341
:1037e4001a6840f22433c2f200031b681900100067
:1037f400fff71eff40f22833c2f2000302225242b6
:103804001a60dfe0fb1d1b7863b3bb1d1b784bb351
:103814007b1d1b7801225340dbb21bb300f095fee5
:1038240040f22033c2f200030f221a6040f2243324
:10383400c2f200030f221a6040f22033c2f20003e6
:103844001a6840f22433c2f200031b681900100006
:10385400fff7eefe40f22833c2f200030122524287
:103864001a60afe0fb1d1b7801225340dbb25bb34f
:10387400bb1d1b7801225340dbb22bb37b1d1b788d
:1038840013b300f079fe40f22033c2f20003152294
:103894001a6040f22433c2f2000315221a6040f287
:1038a4002033c2f200031a6840f22433c2f2000348
:1038b4001b6819001000fff7bbfe40f22833c2f268
:1038c400000302221a607de0fb1d1b780122534095
:1038d400dbb243b3bb1d1b782bb37b1d1b7813b327
:1038e40000f04afe40f22033c2f200030f221a60b5
:1038f40040f22433c2f200030f221a6040f2203354
:10390400c2f200031a6840f22433c2f200031b68b7
:1039140019001000fff78cfe40f22833c2f20003b6
:1039240001221a604ee0fb1d1b7801225340dbb2da
:103934005bb3bb1d1b7843b37b1d1b780122534033
:10394400dbb213b300f02ffe40f22033c2f20003c7
:103954001e221a6040f22433c2f2000321221a60ac
:1039640040f22033c2f200031a6840f22433c2f258
:1039740000031b6819001000fff75afe40f22833b9
:10398400c2f2000300221a601ce000f00cfe40f2b8
:103994002033c2f200031e221a6040f22433c2f222
:1039a400000321221a6040f22033c2f200031a6895
:1039b40040f22433c2f200031b6819001000fff721
:0a39c40037fec046bd4603b090bdbb
:020000040000fa
:0239ce00fee712
:020000040000fa
:1039d000464f5257415244005455524e2052494787
:1039e000485400005455524e204c45465400c046a1
:1039f0005455524e2041524f554e4400554e4b4e59
:103a00004f574e00285354454552204841524420b8
:103a10004c4546542900c046285354454552204c35
:103a2000454654290000c046285354454552204875
:103a300041524420524947485429000028535445d4
:103a400045522052494748542900c0462843454e14
:103a5000544552290000c0461b5b324a1b5b48009c
:103a60000d0a3d3d3d2052494748542048414e44af
:103a70002052554c4520285350494e205455524e03
:103a8000532c20414e54492d534c414d2c2053541e
:103a900055434b2044455445435429203d3d3d0d5d
:103aa0000a00c046414e54492d534c414d3a2066c0
:103ab000726f6e7420726576657273650d0a000010
:103ac000414e54492d534c414d3a206c656674204b
:103ad0007069766f742072696768740d0a00c04659
:103ae000414e54492d534c414d3a207269676874d8
:103af000207069766f74206c6566740d0a00c0468c
:103b00003e3e3e204445414420454e44202d3e202b
:103b1000313830b0205350494e203c3c3c0d0a0017
:103b20003e3e3e2046524f4e542b52494748542069
:103b30002d3e204c454654205350494e203c3c3ca1
:103b40000d0a00003e3e3e20535455434b20444551
:103b500054454354454421205265636f766572692c
:103b60006e672e2e2e0d0a000a57616c6c206c6f4a
:103b70007374202d3e207269676874207370696ebb
:103b80000d0a00005269676874207370696e2064c2
:103b90006f6e65202d3e205345454b0d0a00c046f3
:103ba0004c656674207370696e20646f6e65202d9d
:103bb0003e205345454b0d0a0000c046313830b019
:103bc000207370696e20646f6e65202d3e20534512
:103bd000454b0d0a0000c0465345454b206d6f64b0
:103be000650d000057616c6c20666f756e64202d4a
:103bf0003e20464f4c4c4f570d0a00005345454b55
:103c00002074696d656f75743a206e6f2077616cf2
:103c10006c20666f756e642c2073746f7070696ea3
:103c2000670d0a00464f4c4c4f5700005345454b1b
:103c30000000c046284e2f412900c0461b5b323091
:103c40003b31485269676874202d205261773a20d1
:103c500025356c7520207c2020446973743a20251a
:103c6000326c7520636d202020201b5b32313b318c
:103c70004846726f6e74202d205261773a202535a8
:103c80006c7520207c2020446973743a2025326ca6
:103c90007520636d202020201b5b32323b31484c65
:103ca00065667420202d205261773a2025356c7589
:103cb00020207c2020446973743a2025326c7520c2
:103cc000636d202020201b5b32333b314844656309
:103cd0006973696f6e3a20252d31327320202020c0
:103ce00020202020202020202020202020202020d4
:103cf000202020202020201b5b32343b31485049bb
:103d00004420436f7272656374696f6e3a20252b8d
:103d100034642020252d32387320202020202020bc
:103d200020202020202020200000c0468c0b0000f6
:103d30001e0e0000a40e0000300f0000b60f0000a1
:103d400098100000aa100000bc100000ce10000067
:043d5000e01000007f
:020000040000fa
:103d54000023f0b506001500b1b00791039307994d
:103d64000b78002b00d10ae101235b420c9310abca
:103d740000240e9380230b940d940f930b5d0bb1d1
:103d8400252b29d134b12200300001f054f9079bce
:103d94001b190793079b1a78252a00d0e4e040f208
:103da400020c012110270133049307930798037829
:103db4002b2b1ad025d8202b1ad0232b1dd02a2bfd
:103dc40028d001f0b2f80d90079b1a78303a092aee
:103dd40031d801330793f7e70134cfe70b9b059301
:103de4000b4301300b930790e0e704230b9a0fe099
:103df4000b9b0593059a08230ae00b9b05933b4311
:103e0400efe72d2bead0302bd9d162460b9b0593db
:103e14001343e6e72b6801301a1d1b6807902a60dc
:103e24000d93002b07da0b9a5b4205920122059948
:103e34000d934a400b920b9bda0702d5022293435f
:103e44000b93079b1a782e2a0ed10022581c0c9231
:103e540007905a782a2a27d1023307932b681a1d10
:103e64001b682a6005930c9307a801f0b5f8079b1b
:103e74000700187801f085f9692800d182e034dc64
:103e8400632800d1d7e01adc252800d1e4e06128ba
:103e940058d0049b01220793002352420c920b93a7
:103ea4000d9300930232e1e001f03ff80c90079b80
:103eb4001a78303a092ad7d801330793f7e76428e8
:103ec40060d06728e5dc2a00390008a801f09ef8d4
:103ed400002800d1abe0079b0ba95a1c07921b7862
:103ee40008aa300001f064f93de0702800d17be0bd
:103ef40016dc6e2800d193e06f28cad12b00002273
:103f0400390008a800f0d0fc002800d18fe0079bfe
:103f140008aa01330ba93000079301f047f922e006
:103f2400752840d078284ed07328b2d1802f00d085
:103f34007de0079b2a6801330793131d2b601268e9
:103f4400002384e02a00390008a801f05ff8002863
:103f540000d16ce0079b0ba95a1c07921b7808aa96
:103f6400300001f025f92418039b1c19a34200dc3e
:103f74007ee04f223f4b1a6001235b420393039878
:103f840031b0f0bd2b000122390008a800f08cfcf0
:103f940000284cd0079b08aa01330ba930000793d3
:103fa40000f0ddfcdfe72b000022390008a800f058
:103fb4007bfce0b3079b08aa01330ba930000793ed
:103fc40000f0dcfecfe72b000022390008a800f047
:103fd4006bfc60b3079b5a1c07921b7808aa0ba9b9
:103fe400300001f0e5f8bee72b000022f02108a81c
:103ff40000f05afcd8b1079b099a01330793089b38
:1040040013435bb91c4801f073f802000b9b1a4977
:1040140000930d9b300000f0d8fda4e77823dde782
:10402400039b39001a1908a82b0000f045fe079bd2
:104034000133079398e7802ff9d1079b0133079346
:104044002b681a1d1b682a6008aa137001230ba988
:10405400300000f0bffe86e7802fe8d10122079be5
:10406400013307930b9b049300930d9b0349d1e702
:10407400039474e634030020945100009a51000024
:020000040000fa
:10408400f0b585b000930393009b02900c001600da
:10409400150001900f00002b00d0c9e08a424ad9d4
:1040a400100000f061ff48b12023019f1b1adf407c
:1040b400019b84408340854027430193aab22b0c83
:1040c400b7fbf3f1160094461a004a434e43bf1a55
:1040d400019a3f04140c27430a00be4207d97f19f2
:1040e400013abd4203d8be4201d98a1e7f19be1bc4
:1040f400b6fbf3f14b436446f61a6b464c439b887c
:1041040036041e430f00b44207d97619013fb54265
:1041140003d8b44201d98f1e76191204341b3a43d2
:104124000a9b23b1c4401c6000230a994b60100011
:10413400009905b0f0bd02b9ffde100000f014ffd5
:10414400b8bb0123a41b00932b0cb4fbf3f21f0098
:1041540011005743aeb27143e41b019f24043f0c8a
:104164003c439446a1420ad9012764197f42bc44c6
:10417400a54204d8a14202d9023a94466419641aa9
:10418400b4fbf3f77b43e41a6b467e439b88240419
:104194001c433900a64207d964190139a54203d842
:1041a400a64201d9b91e641963461a04a41b0a4322
:1041b400b6e7202223000199121ad3408440d1404b
:1041c400019a8540824021438c46290cb3fbf1f4cb
:1041d40001920a00624326009b1a6246afb27e43f4
:1041e400120c1b04134322009e4207d95b19013aa7
:1041f4009d4203d89e4201d9a21e5b199b1bb3fbaf
:10420400f1f671435b1a614677438cb21b041c437d
:104214003100a74207d964190139a54203d8a7423e
:1042240001d9b11e641912040a43e41b00928be7fe
:10423400009b8b420ad90a9b002b00d1abe0029a67
:1042440059601a60002300931a0070e7039800f085
:104254008bfed8b9039ba34203d3029b02009e4268
:104264000ad8029b01229e1b039b0196e41a029b1f
:10427400b342ad416d42671b0a9b0093002b00d1f2
:1042840055e7019982c30023009350e720231b1aaa
:1042940001933300019a039fd34087401f432300b7
:1042a4000199d340029a8440ca4022439446029a18
:1042b400390c8240b3fbf1f402920a008640624357
:1042c400009626009b1a6246bdb26e43120c1b0474
:1042d400134322009e4207d9db19013a9f4203d8b7
:1042e4009e4201d9a21edb199e1bb6fbf1f4634664
:1042f40061436543761a360499b20e432300b542ee
:1043040007d9f619013bb74203d8b54201d9a31e18
:10431400f61912041a436b461c88009b711b8c46c9
:10432400190c230096b2150c6c4373434d4371432f
:104334001e0c091971188c4202d9802464022d19ab
:104344000c0c9bb209046519c918ac4503d30bd1f5
:10435400029b8b4208d2009b013ace1ab14289419a
:104364004942cf193100ed1b0a9b0093002b00d169
:10437400dde6029b019c591a63465d1b029b8b423e
:104384009b415b42ed1a2b00c140a340c540194339
:0a4394000a9b22c377e70a9b55e756
:020000040000fa
:02439e00704766
:020000040000fa
:1043a00080b500af43f20023c4f200031a6943f260
:1043b0000023c4f2000308218a431a6143f2002358
:1043c000c4f200031a6943f20023c4f2000304217b
:1043d0008a431a61c046bd4680bd80b500af43f236
:1043e0000023c4f2000390229a5843f20023c4f23f
:1043f000000309490a4090215a5043f20023c4f2b5
:1044000000031a6943f20023c4f2000303490a407f
:104410001a61c046bd4680bdffff7ffffffff7ff6b
:1044200080b500af43f20023c4f200031a6943f2df
:104430000023c4f2000308218a431a6143f20023d7
:10444000c4f200031a6943f20023c4f200030421fa
:104450000a431a61c046bd4680bd80b500af43f235
:104460000023c4f2000390229a5843f20023c4f2be
:104470000003802109040a4390215a5043f200238b
:10448000c4f200031a6943f20023c4f20003034993
:104490000a401a61c046bd4680bdc046fffff7ff17
:1044a00080b500af43f20023c4f200031a6943f25f
:1044b0000023c4f2000308210a431a6143f20023d7
:1044c000c4f200031a6943f20023c4f2000304217a
:1044d0008a431a61c046bd4680bd80b500af43f235
:1044e0000023c4f2000390229a5843f20023c4f23e
:1044f00000030a490a4090215a5043f20023c4f2b3
:1045000000031a6943f20023c4f200038021090367
:104510000a431a61c046bd4680bdc046ffff7fff0b
:1045200080b500af43f20023c4f2000390229a58f2
:1045300043f20023c4f2000308210a4390215a5099
:10454000fff74bfffff72cffc046bd4680bd80b58f
:1045500000af43f20023c4f2000390229a5843f2c2
:104560000023c4f2000308210a4390215a50fff7a8
:1045700074fffff795ffc046bd4680bd80b500af14
:1045800043f20023c4f2000390229a5843f200231e
:10459000c4f2000308210a4390215a50fff79dffff
:1045a000fff73effc046bd4680bd80b500af43f279
:1045b0000023c4f2000390229a5843f20023c4f26d
:1045c000000308210a4390215a50fff746fffff7e6
:1045d00027ffc046bd4680bd80b500af43f2002333
:1045e000c4f2000390229a5843f20023c4f200035d
:1045f00008210a4390215a50fff76ffffff750ff41
:08460000c046bd4680bdc04666
:020000040000fa
:1046080080b582b000af40f21833c2f200031b68d5
:104618007b60c04640f21833c2f200031b687a6818
:104628009a42f0d17b681800bd4602b080bd80b5c3
:1046380000affef754fb40f21c33c2f200031b68c4
:104648005a1c40f21c33c2f200031a6016e040f212
:104658001c33c2f200031b68403b1a0040f21c33b3
:10466800c2f200031a6040f21833c2f200031b685a
:104678005a1c40f21833c2f200031a6040f21c338d
:10468800c2f200031b683f2be1dc40f21433c2f294
:1046980000031b685a1c40f21433c2f200031a606c
:1046a800c046bd4680bd80b500af42f60023c4f2c7
:1046b80000035b69012213405bb142f60023c4f298
:1046c80000035a6942f60023c4f2000301210a4399
:1046d8005a61c046bd4680bd80b500af42f6002392
:1046e800c4f200035b69022213405bb142f6002367
:1046f800c4f200035a6942f60023c4f200030221ff
:104708000a435a61c046bd4680bd80b500af42f637
:104718000023c4f200035b69042213405bb142f634
:104728000023c4f200035a6942f60023c4f20003ce
:1047380004210a435a61c046bd4680bd80b500af1a
:1047480042f60023c4f200035b6940221340c3b160
:1047580040f22003c2f200031b88022213439ab2dc
:1047680040f22003c2f200031a8042f60023c4f28a
:1047780000035a6942f60023c4f2000340210a43a9
:104788005a61c046bd4680bd80b584b000af786030
:1047980039603a687b689a4204d87a683b68d31ac9
:1047a800fb6007e03a687b68d31afb60c046fb6889
:1047b8000233fb60fb681800bd4604b080bd80b5bd
:1047c80082b000af40f21433c2f200031b687b6072
:1047d800c04640f21433c2f200031b681a007b681b
:0e47e8009342efd17b681800bd4602b080bd41
:020000040000fa
:1047f60030b405004d400124e407254042004b003b
:10480600120e32d01b0e3cd0ff2a33d0ff2b3fd0e6
:10481600d21800022043000a09022143090ac4b241
:104826004c43000ac3b24b43000a4843210a5b18b3
:10483600190a091801d44900013a080a7f3a2adb05
:10484600fe2a0fd2d2051c43240601d0012421439f
:10485600c9b280295041802901d14008400028432f
:1048660030bc7047ff20c005f9e71b0eff2b0ad0ae
:104876002800f5e7400206d1ff2bf3d1490202d109
:10488600f0e7ff2af4d17f2000010c300005e7e7ae
:104896004902f8d1e6e743020132e9d15b1202335d
:0648a600e6d9d805e4e7a5
:020000040000fa
:1048ac0010b588293ad014dc81294ad003dc802940
:1048bc0047d0002010bd822910d08429f9d1196865
:1048cc002ab30a1d1a6000228b5e0360db1743605b
:1048dc0010e0a0292ed00fdc9029ead1196807240a
:1048ec006ab30919a1430a0008321a600b684c68b4
:1048fc00036044600120dde7c02901d0f029d8d144
:10490c001a68111d1960136803600023dfe70c1d82
:10491c001c600b689bb203604260ebe7196822b124
:10492c000a1d1a600023cb56cfe70c1d1c600b68c8
:10493c00dbb2f0e71a68111d19601368c5e707317f
:10494c00d0e719681ab10a1d1a600b68bde70c1d77
:06495c001c600b68dfe7a0
:020000040000fa
:10496200f0b54b6889b005930b6807009c46079326
:10497200cb680c008e6810685168cd0f0493002d2f
:1049820041d00b000200002150429941059b002baf
:1049920007db022263469343079315b9079b5a0725
:1049a20028d5731e07aa02920a22009301920b00d5
:1049b2000200200000f047f915b9079b5a071dd5e0
:1049c20001382d2305b9023b049a135423695a1e58
:1049d200049b121a1918079b38000093330000f049
:1049e200f5f87b68db0503d56368984200da1800a6
:1049f20009b0f0bd1b07db0ff31ad3e71b07e5d5a0
:0e4a020001382023e0e7059b002bc2dac6e74f
:020000040000fa
:104a100080b500af43f20023c4f200031b6a40f6e6
:104a2000000213400bb9002300e001231800bd462b
:104a300080bd80b500af01231800bd4680bd80b5a4
:104a400000af01231800bd4680bd80b500af43f222
:104a50000023c4f200031b6a40f6000213400bb9a6
:104a6000002300e001231800bd4680bd80b500afe3
:104a700043f20023c4f200031b6a40f200421340d9
:104a80000bb9002300e001231800bd4680bd80b5ae
:104a900000af43f20023c4f200031b6a40f200227d
:104aa00013400bb9002300e001231800bd4680bd70
:020000040000fa
:104ab0003803002004000000010000000000000096
:104ac000e80200201c0000000000000000000020a0
:104ad000cc01000000000000040300201c000000c6
:104ae00000000000cc010020a80000000000000031
:104af0003c0300200400000001000000e703000068
:104b0000c40200202100000000000000200300205b
:104b1000100000000000000074020020500000009f
:104b2000000000003003002008000000000000002a
:104b3000400300200400000001000000000000000d
:104b40000000000000000000666666666666666635
:020000040000fa
:104b500040f20003c0f2000323b140f20003c0f2b0
:104b60000003984740f20003c0f2000323b140f273
:104b70000003c0f20003984700f016fa40f2000369
:104b8000c0f200037f2293434ef60052cef20002a1
:104b9000936044f62553c0f20003984740f20003a7
:104ba000c0f2000323b140f20003c0f200039847b3
:104bb00040f20003c0f2000323b140f20003c0f250
:0e4bc0000003984700210020fcf7fbfffee7f2
:020000040000fa
:104bce00f0b51d00012389b014000e9a06001a409c
:104bde00039102920ab9a5420ad822000399300025
:104bee0000f024faa54203d82500280009b0f0bd34
:104bfe002f1b01973a00102f00d91022202104a854
:104c0e0000f09dfa019b0f2b0ed80f2204a93a40fb
:104c1e00300000f00bfa029b002be6d12200039924
:104c2e00300000f003fae0e7102204a9300000f093
:0a4c3e00fdf9019b103b0193e4e730
:020000040000fa
:104c4800f7b5040019000a9fe368666800933b689b
:104c5800100001932369013b1c00002e00da012695
:104c68000022009dea5435000123002c02dce3b148
:104c78002000febd02000a434ab9002d07dc089a4d
:104c8800921b5219002af2dd019a9207efd5099b6f
:104c9800099adb1700f008f98c460099013c1300cb
:104ca80030320a55013d6146dfe710233a689a43de
:044cb8003a60dde79a
:020000040000fa
:104cbc0010b584291fd007dc812915d0822922d078
:104ccc00802911d0002010bd90291cd008dc882927
:104cdc00f8d119680c1d1c600b6803601a7010e089
:104cec00a02901d0c029edd119680c1d1c600b68de
:104cfc0003601a6005e019680c1d1c600b680360ea
:104d0c001a800120dfe719680c1d1c600b6803601a
:084d1c001a60d2175a60f4e797
:020000040000fa
:104d240000230e4a10b513600d4a0e4c13600e4a50
:104d340013600e4a13600e4a13600e4a53621361e5
:104d44000133936000f045f800f043f80a4b9c42ad
:104d540000d310bd08cc9847f8e7c04630030020c4
:104d640080020020680100007c0200207402002000
:0c4d740078020020840200206c01000086
:020000040000fa
:104d8000f0b50b680c008f68cd68496887b00600e5
:104d90000593002902db02218b43059305a9536883
:104da000126802910a21009701912000fff74cff41
:104db000236929185a1e059b121a009330003b00e4
:104dc000fff705ff7368db0503d56368984200dad7
:064dd000180007b0f0bd61
:020000040000fa
:024dd600704724
:020000040000fa
:104dd800f0b50f00150087b0039007220e4904a80c
:104de8001c0000f0b9f9bb687e6802933f6805b9fa
:104df80004ad1cb9280000f079f90400002e02db8c
:104e0800b44200d934000097029b2200290003987d
:0c4e1800fff7d9fe07b0f0bda451000068
:020000040000fa
:104e240030b51500012289b0524201920432ff329a
:104e3400029200b9684603900491002401b14c1e0b
:104e44000594002906da4f220120074b40421a60dc
:104e540009b030bd00220790027006901a002900a4
:0c4e640001a800f038f9f3e73403002047
:020000040000fa
:104e700010b5054c227832b9044b13b1044800e058
:104e800000bf0123237010bde802002000000000d5
:104e900000000000034b10b51bb10349034800e0bc
:104ea00000bf10bd00000000ec0200200000000068
:020000040000fa
:104eb000002b11d1002a0fd1002900d1002802d0e7
:104ec0000021c943081c07b4024802a140180290ff
:104ed00003bdc046e902000003b4684601b502986c
:104ee000fff7d0f8019b9e4602b00cbc7047c0464d
:020000040000fa
:104ef0004200110e7f390fd40123db0749421f31d5
:104f00000cdd400003d2c0011843c8407047c00107
:104f10001843c8404042704700207047ff210906ef
:0e4f20008a4200d99843184000d4d843704705
:020000040000fa
:104f2e00030010b51a78202a0dd011000939042972
:104f3e0009d900212b2a02d02d2a01d101310133aa
:104f4e0000200a2404e00133ece760430133801aa9
:0e4f5e001a78303a092af8d901b9404210bd3c
:020000040000fa
:104f6c001c2101231b04984201d3000c10391b0a8d
:104f7c00984201d3000a08391b09984201d3000951
:104f8c00043902a2105c40187047c04604030202a8
:0c4f9c0001010101000000000000000005
:020000040000fa
:104fa80010b50a48016821b9436813b9fff7f3f946
:104fb80010bd04008368064a9bb20c349b009b58c2
:104fc80042682000984780002018ebe7b04a0000ac
:044fd800385100004c
:020000040000fa
:104fdc0070b5040000200a4b4200d55c15b9d218fc
:104fec00507870bd216801300e78c0b2ae4204d149
:104ffc00034b0131d218507821600a28ebd9f0e725
:04500c00225100002d
:020000040000fa
:10501000002380290fdb812901dd83290bd10721a2
:10502000136807338b431900083111601a685b68f5
:0a503000026043600123180070477e
:020000040000fa
:10503a0070b505690400954200d915005db12a00d2
:10504a00606900f088f8226963695b19551b0022c0
:08505a00636125611a7070bd4d
:020000040000fa
:10506200c20f12029d3201000cd001d5494202d476
:10507200013a4900fcd5d205080a0906494100d384
:06508200012950417047b6
:020000040000fa
:10508800002310b5934206d103201840421e9041d8
:0e5098009b08c01810bdc45ccc540133f2e775
:020000040000fa
:1050a60030b50024a24207d0035d4d1e01342d5dac
:0c50b600ab42f7d0581b00e0002030bdda
:020000040000fa
:1050c20010b5fff74dfcfff786fefff758fefff71e
:0850d200ecfbfff7f2fd10bd3d
:020000040000fa
:1050da0013b50400019201aafef737fe6368db06e6
:0850ea0001d50120404216bd72
:020000040000fa
:1050f400037833b1030001331a78002afbd1181a5c
:0851040070470020fce7c046e3
:020000040000fa
:10510c000cb407b504ab04cb0193fff785fe03b0d9
:06511c0008bc02b01847b8
:020000040000fa
:1051220068076c094c836a9074a07ac00080688812
:0651320000846c82008184
:020000040000fa
:105138007551000089500000ad510000ad510000cc
:04514800ad51000065
:020000040000fa
:10514c0032b10300c9b28218197001339342fbd1fa
:04515c007047c04692
:020000040000fa
:1051600010b52ab10023cc5cc45401339342fad168
:0451700010bdc04668
:020000040000fa
:105174008a18914201d10020704700230b7001313d
:02518400f7e74b
:020000040000fa
:0e5186000300413b192b01d82023184370472a
:020000040000fa
:08519400286e696c290025005a
:020000040000fa
:08519c0010b5fff7f2ff10bd92
:020000040000fa
:0751a400286e756c6c2900f8
:020000040000fa
:0451ac000020704728
:020000040000fa
:0451b0000020704724
:020000040000fa
:0451b4000020704720
:020000040000fa
:0451b800002070471c
:020000040000fa
:0451bc007047c04632
:00000001FF
