:020000040000fa
:10000000f07f002071260000ef250000ef250000a2
:1000100000000000000000000000000000000000e0
:10002000000000000000000000000000ef250000bc
:100030000000000000000000ef2500002f24000059
:10004000ef250000ef250000ef250000a7240000a9
:10005000d92400000b250000ef250000ef2500004b
:10006000ef2500003d250000ef250000ef250000f2
:10007000ef250000ef250000ef250000ef25000030
:10008000ef250000ef250000ef250000ef25000020
:10009000ef250000ef250000ef250000ef25000010
:1000a000ef250000ef250000ef250000ef25000000
:1000b000ef250000ef250000ef250000ef250000f0
:1000c000ef250000ef250000ef250000ef250000e0
:1000d000ef250000ef250000ef250000ef250000d0
:1000e000ef250000ef250000ef250000490e00007d
:1000f000ef2500004f0f0000ef250000ef25000066
:10010000ef250000ef250000ef250000ef2500009f
:10011000ef250000ef250000ef250000ef2500008f
:10012000ef250000ef250000ef250000ef2500007f
:10013000ef250000ef250000ef250000ef2500006f
:10014000ef250000ef250000ef250000ef2500005f
:0c015000ef250000ef250000ef25000067
:020000040000fa
:10015c00f8b5c046f8bc08bc9e4670477127000035
:10016c00f8b5c046f8bc08bc9e4670474d27000049
:020000040000fa
:10017c0080b582b000af0200fb1d1a70fb1d1b780e
:10018c007f2b12d8fb1d1b781a001f231a4011005d
:10019c004ef20013cef20003fa1d127852b252093d
:1001ac000120884001009200d150c046bd4602b0eb
:1001bc0080bd90b583b000af02003960fb1d1a7092
:1001cc00fb1d1b787f2b2fd84ef20013cef20003b1
:1001dc00fa1d127852b29208c0329200d358fa1d0e
:1001ec001278110003220a40d200ff2191400a002c
:1001fc00d2431a4010003b689b01ff221a40fb1da2
:10020c001b78190003230b40db009a4011004ef2bf
:10021c000013cef20003fa1d127852b29208014379
:10022c00c0329200d15037e04ef60053cef20003ac
:10023c00fa1d127811000f220a40083a9208063271
:10024c0092009b1804331b68fa1d127811000322cc
:10025c000a40d200ff2191400a00d2431a401000fc
:10026c003b689b01ff221a40fb1d1b7819000323de
:10027c000b40db009a404ef60053cef20003f91d02
:10028c0009780c000f2121400839890802430631f6
:10029c0089005b1804331a60c046bd4603b090bd9c
:1002ac0080b500af00f029f800f0e0f800f002fa99
:1002bc0000f0f7fa4ef21003cef2000340f6a662fd
:1002cc005a60c046bd4680bd80b500af00f0d7fb7c
:1002dc0000f096fb00f078fb03212b20fff769ff61
:1002ec0003212d20fff765ff2b20fff741ff2d2069
:1002fc00fff73effc046bd4680bd80b582b000af63
:10030c0000237b6040f20043c4f2000301229a7187
:10031c0040f20043c4f2000302229a7000e0c0468f
:10032c0040f20043c4f200039b79dbb21a000123b4
:10033c001340002bf3d040f20043c4f2000301221f
:10034c009a7145f20003c4f2001306225a6041f67a
:10035c000003c4f2000340f202221a6200e0c0461d
:10036c0041f60003c4f20003da688023db02134079
:10037c00002bf4d041f20003c4f2000300221a86d1
:10038c0000e0c04641f20003c4f200031a69802366
:10039c005b041340002bf4d046f22003c0f2800320
:1003ac001a68fc23db0513407b60c0467b68db0bc3
:1003bc007b607b6840f2002213437b6041f20003b8
:1003cc00c4f200037a685a6300e0c04641f20003ad
:1003dc00c4f200031a6980235b041340002bf4d091
:1003ec0041f20003c4f200031b8e9ab241f20003e7
:1003fc00c4f2000302210a4392b21a8600e0c046fe
:10040c0041f20003c4f200031a6980235b04134019
:10041c00002bf4d041f60043c4f2000340f2051265
:10042c00c0f201029a6200e0c04641f60043c4f2f9
:10043c0000035b6810221340002bf5d141f60043fa
:10044c00c4f2000340f20712c0f202021a6200e08a
:10045c00c04641f60043c4f200035b68042213401b
:10046c00002bf5d1c046bd4602b080bd80b500afb3
:10047c0043f20023c4f2000301225a6043f200232a
:10048c00c4f2000340220221995443f20023c4f227
:10049c00000302225a6043f20023c4f200034122fb
:1004ac000221995443f20023c4f2000304225a613e
:1004bc0043f20023c4f2000304229a6043f20023a7
:1004cc00c4f2000308225a6143f20023c4f2000371
:1004dc0008229a6043f20023c4f2000340225a61be
:1004ec0043f20023c4f2000340229a6043f200233b
:1004fc00c4f2000380225a6143f20023c4f20003c9
:10050c0080229a6043f20023c4f2000340f20022de
:10051c005a6043f20023c4f2000349220221995489
:10052c0043f20023c4f2000340f200425a6043f24b
:10053c000023c4f200034a220221995443f20023ff
:10054c00c4f2000340f600025a6043f20023c4f2e6
:10055c0000034b220221995443f20023c4f20003fe
:10056c0044f200025a6143f20023c4f2000344f245
:10057c0000029a6043f20023c4f2000348f2000226
:10058c005a6143f20023c4f2000348f200029a605d
:10059c0043f20023c4f20003802212035a6143f297
:1005ac000023c4f20003802212039a6043f200235a
:1005bc00c4f20003802292025a6043f20023c4f278
:1005cc00000351220221995443f20023c4f2000388
:1005dc008022d2025a6043f20023c4f2000352225a
:1005ec000221995443f20023c4f2000380225203e7
:1005fc005a6143f20023c4f20003802252039a6032
:10060c0043f20023c4f20003802292035a6043f2a7
:10061c000023c4f2000355220221995443f2002313
:10062c00c4f200038022d2035a6043f20023c4f2c6
:10063c00000356220221995443f20023c4f2000312
:10064c00802212045a6043f20023c4f200035722a2
:10065c000221995443f20023c4f20003942208218e
:10066c00995043f20023c4f20003882208219950c8
:10067c0043f20023c4f2000384218022d2035a5097
:10068c0043f20023c4f2000356220221995443f290
:10069c000023c4f200039421802212045a5043f226
:1006ac000023c4f200038821802212045a50c04651
:1006bc00bd4680bd80b582b000affb1d00221a7014
:1006cc0041f60043c4f2000390224221995000e00d
:1006dc00c04641f60043c4f2000390229b584022ce
:1006ec001340002bf4d042f60023c4f20003012285
:1006fc001a7000e0c04642f60023c4f200035b68a7
:10070c0001221340002bf5d142f60023c4f2000362
:10071c0040f6aa22c0f20022da6142f60023c4f2ab
:10072c0000031a6b42f60023c4f2000303210a43b0
:10073c001a6342f60023c4f200030e225a6342f6f7
:10074c000023c4f2000347221a6143f20023c4f2cf
:10075c000003fa1d3b215b5c1370fb1dfa1d127824
:10076c000f210a401a70fb1dfa1d12781a7043f201
:10077c000023c4f20003fa1d3b2112785a5443f2b1
:10078c000023c4f2000357229b5cdab243f200232d
:10079c00c4f2000301210a43d1b25722995443f207
:1007ac000023c4f20003fa1dbb215b5c1370fb1d1c
:1007bc00fa1d12780f218a431a70fb1dfa1d12784c
:1007cc001a7043f20023c4f20003fa1dbb21127805
:1007dc005a5443f20023c4f20003d6229b5cdab2d3
:1007ec0043f20023c4f2000301210a43d1b2d62202
:1007fc00995443f20023c4f20003fa1d30215b5cd0
:10080c001370fb1dfa1d12780f218a431a70fb1d01
:10081c00fa1d12781a7043f20023c4f20003fa1d79
:10082c00302112785a5443f20023c4f200034022c0
:10083c009b5cdab243f20023c4f2000301210a43a9
:10084c00d1b24022995443f20023c4f20003fa1da2
:10085c0030215b5c1370fb1dfa1d12780f210a40ce
:10086c001a70fb1dfa1d12781a7043f20023c4f2a1
:10087c000003fa1d302112785a5443f20023c4f2bb
:10088c00000341229b5cdab243f20023c4f2000362
:10089c0001210a43d1b241229954c046bd4602b04f
:1008ac0080bd80b582b000af41f60043c4f20003b6
:1008bc00ec224221995000e0c04641f60043c4f2bc
:1008cc000003ec229b5840221340002bf4d043f23f
:1008dc000043c4f2002301221a6000e0c04643f238
:1008ec000043c4f200239b6801221340002bf5d176
:1008fc0043f20043c4f200231a6843f20043c4f2eb
:10090c00002340f200410a431a6043f20043c4f250
:10091c0000230222da6343f20043c4f20023632271
:10092c001a6443f20043c4f2002300225a6443f2d7
:10093c000043c4f2002300229a6400e0c04643f254
:10094c000043c4f200239b68a0221340002bf5d176
:10095c0043f20023c4f2000333229b5cdbb27b60c6
:10096c007b68ff2293437b607b68992213437b60f7
:10097c0043f20023c4f200037a68d1b233229954b3
:10098c0043f20023c4f2000346229b5cdab243f22a
:10099c000023c4f2000341210a43d1b246229954e8
:1009ac0043f20023c4f2000347229b5cdab243f209
:1009bc000023c4f2000341210a43d1b247229954c7
:1009cc00c046bd4602b080bd80b500af43f20043c7
:1009dc00c4f200231a6843f20043c4f2002302213c
:1009ec000a431a6000e0c04643f20043c4f20023fd
:1009fc009b6802221340002bf5d1c046bd4680bd3a
:100a0c0080b500af42f60023c4f2000302221a7034
:100a1c0000e0c04642f60023c4f200035b680222e9
:100a2c001340002bf5d142f60023c4f200034ff61d
:100a3c00ff725a6102210320fff7bbfb0320fff773
:100a4c0097fb03210420fff7b4fb0420fff790fb76
:100a5c0003210520fff7adfb0520fff789fb0321e0
:100a6c000920fff7a6fb0920fff782fb4ef21003cb
:100a7c00cef2000307221a60c046bd4680bd80b589
:100a8c0084b000af0023fb6043f20023c4f20003e8
:100a9c00b1229b5cdbb2fb60fb680f229343fb60d3
:100aac00fb6801221343fb6043f20023c4f20003f2
:100abc00fa68d1b2b122995443f20023c4f2000374
:100acc00c1229b5cdab243f20023c4f20003012181
:100adc000a43d1b2c122995441f60043c4f2000337
:100aec00f0224221995000e0c04641f60043c4f286
:100afc000003f0229b5840221340002bf4d043f605
:100b0c000003c4f200231b78dab243f60003c4f2ec
:100b1c00002301210a43d2b21a7000e0c04643f60a
:100b2c000003c4f200231b8c9bb21a000123134058
:100b3c00002bf3d143f60003c4f200239b78dab206
:100b4c0043f60003c4f2002305210a43d2b29a7083
:100b5c0043f60003c4f200235b899ab243f6000308
:100b6c00c4f2002320210a4392b25a8143f60003b7
:100b7c00c4f2002304225a7043f60003c4f200238b
:100b8c001b899ab243f60003c4f200230a210a43dc
:100b9c0092b21a8143f60003c4f200231b899ab265
:100bac0043f60003c4f2002341f600010a4392b25b
:100bbc001a8146f22003c0f280031b68bb60bb1d88
:100bcc0000221a80bb689bb21b029bb21bb240f284
:100bdc00007213401ab2bb1d00215b5e13431ab2a4
:100bec00bb1d1a80bb68db089bb20722134099b26d
:100bfc00bb1dba1d12880a431a8043f60003c4f2c7
:100c0c000023ba1d12889a8543f60003c4f2002310
:100c1c001b78dab243f60003c4f2002302210a4324
:100c2c00d2b21a7000e0c04643f60003c4f20023af
:100c3c001b8c9bb21a0002231340002bf3d143f6fa
:100c4c000003c4f200235b899ab243f60003c4f29a
:100c5c00002304210a4392b25a8143f60003c4f2e2
:100c6c00002302221a76c046bd4604b080bd80b572
:100c7c0082b000af4ef60053cef20003db687b600f
:100c8c007b68042293437b607b68054a53407b60fe
:100c9c004ef60053cef200037a68da60c046fde7e8
:040cac000400ffff42
:020000040000fa
:100cb00080b500af41f60043c4f20003d0224221c8
:100cc000995000e0c04641f60043c4f20003d02230
:100cd0009b5840221340002bf4d040f2ec03c2f2a8
:100ce0000003a8220021180001f092fd41f2000348
:100cf000c4f2002301221a6000e0c04641f2000362
:100d0000c4f20023db6901221340002bf5d141f22c
:100d10000003c4f2002304221a6041f20003c4f26b
:100d200000231a6841f20003c4f200238021c905a0
:100d30000a431a6041f20003c4f200231a6841f228
:100d40000003c4f20023802149030a431a6041f2e0
:100d50000003c4f2002300225a6041f20003c4f2ef
:100d60000023802212059a6041f20003c4f200239e
:100d7000344a9a8141f20003c4f200235a6841f2d6
:100d80000003c4f20023c32109040a435a6000e0af
:100d9000c04641f20003c4f20023db690422134081
:100da000002bf5d143f20023c4f20003942240f259
:100db0000021995043f20023c4f20003842240f240
:100dc0000021995043f20023c4f20003982240f21c
:100dd0000011995043f20023c4f20003882240f22c
:100de0000011995043f20023c4f20003b4223321ce
:100df000995443f20023c4f20003c92203219954f9
:100e000043f20023c4f20003c8224121995441f265
:100e10000003c4f200231a6841f20003c4f2002365
:100e200002210a431a6000e0c04641f20003c4f206
:100e30000023db6906221340002bf5d1c046bd46d6
:100e400080bdc04605c5ffff80b500af40f2ec0392
:100e5000c2f20003a4229b5cdbb2022b00d073e041
:100e600066e040f2ec03c2f2000384229b584bb3cd
:100e700040f2ec03c2f200031a681100083140f29c
:100e8000ec03c2f20003196040f2ec03c2f200036b
:100e900088215b1803ca03c340f2ec03c2f20003cb
:100ea00084229b585a1e40f2ec03c2f200038421b4
:100eb0005a5040f2ec03c2f200038c229b58002be4
:100ec000cfd000e0c04640f2ec03c2f200038c2217
:100ed0009b586bb941f20003c4f2002301221a753a
:100ee00040f2ec03c2f20003a422002199542ce04a
:100ef00040f2ec03c2f2000388229a58511c40f2df
:100f0000ec03c2f2000388201950127841f200036a
:100f1000c4f200239a6240f2ec03c2f200038c2276
:100f20009b585a1e40f2ec03c2f200038c215a5027
:100f300041f20003c4f200231b7edbb21a0001233e
:100f40001340002bb5d100e0c046bd4680bd90b532
:100f500083b000af40f2ec03c2f20003a5229b5c19
:100f6000dbb2022b00d0b0e0a2e041f20003c4f2f9
:100f70000023ba1d5b8b1380c04641f20003c4f20c
:100f800000239b6a3b6040f2ec03c2f2000398220c
:100f90009a5840f2ec03c2f20003a0215b589a4237
:100fa00009d340f2ec03c2f200039c22995c0420b6
:100fb000014399547ce0bb1d1b880122134043b1bf
:100fc00040f2ec03c2f200039c22995c0120014331
:100fd0009954bb1d1b88022213409bb140f2ec03c5
:100fe000c2f200039c22995c0220014399543b68a1
:100ff00043b940f2ec03c2f200039c22995c10203a
:1010000001439954bb1d1b880422134043b140f295
:10101000ec03c2f200039c22995c04200143995422
:10102000bb1d1b882022134043b140f2ec03c2f2e7
:1010300000039c22995c08200143995440f2ec0380
:10104000c2f200039422995840f2ec03c2f200036a
:1010500098229a58501c40f2ec03c2f200039824e4
:1010600018518b183a68d2b21a7040f2ec03c2f2ef
:10107000000390220021995040f2ec03c2f20003d9
:1010800098229a5840f2ec03c2f20003a0215b5868
:101090009a420dd341f20003c4f2002304221a75d0
:1010a00040f2ec03c2f20003a522032199540de0a3
:1010b00041f20003c4f200231b7edbb21a000423ba
:1010c0001340002b00d050e700e0c046bd4603b0ff
:1010d00090bd80b500af40f2ec03c2f20003a52240
:1010e0009b5cdbb2022b2ad140f2ec03c2f200037c
:1010f00098229b582bb340f2ec03c2f200039022db
:101100009b585a1c40f2ec03c2f2000390215a5043
:1011100040f2ec03c2f2000390229b58062b11d937
:1011200041f20003c4f2002304221a7540f2ec03da
:10113000c2f20003a52203219954c04602e0c04632
:1011400000e0c046bd4680bd80b584b000af786089
:1011500039607b680bb13b680bb9012388e040f232
:10116000ec03c2f20003a4229b5cdbb20bb10023b0
:101170007ee040f2ec03c2f20003a4220121995464
:1011800041f20003c4f200235a6841f20003c4f2a2
:1011900000238021c9030a435a6000e0c04641f29f
:1011a0000003c4f20023db6904221340002bf5d1b5
:1011b00040f2ec03c2f2000388220021995040f271
:1011c000ec03c2f200038c220021995040f2ec03a0
:1011d000c2f20003284a1a600023fb6040f2ec03cd
:1011e000c2f2000384220021995027e0fb68db0053
:1011f0007a68d318bb60bb685b68dbb1bb681b68ef
:10120000c3b140f2ec03c2f2000384229a58511c8d
:1012100040f2ec03c2f200038420195040f2ec03c8
:10122000c2f20003d20004219b185b18ba6803cafb
:1012300003c300e0c046fb680133fb6040f2ec03ef
:10124000c2f2000384229b580f2b03d8fa683b6834
:101250009a42cbd340f2ec03c2f20003a422022153
:10126000995441f20003c4f2002301229a7501232c
:101270001800bd4604b080bdf000002080b500af6e
:1012800041f20003c4f2002301221a7540f2ec037c
:10129000c2f20003a4220121995441f20003c4f2d6
:1012a00000235a6841f20003c4f200238021c903dd
:1012b0000a435a6000e0c04641f20003c4f2002332
:1012c000db6904221340002bf5d100e0c04641f257
:1012d0000003c4f200231b7edbb21a00022313407a
:1012e000002bf3d040f2ec03c2f20003882200216d
:1012f000995040f2ec03c2f200038c220021995075
:1013000040f2ec03c2f2000300221a6040f2ec0348
:10131000c2f2000384220021995040f2ec03c2f291
:101320000003a42200219954c046bd4680bd80b56b
:1013300000af40f2ec03c2f20003a4229b5cdbb2dc
:101340005a1e9341dbb21800bd4680bd80b582b005
:1013500000af786039607b680bb13b680bb9012343
:101360004ae040f2ec03c2f20003a5229b5cdbb230
:101370000bb1002340e040f2ec03c2f20003a522cf
:10138000012199541e4b0c220021180001f040fa53
:1013900040f2ec03c2f2000394217a685a5040f202
:1013a000ec03c2f20003a0213a685a5041f2000354
:1013b000c4f200235a6841f20003c4f200238021e2
:1013c00009040a435a6000e0c04641f20003c4f237
:1013d0000023db6904221340002bf5d140f2ec031b
:1013e000c2f20003a5220221995441f20003c4f283
:1013f000002304229a7501231800bd4602b080bd67
:101400008001002080b500af41f20003c4f2002348
:1014100004221a7540f2ec03c2f20003a522012156
:10142000995441f20003c4f200235a6841f20003c8
:10143000c4f20023802109040a435a6000e0c04638
:1014400041f20003c4f20023db6904221340002ba5
:10145000f5d1084b0c220021180001f0d9f940f217
:10146000ec03c2f20003a52200219954c046bd46f8
:1014700080bdc0468001002090b583b000af786089
:101480007b680bb9002321e040f2ec03c2f20003b9
:10149000a5229b5cdbb2032b01d0002316e07a6807
:1014a00040f2ec03c2f2000394215b1813cb13c289
:1014b000084b0c220021180001f0aaf940f2ec03bd
:1014c000c2f20003a5220021995401231800bd4651
:1014d00003b090bd8001002080b500af40f2ec0366
:1014e000c2f20003a5229b5cdbb25a1e9341dbb221
:0814f0001800bd4680bdc04696
:020000040000fa
:1014f80080b582b000af78603960fff714ff030051
:101508003bb17b681b88c34a13439ab27b681a8035
:101518000de27b681b885b045b0c9ab27b681a80bf
:101528007b681b88002b00d1fee17b6868220021c4
:1015380099527b681b881a0001231340002b55d051
:101548007b681b8847f6fb7213439ab27b681a8044
:101558007b681b881a00042313407bb17b68ac228c
:101568009b585a1c7b68ac215a507b68ac229b580c
:10157800072b03d97b68ac22002199507b68ac22e9
:1015880099587b6868229b5a78680133da0042f2de
:101598009803c0f20003c90082185b1803cb03c28a
:1015a8007b6868229b5a013399b27b6868229952fa
:1015b8007b6868229b5a7a680133d90041f65c43fc
:1015c800c0f200038b507b6868229b5a7a6801330b
:1015d800db00d318043340f2d8321a607b686822e3
:1015e8009b5a013399b27b68682299527b681b88a1
:1015f8001a0002231340002b00d184e17b68682283
:101608009b5a78680133da0042f29803c0f200036b
:101618003968c90082185b1803cb03c27b6868224b
:101628009b5a013399b27b68682299527b68682279
:101638009b5a7a680133d90042f2d803c0f20003fa
:101648008b507b6868229b5a7a680133db00d31879
:1016580004330c221a607b6868229b5a013399b2c2
:101668007b686822995240f20c03c2f200031b689f
:10167800042b00d972e09a00674bd3181b689f4669
:101688007b6868229b5a7a680133d90042f2e803e2
:10169800c0f200038b507b6868229b5a7a6801333a
:1016a800db00d318043304221a6057e07b686822f1
:1016b8009b5a7a680133d90042f2f003c0f2000362
:1016c8008b507b6868229b5a7a680133db00d318f9
:1016d800043307221a6041e07b6868229b5a7a68c3
:1016e8000133d90042f2f803c0f200038b507b6843
:1016f80068229b5a7a680133db00d3180433082226
:101708001a602be07b6868229b5a7a680133d900fb
:1017180042f20413c0f200038b507b6868229b5a84
:101728007a680133db00d318043305221a6015e008
:101738007b6868229b5a7a680133d90042f20c13fd
:10174800c0f200038b507b6868229b5a7a68013389
:10175800db00d318043304221a60c0467b68682271
:101768009b5a013399b27b68682299527b68682238
:101778009b5a7a680133d90042f21413c0f200036d
:101788008b507b6868229b5a7a680133db00d31838
:1017980004330c221a607b6868229b5a013399b281
:1017a8007b686822995240f20803c2f200031b6862
:1017b800012b19d0022b31d0002b45d17b68682230
:1017c8009b5a7a680133d90042f22413c0f200030d
:1017d8008b507b6868229b5a7a680133db00d318e8
:1017e800043309221a602fe07b6868229b5a7a68c2
:1017f8000133d90042f23013c0f200038b507b68ea
:1018080068229b5a7a680133db00d31804330a2212
:101818001a6019e00080ffff682100007b686822d9
:101828009b5a7a680133d90042f23c13c0f2000394
:101838008b507b6868229b5a7a680133db00d31887
:10184800043307221a60c0467b6868229b5a01331a
:1018580099b27b68682299527b6868229b5a7a6899
:101868000133d90042f24413c0f200038b507b6865
:1018780068229b5a7a680133db00d31804330c22a0
:101888001a607b6868229b5a013399b27b68682288
:1018980099523b681bb13b68012b16d02be07b6843
:1018a80068229b5a7a680133d90042f25413c0f275
:1018b80000038b507b6868229b5a7a680133db00ef
:1018c800d318043306221a6015e07b6868229b5af5
:1018d8007a680133d90042f25c13c0f200038b50de
:1018e8007b6868229b5a7a680133db00d31804337b
:1018f80009221a60c0467b6868229b5a013399b254
:101908007b68682299527b6868229b5a73b17b680e
:10191800083318007b6868229b5a1900fff710fcef
:101928007b68044a1a8002e0c04600e0c046bd4613
:1019380002b080bd0080ffff80b582b000af786044
:101948007b685b68012b16d02bb1022b29d0032ba7
:1019580000d1b8e0c2e07b68bc3314211800fff75f
:10196800f1fc0300002b00d1bae07b685b685a1ccd
:101978007b685a60b4e07b68b0331800fff778fde5
:1019880003002bb17b685b685a1c7b685a6008e0cf
:1019980000f0befc40f20c03c2f2000300221a6001
:1019a800a3e07b681b881bb2002b00da9ae07b68f7
:1019b800a822002199507b681b88022213439ab2ff
:1019c8007b681a807b685b685a1c7b685a607b68f6
:1019d800b4229b58032b45d17b68b0229b58013316
:1019e8001b785b2b3ed17b68b0229b5802331b7857
:1019f800412b06d140f20c03c2f2000301221a6007
:101a080060e07b68b0229b5802331b78422b06d1da
:101a180040f20c03c2f2000302221a6052e07b6813
:101a2800b0229b5802331b78432b06d140f20c039b
:101a3800c2f2000303221a6044e07b68b0229b587c
:101a480002331b78442b06d140f20c03c2f2000388
:101a580004221a6036e040f20c03c2f200030022ae
:101a68001a602fe07b68b4229b58012b20d97b6831
:101a7800b0229b581b781b2b1ad17b68b4229b5829
:101a8800052b1ed17b68b0229b58581c42f27c1350
:101a9800c0f200030422190000f09dfe030083b980
:101aa8007b681b88012213439ab27b681a8008e07e
:101ab80000f02efc40f20c03c2f2000300221a6070
:101ac80013e0c04611e07b681b881a0048f2020345
:101ad80013404bb97b6800225a6006e0fff7c9f84b
:101ae800c04602e0c04600e0c046c046bd4602b05f
:101af80080bd80b588b000af0023bb6100237b6147
:101b080000237b60fef7cefbfff7cef8fef7defb87
:101b180040f21c03c2f2000301221a8040f20003c3
:101b2800c2f2000300221a6043f20023c4f2000349
:101b38001b6a40f200221340012b02d101237b6172
:101b480001e000237b6143f20023c4f200031b6a17
:101b580040f200421340012b02d101233b6101e016
:101b680000233b6143f20023c4f200031b6a40f6e2
:101b780000021340012b02d101237b6101e0002305
:101b88007b6100f039fc0300fb607a68fb68110098
:101b9800180000f0f5fc0300bb6040f20003c2f23d
:101ba80000031a6840f21c03c2f200031100180077
:101bb800fff79efc40f21c03c2f200031800fff777
:101bc800bbfebb68012b01d9fb687b6040f20c03ac
:101bd800c2f200031b68042b23d89a001c4bd318ad
:101be8001b689f4600f094fb1be000f0d6fb3223f5
:101bf800fb612323bb6114e000f0e6fb3223fb61a9
:101c08002323bb610de000f09afb3223fb613223f2
:101c1800bb6106e000f0aafb3223fb613223bb6103
:101c2800c04643f20043c4f200239b68802213405d
:101c3800002b00d078e743f20043c4f20023fa698e
:101c48005a6743f20043c4f20023ba691a676be784
:041c580084210000e3
:020000040000fa
:101c5c001b5b324a1b5b313b31482b2d2d2d2d2d1f
:101c6c002d2d2d2d2d2d2d2d2d2d2d2d2d2d2d2d98
:101c7c002d2d2d2d2d2d2d2d2d2d2d2d2d2d2d2d88
:101c8c002d2d2d2d2d2d2d2d2d2d2d2d2d2d2d2d78
:101c9c002d2d2d2d2d2d2d2d2d2d2d2b0d0a7c206b
:101cac00454545203139323a20456c65637472697b
:101cbc0063616c20616e6420456c656374726f6e39
:101ccc0069637320456e67696e656572696e67201e
:101cdc004c61626f7261746f727920564920207c5e
:101cec000d0a7c2020202020202020202041636110
:101cfc0064656d6963205965617220323032352d0f
:101d0c00323032362c2053656d6573746572203217
:101d1c0020202020202020202020202020202020b7
:101d2c002020207c0d0a7c20202020202020202018
:101d3c002020202020202020202020202020202097
:101d4c002020202020202020202020202020202087
:101d5c002020202020202020202020202020202077
:101d6c00202020202020207c0d0a7c20526f6275c0
:101d7c0074742020202020202020202020202020af
:101d8c002020202020202020202020202020202047
:101d9c002020202020202020202020202020202037
:101dac0020202020202020202020207c0d0a7c2098
:101dbc002020202020202020202020202020202017
:101dcc002020202020202020202020202020202007
:101ddc0020202020202020202020202020202020f7
:101dec002020202020202020202020202020207c8b
:101dfc000d0a7c20417574686f723a204d656f77bf
:101e0c007321202020202020202020202020202072
:101e1c0020202020202020202020202020202020b6
:101e2c0020202020202020202020202020202020a6
:101e3c002020207c0d0a7c20202020202020202007
:101e4c002020202020202020202020202020202086
:101e5c002020202020202020202020202020202076
:101e6c002020202020202020202020202020202066
:101e7c00202020202020207c0d0a7c2044617465c9
:101e8c003a202020203230323620202020202020e2
:101e9c002020202020202020202020202020202036
:101eac002020202020202020202020202020202026
:101ebc0020202020202020202020207c0d0a2b2dcb
:101ecc002d2d2d2d2d2d2d2d2d2d2d2d2d2d2d2d36
:101edc002d2d2d2d2d2d2d2d2d2d2d2d2d2d2d2d26
:101eec002d2d2d2d2d2d2d2d2d2d2d2d2d2d2d2d16
:101efc002d2d2d2d2d2d2d2d2d2d2d2d2d2d2d2b08
:101f0c000d0a7c20494e535452554354494f4e535d
:101f1c003a20486176652066756e212020202020ad
:101f2c0020202020202020202020202020202020a5
:101f3c002020202020202020202020202020202095
:101f4c002020207c0d0a2b2d2d2d2d2d2d2d2d2dd2
:101f5c002d2d2d2d2d2d2d2d2d2d2d2d2d2d2d2da5
:101f6c002d2d2d2d2d2d2d2d2d2d2d2d2d2d2d2d95
:101f7c002d2d2d2d2d2d2d2d2d2d2d2d2d2d2d2d85
:101f8c002d2d2d2d2d2d2d2b0d0a0d0a446972652d
:101f9c006374696f6e3a200d0a53706565643a205c
:101fac000d0a4d6f64653a200d0a556c747261739d
:101fbc006f6e69632073656e736f722064617461f8
:101fcc003a20202020204c4546543a202020202026
:101fdc002043454e5445523a2020202020202020da
:101fec002052494748543a200d0a496e6672617274
:101ffc0065642073656e736f7220646174613a203e
:10200c002020202020204c4546543a2020202020ff
:10201c002043454e5445523a202020202020202099
:10202c002052494748543a200000c0461b5b3337c6
:10203c003b34306d0000c0461b5b33363b34306d97
:10204c000000c0461b5b33353b34306d0000c0468e
:10205c001b5b33333b34306d0000c0461b5b3937a0
:10206c003b34316d0000c0461b5b39323b34306d64
:10207c000000c0461b5b39373b34346d0000c04652
:10208c001b5b33303b34376d0000c04638200000fa
:10209c000800000044200000080000005020000050
:1020ac00080000005c200000080000006820000010
:1020bc0008000000742000000800000080200000d0
:1020cc00080000008c200000080000001b5b31346d
:1020dc003b3230481b5b304b0000c04653544f50d2
:1020ec000000c046464f5257415244004241434bb8
:1020fc00574152440000c046524947485400c0461c
:10210c004c4546540000c0461b5b31353b323048d1
:10211c001b5b304b0000c0466f6b6179206c616ead
:10212c006700c0466d6564796f206661737400004a
:10213c00534b5245454545001b5b31363b323048cd
:10214c001b5b304b0000c04652454d4f54450000c0
:10215c004155544f4e4f4d4f5553000088160000bb
:10216c00b4160000e01600000c1700003817000031
:10217c005b31357e0000c046ec1b0000f21b0000fa
:0c218c00001c00000e1c00001c1c0000c9
:020000040000fa
:1021980080b500af43f20023c4f200031a6943f28a
:1021a8000023c4f2000308218a431a6143f2002382
:1021b800c4f200031a6943f20023c4f200030421a5
:1021c8008a431a61c046bd4680bd80b500af43f260
:1021d8000023c4f2000390229a5843f20023c4f269
:1021e800000309490a4090215a5043f20023c4f2df
:1021f80000031a6943f20023c4f2000303490a40aa
:102208001a61c046bd4680bdffff7ffffffff7ff95
:1022180080b500af43f20023c4f200031a6943f209
:102228000023c4f2000308218a431a6143f2002301
:10223800c4f200031a6943f20023c4f20003042124
:102248000a431a61c046bd4680bd80b500af43f25f
:102258000023c4f2000390229a5843f20023c4f2e8
:102268000003802109040a4390215a5043f20023b5
:10227800c4f200031a6943f20023c4f200030349bd
:102288000a401a61c046bd4680bdc046fffff7ff41
:1022980080b500af43f20023c4f200031a6943f289
:1022a8000023c4f2000308210a431a6143f2002301
:1022b800c4f200031a6943f20023c4f200030421a4
:1022c8008a431a61c046bd4680bd80b500af43f25f
:1022d8000023c4f2000390229a5843f20023c4f268
:1022e80000030a490a4090215a5043f20023c4f2dd
:1022f80000031a6943f20023c4f200038021090392
:102308000a431a61c046bd4680bdc046ffff7fff35
:1023180080b500af43f20023c4f2000390229a581c
:1023280043f20023c4f2000308210a4390215a50c3
:10233800fff74bfffff72cffc046bd4680bd80b5b9
:1023480000af43f20023c4f2000390229a5843f2ec
:102358000023c4f2000308210a4390215a50fff7d2
:1023680074fffff795ffc046bd4680bd80b500af3e
:1023780043f20023c4f2000390229a5843f2002348
:10238800c4f2000308210a4390215a50fff79dff29
:10239800fff73effc046bd4680bd80b500af43f2a3
:1023a8000023c4f2000390229a5843f20023c4f297
:1023b800000308210a4390215a50fff786fffff7d0
:1023c80067ffc046bd4680bd80b500af43f200231d
:1023d800c4f2000390229a5843f20023c4f2000387
:1023e80008210a4390215a50fff72ffffff710ffeb
:0823f800c046bd4680bdc04691
:020000040000fa
:1024000080b582b000af40f21423c2f200031b6813
:102410007b60c04640f21423c2f200031b687a6856
:102420009a42f0d17b681800bd4602b080bd80b5ed
:1024300000affef74efe40f21823c2f200031b6805
:102440005a1c40f21823c2f200031a6016e040f250
:102450001823c2f200031b68403b1a0040f2182305
:10246000c2f200031a6040f21423c2f200031b6898
:102470005a1c40f21423c2f200031a6040f21823df
:10248000c2f200031b683f2be1dc40f21023c2f2d2
:1024900000031b685a1c40f21023c2f200031a60aa
:1024a000c046bd4680bd80b500af42f60023c4f2f1
:1024b00000035b69012213405bb142f60023c4f2c2
:1024c00000035a6942f60023c4f2000301210a43c3
:1024d0005a61c046bd4680bd80b500af42f60023bc
:1024e000c4f200035b69022213405bb142f6002391
:1024f000c4f200035a6942f60023c4f20003022129
:102500000a435a61c046bd4680bd80b500af42f661
:102510000023c4f200035b69042213405bb142f65e
:102520000023c4f200035a6942f60023c4f20003f8
:1025300004210a435a61c046bd4680bd80b500af44
:1025400042f60023c4f200035b6940221340c3b18a
:1025500040f21c03c2f200031b88022213439ab20a
:1025600040f21c03c2f200031a8042f60023c4f2b8
:1025700000035a6942f60023c4f2000340210a43d3
:102580005a61c046bd4680bd80b584b000af78605a
:1025900039603a687b689a4204d87a683b68d31af3
:1025a000fb6007e03a687b68d31afb60c046fb68b3
:1025b0000233fb60fb681800bd4604b080bd80b5e7
:1025c00082b000af40f21023c2f200031b687b60b0
:1025d000c04640f21023c2f200031b681a007b6859
:0e25e0009342efd17b681800bd4602b080bd6b
:020000040000fa
:0225ee00fee706
:020000040000fa
:1025f0002402002004000000010000000000000090
:10260000e40100201c000000000000000000002089
:10261000ec00000000000000000200201c00000090
:1026200000000000ec000020a800000000000000f6
:102630001c020020040000000000000094010020a3
:1026400050000000000000002002002004000000f4
:10265000000000002802002004000000010000002b
:1026600000000000000000000000000066666666d2
:020000040000fa
:1026700040f20003c0f2000323b140f20003c0f2b5
:102680000003984740f20003c0f2000323b140f278
:102690000003c0f20003984700f078f840f200030e
:1026a000c0f200037f2293434ef60052cef20002a6
:1026b000936042f2f163c0f20003984740f20003d6
:1026c000c0f2000323b140f20003c0f200039847b8
:1026d00040f20003c0f2000323b140f20003c0f255
:0e26e0000003984700210020fff707fafee7ed
:020000040000fa
:0226ee00704733
:020000040000fa
:1026f00000230e4a10b513600d4a0e4c13600e4aab
:1027000013600e4a13600e4a13600e4a536213613f
:102710000133936000f071f800f06ff80a4b9c42af
:1027200000d310bd08cc9847f8e7c046200200202f
:10273000a0010020680100009c01002094010020fd
:0c27400098010020a40100206c010000a2
:020000040000fa
:10274c0010b5054c227832b9044b13b1044800e0a3
:10275c0000bf0123237010bde40100200000000025
:10276c0000000000034b10b51bb10349034800e007
:10277c0000bf10bd00000000e801002000000000b8
:020000040000fa
:10278c0010b50a48016821b9436813b9fff7a9ffce
:10279c0010bd04008368064a9bb20c349b009b5806
:1027ac0042682000984780002018ebe7f0250000d5
:0427bc00fc270000f6
:020000040000fa
:1027c000002310b5934206d103201840421e9041c9
:0e27d0009b08c01810bdc45ccc540133f2e766
:020000040000fa
:1027de0030b50024a24207d0035d4d1e01342d5d9d
:0c27ee00ab42f7d0581b00e0002030bdcb
:020000040000fa
:0227fa00704726
:020000040000fa
:1027fc0025280000c12700003728000037280000da
:04280c003728000069
:020000040000fa
:1028100032b10300c9b28218197001339342fbd15f
:042820007047c046f7
:020000040000fa
:102824008a18914201d10020704700230b700131b6
:02283400f7e7c4
:020000040000fa
:0428360000207047c7
:00000001FF
