:020000040000fa
:10000000f07f002005490000973f0000973f000067
:1000100000000000000000000000000000000000e0
:10002000000000000000000000000000973f0000fa
:100030000000000000000000973f00002f42000079
:10004000973f0000973f0000973f0000a742000045
:10005000d94200000b430000973f0000973f00008b
:10006000973f00003d430000973f0000973f00008e
:10007000973f0000973f0000973f0000973f000028
:10008000973f0000973f0000973f0000973f000018
:10009000973f0000973f0000973f0000973f000008
:1000a000973f0000973f0000973f0000973f0000f8
:1000b000973f0000973f0000973f0000973f0000e8
:1000c000973f0000973f0000973f0000973f0000d8
:1000d000973f0000973f0000973f0000973f0000c8
:1000e000973f0000973f0000973f0000c92900009c
:1000f000973f0000cf2a0000973f0000973f000085
:10010000973f0000973f0000973f0000973f000097
:10011000973f0000973f0000973f0000973f000087
:10012000973f0000973f0000973f0000973f000077
:10013000973f0000973f0000973f0000973f000067
:10014000973f0000973f0000973f0000973f000057
:0c015000973f0000973f0000973f000021
:020000040000fa
:10015c00f8b5c046f8bc08bc9e467047494c000038
:10016c00f8b5c046f8bc08bc9e467047254c00004c
:020000040000fa
:08017c00003b0000010000003f
:020000040000fa
:1001840080b584b000af78607b68002b01da00236f
:100194007b607b68642b01dd64237b607b68002bc0
:1001a40004dd7b68092b01dc0a237b607a68130079
:1001b4005b009b185a019b18642293fbf2f3fb60cb
:1001c40043f20043c4f200239b68802213402bb9fe
:1001d40043f20043c4f20023fa685a67fb6818002c
:1001e400bd4604b080bd80b584b000af78607b6844
:1001f400002b01da00237b607b68642b01dd642320
:100204007b607b68002b04dd7b68092b01dc0a23ff
:100214007b607a6813005b009b185a019b18642268
:1002240093fbf2f3fb6043f20043c4f200239b68a8
:10023400802213402bb943f20043c4f20023fa682e
:100244001a67fb681800bd4604b080bd80b584b051
:1002540000af78600023fb6002e0fb680133fb60c1
:100264007a6813009b009a18fb689a42f5d8c04636
:10027400bd4604b080bd80b582b000af00237b6072
:1002840043f20023c4f20003942204219950022073
:10029400fff7dcff43f20023c4f200039822042199
:1002a40099500a20fff7d2ff43f20023c4f200035f
:1002b40094220421995047f230533b6009e03b6893
:1002c400013b3b603b6823b948f29f63c0f20103e2
:1002d40027e043f20023c4f20003a0229a588023ab
:1002e400db031340002bead047f230533b600ce0b1
:1002f4007b6801337b603b68013b3b603b6823b90f
:1003040048f29f63c0f201030be043f20023c4f2fe
:100314000003a0229a588023db031340002be7d16b
:100324007b681800bd4602b080bd80b582b000afc6
:1003340000237b6043f20023c4f200038022920274
:100344005a610220fff782ff43f20023c4f2000344
:10035400802292029a610a20fff778ff43f2002379
:10036400c4f20003802292025a6147f230533b6088
:1003740009e03b68013b3b603b6823b948f29f635b
:10038400c0f2010325e043f20023c4f200031a6a19
:100394008023db021340002bebd047f230533b6049
:1003a4000ce07b6801337b603b68013b3b603b684e
:1003b40023b948f29f63c0f201030ae043f2002329
:1003c400c4f200031a6a8023db021340002be8d135
:1003d4007b681800bd4602b080bd80b582b000af16
:1003e40000237b6043f20023c4f2000301225a611c
:1003f4000220fff72bff43f20023c4f20003012283
:100404009a610a20fff722ff43f20023c4f200039b
:1004140001225a6147f230533b6009e03b68013bdb
:100424003b603b6823b948f29f63c0f2010323e0b9
:1004340043f20023c4f200031b6a02221340002b80
:10044400ecd047f230533b600ce07b6801337b60b7
:100454003b68013b3b603b6823b948f29f63c0f2b1
:10046400010309e043f20023c4f200031b6a0222e1
:100474001340002be9d17b681800bd4602b080bd53
:1004840080b500af43f20023c4f20003802292023d
:100494009a6043f20023c4f200038022d2025a601d
:1004a40043f20023c4f2000352220221995443f27e
:1004b4000023c4f2000301229a6043f20023c4f231
:1004c400000302225a6043f20023c4f200034122d3
:1004d4000221995443f20023c4f200038822042128
:1004e400995043f20023c4f2000384218022d203f2
:1004f4005a5043f20023c4f20003d6220221995435
:10050400c046bd4680bd80b582b000af78607b68d0
:10051400552b01d8012356e07b686e2b01d80223aa
:1005240051e07b68822b01d803234ce07b68be2b0f
:1005340001d8042347e07b68dc2b01d8052342e083
:100544007b6840f20412934201d806233be07b68a7
:1005540040f22c12934201d8072334e07b6840f226
:100564005e12934201d808232de07b6840f2ae125c
:10057400934201d8092326e07b6840f2d6129342c5
:1005840001d80a231fe07b6840f20822934201d875
:100594000b2318e07b6840f23022934201d80c23ed
:1005a40011e07b6840f25822934201d80d230ae0ff
:1005b4007b6840f28a22934201d80e2303e07b68d1
:1005c4002c22b3fbf2f31800bd4602b080bd80b507
:1005d40082b000af78607b68642b01d801233ae0d5
:1005e4007b68782b01d8022335e07b68872b01d800
:1005f400032330e07b68be2b01d804232be07b6807
:10060400e62b01d8052326e07b6840f218129342ba
:1006140001d806231fe07b6840f24012934201d8c0
:10062400072318e07b6840f27c12934201d8082328
:1006340011e07b6840f29012934201d809230ae04a
:100644007b6840f2c212934201d80a2303e07b681c
:100654002c22b3fbf2f31800bd4602b080bd80b576
:1006640082b000af78607b68642b01d801233ce042
:100674007b68782b01d8022337e07b68962b01d85e
:10068400032332e07b68e62b01d804232de07b684a
:1006940040f21812934201d8052326e07b6840f209
:1006a4004012934201d806231fe07b6840f27c127b
:1006b400934201d8072318e07b6840f29a129342d0
:1006c40001d8082311e07b6840f2d612934201d886
:1006d40009230ae07b6840f20822934201d80a23e6
:1006e40003e07b682c22b3fbf2f31800bd4602b092
:1006f40080bd90b587b000af786008e00023fb6050
:1007040002e0fb680133fb60fb68632bf9dd02f058
:10071400ccfb0300002bf1d110243b197a681a603a
:100724007b68180004f0a6fb02003b195a603b19d1
:100734000121180002f0c6fa08e00023bb6002e0c1
:10074400bb680133bb60bb68632bf9dd02f0adfb12
:100754000300002bf1d1c046bd4607b090bd80b563
:1007640082b000af78607b68012b0dd07b6833b119
:100774007b68022b0dd07b68032b0fd013e044f26f
:10078400f033c0f2000312e044f2f833c0f2000385
:100794000de044f20443c0f2000308e044f21043c5
:1007a400c0f2000303e044f21c43c0f2000318004b
:1007b400bd4602b080bd80b584b000aff860b960ba
:1007c4007a6000231800bd4604b080bd80b586b0b1
:1007d40000aff860b9607a603b60fb68642b01d9b4
:1007e400002314e0fb68053b3b6100237b613b690c
:1007f400022b02dd01237b6108e03b69023303da4b
:1008040001235b427b6101e000237b617b6918006b
:10081400bd4606b080bd80b582b000af78607b680d
:10082400073304da44f22443c0f200031be07b687c
:10083400002b04da44f23843c0f2000313e07b686f
:10084400072b04dd44f24843c0f200030be07b684d
:10085400002b04dd44f25c43c0f2000303e044f2e5
:100864006c43c0f200031800bd4602b080bdf0b571
:10087400d9b008af40f2cc23c2f200031b783bb9d5
:1008840040f2cc23c2f2000301221a70fff7f8fdf4
:1008940003f0b4fc030040f21012ba181360fff71f
:1008a400eafc030040f20c143a191360fff73dfd13
:1008b400030040f208157a191360fff78efd030058
:1008c4007a1dff3213603b191b681800fff71bfeeb
:1008d400030040f23c16ba1913607b191b68180018
:1008e400fff775fe030040f23812ba1813607b1d3f
:1008f400ff331b681800fff7b2fe030040f2341206
:10090400ba1813603b191b6841f28832934203d82a
:10091400bb191b68032b04d8012340f23c12ba18fc
:10092400136040f20813fb181b6841f288329342ab
:1009340005d840f23813fb181b68032b04d8012395
:1009440040f23812ba1813607b1dff331b6841f262
:100954008832934205d840f23413fb181b68032bea
:1009640004d8012340f23412ba18136040f2381349
:10097400fb181b68022b22d840f2cd23c2f20003dd
:100984001b78022b1bd040f2cd23c2f200031b784c
:10099400012b14d040f2cd23c2f200031b78032ba9
:1009a4000dd003f0e5fb08235b421800fff71bfca6
:1009b40008235b421800fff7e3fb00f011fc40f250
:1009c4003413fb181b68022b1ed840f2cd23c2f24d
:1009d40000031b78022b17d040f2cd23c2f2000390
:1009e4001b78012b10d040f2cd23c2f200031b78f8
:1009f400032b09d003f0bcfb0a20fff7f4fb002013
:100a0400fff7befb00f0ecfb40f23c13fb181b6845
:100a1400022b1ed840f2cd23c2f200031b78022b16
:100a240017d040f2cd23c2f200031b78012b10d063
:100a340040f2cd23c2f200031b78032b09d003f04c
:100a440080fb0020fff7cffb0a20fff799fb00f0a3
:100a5400c7fb40f23813fb181b680c2b3ed840f23e
:100a64003c13fb181b680f2b38d840f23413fb18c7
:100a74001b680f2b32d840f2cd23c2f200031b783f
:100a8400032b6ad040f2cd23c2f200031b78022b61
:100a940063d040f2cd23c2f200031b78012b5cd05b
:100aa40040f2cd23c2f2000303221a7040f2ce2397
:100ab400c2f2000301221a7040f2d023c2f20003f2
:100ac40040f21012ba1812681a6003f051fb192090
:100ad400fff789fb1920fff753fb3ee040f2381380
:100ae400fb181b680c2b39d840f23c13fb181b680d
:100af4000f2b33d840f2cd23c2f200031b78022b14
:100b04002cd040f2cd23c2f200031b78012b25d058
:100b140040f2cd23c2f200031b78032b1ed040f217
:100b2400cd23c2f2000302221a7040f2ce23c2f295
:100b3400000301221a7040f2d023c2f2000340f2f3
:100b44001012ba1812681a6003f0fbfa1920fff7a2
:100b54004afb1920fff714fb00e0c04640f2d423ff
:100b6400c2f200031b6893b140f2d423c2f2000323
:100b74001a6840f21013fb181b681100180003f0e8
:100b840001fc40f2d423c2f2000300221a6040f2b6
:100b9400cd23c2f200031b78042b00d93ce29a0057
:100ba400da4bd3181b689f4640f23c33c2f2000371
:100bb4001b6840f23c12ba1812689a424ad140f2b9
:100bc400d823c2f200031b685a1c40f2d823c2f295
:100bd40000031a6040f2d823c2f200031b68312bd1
:100be40047d940f2d423c2f200031b68002b40d142
:100bf40040f2ce23c2f200031b78d3bb40f2cd23d4
:100c0400c2f200031b78a3bb03f0b2fa0a235b42cf
:100c14001800fff7e8fa0a235b421800fff7b0fa5e
:100c240003f08ffa0020fff7defa0a20fff7a8fa94
:100c340040f2d823c2f2000300221a6040f21013db
:100c4400fb181b6832331a0040f2d423c2f20003ab
:100c54001a60e1e140f2d823c2f2000300221a60d4
:100c640040f23c33c2f2000340f23c12ba1812685c
:100c74001a6040f23c13fb181b680522d31a40f299
:100c84003012b9180b60bb181b68013306dbbb18a4
:100c94001b68012b02dc0023ba18136040f23013e6
:100ca400fb18186804f0b5f8031c4cf6cd41c3f6e4
:100cb4004c51181c03f076fc031c181c03f0f0ffc5
:100cc400030040f22c12b9180b60bb181b68012bef
:100cd40002dd0123ba18136040f22c12bb181b6802
:100ce400013303da01235b42ba18136040f22c1279
:100cf400bb181b68193340f2281178180360bb181d
:100d04001b681922d31a40f22412ba1813607b18f4
:100d14001b681e2b02dd1e237a18136040f2281272
:100d2400bb181b68092b02dc0a23ba18136040f2b3
:100d34002412bb181b681e2b02dd1e23ba18136075
:100d440040f22412bb181b68092b02dc0a23ba18d0
:100d5400136003f024fa40f22813fb181b681800f0
:100d6400fff741fa40f22413fb181b681800fff741
:100d740007fa40f23c13fb181b680f2b47d940f2cb
:100d8400dc23c2f200031b780133dab240f2dc2325
:100d9400c2f200031a7040f2dc23c2f200031b7893
:100da400012b00d831e140f2d423c2f200031b68c6
:100db400002b00d029e140f2cd23c2f200031b78be
:100dc400002b00d021e140f2cd23c2f20003012226
:100dd4001a7040f2ce23c2f2000301221a7040f2cc
:100de400d023c2f2000340f21012ba1812681a603b
:100df40003f0bef91920fff7f6f91920fff7c0f93f
:100e040040f2dc23c2f2000300221a70fde040f23b
:100e1400dc23c2f2000300221a70f6e040f2ce2373
:100e2400c2f200031b78002b00d1f0e040f2d02383
:100e3400c2f200031a6840f210143b191b68110037
:100e4400180003f09ffa0300182b00d8dfe040f2eb
:100e5400ce23c2f2000300221a7040f2cd23c2f264
:100e6400000304221a703b191b6832331a0040f243
:100e7400d423c2f200031a6040f2e023c2f200035a
:100e84003a1912681a6040f2d823c2f20003002211
:100e94001a60bce040f2ce23c2f200031b78002ba0
:100ea40000d1b6e040f2d023c2f200031a6840f247
:100eb40010143b191b681100180003f063fa0300b7
:100ec4000a2b00d8a5e040f2ce23c2f20003002290
:100ed4001a7040f2cd23c2f2000304221a703b19a7
:100ee4001b6832331a0040f2d423c2f200031a60a2
:100ef40040f2e023c2f200033a1912681a6040f289
:100f0400d823c2f2000300221a6082e08045000068
:100f140040f2ce23c2f200031b78002b00d17ae00a
:100f240040f2d023c2f200031a6840f210143b19b5
:100f34001b681100180003f025fa03002c2b6ad952
:100f440040f2ce23c2f2000300221a7040f2cd23f5
:100f5400c2f2000304221a703b191b6832331a00d0
:100f640040f2d423c2f200031a6040f2e023c2f23a
:100f740000033a1912681a6040f2d823c2f200033f
:100f840000221a6047e003f00af91920fff72bf951
:100f94001920fff7f5f840f23c13fb181b680f2be0
:100fa4001fd840f2e423c2f200031b780133dab203
:100fb40040f2e423c2f200031a7040f2e423c2f2c6
:100fc40000031b78022b12d940f2cd23c2f2000396
:100fd40000221a7040f2e423c2f2000300221a70c5
:100fe40005e040f2e423c2f2000300221a7040f24a
:100ff400e023c2f200031a6840f21013fb181b68c6
:101004001100180003f0bef906e0c04604e0c04633
:1010140002e0c04600e0c04640f2cd23c2f2000325
:101024001b78042b31d89a006f4bd3181b689f464a
:1010340044f27843c0f2000340f22012ba1813605d
:101044002ce044f2f833c0f2000340f22012ba1844
:10105400136023e044f20443c0f2000340f2201280
:10106400ba1813601ae044f21043c0f2000340f2cd
:101074002012ba18136011e044f28043c0f2000356
:1010840040f22012ba18136008e044f21c43c0f284
:10109400000340f22012ba181360c046002340f245
:1010a4001c12ba18136044f28843c0f2000340f2e1
:1010b4001812ba18136040f2cd23c2f200031b7851
:1010c400002b49d140f23c13fb181b680522d31aac
:1010d40040f21412b9180b60bb181b68013306db0d
:1010e400bb181b68012b02dc0023ba18136040f202
:1010f4001413fb18186803f08cfe031c4cf6cd4146
:10110400c3f64c51181c03f04dfa031c181c03f0d1
:10111400c7fd030040f21c12b9180b60bb181b6812
:10112400012b02dd0123ba18136040f21c12bb1814
:101134001b68013303da01235b42ba18136040f2df
:101144001c13fb181b681800fff765fb030040f233
:101154001812ba18136007e044f28843c0f200037f
:1011640040f21812ba18136040f20c13fb181968f5
:1011740044f29042c0f20002381d40f21813fb18ea
:101184001b68079340f21c13fb181b68069340f27c
:101194002013fb181b68059340f23413fb181b68db
:1011a40004937b1dff331b68039340f23813fb1831
:1011b4001b68029340f20813fb181b68019340f26a
:1011c4003c13fb181b6800930b0040f2001103f062
:1011d40075fe3b1d1800fff78cfa052001f03cfa60
:0c11e400bd4651b0f0bdc046944500006f
:020000040000fa
:1011f00080b582b000af0200fb1d1a70fb1d1b788a
:101200007f2b12d8fb1d1b781a001f231a401100d8
:101210004ef20013cef20003fa1d127852b25209b8
:101220000120884001009200d150c046bd4602b066
:1012300080bd90b583b000af02003960fb1d1a700d
:10124000fb1d1b787f2b2fd84ef20013cef200032c
:10125000fa1d127852b29208c0329200d358fa1d89
:101260001278110003220a40d200ff2191400a00a7
:10127000d2431a4010003b689b01ff221a40fb1d1d
:101280001b78190003230b40db009a4011004ef23b
:101290000013cef20003fa1d127852b292080143f5
:1012a000c0329200d15037e04ef60053cef2000328
:1012b000fa1d127811000f220a40083a92080632ed
:1012c00092009b1804331b68fa1d12781100032248
:1012d0000a40d200ff2191400a00d2431a40100078
:1012e0003b689b01ff221a40fb1d1b78190003235a
:1012f0000b40db009a404ef60053cef20003f91d7e
:1013000009780c000f212140083989080243063171
:1013100089005b1804331a60c046bd4603b090bd17
:1013200080b500af00f029f800f0e0f800f002fa14
:1013300000f0f7fa4ef21003cef2000340f6a66278
:101340005a60c046bd4680bd80b500af00f0d7fbf7
:1013500000f096fb00f078fb03212b20fff769ffdc
:1013600003212d20fff765ff2b20fff741ff2d20e4
:10137000fff73effc046bd4680bd80b582b000afde
:1013800000237b6040f20043c4f2000301229a7103
:1013900040f20043c4f2000302229a7000e0c0460b
:1013a00040f20043c4f200039b79dbb21a00012330
:1013b0001340002bf3d040f20043c4f2000301229b
:1013c0009a7145f20003c4f2001306225a6041f6f6
:1013d0000003c4f2000340f202221a6200e0c04699
:1013e00041f60003c4f20003da688023db021340f5
:1013f000002bf4d041f20003c4f2000300221a864d
:1014000000e0c04641f20003c4f200031a698023e1
:101410005b041340002bf4d046f22003c0f280039b
:101420001a68fc23db0513407b60c0467b68db0b3e
:101430007b607b6840f2002213437b6041f2000333
:10144000c4f200037a685a6300e0c04641f2000328
:10145000c4f200031a6980235b041340002bf4d00c
:1014600041f20003c4f200031b8e9ab241f2000362
:10147000c4f2000302210a4392b21a8600e0c04679
:1014800041f20003c4f200031a6980235b04134095
:10149000002bf4d041f60043c4f2000340f20512e1
:1014a000c0f201029a6200e0c04641f60043c4f275
:1014b00000035b6810221340002bf5d141f6004376
:1014c000c4f2000340f20712c0f202021a6200e006
:1014d000c04641f60043c4f200035b680422134097
:1014e000002bf5d1c046bd4602b080bd80b500af2f
:1014f00043f20023c4f2000301225a6043f20023a6
:10150000c4f2000340220221995443f20023c4f2a2
:10151000000302225a6043f20023c4f20003412276
:101520000221995443f20023c4f2000304225a61b9
:1015300043f20023c4f2000304229a6043f2002322
:10154000c4f2000308225a6143f20023c4f20003ec
:1015500008229a6043f20023c4f2000340225a6139
:1015600043f20023c4f2000340229a6043f20023b6
:10157000c4f2000380225a6143f20023c4f2000344
:1015800080229a6043f20023c4f2000340f200225a
:101590005a6043f20023c4f2000349220221995405
:1015a00043f20023c4f2000340f200425a6043f2c7
:1015b0000023c4f200034a220221995443f200237b
:1015c000c4f2000340f600025a6043f20023c4f262
:1015d00000034b220221995443f20023c4f200037a
:1015e00044f200025a6143f20023c4f2000344f2c1
:1015f00000029a6043f20023c4f2000348f20002a2
:101600005a6143f20023c4f2000348f200029a60d8
:1016100043f20023c4f20003802212035a6143f212
:101620000023c4f20003802212039a6043f20023d5
:10163000c4f20003802292025a6043f20023c4f2f3
:10164000000351220221995443f20023c4f2000303
:101650008022d2025a6043f20023c4f200035222d5
:101660000221995443f20023c4f200038022520362
:101670005a6143f20023c4f20003802252039a60ad
:1016800043f20023c4f20003802292035a6043f223
:101690000023c4f2000355220221995443f200238f
:1016a000c4f200038022d2035a6043f20023c4f242
:1016b000000356220221995443f20023c4f200038e
:1016c000802212045a6043f20023c4f2000357221e
:1016d0000221995443f20023c4f20003942208210a
:1016e000995043f20023c4f2000388220821995044
:1016f00043f20023c4f2000384218022d2035a5013
:1017000043f20023c4f2000356220221995443f20b
:101710000023c4f200039421802212045a5043f2a1
:101720000023c4f200038821802212045a50c046cc
:10173000bd4680bd80b582b000affb1d00221a708f
:1017400041f60043c4f2000390224221995000e088
:10175000c04641f60043c4f2000390229b58402249
:101760001340002bf4d042f60023c4f20003012200
:101770001a7000e0c04642f60023c4f200035b6822
:1017800001221340002bf5d142f60023c4f20003de
:1017900040f6aa22c0f20022da6142f60023c4f227
:1017a00000031a6b42f60023c4f2000303210a432c
:1017b0001a6342f60023c4f200030e225a6342f673
:1017c0000023c4f2000347221a6143f20023c4f24b
:1017d0000003fa1d3b215b5c1370fb1dfa1d1278a0
:1017e0000f210a401a70fb1dfa1d12781a7043f27d
:1017f0000023c4f20003fa1d3b2112785a5443f22d
:101800000023c4f2000357229b5cdab243f20023a8
:10181000c4f2000301210a43d1b25722995443f282
:101820000023c4f20003fa1dbb215b5c1370fb1d97
:10183000fa1d12780f218a431a70fb1dfa1d1278c7
:101840001a7043f20023c4f20003fa1dbb21127880
:101850005a5443f20023c4f20003d6229b5cdab24e
:1018600043f20023c4f2000301210a43d1b2d6227d
:10187000995443f20023c4f20003fa1d30215b5c4b
:101880001370fb1dfa1d12780f218a431a70fb1d7d
:10189000fa1d12781a7043f20023c4f20003fa1df5
:1018a000302112785a5443f20023c4f2000340223c
:1018b0009b5cdab243f20023c4f2000301210a4325
:1018c000d1b24022995443f20023c4f20003fa1d1e
:1018d00030215b5c1370fb1dfa1d12780f210a404a
:1018e0001a70fb1dfa1d12781a7043f20023c4f21d
:1018f0000003fa1d302112785a5443f20023c4f237
:10190000000341229b5cdab243f20023c4f20003dd
:1019100001210a43d1b241229954c046bd4602b0ca
:1019200080bd80b582b000af41f60043c4f2000331
:10193000ec224221995000e0c04641f60043c4f237
:101940000003ec229b5840221340002bf4d043f2ba
:101950000043c4f2002301221a6000e0c04643f2b3
:101960000043c4f200239b6801221340002bf5d1f1
:1019700043f20043c4f200231a6843f20043c4f266
:10198000002340f200410a431a6043f20043c4f2cc
:1019900000230222da6343f20043c4f200236322ed
:1019a0001a6443f20043c4f2002300225a6443f253
:1019b0000043c4f2002300229a6400e0c04643f2d0
:1019c0000043c4f200239b68a0221340002bf5d1f2
:1019d00043f20023c4f2000333229b5cdbb27b6042
:1019e0007b68ff2293437b607b68992213437b6073
:1019f00043f20023c4f200037a68d1b2332299542f
:101a000043f20023c4f2000346229b5cdab243f2a5
:101a10000023c4f2000341210a43d1b24622995463
:101a200043f20023c4f2000347229b5cdab243f284
:101a30000023c4f2000341210a43d1b24722995442
:101a4000c046bd4602b080bd80b500af43f2004342
:101a5000c4f200231a6843f20043c4f200230221b7
:101a60000a431a6000e0c04643f20043c4f2002378
:101a70009b6802221340002bf5d1c046bd4680bdb5
:101a800080b500af42f60023c4f2000302221a70b0
:101a900000e0c04642f60023c4f200035b68022265
:101aa0001340002bf5d142f60023c4f200034ff699
:101ab000ff725a6102210320fff7bbfb0320fff7ef
:101ac00097fb03210420fff7b4fb0420fff790fbf2
:101ad00003210520fff7adfb0520fff789fb03215c
:101ae0000920fff7a6fb0920fff782fb4ef2100347
:101af000cef2000307221a60c046bd4680bd80b505
:101b000084b000af0023fb6043f20023c4f2000363
:101b1000b1229b5cdbb2fb60fb680f229343fb604e
:101b2000fb6801221343fb6043f20023c4f200036d
:101b3000fa68d1b2b122995443f20023c4f20003ef
:101b4000c1229b5cdab243f20023c4f200030121fc
:101b50000a43d1b2c122995441f60043c4f20003b2
:101b6000f0224221995000e0c04641f60043c4f201
:101b70000003f0229b5840221340002bf4d043f680
:101b80000003c4f200231b78dab243f60003c4f268
:101b9000002301210a43d2b21a7000e0c04643f686
:101ba0000003c4f200231b8c9bb21a0001231340d4
:101bb000002bf3d143f60003c4f200239b78dab282
:101bc00043f60003c4f2002305210a43d2b29a70ff
:101bd00043f60003c4f200235b899ab243f6000384
:101be000c4f2002320210a4392b25a8143f6000333
:101bf000c4f2002304225a7043f60003c4f2002307
:101c00001b899ab243f60003c4f200230a210a4357
:101c100092b21a8143f60003c4f200231b899ab2e0
:101c200043f60003c4f2002341f600010a4392b2d6
:101c30001a8146f22003c0f280031b68bb60bb1d03
:101c400000221a80bb689bb21b029bb21bb240f2ff
:101c5000007213401ab2bb1d00215b5e13431ab21f
:101c6000bb1d1a80bb68db089bb20722134099b2e8
:101c7000bb1dba1d12880a431a8043f60003c4f242
:101c80000023ba1d12889a8543f60003c4f200238c
:101c90001b78dab243f60003c4f2002302210a43a0
:101ca000d2b21a7000e0c04643f60003c4f200232b
:101cb0001b8c9bb21a0002231340002bf3d143f676
:101cc0000003c4f200235b899ab243f60003c4f216
:101cd000002304210a4392b25a8143f60003c4f25e
:101ce000002302221a76c046bd4604b080bd80b5ee
:101cf00082b000af4ef60053cef20003db687b608b
:101d00007b68042293437b607b68054a53407b6079
:101d10004ef60053cef200037a68da60c046fde763
:041d20000400ffffbd
:020000040000fa
:101d240080b582b000af7860396001f0bef803007e
:101d34003bb17b681b88984a13439ab27b681a802c
:101d44006be37b681b885b045b0c9ab27b681a802c
:101d54007b681b88002b00d15ce37b6840f2201277
:101d6400002199527b681b881a0001231340002b21
:101d740061d07b681b8847f6fb7213439ab27b6879
:101d84001a807b681b881a00042313409bb17b686c
:101d940040f28c129b585a1c7b6840f28c115a50aa
:101da4007b6840f28c129b58072b04d97b6840f265
:101db4008c12002199507b6840f28c1299587b68f0
:101dc40040f220129b5a78680133da0043f25443fc
:101dd400c0f20003c90082185b1803cb03c27b68fe
:101de40040f220129b5a013399b27b6840f22012d0
:101df40099527b6840f220129b5a7a680133d900c9
:101e040043f27803c0f200038b507b6840f2201247
:101e14009b5a7a680133db00d318043340f27932d9
:101e24001a607b6840f220129b5a013399b27b6896
:101e340040f2201299527b681b881a000223134037
:101e4400002b00d1d3e27b6840f220129b5a7868c1
:101e54000133da0043f25443c0f200033968c90085
:101e640082185b1803cb03c27b6840f220129b5a92
:101e7400013399b27b6840f2201299527b6840f298
:101e840020129b5a7a680133d90043f29443c0f27a
:101e940000038b507b6840f220129b5a7a6801330e
:101ea400db00d31804330c221a607b6840f2201242
:101eb4009b5a013399b27b6840f22012995240f246
:101ec4001003c2f200031b68042b00d980e09a00bf
:101ed400324bd3181b689f467b6840f220129b5af2
:101ee4007a680133d90043f2a443c0f200038b5053
:101ef4007b6840f220129b5a7a680133db00d318c6
:101f0400043304221a6063e07b6840f220129b5a77
:101f14007a680133d90043f2ac43c0f200038b501a
:101f24007b6840f220129b5a7a680133db00d31895
:101f3400043307221a604be07b6840f220129b5a5c
:101f44007a680133d90043f2b443c0f200038b50e2
:101f54007b6840f220129b5a7a680133db00d31865
:101f6400043308221a6033e07b6840f220129b5a43
:101f74007a680133d90043f2c043c0f200038b50a6
:101f84007b6840f220129b5a7a680133db00d31835
:101f9400043305221a601be00080ffff7035000047
:101fa4007b6840f220129b5a7a680133d90043f2cd
:101fb400c843c0f200038b507b6840f220129b5a46
:101fc4007a680133db00d318043304221a60c04654
:101fd4007b6840f220129b5a013399b27b6840f22d
:101fe400201299527b6840f220129b5a7a6801337e
:101ff400d90043f2d043c0f200038b507b6840f217
:1020040020129b5a7a680133db00d31804330c2264
:102014001a607b6840f220129b5a013399b27b68a4
:1020240040f22012995240f20c03c2f200031b68e2
:10203400bbb97b6840f220129b5a7a680133d900fd
:1020440043f2e043c0f200038b507b6840f220125d
:102054009b5a7a680133db00d31804330b221a60cd
:10206400c0467b6840f220129b5a013399b27b68c8
:1020740040f2201299527b6840f220129b5a7a68ef
:102084000133d90043f2ec43c0f200038b507b6868
:1020940040f220129b5a7a680133db00d3180433d0
:1020a4000c221a607b6840f220129b5a013399b2c9
:1020b4007b6840f2201299523b68022b25d03b6882
:1020c400022b03dc3b68012b07d066e03b68032b43
:1020d40033d03b68042b48d05fe07b6840f2201289
:1020e4009b5a7a680133d90043f2fc43c0f20003df
:1020f4008b507b6840f220129b5a7a680133db00d4
:10210400d318043306221a6047e07b6840f2201299
:102114009b5a7a680133d90043f20453c0f2000396
:102124008b507b6840f220129b5a7a680133db00a3
:10213400d31804330e221a602fe07b6840f2201279
:102144009b5a7a680133d90043f21453c0f2000356
:102154008b507b6840f220129b5a7a680133db0073
:10216400d31804330e221a6017e07b6840f2201261
:102174009b5a7a680133d90043f22453c0f2000316
:102184008b507b6840f220129b5a7a680133db0043
:10219400d318043304221a60c0467b6840f220122c
:1021a4009b5a013399b27b6840f2201299527b68a2
:1021b40040f220129b5a7a680133d90043f22c531f
:1021c400c0f200038b507b6840f220129b5a7a685d
:1021d4000133db00d31804330c221a607b6840f20d
:1021e40020129b5a013399b27b6840f22012995213
:1021f40040f20703c2f200031b78bbb17b6840f2d4
:1022040020129b5a7a680133d90043f23c53c0f23e
:1022140000038b507b6840f220129b5a7a6801338a
:10222400db00d318043308221a6016e07b6840f2fe
:1022340020129b5a7a680133d90043f24853c0f202
:1022440000038b507b6840f220129b5a7a6801335a
:10225400db00d318043304221a607b6840f2201296
:102264009b5a013399b27b6840f2201299527b68e1
:1022740040f220129b5a7a680133d90043f250533a
:10228400c0f200038b507b6840f220129b5a7a689c
:102294000133db00d31804330c221a607b6840f24c
:1022a40020129b5a013399b27b6840f22012995252
:1022b40040f20803c2f200031b78bbb17b6840f212
:1022c40020129b5a7a680133d90043f23c53c0f27e
:1022d40000038b507b6840f220129b5a7a680133ca
:1022e400db00d318043308221a6016e07b6840f23e
:1022f40020129b5a7a680133d90043f24853c0f242
:1023040000038b507b6840f220129b5a7a68013399
:10231400db00d318043304221a607b6840f22012d5
:102324009b5a013399b27b6840f2201299527b6820
:1023340040f220129b5a7a680133d90043f2605369
:10234400c0f200038b507b6840f220129b5a7a68db
:102354000133db00d31804330c221a607b6840f28b
:1023640020129b5a013399b27b6840f22012995291
:1023740040f20903c2f200031b78bbb17b6840f250
:1023840020129b5a7a680133d90043f23c53c0f2bd
:1023940000038b507b6840f220129b5a7a68013309
:1023a400db00d318043308221a6016e07b6840f27d
:1023b40020129b5a7a680133d90043f24853c0f281
:1023c40000038b507b6840f220129b5a7a680133d9
:1023d400db00d318043304221a607b6840f2201215
:1023e4009b5a013399b27b6840f2201299527b6860
:1023f40040f220129b5a7bb17b68083318007b683b
:1024040040f220129b5a190000f05cfc7b68044add
:102414001a8002e0c04600e0c046bd4602b080bd5e
:102424000080ffff80b582b000af78607b685b6896
:10243400012b17d02bb1022b2bd0032b00d1f3e0af
:10244400fde07b689d33ff331021180000f03cfd54
:102454000300002b00d1f4e07b685b685a1c7b68a6
:102464005a60eee07b689133ff33180000f0c2fd40
:1024740003002bb17b685b685a1c7b685a6008e0d8
:1024840001f048fe40f21003c2f2000300221a6079
:10249400dee07b681b881bb2002b00dad3e07b688c
:1024a40040f28812002199507b681b880222134352
:1024b4009ab27b681a807b685b685a1c7b685a6096
:1024c4007b6840f294129b58032b4ad17b6840f2fc
:1024d40090129b5801331b785b2b42d17b6840f2ee
:1024e40090129b5802331b78412b06d140f2100303
:1024f400c2f2000301221a6095e07b6840f2901258
:102504009b5802331b78422b06d140f21003c2f2cf
:10251400000302221a6086e07b6840f290129b5806
:1025240002331b78432b06d140f21003c2f200039e
:1025340003221a6077e07b6840f290129b580233c2
:102544001b78442b06d140f21003c2f2000304228c
:102554001a6068e040f21003c2f2000300221a601d
:1025640061e07b6840f294129b58012b29d17b686f
:1025740040f290129b581b78312b06d140f2000395
:10258400c2f2000301221a605fe07b6840f29012fd
:102594009b581b78322b06d140f20003c2f2000391
:1025a40002221a6051e07b6840f290129b581b781b
:1025b400332b4ad140f20003c2f2000303221a6013
:1025c40043e07b6840f294129b58012b23d97b682b
:1025d40040f290129b581b781b2b1cd17b6840f255
:1025e40094129b58052b1dd17b6840f290129b5886
:1025f400581c43f28453c0f200030422190002f071
:102604002afc030073b97b681b88012213439ab226
:102614007b681a8006e040f21003c2f20003002235
:102624001a6012e0c04610e07b681b881a0048f26a
:10263400020313405bb97b6800225a6008e0fff78d
:1026440054fbc04604e0c04602e0c04600e0c04679
:10265400c046bd4602b080bd80b584b000af78608e
:102664000023fb600de00023bb6002e0bb68013384
:10267400bb60bb6840f69f729342f7ddfb68013391
:10268400fb60fa687b689a42eddbc046bd4604b045
:1026940080bd80b586b000af00233b6100237b6022
:1026a400fef73cfe00f0c2f8fef74cfe40f22003b9
:1026b400c2f2000301221a8040f20003c2f20003b6
:1026c40001221a60fb68072b28d9bb687b6002f0e3
:1026d40093f803005a1e9341dab240f20703c2f2a0
:1026e40000031a7002f099f803005a1e9341dab2fb
:1026f40040f20803c2f200031a7002f09ff80300cc
:102704005a1e9341dab240f20903c2f200031a706e
:1027140040f22003c2f2000302221a8001f06efd8f
:102724000300bb607a68bb681100180001f02afe40
:102734000300fb6040f20003c2f200031a6840f297
:102744002003c2f2000311001800fff7e9fa40f277
:102754002003c2f200031800fff764fe40f20003f6
:10276400c2f200031b68022b43d0032b56d0012b6b
:10277400a8d140f21003c2f200031b68042b23d833
:102784009a00294bd3181b689f4601f0c3fc1be039
:1027940001f005fd32237b6123233b6114e001f04a
:1027a40015fd32237b6123233b610de001f0e0fc46
:1027b40032237b6132233b6106e001f0c2fc322309
:1027c4007b6132233b61c04643f20043c4f20023e1
:1027d4009b688022134023bb43f20043c4f20023ce
:1027e4007a695a6743f20043c4f200233a691a67cc
:1027f40017e040f20703c2f200031b78180040f20e
:102804000803c2f200031b78190040f20903c2f264
:1028140000031b781a0000f0defe03e0fef727f841
:0c28240000e0c0464ee7c0468c350000c6
:020000040000fa
:1028300080b500af41f60043c4f20003d02242212c
:10284000995000e0c04641f60043c4f20003d02294
:102850009b5840221340002bf4d040f2cc13c2f21c
:102860000003a8220021180002f04afb41f20003f5
:10287000c4f2002301221a6000e0c04641f20003c6
:10288000c4f20023db6901221340002bf5d141f291
:102890000003c4f2002304221a6041f20003c4f2d0
:1028a00000231a6841f20003c4f200238021c90505
:1028b0000a431a6041f20003c4f200231a6841f28d
:1028c0000003c4f20023802149030a431a6041f245
:1028d0000003c4f2002300225a6041f20003c4f254
:1028e0000023802212059a6041f20003c4f2002303
:1028f000344a9a8141f20003c4f200235a6841f23b
:102900000003c4f20023c32109040a435a6000e013
:10291000c04641f20003c4f20023db6904221340e5
:10292000002bf5d143f20023c4f20003942240f2bd
:102930000021995043f20023c4f20003842240f2a4
:102940000021995043f20023c4f20003982240f280
:102950000011995043f20023c4f20003882240f290
:102960000011995043f20023c4f20003b422332132
:10297000995443f20023c4f20003c922032199545d
:1029800043f20023c4f20003c8224121995441f2ca
:102990000003c4f200231a6841f20003c4f20023ca
:1029a00002210a431a6000e0c04641f20003c4f26b
:1029b0000023db6906221340002bf5d1c046bd463b
:1029c00080bdc04605c5ffff80b500af40f2cc1307
:1029d000c2f20003a4229b5cdbb2022b00d073e0a6
:1029e00066e040f2cc13c2f2000384229b584bb342
:1029f00040f2cc13c2f200031a681100083140f211
:102a0000cc13c2f20003196040f2cc13c2f20003ef
:102a100088215b1803ca03c340f2cc13c2f200033f
:102a200084229b585a1e40f2cc13c2f20003842128
:102a30005a5040f2cc13c2f200038c229b58002b58
:102a4000cfd000e0c04640f2cc13c2f200038c228b
:102a50009b586bb941f20003c4f2002301221a759e
:102a600040f2cc13c2f20003a422002199542ce0be
:102a700040f2cc13c2f2000388229a58511c40f253
:102a8000cc13c2f2000388201950127841f20003df
:102a9000c4f200239a6240f2cc13c2f200038c22eb
:102aa0009b585a1e40f2cc13c2f200038c215a509c
:102ab00041f20003c4f200231b7edbb21a000123a3
:102ac0001340002bb5d100e0c046bd4680bd90b597
:102ad00083b000af40f2cc13c2f20003a5229b5c8e
:102ae000dbb2022b00d0b0e0a2e041f20003c4f25e
:102af0000023ba1d5b8b1380c04641f20003c4f271
:102b000000239b6a3b6040f2cc13c2f20003982280
:102b10009a5840f2cc13c2f20003a0215b589a42ab
:102b200009d340f2cc13c2f200039c22995c04202a
:102b3000014399547ce0bb1d1b880122134043b123
:102b400040f2cc13c2f200039c22995c01200143a5
:102b50009954bb1d1b88022213409bb140f2cc1339
:102b6000c2f200039c22995c0220014399543b6805
:102b700043b940f2cc13c2f200039c22995c1020ae
:102b800001439954bb1d1b880422134043b140f2fa
:102b9000cc13c2f200039c22995c04200143995497
:102ba000bb1d1b882022134043b140f2cc13c2f25c
:102bb00000039c22995c08200143995440f2cc13f5
:102bc000c2f200039422995840f2cc13c2f20003df
:102bd00098229a58501c40f2cc13c2f20003982459
:102be00018518b183a68d2b21a7040f2cc13c2f264
:102bf000000390220021995040f2cc13c2f200034e
:102c000098229a5840f2cc13c2f20003a0215b58dc
:102c10009a420dd341f20003c4f2002304221a7534
:102c200040f2cc13c2f20003a522032199540de017
:102c300041f20003c4f200231b7edbb21a0004231e
:102c40001340002b00d050e700e0c046bd4603b063
:102c500090bd80b500af40f2cc13c2f20003a522b4
:102c60009b5cdbb2022b2ad140f2cc13c2f20003f0
:102c700098229b582bb340f2cc13c2f2000390224f
:102c80009b585a1c40f2cc13c2f2000390215a50b8
:102c900040f2cc13c2f2000390229b58062b11d9ac
:102ca00041f20003c4f2002304221a7540f2cc134f
:102cb000c2f20003a52203219954c04602e0c04697
:102cc00000e0c046bd4680bd80b584b000af7860ee
:102cd00039607b680bb13b680bb9012388e040f297
:102ce000cc13c2f20003a4229b5cdbb20bb1002325
:102cf0007ee040f2cc13c2f20003a42201219954d9
:102d000041f20003c4f200235a6841f20003c4f206
:102d100000238021c9030a435a6000e0c04641f203
:102d20000003c4f20023db6904221340002bf5d119
:102d300040f2cc13c2f2000388220021995040f2e5
:102d4000cc13c2f200038c220021995040f2cc1324
:102d5000c2f20003284a1a600023fb6040f2cc1341
:102d6000c2f2000384220021995027e0fb68db00b7
:102d70007a68d318bb60bb685b68dbb1bb681b6853
:102d8000c3b140f2cc13c2f2000384229a58511c02
:102d900040f2cc13c2f200038420195040f2cc134d
:102da000c2f20003d20004219b185b18ba6803ca60
:102db00003c300e0c046fb680133fb6040f2cc1364
:102dc000c2f2000384229b580f2b03d8fa683b6899
:102dd0009a42cbd340f2cc13c2f20003a4220221c8
:102de000995441f20003c4f2002301229a75012391
:102df0001800bd4604b080bdd001002080b500aff2
:102e000041f20003c4f2002301221a7540f2cc13f0
:102e1000c2f20003a4220121995441f20003c4f23a
:102e200000235a6841f20003c4f200238021c90341
:102e30000a435a6000e0c04641f20003c4f2002396
:102e4000db6904221340002bf5d100e0c04641f2bb
:102e50000003c4f200231b7edbb21a0002231340de
:102e6000002bf3d040f2cc13c2f2000388220021e1
:102e7000995040f2cc13c2f200038c2200219950e9
:102e800040f2cc13c2f2000300221a6040f2cc13cd
:102e9000c2f2000384220021995040f2cc13c2f206
:102ea0000003a42200219954c046bd4680bd80b5d0
:102eb00000af40f2cc13c2f20003a4229b5cdbb251
:102ec0005a1e9341dbb21800bd4680bd80b582b06a
:102ed00000af786039607b680bb13b680bb90123a8
:102ee0004ae040f2cc13c2f20003a5229b5cdbb2a5
:102ef0000bb1002340e040f2cc13c2f20003a52244
:102f0000012199541e4b0c220021180001f0f8fffa
:102f100040f2cc13c2f2000394217a685a5040f276
:102f2000cc13c2f20003a0213a685a5041f20003c8
:102f3000c4f200235a6841f20003c4f20023802146
:102f400009040a435a6000e0c04641f20003c4f29b
:102f50000023db6904221340002bf5d140f2cc138f
:102f6000c2f20003a5220221995441f20003c4f2e7
:102f7000002304229a7501231800bd4602b080bdcb
:102f80006002002080b500af41f20003c4f20023cc
:102f900004221a7540f2cc13c2f20003a5220121cb
:102fa000995441f20003c4f200235a6841f200032d
:102fb000c4f20023802109040a435a6000e0c0469d
:102fc00041f20003c4f20023db6904221340002b0a
:102fd000f5d1084b0c220021180001f091ff40f2be
:102fe000cc13c2f20003a52200219954c046bd466d
:102ff00080bdc0466002002090b583b000af78600d
:103000007b680bb9002321e040f2cc13c2f200032d
:10301000a5229b5cdbb2032b01d0002316e07a686b
:1030200040f2cc13c2f2000394215b1813cb13c2fd
:10303000084b0c220021180001f062ff40f2cc1373
:10304000c2f20003a5220021995401231800bd46b5
:1030500003b090bd6002002080b500af40f2cc13f9
:10306000c2f20003a5229b5cdbb25a1e9341dbb285
:083070001800bd4680bdc046fa
:020000040000fa
:103078001b5b324a1b5b313b31482b2d2d2d2d2def
:103088002d2d2d2d2d2d2d2d2d2d2d2d2d2d2d2d68
:103098002d2d2d2d2d2d2d2d2d2d2d2d2d2d2d2d58
:1030a8002d2d2d2d2d2d2d2d2d2d2d2d2d2d2d2d48
:1030b8002d2d2d2d2d2d2d2d2d2d2d2b0d0a7c203b
:1030c800454545203139323a20456c65637472694b
:1030d80063616c20616e6420456c656374726f6e09
:1030e80069637320456e67696e656572696e6720ee
:1030f8004c61626f7261746f727920564920207c2e
:103108000d0a7c20202020202020202020416361df
:1031180064656d6963205965617220323032352dde
:10312800323032362c2053656d65737465722032e7
:103138002020202020202020202020202020202087
:103148002020207c0d0a7c202020202020202020e8
:103158002020202020202020202020202020202067
:103168002020202020202020202020202020202057
:103178002020202020202020202020202020202047
:10318800202020202020207c0d0a7c20526f627590
:10319800747420202020202020202020202020207f
:1031a8002020202020202020202020202020202017
:1031b8002020202020202020202020202020202007
:1031c80020202020202020202020207c0d0a7c2068
:1031d80020202020202020202020202020202020e7
:1031e80020202020202020202020202020202020d7
:1031f80020202020202020202020202020202020c7
:103208002020202020202020202020202020207c5a
:103218000d0a7c20417574686f723a204d656f778e
:103228007321202020202020202020202020202042
:103238002020202020202020202020202020202086
:103248002020202020202020202020202020202076
:103258002020207c0d0a7c202020202020202020d7
:103268002020202020202020202020202020202056
:103278002020202020202020202020202020202046
:103288002020202020202020202020202020202036
:10329800202020202020207c0d0a7c204461746599
:1032a8003a202020203230323620202020202020b2
:1032b8002020202020202020202020202020202006
:1032c80020202020202020202020202020202020f6
:1032d80020202020202020202020207c0d0a2b2d9b
:1032e8002d2d2d2d2d2d2d2d2d2d2d2d2d2d2d2d06
:1032f8002d2d2d2d2d2d2d2d2d2d2d2d2d2d2d2df6
:103308002d2d2d2d2d2d2d2d2d2d2d2d2d2d2d2de5
:103318002d2d2d2d2d2d2d2d2d2d2d2d2d2d2d2bd7
:103328000d0a7c20494e535452554354494f4e532d
:103338003a2031202d2052656d6f74652c20322083
:103348002d204c696e652c2033202d2057616c6c24
:103358002020202020202020202020202020202065
:103368002020207c0d0a2b2d2d2d2d2d2d2d2d2da2
:103378002d2d2d2d2d2d2d2d2d2d2d2d2d2d2d2d75
:103388002d2d2d2d2d2d2d2d2d2d2d2d2d2d2d2d65
:103398002d2d2d2d2d2d2d2d2d2d2d2d2d2d2d2d55
:1033a8002d2d2d2d2d2d2d2b0d0a0d0a44697265fd
:1033b8006374696f6e3a200d0a53706565643a202c
:1033c8000d0a4d6f64653a200d0a49520d0a4c45a5
:1033d80046543a200d0a43454e5445523a200d0aa8
:1033e80052494748543a200d0a00c0461b5b333700
:1033f8003b34306d0000c0461b5b33363b34306dc8
:103408000000c0461b5b33353b34306d0000c046be
:103418001b5b33333b34306d0000c0461b5b3937d0
:103428003b34316d0000c0461b5b39323b34306d94
:103438000000c0461b5b39373b34346d0000c04682
:103448001b5b33303b34376d0000c046f43300005b
:103458000800000000340000080000000c340000e0
:1034680008000000183400000800000024340000a0
:103478000800000030340000080000003c34000060
:103488000800000048340000080000001b5b3134cd
:103498003b3230481b5b304b0000c04653544f5002
:1034a8000000c046464f5257415244004241434be8
:1034b800574152440000c046524947485400c0464c
:1034c8004c4546540000c0461b5b31353b32304802
:1034d8001b5b304b0000c046706c616365686f6ca5
:1034e800646572001b5b31363b3230481b5b304be6
:1034f8000000c04652454d4f544500004c494e45ca
:103508002d464f4c4c4f57494e47000057414c4ca5
:103518002d464f4c4c4f57494e47000053414645a6
:103528000000c0461b5b31383b3230481b5b304bd8
:103538000000c04644455445435445440000c04635
:103548004e4f4e450000c0461b5b31393b32304878
:103558001b5b304b0000c0461b5b32303b323048af
:103568001b5b304b0000c046dc1e00000c1f000037
:103578003c1f00006c1f0000a41f00005b31357e5b
:103588000000c0468e27000094270000a2270000f4
:08359800b0270000be2700006f
:020000040000fa
:1035a00080b582b000af7860396043f20043c4f266
:1035b00000239b68802213405bb943f20043c4f2ae
:1035c00000237a685a6743f20043c4f200233a6842
:1035d0001a67c046bd4602b080bd90b585b000af49
:1035e000040008001100fb1d221c1a70bb1d021ce8
:1035f0001a707b1d0a1c1a70fb1d1b788bb3bb1d38
:103600001b7873b37b1d1b785bb300f0cafd40f2df
:103610002033c2f2000321221a6040f22433c2f2a6
:1036200000031e221a600023fb6010e040f22033ea
:10363000c2f200031a6840f22433c2f200031b688e
:1036400019001000fff7acfffb680133fb60fb685b
:10365000182bebdd40f22833c2f2000300221a607f
:1036600071e1fb1d1b7863b3bb1d1b780122534026
:10367000dbb233b37b1d1b781bb300f064fd40f25b
:103680002033c2f200030a221a6040f22433c2f24d
:10369000000319221a6040f22033c2f200031a68b4
:1036a00040f22433c2f200031b6819001000fff738
:1036b00077ff40f22833c2f20003022252421a601e
:1036c00041e1fb1d1b7801225340dbb243b3bb1d1c
:1036d0001b7801225340dbb213b37b1d1b78012200
:1036e0005340dbb2e3b100f02efd40f22033c2f2d2
:1036f000000319221a6040f22433c2f200030a22a6
:103700001a6040f22033c2f200031a6840f22433f8
:10371000c2f200031b6819001000fff741ff12e11d
:10372000fb1d1b787bb3bb1d1b7801225340dbb212
:103730004bb37b1d1b7801225340dbb21bb300f05f
:1037400002fd40f22033c2f200030a221a6040f266
:103750002433c2f2000319221a6040f22033c2f26d
:1037600000031a6840f22433c2f200031b681900f8
:103770001000fff715ff40f22833c2f200030222c7
:1037800052421a60dfe0fb1d1b7863b3bb1d1b7840
:103790004bb37b1d1b7801225340dbb21bb300f0ff
:1037a000d2fc40f22033c2f200031e221a6040f223
:1037b0002433c2f200031e221a6040f22033c2f208
:1037c00000031a6840f22433c2f200031b68190098
:1037d0001000fff7e5fe40f22833c2f20003012299
:1037e00052421a60afe0fb1d1b7801225340dbb24e
:1037f0005bb3bb1d1b7801225340dbb22bb37b1d97
:103800001b7813b300f0b6fc40f22033c2f2000381
:1038100021221a6040f22433c2f2000314221a60fb
:1038200040f22033c2f200031a6840f22433c2f29d
:1038300000031b6819001000fff7b2fe40f22833a6
:10384000c2f2000302221a607de0fb1d1b780122f8
:103850005340dbb243b3bb1d1b782bb37b1d1b78de
:1038600013b300f087fc40f22033c2f2000326229b
:103870001a6040f22433c2f200031e221a6040f2a2
:103880002033c2f200031a6840f22433c2f200036c
:103890001b6819001000fff783fe40f22833c2f2c4
:1038a000000301221a604ee0fb1d1b7801225340e9
:1038b000dbb25bb3bb1d1b7843b37b1d1b780122be
:1038c0005340dbb213b300f06cfc40f22033c2f281
:1038d000000321221a6040f22433c2f200031e22a8
:1038e0001a6040f22033c2f200031a6840f2243317
:1038f000c2f200031b6819001000fff751fe40f2ee
:103900002833c2f2000300221a601ce000f049fcd8
:1039100040f22033c2f2000321221a6040f2243325
:10392000c2f200031e221a6040f22033c2f20003ea
:103930001a6840f22433c2f200031b681900100019
:0c394000fff72efec046bd4605b090bd4e
:020000040000fa
:10394c000023f0b506001500b1b007910393079959
:10395c000b78002b00d10ae101235b420c9310abd6
:10396c0000240e9380230b940d940f930b5d0bb1dd
:10397c00252b29d134b12200300001f032fa079bfb
:10398c001b190793079b1a78252a00d0e4e040f214
:10399c00020c012110270133049307930798037835
:1039ac002b2b1ad025d8202b1ad0232b1dd02a2b09
:1039bc0028d001f090f90d90079b1a78303a092a1b
:1039cc0031d801330793f7e70134cfe70b9b05930d
:1039dc000b4301300b930790e0e704230b9a0fe0a5
:1039ec000b9b0593059a08230ae00b9b05933b431d
:1039fc00efe72d2bead0302bd9d162460b9b0593e8
:103a0c001343e6e72b6801301a1d1b6807902a60e8
:103a1c000d93002b07da0b9a5b4205920122059954
:103a2c000d934a400b920b9bda0702d5022293436b
:103a3c000b93079b1a782e2a0ed10022581c0c923d
:103a4c0007905a782a2a27d1023307932b681a1d1c
:103a5c001b682a6005930c9307a801f093f9079b48
:103a6c000700187801f063fa692800d182e034dc91
:103a7c00632800d1d7e01adc252800d1e4e06128c6
:103a8c0058d0049b01220793002352420c920b93b3
:103a9c000d9300930232e1e001f01df90c90079bad
:103aac001a78303a092ad7d801330793f7e76428f4
:103abc0060d06728e5dc2a00390008a801f07cf901
:103acc00002800d1abe0079b0ba95a1c07921b786e
:103adc0008aa300001f042fa3de0702800d17be0ea
:103aec0016dc6e2800d193e06f28cad12b0000227f
:103afc00390008a800f0adfd002800d18fe0079b2d
:103b0c0008aa01330ba93000079301f025fa22e033
:103b1c00752840d078284ed07328b2d1802f00d091
:103b2c007de0079b2a6801330793131d2b601268f5
:103b3c00002384e02a00390008a801f03df9002890
:103b4c0000d16ce0079b0ba95a1c07921b7808aaa2
:103b5c00300001f003fa2418039b1c19a34200dc6b
:103b6c007ee04f223f4b1a6001235b420393039884
:103b7c0031b0f0bd2b000122390008a800f069fd1e
:103b8c0000284cd0079b08aa01330ba930000793df
:103b9c0000f0bafddfe72b000022390008a800f086
:103bac0058fde0b3079b08aa01330ba9300007931b
:103bbc0000f0baffcfe72b000022390008a800f074
:103bcc0048fd60b3079b5a1c07921b7808aa0ba9e7
:103bdc00300001f0c3f9bee72b000022f02108a849
:103bec0000f037fdd8b1079b099a01330793089b66
:103bfc0013435bb91c4801f039f902000b9b1a49bd
:103c0c0000930d9b300000f0b6fea4e77823dde7af
:103c1c00039b39001a1908a82b0000f023ff079bff
:103c2c000133079398e7802ff9d1079b0133079352
:103c3c002b681a1d1b682a6008aa137001230ba994
:103c4c00300000f09dff86e7802fe8d10122079b12
:103c5c00013307930b9b049300930d9b0349d1e70e
:103c6c00039474e634030020484f00004e4f0000cc
:020000040000fa
:103c7c00f0b585b000930393009b02900c001600e6
:103c8c00150001900f00002b00d0c9e08a424ad9e0
:103c9c00100001f03ff848b12023019f1b1adf40b0
:103cac00019b84408340854027430193aab22b0c8f
:103cbc00b7fbf3f1160094461a004a434e43bf1a61
:103ccc00019a3f04140c27430a00be4207d97f19fe
:103cdc00013abd4203d8be4201d98a1e7f19be1bd0
:103cec00b6fbf3f14b436446f61a6b464c439b8888
:103cfc0036041e430f00b44207d97619013fb54272
:103d0c0003d8b44201d98f1e76191204341b3a43de
:103d1c000a9b23b1c4401c6000230a994b6010001d
:103d2c00009905b0f0bd02b9ffde100000f0f2ff03
:103d3c00b8bb0123a41b00932b0cb4fbf3f21f00a4
:103d4c0011005743aeb27143e41b019f24043f0c96
:103d5c003c439446a1420ad9012764197f42bc44d2
:103d6c00a54204d8a14202d9023a94466419641ab5
:103d7c00b4fbf3f77b43e41a6b467e439b88240425
:103d8c001c433900a64207d964190139a54203d84e
:103d9c00a64201d9b91e641963461a04a41b0a432e
:103dac00b6e7202223000199121ad3408440d14057
:103dbc00019a8540824021438c46290cb3fbf1f4d7
:103dcc0001920a00624326009b1a6246afb27e4300
:103ddc00120c1b04134322009e4207d95b19013ab3
:103dec009d4203d89e4201d9a21e5b199b1bb3fbbb
:103dfc00f1f671435b1a614677438cb21b041c438a
:103e0c003100a74207d964190139a54203d8a7424a
:103e1c0001d9b11e641912040a43e41b00928be70a
:103e2c00009b8b420ad90a9b002b00d1abe0029a73
:103e3c0059601a60002300931a0070e7039800f091
:103e4c0069ffd8b9039ba34203d3029b02009e4295
:103e5c000ad8029b01229e1b039b0196e41a029b2b
:103e6c00b342ad416d42671b0a9b0093002b00d1fe
:103e7c0055e7019982c30023009350e720231b1ab6
:103e8c0001933300019a039fd34087401f432300c3
:103e9c000199d340029a8440ca4022439446029a24
:103eac00390c8240b3fbf1f402920a008640624363
:103ebc00009626009b1a6246bdb26e43120c1b0480
:103ecc00134322009e4207d9db19013a9f4203d8c3
:103edc009e4201d9a21edb199e1bb6fbf1f4634670
:103eec0061436543761a360499b20e432300b542fa
:103efc0007d9f619013bb74203d8b54201d9a31e25
:103f0c00f61912041a436b461c88009b711b8c46d5
:103f1c00190c230096b2150c6c4373434d4371433b
:103f2c001e0c091971188c4202d9802464022d19b7
:103f3c000c0c9bb209046519c918ac4503d30bd101
:103f4c00029b8b4208d2009b013ace1ab1428941a6
:103f5c004942cf193100ed1b0a9b0093002b00d175
:103f6c00dde6029b019c591a63465d1b029b8b424a
:103f7c009b415b42ed1a2b00c140a340c540194345
:0a3f8c000a9b22c377e70a9b55e762
:020000040000fa
:023f9600fee744
:020000040000fa
:103f980080b500af43f20023c4f200031a6943f26c
:103fa8000023c4f2000308218a431a6143f2002364
:103fb800c4f200031a6943f20023c4f20003042187
:103fc8008a431a61c046bd4680bd80b500af43f242
:103fd8000023c4f2000390229a5843f20023c4f24b
:103fe800000309490a4090215a5043f20023c4f2c1
:103ff80000031a6943f20023c4f2000303490a408c
:104008001a61c046bd4680bdffff7ffffffff7ff77
:1040180080b500af43f20023c4f200031a6943f2eb
:104028000023c4f2000308218a431a6143f20023e3
:10403800c4f200031a6943f20023c4f20003042106
:104048000a431a61c046bd4680bd80b500af43f241
:104058000023c4f2000390229a5843f20023c4f2ca
:104068000003802109040a4390215a5043f2002397
:10407800c4f200031a6943f20023c4f2000303499f
:104088000a401a61c046bd4680bdc046fffff7ff23
:1040980080b500af43f20023c4f200031a6943f26b
:1040a8000023c4f2000308210a431a6143f20023e3
:1040b800c4f200031a6943f20023c4f20003042186
:1040c8008a431a61c046bd4680bd80b500af43f241
:1040d8000023c4f2000390229a5843f20023c4f24a
:1040e80000030a490a4090215a5043f20023c4f2bf
:1040f80000031a6943f20023c4f200038021090374
:104108000a431a61c046bd4680bdc046ffff7fff17
:1041180080b500af43f20023c4f2000390229a58fe
:1041280043f20023c4f2000308210a4390215a50a5
:10413800fff74bfffff72cffc046bd4680bd80b59b
:1041480000af43f20023c4f2000390229a5843f2ce
:104158000023c4f2000308210a4390215a50fff7b4
:1041680074fffff795ffc046bd4680bd80b500af20
:1041780043f20023c4f2000390229a5843f200232a
:10418800c4f2000308210a4390215a50fff79dff0b
:10419800fff73effc046bd4680bd80b500af43f285
:1041a8000023c4f2000390229a5843f20023c4f279
:1041b800000308210a4390215a50fff746fffff7f2
:1041c80027ffc046bd4680bd80b500af43f200233f
:1041d800c4f2000390229a5843f20023c4f2000369
:1041e80008210a4390215a50fff76ffffff750ff4d
:0841f800c046bd4680bdc04673
:020000040000fa
:1042000080b582b000af40f21833c2f200031b68e1
:104210007b60c04640f21833c2f200031b687a6824
:104220009a42f0d17b681800bd4602b080bd80b5cf
:1042300000affef70efd40f21c33c2f200031b6814
:104240005a1c40f21c33c2f200031a6016e040f21e
:104250001c33c2f200031b68403b1a0040f21c33bf
:10426000c2f200031a6040f21833c2f200031b6866
:104270005a1c40f21833c2f200031a6040f21c3399
:10428000c2f200031b683f2be1dc40f21433c2f2a0
:1042900000031b685a1c40f21433c2f200031a6078
:1042a000c046bd4680bd80b500af42f60023c4f2d3
:1042b00000035b69012213405bb142f60023c4f2a4
:1042c00000035a6942f60023c4f2000301210a43a5
:1042d0005a61c046bd4680bd80b500af42f600239e
:1042e000c4f200035b69022213405bb142f6002373
:1042f000c4f200035a6942f60023c4f2000302210b
:104300000a435a61c046bd4680bd80b500af42f643
:104310000023c4f200035b69042213405bb142f640
:104320000023c4f200035a6942f60023c4f20003da
:1043300004210a435a61c046bd4680bd80b500af26
:1043400042f60023c4f200035b6940221340c3b16c
:1043500040f22003c2f200031b88022213439ab2e8
:1043600040f22003c2f200031a8042f60023c4f296
:1043700000035a6942f60023c4f2000340210a43b5
:104380005a61c046bd4680bd80b584b000af78603c
:1043900039603a687b689a4204d87a683b68d31ad5
:1043a000fb6007e03a687b68d31afb60c046fb6895
:1043b0000233fb60fb681800bd4604b080bd80b5c9
:1043c00082b000af40f21433c2f200031b687b607e
:1043d000c04640f21433c2f200031b681a007b6827
:0e43e0009342efd17b681800bd4602b080bd4d
:020000040000fa
:0243ee00704716
:020000040000fa
:1043f000464f5257415244005455524e205249475d
:10440000485400005455524e204c45465400c04676
:104410005455524e2041524f554e4400554e4b4e2e
:104420004f574e002853544545522048415244208e
:104430004c4546542900c046285354454552204c0b
:10444000454654290000c04628535445455220484b
:1044500041524420524947485429000028535445aa
:1044600045522052494748542900c0462843454eea
:10447000544552290000c046464f4c4c4f5700004f
:104480005345454b0000c046284e2f412900c046e9
:104490001b5b32303b31485269676874202d2052d3
:1044a00061773a2025356c7520207c202044697383
:1044b000743a2025326c7520636d202020201b5b10
:1044c00032313b314846726f6e74202d2052617735
:1044d0003a2025356c7520207c2020446973743a7d
:1044e0002025326c7520636d202020201b5b32322a
:1044f0003b31484c65667420202d205261773a206c
:1045000025356c7520207c2020446973743a202561
:10451000326c7520636d202020201b5b32333b31d1
:10452000484465636973696f6e3a20252d31327393
:10453000202020202020202020202020202020207b
:1045400020202020202020202020201b5b32343bf4
:10455000314850494420436f7272656374696f6ecd
:104560003a20252b34642020252d3238732020203a
:104570002020202020202020202020200000c046b5
:10458000ac0b0000200e0000980e0000140f00007d
:104590008a0f000034100000461000005810000080
:0845a0006a1000007c1000000d
:020000040000fa
:1045a80030b405004d400124e407254042004b008b
:1045b800120e32d01b0e3cd0ff2a33d0ff2b3fd037
:1045c800d21800022043000a09022143090ac4b292
:1045d8004c43000ac3b24b43000a4843210a5b1804
:1045e800190a091801d44900013a080a7f3a2adb56
:1045f800fe2a0fd2d2051c43240601d001242143f0
:10460800c9b280295041802901d14008400028437f
:1046180030bc7047ff20c005f9e71b0eff2b0ad0fe
:104628002800f5e7400206d1ff2bf3d1490202d159
:10463800f0e7ff2af4d17f2000010c300005e7e7fe
:104648004902f8d1e6e743020132e9d15b120233ad
:06465800e6d9d805e4e7f5
:020000040000fa
:10465e0010b588293ad014dc81294ad003dc802990
:10466e0047d0002010bd822910d08429f9d11968b5
:10467e002ab30a1d1a6000228b5e0360db174360ab
:10468e0010e0a0292ed00fdc9029ead1196807245a
:10469e006ab30919a1430a0008321a600b684c6804
:1046ae00036044600120dde7c02901d0f029d8d194
:1046be001a68111d1960136803600023dfe70c1dd3
:1046ce001c600b689bb203604260ebe7196822b175
:1046de000a1d1a600023cb56cfe70c1d1c600b6819
:1046ee00dbb2f0e71a68111d19601368c5e70731d0
:1046fe00d0e719681ab10a1d1a600b68bde70c1dc8
:06470e001c600b68dfe7f0
:020000040000fa
:10471400f0b54b6889b005930b6807009c46079376
:10472400cb680c008e6810685168cd0f0493002d7f
:1047340041d00b000200002150429941059b002bff
:1047440007db022263469343079315b9079b5a0775
:1047540028d5731e07aa02920a22009301920b0025
:104764000200200000f048f915b9079b5a071dd52f
:1047740001382d2305b9023b049a135423695a1ea8
:10478400049b121a1918079b38000093330000f099
:10479400f6f87b68db0503d56368984200da1800f5
:1047a40009b0f0bd1b07db0ff31ad3e71b07e5d5f0
:0e47b40001382023e0e7059b002bc2dac6e7a0
:020000040000fa
:1047c20080b500af43f20023c4f200031b6a40f637
:1047d200000213400bb9002300e001231800bd467c
:1047e20080bd80b500af01231800bd4680bd80b5f5
:1047f20000af01231800bd4680bd80b500af43f273
:104802000023c4f200031b6a40f6000213400bb9f6
:10481200002300e001231800bd4680bd80b500af33
:1048220043f20023c4f200031b6a40f20042134029
:104832000bb9002300e001231800bd4680bd80b5fe
:1048420000af43f20023c4f200031b6a40f20022cd
:1048520013400bb9002300e001231800bd4680bdc0
:020000040000fa
:0248620070479d
:020000040000fa
:1048640038030020040000000100000000000000e4
:10487400e80200201c0000000000000000000020ee
:10488400cc01000000000000040300201c00000014
:1048940000000000cc010020a8000000000000007f
:1048a4003c0300200400000001000000e7030000b6
:1048b400c4020020210000000000000020030020aa
:1048c40010000000000000007402002050000000ee
:1048d4000000000030030020080000000000000079
:1048e400400300200400000001000000000000005c
:1048f4000000000000000000666666666666666684
:020000040000fa
:1049040040f20003c0f2000323b140f20003c0f2fe
:104914000003984740f20003c0f2000323b140f2c1
:104924000003c0f20003984700f016fa40f20003b7
:10493400c0f200037f2293434ef60052cef20002ef
:10494400936044f6d923c0f20003984740f2000371
:10495400c0f2000323b140f20003c0f20003984701
:1049640040f20003c0f2000323b140f20003c0f29e
:0e4974000003984700210020fdf78bfefee7b0
:020000040000fa
:10498200f0b51d00012389b014000e9a06001a40ea
:10499200039102920ab9a5420ad822000399300073
:1049a20000f024faa54203d82500280009b0f0bd82
:1049b2002f1b01973a00102f00d91022202104a8a2
:1049c20000f09dfa019b0f2b0ed80f2204a93a404a
:1049d200300000f00bfa029b002be6d12200039973
:1049e200300000f003fae0e7102204a9300000f0e2
:0a49f200fdf9019b103b0193e4e77f
:020000040000fa
:1049fc00f7b5040019000a9fe368666800933b68ea
:104a0c00100001932369013b1c00002e00da0126e3
:104a1c000022009dea5435000123002c02dce3b196
:104a2c002000febd02000a434ab9002d07dc089a9b
:104a3c00921b5219002af2dd019a9207efd5099bbd
:104a4c00099adb1700f008f98c460099013c130019
:104a5c0030320a55013d6146dfe710233a689a432c
:044a6c003a60dde7e8
:020000040000fa
:104a700010b584291fd007dc812915d0822922d0c6
:104a8000802911d0002010bd90291cd008dc882975
:104a9000f8d119680c1d1c600b6803601a7010e0d7
:104aa000a02901d0c029edd119680c1d1c600b682c
:104ab00003601a6005e019680c1d1c600b68036038
:104ac0001a800120dfe719680c1d1c600b68036069
:084ad0001a60d2175a60f4e7e6
:020000040000fa
:104ad80000230e4a10b513600d4a0e4c13600e4a9f
:104ae80013600e4a13600e4a13600e4a5362136134
:104af80001339360fff7b1fefff7affe0a4b9c420c
:104b080000d310bd08cc9847f8e7c0463003002012
:104b180080020020680100007c020020740200204e
:0c4b280078020020840200206c010000d4
:020000040000fa
:104b3400f0b50b680c008f68cd68496887b0060033
:104b44000593002902db02218b43059305a95368d1
:104b5400126802910a21009701912000fff74cff8f
:104b6400236929185a1e059b121a009330003b0032
:104b7400fff705ff7368db0503d56368984200da25
:064b8400180007b0f0bdaf
:020000040000fa
:104b8c00f0b50f00150087b0039007220e4904a85a
:104b9c001c0000f0b9f9bb687e6802933f6805b948
:104bac0004ad1cb9280000f061f90400002e02dbf2
:104bbc00b44200d934000097029b220029000398cc
:0c4bcc00fff7d9fe07b0f0bd584f000005
:020000040000fa
:104bd80030b51500012289b0524201920432ff32e9
:104be800029200b9684603900491002401b14c1e5a
:104bf8000594002906da4f220120074b40421a602b
:104c080009b030bd00220790027006901a002900f2
:0c4c180001a800f045f9f3e73403002088
:020000040000fa
:104c240010b5054c227832b9044b13b1044800e0a6
:104c340000bf0123237010bde80200200000000023
:104c440000000000034b10b51bb10349034800e00a
:104c540000bf10bd00000000ec02002000000000b6
:020000040000fa
:104c6400002b11d1002a0fd1002900d1002802d035
:104c74000021c943081c07b4024802a1401802904d
:104c840003bdc046e902000003b4684601b50298ba
:104c9400fef7f2ff019b9e4602b00cbc7047c04673
:020000040000fa
:104ca4004200110e7f390fd40123db0749421f3123
:104cb4000cdd400003d2c0011843c8407047c00156
:104cc4001843c8404042704700207047ff2109063e
:0e4cd4008a4200d99843184000d4d843704754
:020000040000fa
:104ce200030010b51a78202a0dd0110009390429c1
:104cf20009d900212b2a02d02d2a01d101310133f9
:104d020000200a2404e00133ece760430133801af7
:0e4d12001a78303a092af8d901b9404210bd8a
:020000040000fa
:104d20001c2101231b04984201d3000c10391b0adb
:104d3000984201d3000a08391b09984201d300099f
:104d4000043902a2105c40187047c04604030202f6
:0c4d500001010101000000000000000053
:020000040000fa
:104d5c0010b50a48016821b9436813b9fff741fb44
:104d6c0010bd04008368064a9bb20c349b009b5810
:104d7c0042682000984780002018ebe76448000048
:044d8c00ec4e0000e9
:020000040000fa
:104d900070b5040000200a4b4200d55c15b9d2184a
:104da000507870bd216801300e78c0b2ae4204d197
:104db000034b0131d218507821600a28ebd9f0e773
:044dc000d64e0000cb
:020000040000fa
:104dc400002380290fdb812901dd83290bd10721f1
:104dd400136807338b431900083111601a685b6844
:0a4de40002604360012318007047cd
:020000040000fa
:104dee0070b505690400954200d915005db12a0021
:104dfe00606900f088f8226963695b19551b00220f
:084e0e00636125611a7070bd9b
:020000040000fa
:104e1600c20f12029d3201000cd001d5494202d4c4
:104e2600013a4900fcd5d205080a0906494100d3d2
:064e360001295041704704
:020000040000fa
:104e3c00002310b5934206d103201840421e904126
:0e4e4c009b08c01810bdc45ccc540133f2e7c3
:020000040000fa
:104e5a0030b50024a24207d0035d4d1e01342d5dfa
:0c4e6a00ab42f7d0581b00e0002030bd28
:020000040000fa
:104e7800037833b1030001331a78002afbd1181ada
:084e880070470020fce7c04662
:020000040000fa
:104e900010b5fff73ffcfff779fefff74bfefff77a
:084ea000defbfff7e5fd10bd8c
:020000040000fa
:104ea80013b50400019201aafef74cfd6368db0606
:084eb80001d50120404216bda6
:020000040000fa
:104ec0000cb407b504ab04cb0193fff785fe03b028
:064ed00008bc02b0184707
:020000040000fa
:104ed60068076c094c836a9074a07ac00080688861
:064ee60000846c820081d3
:020000040000fa
:104eec00294f00003d4e0000614f0000614f000053
:044efc00614f000002
:020000040000fa
:104f000032b10300c9b28218197001339342fbd148
:044f10007047c046e0
:020000040000fa
:104f140010b52ab10023cc5cc45401339342fad1b6
:044f240010bdc046b6
:020000040000fa
:104f28008a18914201d10020704700230b7001318b
:024f3800f7e799
:020000040000fa
:0e4f3a000300413b192b01d820231843704778
:020000040000fa
:084f4800286e696c29002500a8
:020000040000fa
:084f500010b5fff7f2ff10bde0
:020000040000fa
:074f5800286e756c6c290046
:020000040000fa
:044f60000020704776
:020000040000fa
:044f64000020704772
:020000040000fa
:044f6800002070476e
:020000040000fa
:044f6c00002070476a
:020000040000fa
:044f70007047c04680
:00000001FF
