:020000040000fa
:10000000f87f0020e54200007335000073350000e2
:1000100000000000000000000000000000000000e0
:100020000000000000000000000000007335000028
:10003000000000000000000073350000333d0000a8
:10004000733500007335000073350000ab3d0000d0
:10005000dd3d00000f3e00007335000073350000e9
:1000600073350000733500007335000073350000f0
:1000700073350000733500007335000073350000e0
:1000800073350000733500007335000073350000d0
:1000900073350000733500007335000073350000c0
:1000a00073350000733500007335000073350000b0
:1000b00073350000733500007335000073350000a0
:1000c0007335000073350000733500007335000090
:1000d0007335000073350000733500007335000080
:1000e0007335000073350000733500007d29000072
:1000f00073350000832a000073350000733500005b
:10010000733500007335000073350000733500004f
:10011000733500007335000073350000733500003f
:10012000733500007335000073350000733500002f
:10013000733500007335000073350000733500001f
:10014000733500007335000073350000733500000f
:0c015000733500007335000073350000ab
:020000040000fa
:10015c00f8b5c046f8bc08bc9e467047e5430000a5
:10016c00f8b5c046f8bc08bc9e467047c1430000b9
:020000040000fa
:10017c0080b584b000af78607b68002b01da002377
:10018c007b607b68642b01dd64237b607b68002bc8
:10019c0004dd7b68092b01dc0a237b607a68130081
:1001ac005b009b185a019b18642293fbf2f3fb60d3
:1001bc0043f20043c4f200239b68802213402bb906
:1001cc0043f20043c4f20023fa685a67fb68180034
:1001dc00bd4604b080bd80b584b000af78607b684c
:1001ec00002b01da00237b607b68642b01dd642328
:1001fc007b607b68002b04dd7b68092b01dc0a2308
:10020c007b607a6813005b009b185a019b18642270
:10021c0093fbf2f3fb6043f20043c4f200239b68b0
:10022c00802213402bb943f20043c4f20023fa6836
:10023c001a67fb681800bd4604b080bd80b584b059
:10024c0000af78600023fb6002e0fb680133fb60c9
:10025c007a6813009b009a18fb689a42f5d8c0463e
:10026c00bd4604b080bd80b584b000af786000237b
:10027c00fb600de00023bb6002e0bb680133bb6098
:10028c00bb6840f69f729342f7ddfb680133fb605d
:10029c00fa687b689a42eddbc046bd4604b080bd6f
:1002ac0080b582b000af00237b6043f20023c4f220
:1002bc0000039422042199500220fff7bfff43f260
:1002cc000023c4f200039822042199500a20fff75e
:1002dc00b5ff43f20023c4f2000394220421995089
:1002ec0041f288333b6009e03b68013b3b603b6873
:1002fc0023b948f29f63c0f2010327e043f20023c5
:10030c00c4f20003a0229a588023db031340002b75
:10031c00ead041f288333b600ce07b6801337b60b0
:10032c003b68013b3b603b6823b948f29f63c0f2da
:10033c0001030be043f20023c4f20003a0229a58fd
:10034c008023db031340002be7d17b681800bd46ec
:10035c0002b080bd80b582b000af00237b6043f259
:10036c000023c4f20003802292025a610220fff79c
:10037c0065ff43f20023c4f20003802292029a61cb
:10038c000a20fff75bff43f20023c4f20003802234
:10039c0092025a6141f288333b6009e03b68013bb1
:1003ac003b603b6823b948f29f63c0f2010325e030
:1003bc0043f20023c4f200031a6a8023db021340c9
:1003cc00002bebd041f288333b600ce07b680133af
:1003dc007b603b68013b3b603b6823b948f29f6301
:1003ec00c0f201030ae043f20023c4f200031a6acc
:1003fc008023db021340002be8d17b681800bd463c
:10040c0002b080bd80b582b000af00237b6043f2a8
:10041c000023c4f2000301225a610220fff70efff1
:10042c0043f20023c4f2000301229a610a20fff771
:10043c0005ff43f20023c4f2000301225a6141f28a
:10044c0088333b6009e03b68013b3b603b6823b968
:10045c0048f29f63c0f2010323e043f20023c4f28d
:10046c0000031b6a02221340002becd041f28833ac
:10047c003b600ce07b6801337b603b68013b3b607d
:10048c003b6823b948f29f63c0f2010309e043f2d1
:10049c000023c4f200031b6a02221340002be9d193
:1004ac007b681800bd4602b080bd80b500af43f23a
:1004bc000023c4f20003802292029a6043f20023cc
:1004cc00c4f200038022d2025a6043f20023c4f229
:1004dc00000352220221995443f20023c4f2000378
:1004ec0001229a6043f20023c4f2000302225a60f4
:1004fc0043f20023c4f2000341220221995443f237
:10050c000023c4f2000388220421995043f20023f3
:10051c00c4f2000384218022d2035a5043f20023f8
:10052c00c4f20003d62202219954c046bd4680bdb8
:10053c0080b582b000af78607b68552b01d8012361
:10054c0056e07b686e2b01d8022351e07b68822b2e
:10055c0001d803234ce07b68be2b01d8042347e071
:10056c007b68dc2b01d8052342e07b6840f2041247
:10057c00934201d806233be07b6840f22c12934255
:10058c0001d8072334e07b6840f25e12934201d815
:10059c0008232de07b6840f2ae12934201d8092368
:1005ac0026e07b6840f2d612934201d80a231fe062
:1005bc007b6840f20822934201d80b2318e07b6839
:1005cc0040f23022934201d80c2311e07b6840f2b8
:1005dc005822934201d80d230ae07b6840f28a220c
:1005ec00934201d80e2303e07b682c22b3fbf2f379
:1005fc001800bd4602b080bd80b582b000af7860f7
:10060c007b68642b01d801233ae07b68782b01d8f6
:10061c00022335e07b68872b01d8032330e07b680d
:10062c00be2b01d804232be07b68e62b01d80523d5
:10063c0026e07b6840f21812934201d806231fe093
:10064c007b6840f24012934201d8072318e07b6884
:10065c0040f27c12934201d8082311e07b6840f2ef
:10066c009012934201d809230ae07b6840f2c2122f
:10067c00934201d80a2303e07b682c22b3fbf2f3ec
:10068c001800bd4602b080bd80b582b000af786066
:10069c007b68642b01d801233ce07b68782b01d864
:1006ac00022337e07b68962b01d8032332e07b686a
:1006bc00e62b01d804232de07b6840f218129342fc
:1006cc0001d8052326e07b6840f24012934201d802
:1006dc0006231fe07b6840f27c12934201d807236b
:1006ec0018e07b6840f29a12934201d8082311e07b
:1006fc007b6840f2d612934201d809230ae07b684a
:10070c0040f20822934201d80a2303e07b682c2292
:10071c00b3fbf2f31800bd4602b080bd80b582b0c9
:10072c0000af78607b68012b0dd07b6833b17b68a0
:10073c00022b0dd07b68032b0fd013e044f23c034b
:10074c00c0f2000312e044f24403c0f200030de0d7
:10075c0044f25003c0f2000308e044f25c03c0f220
:10076c00000303e044f26803c0f200031800bd4626
:10077c0002b080bd80b584b000aff860b9607a601b
:10078c0000231800bd4604b080bd80b586b000af14
:10079c00f860b9607a603b60fb68642b01d9002378
:1007ac0014e0fb68023b3b6100237b613b69012b3e
:1007bc0002dd01237b6108e03b69013303da01238d
:1007cc005b427b6101e000237b617b691800bd46c5
:1007dc0006b080bd80b582b000af78607b6807330f
:1007ec0004da44f27003c0f200031be07b68002bb8
:1007fc0004da44f28403c0f2000313e07b68072b95
:10080c0004dd44f29403c0f200030be07b68002b80
:10081c0004dd44f2a803c0f2000303e044f2b80381
:10082c00c0f200031800bd4602b080bd80b584b094
:10083c0000af786003f060fa0300fb607b68022b6a
:10084c0036d140f28c23c2f200031a68fb68110007
:10085c00180003f0effa0300132b47d940f28c2356
:10086c00c2f20003fa681a6040f29023c2f200034d
:10087c001b785a425341dbb21a0040f29023c2f269
:10088c0000031a7040f29023c2f200031b783bb1b4
:10089c0043f20023c4f2000348f200029a6125e0ff
:1008ac0043f20023c4f2000348f200025a611de037
:1008bc007b68012b0dd143f20023c4f2000348f2f4
:1008cc0000025a6140f29023c2f2000300221a7017
:1008dc000ce043f20023c4f2000348f200025a6118
:1008ec0040f29023c2f2000300221a70c046bd46ab
:1008fc0004b080bd80b592b000af40f29123c2f23b
:10090c0000031b788bb940f29123c2f20003012241
:10091c001a70fff7cafd43f20023c4f2000348f239
:10092c0000029a600020fff781ff03f0e5f9030055
:10093c003b63fff7b5fc0300fb62fff70bfd030005
:10094c00bb62fff75ffd03007b62fb6a1800fff7d9
:10095c00effd03007b64bb6a1800fff74dfe03003c
:10096c003b627b6a1800fff78ffe03003b64fb6a57
:10097c0041f28832934202d87b6c022b01d80123be
:10098c007b647b6a41f28832934202d83b6c022b27
:10099c0001d801233b647a6c40f29423c2f2000329
:1009ac001b68d31ada179b185340fb613a6a40f262
:1009bc009823c2f200031b68d31ada179b18534012
:1009cc00bb613a6c40f29c23c2f200031b68d31a41
:1009dc00da179b1853407b61fb69012b00dd79e032
:1009ec00bb69012b00dd75e07b69012b72dc40f2e9
:1009fc00a023c2f200031b6833b940f2a023c2f259
:100a0c0000033a6b1a6093e040f2a023c2f2000399
:100a1c001a683b6b1100180003f00cfa0300272b2b
:100a2c0000d885e040f2a423c2f200031b78002b0f
:100a3c0000d07de040f2a523c2f200031b78002b0e
:100a4c0076d140f2a823c2f200031b689133ff3326
:100a5c001a0040f2a823c2f200031a6040f2a82345
:100a6c00c2f200031b6842f20f72934211d940f29a
:100a7c00a523c2f2000301221a7040f2a423c2f291
:100a8c00000301221a700220fff7d0fe03f0c0f819
:100a9c004ee040f2a423c2f2000301221a7001209e
:100aac00fff7c4fe03f010f91920fff794fb0f2099
:100abc00fff75efb40f29010fff7d5fb03f0a8f8b0
:100acc000020fff7b3fe40f2a023c2f20003002285
:100adc001a602de040f29423c2f200037a6c1a6083
:100aec0040f29823c2f200033a6a1a6040f29c2347
:100afc00c2f200033a6c1a6040f2a023c2f2000367
:100b0c0000221a6040f2a423c2f2000300221a70e1
:100b1c0040f2a523c2f200031b782bb940f2a823a4
:100b2c00c2f2000300221a600020fff77ffe00e0f3
:100b3c00c0467b6c042b2ed840f2ac23c2f20003cf
:100b4c001b78022b27d040f2ac23c2f200031b7897
:100b5c00012b20d040f2ac23c2f200031b78032bf4
:100b6c0019d003f06cf80c20fff702fb0020fff704
:100b7c0032fb5a20fff777fb40f2a023c2f20003ae
:100b8c0000221a6040f2a423c2f2000300221a7061
:100b9c000020fff74bfe3b6c032b2ed840f2ac230e
:100bac00c2f200031b78022b27d040f2ac23c2f216
:100bbc0000031b78012b20d040f2ac23c2f20003bf
:100bcc001b78032b19d003f051f80c20fff7d0fa47
:100bdc000020fff700fb5a20fff745fb40f2a02353
:100bec00c2f2000300221a6040f2a423c2f20003f6
:100bfc0000221a700020fff719fe3b6a0c2b46d816
:100c0c007b6c142b43d83b6c142b40d840f2ac2398
:100c1c00c2f200031b78032b00d17de040f2ac2321
:100c2c00c2f200031b78022b00d175e040f2ac231a
:100c3c00c2f200031b78012b6ed040f2ac23c2f23f
:100c4c00000303221a7040f2ad23c2f2000301220a
:100c5c001a7040f2b023c2f200033a6b1a6002f031
:100c6c00eeff1920fff7b7fa1920fff781fa40f2cf
:100c7c00a023c2f2000300221a6040f2a423c2f2a5
:100c8c00000300221a700020fff7d0fd44e03b6afd
:100c9c000c2b42d87b6c142b3fd840f2ac23c2f205
:100cac0000031b78022b38d040f2ac23c2f20003b5
:100cbc001b78012b31d040f2ac23c2f200031b781d
:100ccc00032b2ad040f2ac23c2f2000302221a708a
:100cdc0040f2ad23c2f2000301221a7040f2b0239d
:100cec00c2f200033a6b1a6002f0a9ff1920fff759
:100cfc0072fa1920fff73cfa40f2a023c2f200036b
:100d0c0000221a6040f2a423c2f2000300221a70df
:100d1c000020fff78bfd00e0c04640f2b423c2f286
:100d2c0000031b687bb140f2b423c2f200031a68c3
:100d3c003b6b1100180003f07df840f2b423c2f2b3
:100d4c00000300221a6040f2ac23c2f200031b78ad
:100d5c00042b00d9d9e19a00e94bd3181b689f46a4
:100d6c007b6c3b613b690222d31a180003f0aafb8f
:100d7c00031cfb6049f69a11c3f69971f86803f0ed
:100d8c00b7f9031cbb6040f2b823c2f200031b6826
:100d9c00191cf86803f0e3fb031c49f69a11c3f61f
:100dac001961181c03f0a4f9031c7b6040f2b823f2
:100dbc00c2f20003fa681a607968b86803f09df80b
:100dcc00031cfb63fc218905f86b03f04dfb03004e
:100ddc0013b1fc239b05fb63bf210906f86b03f0e1
:100dec005afb030013b1bf231b06fb63fc218905cf
:100dfc00f86b03f082f8031c181c03f0fbfa0300d9
:100e0c001a33bb63fc218905f86b03f076f8031cdd
:100e1c00181c03f0effa020019239b1a7b63bb6bbf
:100e2c00282b01dd2823bb63bb6b0e2b01dc0f23ae
:100e3c00bb637b6b282b01dd28237b637b6b0e2b29
:100e4c0001dc0f237b6302f028ffbb6b1800fff75c
:100e5c00c2f97b6b1800fff78bf97b6c142b53d901
:100e6c0040f2bc23c2f200031b780133dab240f229
:100e7c00bc23c2f200031a7040f2bc23c2f200037e
:100e8c001b78012b00d834e140f2b423c2f20003ea
:100e9c001b68002b00d02ce140f2ac23c2f2000303
:100eac001b78002b00d024e140f2ac23c2f20003eb
:100ebc0001221a7040f2ad23c2f2000301221a7013
:100ecc0040f2b023c2f200033a6b1a6002f0cefe7d
:100edc001920fff780f91920fff74af940f2bc23db
:100eec00c2f2000300221a7040f2a023c2f20003e7
:100efc0000221a6040f2a423c2f2000300221a70ee
:100f0c000020fff793fcf4e040f2bc23c2f2000394
:100f1c0000221a70ede040f2ad23c2f200031b7800
:100f2c00002b00d1e7e040f2b023c2f200031a68b4
:100f3c003b6b1100180002f07dff03001a2b00d848
:100f4c00d9e040f2ad23c2f2000300221a7040f245
:100f5c00ac23c2f2000304221a703b6b32331a002a
:100f6c0040f2b423c2f200031a6040f2a023c2f292
:100f7c00000300221a6040f2a423c2f200030022f4
:100f8c001a700020fff752fcb5e040f2ad23c2f21c
:100f9c0000031b78002b00d1afe040f2b023c2f26b
:100fac0000031a683b6b1100180002f043ff0300aa
:100fbc00072b00d8a1e040f2ad23c2f200030022bf
:100fcc001a7040f2ac23c2f2000304221a703b6b7d
:100fdc0032331a0040f2b423c2f200031a6040f21a
:100fec00a023c2f2000300221a6040f2a423c2f232
:100ffc00000300221a700020fff718fc7de040f27d
:10100c00ad23c2f200031b78002b00d17ae040f232
:10101c00b023c2f200031a683b6b1100180002f0f7
:10102c0009ff0300132b6dd940f2ad23c2f200036c
:10103c0000221a7040f2ac23c2f2000304221a7090
:10104c003b6b32331a0040f2b423c2f200031a6035
:10105c0040f2a023c2f2000300221a6040f2a42343
:10106c00c2f2000300221a700020fff7dffb49e0f8
:10107c0002f013fe1a20fff7aef81920fff778f8ec
:10108c007b6c142b2ed840f2bd23c2f200031b78cc
:10109c000133dab240f2bd23c2f200031a7040f2ff
:1010ac00bd23c2f200031b78022b2dd940f2ac23d6
:1010bc00c2f2000300221a7040f2bd23c2f20003f8
:1010cc0000221a7040f2a023c2f2000300221a6020
:1010dc0040f2a423c2f2000300221a700020fff792
:1010ec00a5fb11e040f2bd23c2f2000300221a70ee
:1010fc000ae0c04609e0c04607e0c04605e0c0462d
:10110c00d4400000c04600e0c04640f2ac23c2f21e
:10111c0000031b78042b22d89a00174bd3181b689a
:10112c009f4644f2c403c0f200033b601de044f24e
:10113c004403c0f200033b6017e044f25003c0f2da
:10114c0000033b6011e044f25c03c0f200033b601f
:10115c000be044f2cc03c0f200033b6005e044f228
:10116c006803c0f200033b60c0461420fff77bf815
:0c117c00c046bd4612b080bde840000037
:020000040000fa
:1011880080b582b000af0200fb1d1a70fb1d1b78f2
:101198007f2b12d8fb1d1b781a001f231a40110041
:1011a8004ef20013cef20003fa1d127852b2520921
:1011b8000120884001009200d150c046bd4602b0cf
:1011c80080bd90b583b000af02003960fb1d1a7076
:1011d800fb1d1b787f2b2fd84ef20013cef2000395
:1011e800fa1d127852b29208c0329200d358fa1df2
:1011f8001278110003220a40d200ff2191400a0010
:10120800d2431a4010003b689b01ff221a40fb1d85
:101218001b78190003230b40db009a4011004ef2a3
:101228000013cef20003fa1d127852b2920801435d
:10123800c0329200d15037e04ef60053cef2000390
:10124800fa1d127811000f220a40083a9208063255
:1012580092009b1804331b68fa1d127811000322b0
:101268000a40d200ff2191400a00d2431a401000e0
:101278003b689b01ff221a40fb1d1b7819000323c2
:101288000b40db009a404ef60053cef20003f91de6
:1012980009780c000f2121400839890802430631da
:1012a80089005b1804331a60c046bd4603b090bd80
:1012b80080b500af00f02ff840f20023c4f20023fd
:1012c80001221a7000f0e0f800f002fa00f0f7fad4
:1012d8004ef21003cef2000340f6a6625a60c046f2
:1012e800bd4680bd80b500af00f0d7fb00f096fb8f
:1012f80000f078fb03212b20fff763ff03212d204b
:10130800fff75fff2b20fff73bff2d20fff738ff8c
:10131800c046bd4680bd80b582b000af00237b606b
:1013280040f20043c4f2000301229a7140f20043e4
:10133800c4f2000302229a7000e0c04640f2004363
:10134800c4f200039b79dbb21a0001231340002b7f
:10135800f3d040f20043c4f2000301229a7145f22f
:101368000003c4f2001306225a6041f60003c4f2d7
:10137800000340f202221a6200e0c04641f6000370
:10138800c4f20003da688023db021340002bf4d098
:1013980041f20003c4f2000300221a8600e0c046ae
:1013a80041f20003c4f200031a6980235b0413406e
:1013b800002bf4d046f22003c0f280031a68fc2305
:1013c800db0513407b60c0467b68db0b7b607b687a
:1013d80040f2002213437b6041f20003c4f2000391
:1013e8007a685a6300e0c04641f20003c4f2000381
:1013f8001a6980235b041340002bf4d041f20003e8
:10140800c4f200031b8e9ab241f20003c4f2000337
:1014180002210a4392b21a8600e0c04641f2000354
:10142800c4f200031a6980235b041340002bf4d034
:1014380041f60043c4f2000340f20512c0f2010273
:101448009a6200e0c04641f60043c4f200035b68bc
:1014580010221340002bf5d141f60043c4f20003db
:1014680040f20712c0f202021a6200e0c04641f6da
:101478000043c4f200035b6804221340002bf5d13b
:10148800c046bd4602b080bd80b500af43f2002320
:10149800c4f2000301225a6043f20023c4f200039d
:1014a80040220221995443f20023c4f2000302228d
:1014b8005a6043f20023c4f20003412202219954e6
:1014c80043f20023c4f2000304225a6143f20023ca
:1014d800c4f2000304229a6043f20023c4f200031a
:1014e80008225a6143f20023c4f2000308229a60da
:1014f80043f20023c4f2000340225a6143f200235e
:10150800c4f2000340229a6043f20023c4f20003ad
:1015180080225a6143f20023c4f2000380229a60b9
:1015280043f20023c4f2000340f200225a6043f25f
:101538000023c4f2000349220221995443f20023f4
:10154800c4f2000340f200425a6043f20023c4f29e
:1015580000034a220221995443f20023c4f20003f3
:1015680040f600025a6043f20023c4f200034b2203
:101578000221995443f20023c4f2000344f200020a
:101588005a6143f20023c4f2000344f200029a6055
:1015980043f20023c4f2000348f200025a6143f206
:1015a8000023c4f2000348f200029a6043f20023c9
:1015b800c4f20003802212035a6143f20023c4f2ea
:1015c8000003802212039a6043f20023c4f200034e
:1015d800802292025a6043f20023c4f2000351228f
:1015e8000221995443f20023c4f200038022d2025c
:1015f8005a6043f20023c4f2000352220221995494
:1016080043f20023c4f20003802252035a6143f2da
:101618000023c4f20003802252039a6043f200239d
:10162800c4f20003802292035a6043f20023c4f2fa
:10163800000355220221995443f20023c4f2000307
:101648008022d2035a6043f20023c4f200035622d8
:101658000221995443f20023c4f2000380221204a9
:101668005a6043f20023c4f200035722022199541e
:1016780043f20023c4f2000394220821995043f254
:101688000023c4f2000388220821995043f2002362
:10169800c4f2000384218022d2035a5043f200236b
:1016a800c4f2000356220221995443f20023c4f2e3
:1016b80000039421802212045a5043f20023c4f2fa
:1016c80000038821802212045a50c046bd4680bdbe
:1016d80080b582b000affb1d00221a7041f60043ae
:1016e800c4f2000390224221995000e0c04641f61e
:1016f8000043c4f2000390229b5840221340002b61
:10170800f4d042f60023c4f2000301221a7000e06c
:10171800c04642f60023c4f200035b68012213406e
:10172800002bf5d142f60023c4f2000340f6aa22aa
:10173800c0f20022da6142f60023c4f200031a6bf9
:1017480042f60023c4f2000303210a431a6342f657
:101758000023c4f200030e225a6342f60023c4f2a7
:10176800000347221a6143f20023c4f20003fa1d62
:101778003b215b5c1370fb1dfa1d12780f210a4098
:101788001a70fb1dfa1d12781a7043f20023c4f276
:101798000003fa1d3b2112785a5443f20023c4f285
:1017a800000357229b5cdab243f20023c4f2000321
:1017b80001210a43d1b25722995443f20023c4f2bb
:1017c8000003fa1dbb215b5c1370fb1dfa1d127828
:1017d8000f218a431a70fb1dfa1d12781a7043f202
:1017e8000023c4f20003fa1dbb2112785a5443f2b5
:1017f8000023c4f20003d6229b5cdab243f2002332
:10180800c4f2000301210a43d1b2d622995443f20b
:101818000023c4f20003fa1d30215b5c1370fb1d2a
:10182800fa1d12780f218a431a70fb1dfa1d1278cf
:101838001a7043f20023c4f20003fa1d3021127813
:101848005a5443f20023c4f2000340229b5cdab2ec
:1018580043f20023c4f2000301210a43d1b240221b
:10186800995443f20023c4f20003fa1d30215b5c53
:101878001370fb1dfa1d12780f210a401a70fb1d08
:10188800fa1d12781a7043f20023c4f20003fa1dfd
:10189800302112785a5443f20023c4f20003412243
:1018a8009b5cdab243f20023c4f2000301210a432d
:1018b800d1b241229954c046bd4602b080bd80b520
:1018c80082b000af41f60043c4f20003ec2242218b
:1018d800995000e0c04641f60043c4f20003ec22f0
:1018e8009b5840221340002bf4d043f20043c4f22b
:1018f800002301221a6000e0c04643f20043c4f20c
:1019080000239b6801221340002bf5d143f20043ca
:10191800c4f200231a6843f20043c4f2002340f2e1
:1019280000410a431a6043f20043c4f20023022232
:10193800da6343f20043c4f2002363221a6443f2d9
:101948000043c4f2002300225a6443f20043c4f265
:10195800002300229a6400e0c04643f20043c4f228
:1019680000239b68a0221340002bf5d143f20023eb
:10197800c4f2000333229b5cdbb27b607b68ff22ee
:1019880093437b607b68992213437b6043f2002377
:10199800c4f200037a68d1b23322995443f2002387
:1019a800c4f2000346229b5cdab243f20023c4f27d
:1019b800000341210a43d1b24622995443f200233d
:1019c800c4f2000347229b5cdab243f20023c4f25c
:1019d800000341210a43d1b247229954c046bd466b
:1019e80002b080bd80b500af43f20043c4f20023cb
:1019f8001a6843f20043c4f2002302210a431a6022
:101a080000e0c04643f20043c4f200239b68022270
:101a18001340002bf5d1c046bd4680bd80b500af50
:101a280042f60023c4f2000302221a7000e0c04606
:101a380042f60023c4f200035b6802221340002b25
:101a4800f5d142f60023c4f200034ff6ff725a6143
:101a580002210320fff7b5fb0320fff791fb0321c9
:101a68000420fff7aefb0420fff78afb03210520c3
:101a7800fff7a7fb0520fff783fb03210920fff7ea
:101a8800a0fb0920fff77cfb4ef21003cef2000307
:101a980007221a60c046bd4680bd80b584b000af3d
:101aa8000023fb6043f20023c4f20003b1229b5cd5
:101ab800dbb2fb60fb680f229343fb60fb680122eb
:101ac8001343fb6043f20023c4f20003fa68d1b267
:101ad800b122995443f20023c4f20003c1229b5c53
:101ae800dab243f20023c4f2000301210a43d1b25f
:101af800c122995441f60043c4f20003f022422166
:101b0800995000e0c04641f60043c4f20003f022b9
:101b18009b5840221340002bf4d043f60003c4f234
:101b280000231b78dab243f60003c4f20023012134
:101b38000a43d2b21a7000e0c04643f60003c4f26a
:101b480000231b8c9bb21a0001231340002bf3d1f6
:101b580043f60003c4f200239b78dab243f600038d
:101b6800c4f2002305210a43d2b29a7043f6000357
:101b7800c4f200235b899ab243f60003c4f200233f
:101b880020210a4392b25a8143f60003c4f200238b
:101b980004225a7043f60003c4f200231b899ab248
:101ba80043f60003c4f200230a210a4392b21a81c1
:101bb80043f60003c4f200231b899ab243f60003dc
:101bc800c4f2002341f600010a4392b21a8146f298
:101bd8002003c0f280031b68bb60bb1d00221a8073
:101be800bb689bb21b029bb21bb240f2007213404f
:101bf8001ab2bb1d00215b5e13431ab2bb1d1a80cb
:101c0800bb68db089bb20722134099b2bb1dba1d03
:101c180012880a431a8043f60003c4f20023ba1d4f
:101c280012889a8543f60003c4f200231b78dab2bf
:101c380043f60003c4f2002302210a43d2b21a7009
:101c480000e0c04643f60003c4f200231b8c9bb29d
:101c58001a0002231340002bf3d143f60003c4f209
:101c680000235b899ab243f60003c4f200230421df
:101c78000a4392b25a8143f60003c4f200230222b7
:101c88001a76c046bd4604b080bd80b582b000afac
:101c98004ef60053cef20003db687b607b680422bb
:101ca80093437b607b68054a53407b604ef6005344
:101cb800cef200037a68da60c046fde70400ffff51
:020000040000fa
:101cc80080b582b000af7860396001f0c6f80300d3
:101cd8003bb17b681b88984a13439ab27b681a8089
:101ce8006be37b681b885b045b0c9ab27b681a8089
:101cf8007b681b88002b00d15ce37b6840f20812ec
:101d0800002199527b681b881a0001231340002b7d
:101d180061d07b681b8847f6fb7213439ab27b68d5
:101d28001a807b681b881a00042313409bb17b68c8
:101d380040f24c129b585a1c7b6840f24c115a5086
:101d48007b6840f24c129b58072b04d97b6840f201
:101d58004c12002199507b6840f24c1299587b68cc
:101d680040f208129b5a78680133da0043f65013a0
:101d7800c0f20003c90082185b1803cb03c27b685a
:101d880040f208129b5a013399b27b6840f208125c
:101d980099527b6840f208129b5a7a680133d9003d
:101da80043f27453c0f200038b507b6840f2081270
:101db8009b5a7a680133db00d318043340f2793236
:101dc8001a607b6840f208129b5a013399b27b680b
:101dd80040f2081299527b681b881a0002231340ac
:101de800002b00d1d3e27b6840f208129b5a786836
:101df8000133da0043f65013c0f200033968c90012
:101e080082185b1803cb03c27b6840f208129b5a06
:101e1800013399b27b6840f2081299527b6840f20c
:101e280008129b5a7a680133d90043f69013c0f21e
:101e380000038b507b6840f208129b5a7a68013382
:101e4800db00d31804330c221a607b6840f20812b6
:101e58009b5a013399b27b6840f20812995240f2ba
:101e68001003c2f200031b68042b00d980e09a001b
:101e7800324bd3181b689f467b6840f208129b5a66
:101e88007a680133d90043f6a013c0f200038b50df
:101e98007b6840f208129b5a7a680133db00d3183a
:101ea800043304221a6063e07b6840f208129b5aec
:101eb8007a680133d90043f6a813c0f200038b50a7
:101ec8007b6840f208129b5a7a680133db00d3180a
:101ed800043307221a604be07b6840f208129b5ad1
:101ee8007a680133d90043f6b013c0f200038b506f
:101ef8007b6840f208129b5a7a680133db00d318da
:101f0800043308221a6033e07b6840f208129b5ab7
:101f18007a680133d90043f6bc13c0f200038b5032
:101f28007b6840f208129b5a7a680133db00d318a9
:101f3800043305221a601be00080ffff6c3a0000a2
:101f48007b6840f208129b5a7a680133d90043f63d
:101f5800c413c0f200038b507b6840f208129b5aee
:101f68007a680133db00d318043304221a60c046b0
:101f78007b6840f208129b5a013399b27b6840f2a1
:101f8800081299527b6840f208129b5a7a6801330a
:101f9800d90043f6cc13c0f200038b507b6840f2a3
:101fa80008129b5a7a680133db00d31804330c22d9
:101fb8001a607b6840f208129b5a013399b27b6819
:101fc80040f20812995240f20c03c2f200031b6857
:101fd800bbb97b6840f208129b5a7a680133d90072
:101fe80043f6dc13c0f200038b507b6840f2081202
:101ff8009b5a7a680133db00d31804330b221a602a
:10200800c0467b6840f208129b5a013399b27b683c
:1020180040f2081299527b6840f208129b5a7a687b
:102028000133d90043f6e813c0f200038b507b68f4
:1020380040f208129b5a7a680133db00d318043344
:102048000c221a607b6840f208129b5a013399b23d
:102058007b6840f2081299523b68022b25d03b68f6
:10206800022b03dc3b68012b07d066e03b68032b9f
:1020780033d03b68042b48d05fe07b6840f20812fd
:102088009b5a7a680133d90043f6f813c0f200036b
:102098008b507b6840f208129b5a7a680133db0048
:1020a800d318043306221a6047e07b6840f208120e
:1020b8009b5a7a680133d90043f60023c0f2000323
:1020c8008b507b6840f208129b5a7a680133db0018
:1020d800d31804330e221a602fe07b6840f20812ee
:1020e8009b5a7a680133d90043f61023c0f20003e3
:1020f8008b507b6840f208129b5a7a680133db00e8
:10210800d31804330e221a6017e07b6840f20812d5
:102118009b5a7a680133d90043f62023c0f20003a2
:102128008b507b6840f208129b5a7a680133db00b7
:10213800d318043304221a60c0467b6840f20812a0
:102148009b5a013399b27b6840f2081299527b6816
:1021580040f208129b5a7a680133d90043f62823c3
:10216800c0f200038b507b6840f208129b5a7a68d1
:102178000133db00d31804330c221a607b6840f269
:1021880008129b5a013399b27b6840f2081299529f
:1021980040f20703c2f200031b78bbb17b6840f230
:1021a80008129b5a7a680133d90043f63823c0f2e3
:1021b80000038b507b6840f208129b5a7a680133ff
:1021c800db00d318043308221a6016e07b6840f25b
:1021d80008129b5a7a680133d90043f64423c0f2a7
:1021e80000038b507b6840f208129b5a7a680133cf
:1021f800db00d318043304221a607b6840f208120b
:102208009b5a013399b27b6840f2081299527b6855
:1022180040f208129b5a7a680133d90043f64c23de
:10222800c0f200038b507b6840f208129b5a7a6810
:102238000133db00d31804330c221a607b6840f2a8
:1022480008129b5a013399b27b6840f208129952de
:1022580040f20803c2f200031b78bbb17b6840f26e
:1022680008129b5a7a680133d90043f63823c0f222
:1022780000038b507b6840f208129b5a7a6801333e
:10228800db00d318043308221a6016e07b6840f29a
:1022980008129b5a7a680133d90043f64423c0f2e6
:1022a80000038b507b6840f208129b5a7a6801330e
:1022b800db00d318043304221a607b6840f208124a
:1022c8009b5a013399b27b6840f2081299527b6895
:1022d80040f208129b5a7a680133d90043f65c230e
:1022e800c0f200038b507b6840f208129b5a7a6850
:1022f8000133db00d31804330c221a607b6840f2e8
:1023080008129b5a013399b27b6840f2081299521d
:1023180040f20903c2f200031b78bbb17b6840f2ac
:1023280008129b5a7a680133d90043f63823c0f261
:1023380000038b507b6840f208129b5a7a6801337d
:10234800db00d318043308221a6016e07b6840f2d9
:1023580008129b5a7a680133d90043f64423c0f225
:1023680000038b507b6840f208129b5a7a6801334d
:10237800db00d318043304221a607b6840f2081289
:102388009b5a013399b27b6840f2081299527b68d4
:1023980040f208129b5a7bb17b68083318007b68af
:1023a80040f208129b5a190000f064fc7b68044a4a
:1023b8001a8002e0c04600e0c046bd4602b080bdbb
:1023c8000080ffff80b582b000af78607b685b68f3
:1023d800012b17d02bb1022b23d0032b00d1ffe008
:1023e80009e17b685d33ff331021180000f044fddc
:1023f8000300002b00d100e17b685b685a1c7b68f6
:102408005a60fae07b685133ff33180000f0cafdc8
:102418000300002b00d1f2e07b685b685a1c7b68e4
:102428005a607b681b881bb2002b00dae9e07b68e6
:1024380040f24812002199507b681b8802221343fe
:102448009ab27b681a807b685b685a1c7b685a6002
:102458007b6840f254129b58032b4ad17b6840f2a8
:1024680050129b5801331b785b2b42d17b6840f29a
:1024780050129b5802331b78412b06d140f21003af
:10248800c2f2000301221a60a9e07b6840f25012f0
:102498009b5802331b78422b06d140f21003c2f23c
:1024a800000302221a609ae07b6840f250129b589f
:1024b80002331b78432b06d140f21003c2f200030b
:1024c80003221a608be07b6840f250129b5802335b
:1024d8001b78442b06d140f21003c2f200030422f9
:1024e8001a607ce040f21003c2f2000300221a6076
:1024f80075e07b6840f254129b58012b37d17b68fa
:1025080040f250129b581b78312b06d140f2000341
:10251800c2f2000301221a6075e07b6840f2501293
:102528009b581b78322b06d140f20003c2f20003fd
:1025380002221a6067e07b6840f250129b581b78b1
:10254800332b06d140f20003c2f2000303221a60c3
:1025580059e07b6840f250129b581b78202b52d1cf
:1025680040f21003c2f2000300221a604be07b68bd
:1025780040f254129b58012b29d97b6840f2501223
:102588009b581b781b2b22d17b6840f254129b5816
:10259800052b23d17b6840f250129b58581c43f6f8
:1025a8008023c0f200030422190001f0afff0300ea
:1025b800a3b97b681b88012213439ab27b681a80ef
:1025c80040f21003c2f2000300221a6006e040f253
:1025d8001003c2f2000300221a6014e0c04612e0a1
:1025e8007b681b881a0048f2020313406bb97b68aa
:1025f80000225a600ae0fff748fbc04606e0c046e2
:1026080004e0c04602e0c04600e0c046c046bd4601
:1026180002b080bd80b586b000af00233b610023c7
:102628007b600023fb600023bb60fef741fe00f0e7
:10263800d5f8fef757fe40f22003c2f2000301224c
:102648001a8001f0cffd03001a0040f20703c2f21e
:1026580000031a7001f0d7fd03001a0040f20803c6
:10266800c2f200031a7001f0dffd03001a0040f205
:102678000903c2f200031a7040f20003c2f2000319
:1026880001221a60fb68072b22d9bb687b6001f026
:10269800a9fd03001a0040f20703c2f200031a70f2
:1026a80001f0b1fd03001a0040f20803c2f2000372
:1026b8001a7001f0b9fd03001a0040f20903c2f2d2
:1026c80000031a7040f22003c2f2000302221a80ab
:1026d80001f014fb0300bb607a68bb6811001800a6
:1026e80001f0aafb0300fb6040f20003c2f2000302
:1026f8001a6840f22003c2f2000311001800fff725
:10270800dffa40f22003c2f200031800fff75afe76
:1027180040f20003c2f200031b68022b43d0032bd4
:1027280054d0012baed140f21003c2f200031b6853
:10273800042b23d89a00284bd3181b689f4601f016
:1027480069fa1be001f0abfa1e237b6121233b6190
:1027580014e001f0bbfa32237b6123233b610de0d7
:1027680001f086fa32237b6132233b6106e001f0f7
:1027780068fa32237b6132233b61c04643f200434f
:10278800c4f200239b688022134013bb43f200432a
:10279800c4f200237a695a6743f20043c4f2002363
:1027a8003a691a6715e040f20703c2f20003187885
:1027b80040f20803c2f20003197840f20903c2f29a
:1027c80000031b781a0000f086fc03e0fef794f87b
:0c27d80000e0c04656e7c046883a00000a
:020000040000fa
:1027e40080b500af41f60043c4f20003d022422179
:1027f400995000e0c04641f60043c4f20003d022e1
:102804009b5840221340002bf4d040f28c13c2f2a8
:102814000003a8220021180001f092fe41f20003f7
:10282400c4f2002301221a6000e0c04641f2000312
:10283400c4f20023db6901221340002bf5d141f2dd
:102844000003c4f2002304221a6041f20003c4f21c
:1028540000231a6841f20003c4f200238021c90551
:102864000a431a6041f20003c4f200231a6841f2d9
:102874000003c4f20023802149030a431a6041f291
:102884000003c4f2002300225a6041f20003c4f2a0
:102894000023802212059a6041f20003c4f200234f
:1028a400344a9a8141f20003c4f200235a6841f287
:1028b4000003c4f20023c32109040a435a6000e060
:1028c400c04641f20003c4f20023db690422134032
:1028d400002bf5d143f20023c4f20003942240f20a
:1028e4000021995043f20023c4f20003842240f2f1
:1028f4000021995043f20023c4f20003982240f2cd
:102904000011995043f20023c4f20003882240f2dc
:102914000011995043f20023c4f20003b42233217e
:10292400995443f20023c4f20003c92203219954a9
:1029340043f20023c4f20003c8224121995441f216
:102944000003c4f200231a6841f20003c4f2002316
:1029540002210a431a6000e0c04641f20003c4f2b7
:102964000023db6906221340002bf5d1c046bd4687
:1029740080bdc04605c5ffff80b500af40f28c1393
:10298400c2f20003a4229b5cdbb2022b00d073e0f2
:1029940066e040f28c13c2f2000384229b584bb3ce
:1029a40040f28c13c2f200031a681100083140f29d
:1029b4008c13c2f20003196040f28c13c2f20003bc
:1029c40088215b1803ca03c340f28c13c2f20003cc
:1029d40084229b585a1e40f28c13c2f200038421b5
:1029e4005a5040f28c13c2f200038c229b58002be5
:1029f400cfd000e0c04640f28c13c2f200038c2218
:102a04009b586bb941f20003c4f2002301221a75ea
:102a140040f28c13c2f20003a422002199542ce04a
:102a240040f28c13c2f2000388229a58511c40f2df
:102a34008c13c2f2000388201950127841f200036b
:102a4400c4f200239a6240f28c13c2f200038c2277
:102a54009b585a1e40f28c13c2f200038c215a5028
:102a640041f20003c4f200231b7edbb21a000123ef
:102a74001340002bb5d100e0c046bd4680bd90b5e3
:102a840083b000af40f28c13c2f20003a5229b5c1a
:102a9400dbb2022b00d0b0e0a2e041f20003c4f2aa
:102aa4000023ba1d5b8b1380c04641f20003c4f2bd
:102ab40000239b6a3b6040f28c13c2f2000398220d
:102ac4009a5840f28c13c2f20003a0215b589a4238
:102ad40009d340f28c13c2f200039c22995c0420b7
:102ae400014399547ce0bb1d1b880122134043b170
:102af40040f28c13c2f200039c22995c0120014332
:102b04009954bb1d1b88022213409bb140f28c13c5
:102b1400c2f200039c22995c0220014399543b6851
:102b240043b940f28c13c2f200039c22995c10203a
:102b340001439954bb1d1b880422134043b140f246
:102b44008c13c2f200039c22995c04200143995423
:102b5400bb1d1b882022134043b140f28c13c2f2e8
:102b640000039c22995c08200143995440f28c1381
:102b7400c2f200039422995840f28c13c2f200036b
:102b840098229a58501c40f28c13c2f200039824e5
:102b940018518b183a68d2b21a7040f28c13c2f2f0
:102ba400000390220021995040f28c13c2f20003da
:102bb40098229a5840f28c13c2f20003a0215b5869
:102bc4009a420dd341f20003c4f2002304221a7581
:102bd40040f28c13c2f20003a522032199540de0a4
:102be40041f20003c4f200231b7edbb21a0004236b
:102bf4001340002b00d050e700e0c046bd4603b0b0
:102c040090bd80b500af40f28c13c2f20003a52240
:102c14009b5cdbb2022b2ad140f28c13c2f200037c
:102c240098229b582bb340f28c13c2f200039022db
:102c34009b585a1c40f28c13c2f2000390215a5044
:102c440040f28c13c2f2000390229b58062b11d938
:102c540041f20003c4f2002304221a7540f28c13db
:102c6400c2f20003a52203219954c04602e0c046e3
:102c740000e0c046bd4680bd80b584b000af78603a
:102c840039607b680bb13b680bb9012388e040f2e3
:102c94008c13c2f20003a4229b5cdbb20bb10023b1
:102ca4007ee040f28c13c2f20003a4220121995465
:102cb40041f20003c4f200235a6841f20003c4f253
:102cc40000238021c9030a435a6000e0c04641f250
:102cd4000003c4f20023db6904221340002bf5d166
:102ce40040f28c13c2f2000388220021995040f272
:102cf4008c13c2f200038c220021995040f28c13f1
:102d0400c2f20003284a1a600023fb6040f28c13cd
:102d1400c2f2000384220021995027e0fb68db0003
:102d24007a68d318bb60bb685b68dbb1bb681b689f
:102d3400c3b140f28c13c2f2000384229a58511c8e
:102d440040f28c13c2f200038420195040f28c1319
:102d5400c2f20003d20004219b185b18ba6803caac
:102d640003c300e0c046fb680133fb6040f28c13f0
:102d7400c2f2000384229b580f2b03d8fa683b68e5
:102d84009a42cbd340f28c13c2f20003a422022154
:102d9400995441f20003c4f2002301229a750123dd
:102da4001800bd4604b080bd9001002080b500af7e
:102db40041f20003c4f2002301221a7540f28c137d
:102dc400c2f20003a4220121995441f20003c4f287
:102dd40000235a6841f20003c4f200238021c9038e
:102de4000a435a6000e0c04641f20003c4f20023e3
:102df400db6904221340002bf5d100e0c04641f208
:102e04000003c4f200231b7edbb21a00022313402a
:102e1400002bf3d040f28c13c2f20003882200216d
:102e2400995040f28c13c2f200038c220021995075
:102e340040f28c13c2f2000300221a6040f28c1399
:102e4400c2f2000384220021995040f28c13c2f292
:102e54000003a42200219954c046bd4680bd80b51c
:102e640000af40f28c13c2f20003a4229b5cdbb2dd
:102e74005a1e9341dbb21800bd4680bd80b582b0b6
:102e840000af786039607b680bb13b680bb90123f4
:102e94004ae040f28c13c2f20003a5229b5cdbb231
:102ea4000bb1002340e040f28c13c2f20003a522d0
:102eb400012199541e4b0c220021180001f040fb03
:102ec40040f28c13c2f2000394217a685a5040f203
:102ed4008c13c2f20003a0213a685a5041f2000355
:102ee400c4f200235a6841f20003c4f20023802193
:102ef40009040a435a6000e0c04641f20003c4f2e8
:102f04000023db6904221340002bf5d140f28c131b
:102f1400c2f20003a5220221995441f20003c4f233
:102f2400002304229a7501231800bd4602b080bd17
:102f34002002002080b500af41f20003c4f2002358
:102f440004221a7540f28c13c2f20003a522012157
:102f5400995441f20003c4f200235a6841f2000379
:102f6400c4f20023802109040a435a6000e0c046e9
:102f740041f20003c4f20023db6904221340002b56
:102f8400f5d1084b0c220021180001f0d9fa40f2c7
:102f94008c13c2f20003a52200219954c046bd46f9
:102fa40080bdc0462002002090b583b000af786099
:102fb4007b680bb9002321e040f28c13c2f20003ba
:102fc400a5229b5cdbb2032b01d0002316e07a68b8
:102fd40040f28c13c2f2000394215b1813cb13c28a
:102fe400084b0c220021180001f0aafa40f28c13bd
:102ff400c2f20003a5220021995401231800bd4602
:1030040003b090bd2002002080b500af40f28c13c5
:10301400c2f20003a5229b5cdbb25a1e9341dbb2d1
:083024001800bd4680bdc04646
:020000040000fa
:10302c0080b582b000af7860396043f20043c4f2df
:10303c0000239b68802213405bb943f20043c4f227
:10304c0000237a685a6743f20043c4f200233a68bb
:10305c001a67c046bd4602b080bd80b586b000afd1
:10306c00f860b9607a6000237b6116e043f200439c
:10307c00c4f200239b68802213405bb943f20043e7
:10308c00c4f20023fa685a6743f20043c4f20023e7
:10309c00ba681a677b6901337b617a697b689a42eb
:1030ac00e4dbc046bd4606b080bd80b500af01f084
:1030bc0097f803003bb901f0a4f803001bb901f029
:1030cc00b1f803000bb1012300e000231800bd464a
:1030dc0080bd90b587b000af040008001100fb1d47
:1030ec00221c1a70bb1d021c1a707b1d0a1c1a7044
:1030fc00fb1d1b7801225340dbb25bb3bb1d1b785d
:10310c0043b37b1d1b7801225340dbb213b300f099
:10311c00c4fd40f2ec23c2f200031c221a6040f200
:10312c00f023c2f200031d221a6040f2ec23c2f21b
:10313c0000031a6840f2f023c2f200031b68190066
:10314c001000fff76dff40f2f423c2f200030022df
:10315c001a6005e2fb1d1b7843b3bb1d1b782bb318
:10316c007b1d1b7813b300f098fd40f2ec23c2f2e8
:10317c0000031c221a6040f2f023c2f200031f224b
:10318c001a6040f2ec23c2f200031a6840f2f023fa
:10319c00c2f200031b6819001000fff741ff40f258
:1031ac00f423c2f2000300221a60d9e1fb1d1b7844
:1031bc0063b3bb1d1b7801225340dbb233b37b1dc1
:1031cc001b781bb300f03bfd40f2ec23c2f2000372
:1031dc000f221a6040f2f023c2f200030f221a6091
:1031ec0040f2ec23c2f200031a6840f2f023c2f260
:1031fc0000031b6819001000fff712ff40f2f423c4
:10320c00c2f20003022252421a60a9e1fb1d1b7894
:10321c0001225340dbb2002b00d1b6e0bb1d1b7862
:10322c0001225340dbb2002b00d1aee07b1d1b789a
:10323c0001225340dbb2002b00d1a6e040f2ec237c
:10324c00c2f2000300221a6040f2f023c2f2000323
:10325c0018221a6000f021fd40f2ec23c2f20003a8
:10326c001a6840f2f023c2f200031b681900100028
:10327c00fff7d6fefff719ff03001a000123534096
:10328c00dbb2002b00d162e100237b6144e0002320
:10329c003b6118e000f0eafc40f2ec23c2f20003c0
:1032ac001a6840f2f023c2f200031b6819001000e8
:1032bc00fff7b6fefff7f9fe0300002b00d048e144
:1032cc003b6901333b613b6941f287329342e1dd5b
:1032dc000023fb6018e000f0b2fc40f2f023c2f2d5
:1032ec0000031a6840f2ec23c2f200031b681900b9
:1032fc001000fff795fefff7d8fe0300002b00d05f
:10330c0029e1fb680133fb60fb6841f28732934291
:10331c00e1dd7b6901337b617b69012bb7ddfff755
:10332c00c4fe0300002b00d017e140f2ec23c2f2e4
:10333c00000318221a6040f2f023c2f20003182294
:10334c001a600023bb6018e000f0befc40f2ec23d6
:10335c00c2f200031a6840f2f023c2f200031b68a9
:10336c0019001000fff75cfefff79ffe0300002b17
:10337c0000d0f4e0bb680133bb60ba6846f2ff438f
:10338c00c1f6cd539a42dfdde1e0fb1d1b787bb328
:10339c00bb1d1b7801225340dbb24bb37b1d1b784a
:1033ac0001225340dbb21bb300f049fc40f2ec238a
:1033bc00c2f2000319221a6040f2f023c2f2000399
:1033cc0019221a6040f2ec23c2f200031a6840f290
:1033dc00f023c2f200031b6819001000fff720fe57
:1033ec0040f2f423c2f20003022252421a60b7e008
:1033fc00fb1d1b7863b3bb1d1b784bb37b1d1b786c
:10340c0001225340dbb21bb300f019fc40f2ec2359
:10341c00c2f200030f221a6040f2f023c2f2000342
:10342c000f221a6040f2ec23c2f200031a6840f239
:10343c00f023c2f200031b6819001000fff7f0fd27
:10344c0040f2f423c2f20003012252421a6087e0d8
:10345c00fb1d1b7801225340dbb25bb3bb1d1b78f9
:10346c0001225340dbb22bb37b1d1b7813b300f04e
:10347c00fdfb40f2ec23c2f2000319221a6040f269
:10348c00f023c2f2000319221a6040f2ec23c2f2bc
:10349c0000031a6840f2f023c2f200031b68190003
:1034ac001000fff7bdfd40f2f423c2f2000302222c
:1034bc001a6055e0fb1d1b7801225340dbb243b36d
:1034cc00bb1d1b782bb37b1d1b7813b300f0cefbfd
:1034dc0040f2ec23c2f200030f221a6040f2f023f8
:1034ec00c2f200030f221a6040f2ec23c2f2000376
:1034fc001a6840f2f023c2f200031b681900100096
:10350c00fff78efd40f2f423c2f2000301221a6091
:10351c0026e000f0c2fb40f2ec23c2f200031c22b6
:10352c001a6040f2f023c2f200031d221a6040f22e
:10353c00ec23c2f200031a6840f2f023c2f200033b
:10354c001b6819001000fff76bfdc04608e0c04671
:10355c0006e0c04604e0c04602e0c04600e0c046bb
:06356c00bd4607b090bd52
:020000040000fa
:02357200fee772
:020000040000fa
:103574001b5b324a1b5b313b31482b2d2d2d2d2dee
:103584002d2d2d2d2d2d2d2d2d2d2d2d2d2d2d2d67
:103594002d2d2d2d2d2d2d2d2d2d2d2d2d2d2d2d57
:1035a4002d2d2d2d2d2d2d2d2d2d2d2d2d2d2d2d47
:1035b4002d2d2d2d2d2d2d2d2d2d2d2b0d0a7c203a
:1035c400454545203139323a20456c65637472694a
:1035d40063616c20616e6420456c656374726f6e08
:1035e40069637320456e67696e656572696e6720ed
:1035f4004c61626f7261746f727920564920207c2d
:103604000d0a7c20202020202020202020416361de
:1036140064656d6963205965617220323032352ddd
:10362400323032362c2053656d65737465722032e6
:103634002020202020202020202020202020202086
:103644002020207c0d0a7c202020202020202020e7
:103654002020202020202020202020202020202066
:103664002020202020202020202020202020202056
:103674002020202020202020202020202020202046
:10368400202020202020207c0d0a7c20526f62758f
:10369400747420202020202020202020202020207e
:1036a4002020202020202020202020202020202016
:1036b4002020202020202020202020202020202006
:1036c40020202020202020202020207c0d0a7c2067
:1036d40020202020202020202020202020202020e6
:1036e40020202020202020202020202020202020d6
:1036f40020202020202020202020202020202020c6
:103704002020202020202020202020202020207c59
:103714000d0a7c20417574686f723a204d656f778d
:103724007321202020202020202020202020202041
:103734002020202020202020202020202020202085
:103744002020202020202020202020202020202075
:103754002020207c0d0a7c202020202020202020d6
:103764002020202020202020202020202020202055
:103774002020202020202020202020202020202045
:103784002020202020202020202020202020202035
:10379400202020202020207c0d0a7c204461746598
:1037a4003a202020203230323620202020202020b1
:1037b4002020202020202020202020202020202005
:1037c40020202020202020202020202020202020f5
:1037d40020202020202020202020207c0d0a2b2d9a
:1037e4002d2d2d2d2d2d2d2d2d2d2d2d2d2d2d2d05
:1037f4002d2d2d2d2d2d2d2d2d2d2d2d2d2d2d2df5
:103804002d2d2d2d2d2d2d2d2d2d2d2d2d2d2d2de4
:103814002d2d2d2d2d2d2d2d2d2d2d2d2d2d2d2bd6
:103824000d0a7c20494e535452554354494f4e532c
:103834003a2031202d2052656d6f74652c20322082
:103844002d204c696e652c2033202d2057616c6c23
:103854002020202020202020202020202020202064
:103864002020207c0d0a2b2d2d2d2d2d2d2d2d2da1
:103874002d2d2d2d2d2d2d2d2d2d2d2d2d2d2d2d74
:103884002d2d2d2d2d2d2d2d2d2d2d2d2d2d2d2d64
:103894002d2d2d2d2d2d2d2d2d2d2d2d2d2d2d2d54
:1038a4002d2d2d2d2d2d2d2b0d0a0d0a44697265fc
:1038b4006374696f6e3a200d0a53706565643a202b
:1038c4000d0a4d6f64653a200d0a49520d0a4c45a4
:1038d40046543a200d0a43454e5445523a200d0aa7
:1038e40052494748543a200d0a00c0461b5b3337ff
:1038f4003b34306d0000c0461b5b33363b34306dc7
:103904000000c0461b5b33353b34306d0000c046bd
:103914001b5b33333b34306d0000c0461b5b3937cf
:103924003b34316d0000c0461b5b39323b34306d93
:103934000000c0461b5b39373b34346d0000c04681
:103944001b5b33303b34376d0000c046f038000059
:1039540008000000fc3800000800000008390000de
:10396400080000001439000008000000203900009d
:10397400080000002c39000008000000383900005d
:103984000800000044390000080000001b5b3134cb
:103994003b3230481b5b304b0000c04653544f5001
:1039a4000000c046464f5257415244004241434be7
:1039b400574152440000c046524947485400c0464b
:1039c4004c4546540000c0461b5b31353b32304801
:1039d4001b5b304b0000c046706c616365686f6ca4
:1039e400646572001b5b31363b3230481b5b304be5
:1039f4000000c04652454d4f544500004c494e45c9
:103a04002d464f4c4c4f57494e47000057414c4ca4
:103a14002d464f4c4c4f57494e47000053414645a5
:103a24000000c0461b5b31383b3230481b5b304bd7
:103a34000000c04644455445435445440000c04634
:103a44004e4f4e450000c0461b5b31393b32304877
:103a54001b5b304b0000c0461b5b32303b323048ae
:103a64001b5b304b0000c046801e0000b01e0000ef
:103a7400e01e0000101f0000481f00005b31357e6f
:103a84000000c046462700004c2700005a270000cb
:083a94006827000076270000fe
:020000040000fa
:103a9c0080b500af43f20023c4f200031a6943f26d
:103aac000023c4f2000308218a431a6143f2002365
:103abc00c4f200031a6943f20023c4f20003042188
:103acc008a431a61c046bd4680bd80b500af43f243
:103adc000023c4f2000390229a5843f20023c4f24c
:103aec00000309490a4090215a5043f20023c4f2c2
:103afc0000031a6943f20023c4f2000303490a408d
:103b0c001a61c046bd4680bdffff7ffffffff7ff78
:103b1c0080b500af43f20023c4f200031a6943f2ec
:103b2c000023c4f2000308218a431a6143f20023e4
:103b3c00c4f200031a6943f20023c4f20003042107
:103b4c000a431a61c046bd4680bd80b500af43f242
:103b5c000023c4f2000390229a5843f20023c4f2cb
:103b6c000003802109040a4390215a5043f2002398
:103b7c00c4f200031a6943f20023c4f200030349a0
:103b8c000a401a61c046bd4680bdc046fffff7ff24
:103b9c0080b500af43f20023c4f200031a6943f26c
:103bac000023c4f2000308210a431a6143f20023e4
:103bbc00c4f200031a6943f20023c4f20003042187
:103bcc008a431a61c046bd4680bd80b500af43f242
:103bdc000023c4f2000390229a5843f20023c4f24b
:103bec0000030a490a4090215a5043f20023c4f2c0
:103bfc0000031a6943f20023c4f200038021090375
:103c0c000a431a61c046bd4680bdc046ffff7fff18
:103c1c0080b500af43f20023c4f2000390229a58ff
:103c2c0043f20023c4f2000308210a4390215a50a6
:103c3c00fff74bfffff72cffc046bd4680bd80b59c
:103c4c0000af43f20023c4f2000390229a5843f2cf
:103c5c000023c4f2000308210a4390215a50fff7b5
:103c6c0074fffff795ffc046bd4680bd80b500af21
:103c7c0043f20023c4f2000390229a5843f200232b
:103c8c00c4f2000308210a4390215a50fff79dff0c
:103c9c00fff73effc046bd4680bd80b500af43f286
:103cac000023c4f2000390229a5843f20023c4f27a
:103cbc00000308210a4390215a50fff746fffff7f3
:103ccc0027ffc046bd4680bd80b500af43f2002340
:103cdc00c4f2000390229a5843f20023c4f200036a
:103cec0008210a4390215a50fff76ffffff750ff4e
:083cfc00c046bd4680bdc04674
:020000040000fa
:103d040080b582b000af40f2dc23c2f200031b682e
:103d14007b60c04640f2dc23c2f200031b687a6871
:103d24009a42f0d17b681800bd4602b080bd80b5d0
:103d340000affef766ff40f2e823c2f200031b68ff
:103d44005a1c40f2e823c2f200031a6016e040f263
:103d5400e823c2f200031b68403b1a0040f2e82348
:103d6400c2f200031a6040f2dc23c2f200031b68b3
:103d74005a1c40f2dc23c2f200031a6040f2e8232a
:103d8400c2f200031b683f2be1dc40f2e423c2f2e1
:103d940000031b685a1c40f2e423c2f200031a60b9
:103da400c046bd4680bd80b500af42f60023c4f2d4
:103db40000035b69012213405bb142f60023c4f2a5
:103dc40000035a6942f60023c4f2000301210a43a6
:103dd4005a61c046bd4680bd80b500af42f600239f
:103de400c4f200035b69022213405bb142f6002374
:103df400c4f200035a6942f60023c4f2000302210c
:103e04000a435a61c046bd4680bd80b500af42f644
:103e14000023c4f200035b69042213405bb142f641
:103e24000023c4f200035a6942f60023c4f20003db
:103e340004210a435a61c046bd4680bd80b584b0a2
:103e440000af786039603a687b689a4204d87a682f
:103e54003b68d31afb6007e03a687b68d31afb60bf
:103e6400c046fb680233fb60fb681800bd4604b023
:103e740080bd80b582b000af40f2e423c2f20003fb
:103e84001b687b60c04640f2e423c2f200031b6857
:103e94001a007b689342efd17b681800bd4602b0dc
:103ea40080bd80b582b000af786040f2e023c2f2fa
:103eb40000031a687b681a4340f2e023c2f200034d
:103ec4001a60c046bd4602b080bd80b582b000af66
:103ed40040f2e023c2f200031b687b60c0467b68ab
:103ee400da4340f2e023c2f200031b681a4040f2b6
:103ef400e023c2f200031a607b681800bd4602b0da
:023f040080bd7e
:020000040000fa
:103f06000122d20703004b403cd430b4431a01d2fd
:103f1600c01ac9184b004400240eff2c28d024b325
:103f26001b0e20d0e31a182b1ddc09021143c40d09
:103f3600000210435d4219350a00aa40d209d94051
:103f4600451801d36d080234013ce405280a012115
:103f5600c9072d062a438a4160414100090eff29ff
:103f660001d3c00dc00530bc7047c00fc007fae7cb
:103f760042001823da41ff2af5d07f2000010c30d9
:103f86000005f0e7a4465140431a02d25340c01a36
:103f9600c9184b00090211431b0e4400240eff2cc6
:103fa60040d083b15b421b19012b10d322d1c30d24
:103fb6004002401a10d3db050100400ac9059141b1
:103fc6005841644670472442fbd10020f9e7c30def
:103fd60040024900401af4d0002101314000fcd3d0
:103fe6008c4204d95b1adb05400ac018e9e7180ab7
:103ff600c007e6e7192be4d801330c00d940dc41b1
:104006004c40012c4941c30d00021043441a01d40f
:10401600a4006408013bdb05200a240694415841ac
:1040260064467047ff2b01d04102cad07f200001b1
:064036000c300005c5e797
:020000040000fa
:10403c00464f5257415244005455524e2052494714
:10404c00485400005455524e204c45465400c0462e
:10405c005455524e2041524f554e4400554e4b4ee6
:10406c004f574e0028535445455220484152442046
:10407c004c4546542900c046285354454552204cc3
:10408c00454654290000c046285354454552204803
:10409c004152442052494748542900002853544562
:1040ac0045522052494748542900c0462843454ea2
:1040bc00544552290000c046464f4c4c4f57000007
:1040cc005345454b0000c0466c0d0000220f00000c
:1040dc00960f00000a1000007c1000002e1100004a
:1040ec003a11000046110000521100005e11000050
:020000040000fa
:1040fc0030b405004d400124e407254042004b003c
:10410c00120e32d01b0e3cd0ff2a33d0ff2b3fd0e7
:10411c00d21800022043000a09022143090ac4b242
:10412c004c43000ac3b24b43000a4843210a5b18b4
:10413c00190a091801d44900013a080a7f3a2adb06
:10414c00fe2a0fd2d2051c43240601d001242143a0
:10415c00c9b280295041802901d140084000284330
:10416c0030bc7047ff20c005f9e71b0eff2b0ad0af
:10417c002800f5e7400206d1ff2bf3d1490202d10a
:10418c00f0e7ff2af4d17f2000010c300005e7e7af
:10419c004902f8d1e6e743020132e9d15b1202335e
:0641ac00e6d9d805e4e7a6
:020000040000fa
:1041b20080b500af43f20023c4f200031b6a40f64d
:1041c200000213400bb9002300e001231800bd4692
:1041d20080bd80b500af01231800bd4680bd80b50b
:1041e20000af01231800bd4680bd80b500af43f289
:1041f2000023c4f200031b6a40f6000213400bb90d
:10420200002300e001231800bd4680bd80b500af49
:1042120043f20023c4f200031b6a40f2004213403f
:104222000bb9002300e001231800bd4680bd80b514
:1042320000af43f20023c4f200031b6a40f20022e3
:1042420013400bb9002300e001231800bd4680bdd6
:020000040000fa
:024252007047b3
:020000040000fa
:104254000003002004000000010000000000000032
:10426400c00200201c00000000000000000000202c
:104274008c01000000000000dc020020100000009f
:10428400000000008c010020a800000000000000d5
:10429400840200203a00000000000000ec0200202c
:1042a4001000000000000000340200205000000054
:1042b40000000000fc0200200400000000000000d8
:1042c40004030020040000000100000000000000be
:1042d40000000000000000006666666666666666aa
:020000040000fa
:1042e40040f20003c0f2000323b140f20003c0f225
:1042f4000003984740f20003c0f2000323b140f2e8
:104304000003c0f20003984700f098f840f200035d
:10431400c0f200037f2293434ef60052cef2000215
:10432400936044f26533c0f20003984740f20003ff
:10433400c0f2000323b140f20003c0f20003984727
:1043440040f20003c0f2000323b140f20003c0f2c4
:0e4354000003984700210020fef75ef9fee707
:020000040000fa
:024362007047a2
:020000040000fa
:1043640000230e4a10b513600d4a0e4c13600e4a1a
:1043740013600e4a13600e4a13600e4a53621361af
:1043840001339360fff7ebfffff7e9ff0a4b9c4211
:1043940000d310bd08cc9847f8e7c046fc020020c3
:1043a40040020020680100003c020020340200208a
:0c43b40038020020440200206c010000d0
:020000040000fa
:1043c00010b5054c227832b9044b13b1044800e013
:1043d00000bf0123237010bdc002002000000000b8
:1043e00000000000034b10b51bb10349034800e077
:1043f00000bf10bd00000000c4020020000000004b
:020000040000fa
:104400004200110e7f390fd40123db0749421f31cf
:104410000cdd400003d2c0011843c8407047c00102
:104420001843c8404042704700207047ff210906ea
:0e4430008a4200d99843184000d4d843704700
:020000040000fa
:1044400010b50a48016821b9436813b9fff701ffa5
:1044500010bd04008368064a9bb20c349b009b5835
:1044600042682000984780002018ebe75442000083
:0444700030450000d3
:020000040000fa
:10447400012212064300da420fd84b00da420cd86c
:1044840002000a43520008d003d2814280414042d4
:0e4494007047884280414042704700207047c8
:020000040000fa
:1044a200012212064300da420fd84b00da420cd83e
:1044b20002000a43520008d003d28842804140429f
:0e44c2007047814280414042704700207047a1
:020000040000fa
:1044d000c20f12029d3201000cd001d5494202d414
:1044e000013a4900fcd5d205080a0906494100d322
:0644f00001295041704754
:020000040000fa
:1044f600002310b5934206d103201840421e904176
:0e4506009b08c01810bdc45ccc540133f2e712
:020000040000fa
:1045140030b50024a24207d0035d4d1e01342d5d49
:0c452400ab42f7d0581b00e0002030bd77
:020000040000fa
:1045300059450000f74400007b4500007b45000022
:044540007b450000b7
:020000040000fa
:1045440032b10300c9b28218197001339342fbd10e
:044554007047c046a6
:020000040000fa
:104558008a18914201d10020704700230b70013165
:02456800f7e773
:020000040000fa
:10456a000122d207514043f60b73c0f200031847e9
:020000040000fa
:04457a000020704766
:00000001FF
