:020000040000fa
:10000000f07f0020d14500003f3800003f3800005d
:1000100000000000000000000000000000000000e0
:100020000000000000000000000000003f38000059
:1000300000000000000000003f380000ff3f00000b
:100040003f3800003f3800003f3800007740000094
:10005000a9400000db4000003f3800003f380000ae
:100060003f3800003f3800003f3800003f380000b4
:100070003f3800003f3800003f3800003f380000a4
:100080003f3800003f3800003f3800003f38000094
:100090003f3800003f3800003f3800003f38000084
:1000a0003f3800003f3800003f3800003f38000074
:1000b0003f3800003f3800003f3800003f38000064
:1000c0003f3800003f3800003f3800003f38000054
:1000d0003f3800003f3800003f3800003f38000044
:1000e0003f3800003f3800003f380000692b000017
:1000f0003f3800006f2c00003f3800003f38000000
:100100003f3800003f3800003f3800003f38000013
:100110003f3800003f3800003f3800003f38000003
:100120003f3800003f3800003f3800003f380000f3
:100130003f3800003f3800003f3800003f380000e3
:100140003f3800003f3800003f3800003f380000d3
:0c0150003f3800003f3800003f3800003e
:020000040000fa
:10015c00f8b5c046f8bc08bc9e467047d1460000b6
:10016c00f8b5c046f8bc08bc9e467047ad460000ca
:020000040000fa
:10017c0080b584b000af78607b68002b01da002377
:10018c007b607b68642b01dd64237b607b68002bc8
:10019c0004dd7b68092b01dc0a237b607a68130081
:1001ac005b009b185a019b18642293fbf2f3fb60d3
:1001bc0043f20043c4f200239b68802213402bb906
:1001cc0043f20043c4f20023fa685a67fb68180034
:1001dc00bd4604b080bd80b584b000af78607b684c
:1001ec00002b01da00237b607b68642b01dd642328
:1001fc007b607b68002b04dd7b68092b01dc0a2308
:10020c007b607a6813005b009b185a019b18642270
:10021c0093fbf2f3fb6043f20043c4f200239b68b0
:10022c00802213402bb943f20043c4f20023fa6836
:10023c001a67fb681800bd4604b080bd80b584b059
:10024c0000af78600023fb6002e0fb680133fb60c9
:10025c007a6813009b009a18fb689a42f5d8c0463e
:10026c00bd4604b080bd80b582b000af00237b607a
:10027c0043f20023c4f2000394220421995002207b
:10028c00fff7dcff43f20023c4f2000398220421a1
:10029c0099500a20fff7d2ff43f20023c4f2000367
:1002ac0094220421995003f08dfe03003b600be077
:1002bc0003f088fe02003b68d31a022b04d948f2e3
:1002cc009f63c0f201032ae043f20023c4f200034f
:1002dc00a0229a588023db031340002be8d003f0b4
:1002ec0071fe03003b600ee07b6801337b6003f022
:1002fc0069fe02003b68d31a022b04d948f29f63b3
:10030c00c0f201030be043f20023c4f20003a0226d
:10031c009a588023db031340002be5d17b6818002f
:10032c00bd4602b080bd80b582b000af00237b60bb
:10033c0043f20023c4f20003802292025a6102208d
:10034c00fff77cff43f20023c4f2000380229202e9
:10035c009a610a20fff772ff43f20023c4f20003f4
:10036c00802292025a6103f02dfe03003b600be0e9
:10037c0003f028fe02003b68d31a022b04d948f282
:10038c009f63c0f2010328e043f20023c4f2000390
:10039c001a6a8023db021340002be9d003f012fe13
:1003ac0003003b600ee07b6801337b6003f00afec8
:1003bc0002003b68d31a022b04d948f29f63c0f2a7
:1003cc0001030ae043f20023c4f200031a6a8023fb
:1003dc00db021340002be6d17b681800bd4602b04f
:1003ec0080bd80b582b000af00237b6043f2002358
:1003fc00c4f2000301225a610220fff71fff43f2ef
:10040c000023c4f2000301229a610a20fff716ffb1
:10041c0043f20023c4f2000301225a6103f0d2fd1f
:10042c0003003b600be003f0cdfd02003b68d31ae8
:10043c00022b04d948f29f63c0f2010326e043f279
:10044c000023c4f200031b6a02221340002bead0e3
:10045c0003f0b8fd03003b600ee07b6801337b606a
:10046c0003f0b0fd02003b68d31a022b04d948f20a
:10047c009f63c0f2010309e043f20023c4f20003be
:10048c001b6a02221340002be7d17b681800bd4683
:10049c0002b080bd80b500af43f20023c4f200036c
:1004ac00802292029a6043f20023c4f2000380225d
:1004bc00d2025a6043f20023c4f2000352220221fa
:1004cc00995443f20023c4f2000301229a6043f2d0
:1004dc000023c4f2000302225a6043f20023c4f248
:1004ec00000341220221995443f20023c4f2000379
:1004fc0088220421995043f20023c4f20003842182
:10050c008022d2035a5043f20023c4f20003d622b5
:10051c0002219954c046bd4680bd80b582b000af63
:10052c0078607b68552b01d8012356e07b686e2bd5
:10053c0001d8022351e07b68822b01d803234ce0c5
:10054c007b68be2b01d8042347e07b68dc2b01d8e9
:10055c00052342e07b6840f20412934201d8062343
:10056c003be07b6840f22c12934201d8072334e025
:10057c007b6840f25e12934201d808232de07b6821
:10058c0040f2ae12934201d8092326e07b6840f278
:10059c00d612934201d80a231fe07b6840f208224e
:1005ac00934201d80b2318e07b6840f2302293422f
:1005bc0001d80c2311e07b6840f25822934201d8f9
:1005cc000d230ae07b6840f28a22934201d80e2365
:1005dc0003e07b682c22b3fbf2f31800bd4602b09b
:1005ec0080bd80b582b000af78607b68642b01d889
:1005fc0001233ae07b68782b01d8022335e07b6835
:10060c00872b01d8032330e07b68be2b01d8042351
:10061c002be07b68e62b01d8052326e07b6840f2b3
:10062c001812934201d806231fe07b6840f2401257
:10063c00934201d8072318e07b6840f27c12934266
:10064c0001d8082311e07b6840f29012934201d844
:10065c0009230ae07b6840f2c212934201d80a23b4
:10066c0003e07b682c22b3fbf2f31800bd4602b00a
:10067c0080bd80b582b000af78607b68642b01d8f8
:10068c0001233ce07b68782b01d8022337e07b68a0
:10069c00962b01d8032332e07b68e62b01d8042388
:1006ac002de07b6840f21812934201d8052326e016
:1006bc007b6840f24012934201d806231fe07b680e
:1006cc0040f27c12934201d8072318e07b6840f279
:1006dc009a12934201d8082311e07b6840f2d6129b
:1006ec00934201d809230ae07b6840f20822934226
:1006fc0001d80a2303e07b682c22b3fbf2f3180029
:10070c00bd4602b080bd80b582b000af78607b681a
:10071c00012b0dd07b6833b17b68022b0dd07b682d
:10072c00032b0fd013e044f2e833c0f2000312e0c5
:10073c0044f2f033c0f200030de044f2fc33c0f29b
:10074c00000308e044f20843c0f2000303e044f263
:10075c001443c0f200031800bd4602b080bd80b542
:10076c0084b000aff860b9607a6000231800bd4611
:10077c0004b080bd80b586b000aff860b9607a6017
:10078c003b60fb68642b01d9002314e0fb68023b3f
:10079c003b6100237b613b69012b02dd01237b6103
:1007ac0008e03b69013303da01235b427b6101e022
:1007bc0000237b617b691800bd4606b080bd80b507
:1007cc0082b000af78607b68073304da44f21c43d4
:1007dc00c0f200031be07b68002b04da44f23043c8
:1007ec00c0f2000313e07b68072b04dd44f24043a6
:1007fc00c0f200030be07b68002b04dd44f2544391
:10080c00c0f2000303e044f26443c0f2000318009a
:10081c00bd4602b080bd80b584b000af786003f0f7
:10082c00d1fb0300fb607b68022b35d140f28c239b
:10083c00c2f200031a68fb681100180003f074fc84
:10084c000300012b46d940f28c23c2f20003fa6854
:10085c001a6040f29023c2f200031b785a425341b3
:10086c00dbb21a0040f29023c2f200031a7040f27d
:10087c009023c2f200031b783bb143f20023c4f275
:10088c00000348f200029a6124e043f20023c4f210
:10089c00000300229a611de07b68012b0dd143f20d
:1008ac000023c4f2000348f200025a6140f2902384
:1008bc00c2f2000300221a700ce043f20023c4f2cf
:1008cc00000348f200025a6140f29023c2f2000386
:1008dc0000221a70c046bd4604b080bd80b592b0ef
:1008ec0000af03f06ffb03003b6340f29423c2f2b2
:1008fc0000031a683b6b1100180003f015fc030091
:10090c00012b01d800f01cfd40f29423c2f200032d
:10091c003a6b1a6040f29823c2f200031b788bb931
:10092c0040f29823c2f2000301221a70fff7b2fdc5
:10093c0043f20023c4f2000348f200029a60002044
:10094c00fff769fffff78ffc0300fb62fff7ebfc7f
:10095c000300bb62fff745fd03007b62fb6a1800d6
:10096c00fff7dbfd03007b64bb6a1800fff739fe61
:10097c0003003b627b6a1800fff77bfe03003b64bd
:10098c00fb6a41f28832934202d87b6c022b01d86d
:10099c0001237b647b6a41f28832934202d83b6c20
:1009ac00022b01d801233b647a6c40f29c23c2f2e7
:1009bc0000031b68d31ada179b185340fb613a6a81
:1009cc0040f2a023c2f200031b68d31ada179b185b
:1009dc005340bb613a6c40f2a423c2f200031b6883
:1009ec00d31ada179b1853407b61fb69012b00dd8e
:1009fc0084e0bb69012b00dd80e07b69012b00dd0d
:100a0c007ce040f2a823c2f200031b6833b940f229
:100a1c00a823c2f200033a6b1a60aae040f2a823a2
:100a2c00c2f200031a683b6b1100180003f07cfb48
:100a3c000300272b00d89ce040f2ac23c2f2000349
:100a4c001b78002b00d094e040f2ad23c2f20003df
:100a5c001b78002b00d08ce040f2b023c2f20003d4
:100a6c001b689133ff331a0040f2b023c2f200032b
:100a7c001a6040f2b023c2f200031b6842f20f72fc
:100a8c00934211d940f2ad23c2f2000301221a7035
:100a9c0040f2ac23c2f2000301221a700220fff7cd
:100aac00bafe03f01bfa64e040f2b423c2f2000376
:100abc0007221a7040f2b523c2f2000301221a7009
:100acc0040f2b823c2f200033a6b1a6040f2ac2336
:100adc00c2f2000301221a700120fff79cfe03f002
:100aec0059fa1920fff777fb0f20fff741fb40f273
:100afc00a823c2f2000300221a603ae040f29c23c1
:100b0c00c2f200037a6c1a6040f2a023c2f2000316
:100b1c003a6a1a6040f2a423c2f200033a6c1a60db
:100b2c0040f2a823c2f2000300221a6040f2ac2368
:100b3c00c2f2000300221a7040f2ad23c2f200038d
:100b4c001b782bb940f2b023c2f2000300221a60ca
:100b5c0040f2b423c2f200031b78072b0ad040f2f8
:100b6c00ad23c2f200031b7823b90020fff753fe1c
:100b7c0000e0c0467b6c042b52d840f2b423c2f286
:100b8c0000031b78022b4bd040f2b423c2f20003bb
:100b9c001b78012b44d040f2b423c2f200031b7823
:100bac00032b3dd040f2b423c2f200031b78052b7b
:100bbc0036d040f2b423c2f200031b78062b2fd0a0
:100bcc0040f2b423c2f200031b78072b28d040f26a
:100bdc00b423c2f2000305221a7040f2b523c2f20c
:100bec00000301221a7040f2b823c2f200033a6be0
:100bfc001a6003f08af90c20fff7bafa0020fff70d
:100c0c00eafa40f2a823c2f2000300221a6040f272
:100c1c00ac23c2f2000300221a700020fff7fbfd88
:100c2c003b6c032b52d840f2b423c2f200031b7866
:100c3c00022b4bd040f2b423c2f200031b78012be1
:100c4c0044d040f2b423c2f200031b78032b3dd0f6
:100c5c0040f2b423c2f200031b78052b36d040f2cd
:100c6c00b423c2f200031b78062b2fd040f2b4231e
:100c7c00c2f200031b78072b28d040f2b423c2f237
:100c8c00000306221a7040f2b523c2f200030122bf
:100c9c001a7040f2b823c2f200033a6b1a6003f0e8
:100cac004bf90c20fff764fa0020fff794fa40f29e
:100cbc00a823c2f2000300221a6040f2ac23c2f255
:100ccc00000300221a700020fff7a5fd3b6a0c2bd5
:100cdc005fd87b6c142b5cd83b6c142b59d840f22e
:100cec00b423c2f200031b78032b00d1abe040f21b
:100cfc00b423c2f200031b78022b00d1a3e040f214
:100d0c00b423c2f200031b78012b00d19be040f20c
:100d1c00b423c2f200031b78052b00d193e040f200
:100d2c00b423c2f200031b78062b00d18be040f2f7
:100d3c00b423c2f200031b78072b00d183e040f2ee
:100d4c00b423c2f2000303221a7040f2b523c2f29c
:100d5c00000301221a7040f2b823c2f200033a6b6e
:100d6c001a6003f0d2f81920fff735fa1920fff7b3
:100d7c00fff940f2a823c2f2000300221a6040f2ed
:100d8c00ac23c2f2000300221a700020fff743fdcf
:100d9c0059e03b6a0c2b57d87b6c142b54d840f27f
:100dac00b423c2f200031b78022b4dd040f2b423c3
:100dbc00c2f200031b78012b46d040f2b423c2f2de
:100dcc0000031b78032b3fd040f2b423c2f2000384
:100ddc001b78052b38d040f2b423c2f200031b78e9
:100dec00062b31d040f2b423c2f200031b78072b40
:100dfc002ad040f2b423c2f2000302221a7040f24d
:100e0c00b523c2f2000301221a7040f2b823c2f2d9
:100e1c0000033a6b1a6003f078f81920fff7dbf93e
:100e2c001920fff7a5f940f2a823c2f20003002213
:100e3c001a6040f2ac23c2f2000300221a700020a8
:100e4c00fff7e9fc00e0c04640f2bc23c2f200030d
:100e5c001b687bb140f2bc23c2f200031a683b6be7
:100e6c001100180003f060f940f2bc23c2f2000339
:100e7c0000221a6040f2b423c2f200031b78072b45
:100e8c0000d96ee29a00dc4bd3181b689f467b6c32
:100e9c003b613b690222d31a180003f089fc031c46
:100eac00fb6049f69a11c3f69971f86803f03afaa7
:100ebc00031cbb6040f2c023c2f200031b68191c68
:100ecc00f86803f0c2fc031c49f69a11c3f61961c9
:100edc00181c03f027fa031c7b6040f2c023c2f2fb
:100eec000003fa681a607968b86803f080f9031c8b
:100efc00fb63fc218905f86b03f02cfc030013b198
:100f0c00fc239b05fb63bf210906f86b03f039fc3e
:100f1c00030013b1bf231b06fb63fc218905f86b8f
:100f2c0003f065f9031c181c03f0dafb03001a33f9
:100f3c00bb63fc218905f86b03f059f9031c181ce1
:100f4c0003f0cefb020019239b1a7b63bb6b282b8f
:100f5c0001dd2823bb63bb6b0e2b01dc0f23bb63b2
:100f6c007b6b282b01dd28237b637b6b0e2b01dc39
:100f7c000f237b6302f0f7ffbb6b1800fff72bf915
:100f8c007b6b1800fff7f4f87b6c142b53d940f2f1
:100f9c00c423c2f200031b780133dab240f2c4233b
:100fac00c2f200031a7040f2c423c2f200031b7891
:100fbc00012b00d8c6e140f2bc23c2f200031b682f
:100fcc00002b00d0bee140f2b423c2f200031b7828
:100fdc00002b00d0b6e140f2b423c2f20003012290
:100fec001a7040f2b523c2f2000301221a7040f2cb
:100ffc00b823c2f200033a6b1a6002f09dff19206d
:10100c00fff7e9f81920fff7b3f840f2c423c2f256
:10101c00000300221a7040f2a823c2f2000300223f
:10102c001a6040f2ac23c2f2000300221a700020b6
:10103c00fff7f1fb86e140f2c423c2f20003002269
:10104c001a707fe140f2b523c2f200031b78002b2b
:10105c0000d179e140f2b823c2f200031a683b6b6d
:10106c001100180003f060f803001a2b00d86be194
:10107c0040f2b523c2f2000300221a7040f2b423ee
:10108c00c2f2000304221a703b6b32331a0040f296
:10109c00bc23c2f200031a6040f2a823c2f2000380
:1010ac0000221a6040f2ac23c2f2000300221a7034
:1010bc000020fff7b0fb47e140f2b523c2f200037a
:1010cc001b78002b00d141e140f2b823c2f200039f
:1010dc001a683b6b1100180003f026f80300072b6d
:1010ec0000d833e140f2b523c2f2000300221a709b
:1010fc0040f2b423c2f2000304221a703b6b323369
:10110c001a0040f2bc23c2f200031a6040f2a8237a
:10111c00c2f2000300221a6040f2ac23c2f20003b8
:10112c0000221a700020fff776fb0fe140f2b52386
:10113c00c2f200031b78002b00d109e140f2b82366
:10114c00c2f200031a683b6b1100180002f0ecffae
:10115c000300132b00d8fbe040f2b523c2f20003ce
:10116c0000221a7040f2b423c2f2000304221a7057
:10117c003b6b32331a0040f2bc23c2f200031a60fc
:10118c0040f2a823c2f2000300221a6040f2ac2302
:10119c00c2f2000300221a700020fff73cfbd7e0dc
:1011ac0040f2b523c2f200031b78002b00d1d1e032
:1011bc0040f2b823c2f200031a683b6b110018000e
:1011cc0002f0b2ff0300082b00d8c3e040f2b523b5
:1011dc00c2f2000300221a7040f2b423c2f20003e0
:1011ec0004221a703b6b32331a0040f2bc23c2f259
:1011fc0000031a60aee0c0467044000040f2b52314
:10120c00c2f200031b78002b00d1a5e040f2b823fa
:10121c00c2f200031a683b6b1100180002f084ff45
:10122c000300082b00d897e040f2b523c2f200036c
:10123c0000221a7040f2b423c2f2000304221a7086
:10124c003b6b32331a0040f2bc23c2f200031a602b
:10125c0082e040f2b523c2f200031b78002b00d1d0
:10126c007ce040f2b823c2f200031a683b6b110019
:10127c00180002f059ff0300272b6fd940f2b52359
:10128c00c2f2000300221a7002f028fe0020fff7c1
:10129c00c2fa40f2b423c2f2000304221a703b6b70
:1012ac0032331a0040f2bc23c2f200031a6040f23f
:1012bc00a823c2f2000300221a604fe002f053fe92
:1012cc001a20fef788ff1920fef752ff7b6c142bb7
:1012dc002ed840f2c523c2f200031b780133dab2d8
:1012ec0040f2c523c2f200031a7040f2c523c2f2c9
:1012fc0000031b78022b33d940f2b423c2f2000353
:10130c0000221a7040f2c523c2f2000300221a70a8
:10131c0040f2a823c2f2000300221a6040f2ac2370
:10132c00c2f2000300221a700020fff774fa17e0d3
:10133c0040f2c523c2f2000300221a70c0460fe02f
:10134c00c0460ee0c0460ce0c0460ae0c04608e0cd
:10135c00c04606e0c04604e0c04602e0c04600e0dd
:08136c00c046bd4612b080bd71
:020000040000fa
:1013740080b582b000af0200fb1d1a70fb1d1b7804
:101384007f2b12d8fb1d1b781a001f231a40110053
:101394004ef20013cef20003fa1d127852b2520933
:1013a4000120884001009200d150c046bd4602b0e1
:1013b40080bd90b583b000af02003960fb1d1a7088
:1013c400fb1d1b787f2b2fd84ef20013cef20003a7
:1013d400fa1d127852b29208c0329200d358fa1d04
:1013e4001278110003220a40d200ff2191400a0022
:1013f400d2431a4010003b689b01ff221a40fb1d98
:101404001b78190003230b40db009a4011004ef2b5
:101414000013cef20003fa1d127852b2920801436f
:10142400c0329200d15037e04ef60053cef20003a2
:10143400fa1d127811000f220a40083a9208063267
:1014440092009b1804331b68fa1d127811000322c2
:101454000a40d200ff2191400a00d2431a401000f2
:101464003b689b01ff221a40fb1d1b7819000323d4
:101474000b40db009a404ef60053cef20003f91df8
:1014840009780c000f2121400839890802430631ec
:1014940089005b1804331a60c046bd4603b090bd92
:1014a40080b500af00f02ff840f20023c4f200230f
:1014b40001221a7000f0e0f800f002fa00f0f7fae6
:1014c4004ef21003cef2000340f6a6625a60c04604
:1014d400bd4680bd80b500af00f0d7fb00f096fba1
:1014e40000f078fb03212b20fff763ff03212d205d
:1014f400fff75fff2b20fff73bff2d20fff738ff9f
:10150400c046bd4680bd80b582b000af00237b607d
:1015140040f20043c4f2000301229a7140f20043f6
:10152400c4f2000302229a7000e0c04640f2004375
:10153400c4f200039b79dbb21a0001231340002b91
:10154400f3d040f20043c4f2000301229a7145f241
:101554000003c4f2001306225a6041f60003c4f2e9
:10156400000340f202221a6200e0c04641f6000382
:10157400c4f20003da688023db021340002bf4d0aa
:1015840041f20003c4f2000300221a8600e0c046c0
:1015940041f20003c4f200031a6980235b04134080
:1015a400002bf4d046f22003c0f280031a68fc2317
:1015b400db0513407b60c0467b68db0b7b607b688c
:1015c40040f2002213437b6041f20003c4f20003a3
:1015d4007a685a6300e0c04641f20003c4f2000393
:1015e4001a6980235b041340002bf4d041f20003fa
:1015f400c4f200031b8e9ab241f20003c4f200034a
:1016040002210a4392b21a8600e0c04641f2000366
:10161400c4f200031a6980235b041340002bf4d046
:1016240041f60043c4f2000340f20512c0f2010285
:101634009a6200e0c04641f60043c4f200035b68ce
:1016440010221340002bf5d141f60043c4f20003ed
:1016540040f20712c0f202021a6200e0c04641f6ec
:101664000043c4f200035b6804221340002bf5d14d
:10167400c046bd4602b080bd80b500af43f2002332
:10168400c4f2000301225a6043f20023c4f20003af
:1016940040220221995443f20023c4f2000302229f
:1016a4005a6043f20023c4f20003412202219954f8
:1016b40043f20023c4f2000304225a6143f20023dc
:1016c400c4f2000304229a6043f20023c4f200032c
:1016d40008225a6143f20023c4f2000308229a60ec
:1016e40043f20023c4f2000340225a6143f2002370
:1016f400c4f2000340229a6043f20023c4f20003c0
:1017040080225a6143f20023c4f2000380229a60cb
:1017140043f20023c4f2000340f200225a6043f271
:101724000023c4f2000349220221995443f2002306
:10173400c4f2000340f200425a6043f20023c4f2b0
:1017440000034a220221995443f20023c4f2000305
:1017540040f600025a6043f20023c4f200034b2215
:101764000221995443f20023c4f2000344f200021c
:101774005a6143f20023c4f2000344f200029a6067
:1017840043f20023c4f2000348f200025a6143f218
:101794000023c4f2000348f200029a6043f20023db
:1017a400c4f20003802212035a6143f20023c4f2fc
:1017b4000003802212039a6043f20023c4f2000360
:1017c400802292025a6043f20023c4f200035122a1
:1017d4000221995443f20023c4f200038022d2026e
:1017e4005a6043f20023c4f20003522202219954a6
:1017f40043f20023c4f20003802252035a6143f2ed
:101804000023c4f20003802252039a6043f20023af
:10181400c4f20003802292035a6043f20023c4f20c
:10182400000355220221995443f20023c4f2000319
:101834008022d2035a6043f20023c4f200035622ea
:101844000221995443f20023c4f2000380221204bb
:101854005a6043f20023c4f2000357220221995430
:1018640043f20023c4f2000394220821995043f266
:101874000023c4f2000388220821995043f2002374
:10188400c4f2000384218022d2035a5043f200237d
:10189400c4f2000356220221995443f20023c4f2f5
:1018a40000039421802212045a5043f20023c4f20c
:1018b40000038821802212045a50c046bd4680bdd0
:1018c40080b582b000affb1d00221a7041f60043c0
:1018d400c4f2000390224221995000e0c04641f630
:1018e4000043c4f2000390229b5840221340002b73
:1018f400f4d042f60023c4f2000301221a7000e07f
:10190400c04642f60023c4f200035b680122134080
:10191400002bf5d142f60023c4f2000340f6aa22bc
:10192400c0f20022da6142f60023c4f200031a6b0b
:1019340042f60023c4f2000303210a431a6342f669
:101944000023c4f200030e225a6342f60023c4f2b9
:10195400000347221a6143f20023c4f20003fa1d74
:101964003b215b5c1370fb1dfa1d12780f210a40aa
:101974001a70fb1dfa1d12781a7043f20023c4f288
:101984000003fa1d3b2112785a5443f20023c4f297
:10199400000357229b5cdab243f20023c4f2000333
:1019a40001210a43d1b25722995443f20023c4f2cd
:1019b4000003fa1dbb215b5c1370fb1dfa1d12783a
:1019c4000f218a431a70fb1dfa1d12781a7043f214
:1019d4000023c4f20003fa1dbb2112785a5443f2c7
:1019e4000023c4f20003d6229b5cdab243f2002344
:1019f400c4f2000301210a43d1b2d622995443f21e
:101a04000023c4f20003fa1d30215b5c1370fb1d3c
:101a1400fa1d12780f218a431a70fb1dfa1d1278e1
:101a24001a7043f20023c4f20003fa1d3021127825
:101a34005a5443f20023c4f2000340229b5cdab2fe
:101a440043f20023c4f2000301210a43d1b240222d
:101a5400995443f20023c4f20003fa1d30215b5c65
:101a64001370fb1dfa1d12780f210a401a70fb1d1a
:101a7400fa1d12781a7043f20023c4f20003fa1d0f
:101a8400302112785a5443f20023c4f20003412255
:101a94009b5cdab243f20023c4f2000301210a433f
:101aa400d1b241229954c046bd4602b080bd80b532
:101ab40082b000af41f60043c4f20003ec2242219d
:101ac400995000e0c04641f60043c4f20003ec2202
:101ad4009b5840221340002bf4d043f20043c4f23d
:101ae400002301221a6000e0c04643f20043c4f21e
:101af40000239b6801221340002bf5d143f20043dd
:101b0400c4f200231a6843f20043c4f2002340f2f3
:101b140000410a431a6043f20043c4f20023022244
:101b2400da6343f20043c4f2002363221a6443f2eb
:101b34000043c4f2002300225a6443f20043c4f277
:101b4400002300229a6400e0c04643f20043c4f23a
:101b540000239b68a0221340002bf5d143f20023fd
:101b6400c4f2000333229b5cdbb27b607b68ff2200
:101b740093437b607b68992213437b6043f2002389
:101b8400c4f200037a68d1b23322995443f2002399
:101b9400c4f2000346229b5cdab243f20023c4f28f
:101ba400000341210a43d1b24622995443f200234f
:101bb400c4f2000347229b5cdab243f20023c4f26e
:101bc400000341210a43d1b247229954c046bd467d
:101bd40002b080bd80b500af43f20043c4f20023dd
:101be4001a6843f20043c4f2002302210a431a6034
:101bf40000e0c04643f20043c4f200239b68022283
:101c04001340002bf5d1c046bd4680bd80b500af62
:101c140042f60023c4f2000302221a7000e0c04618
:101c240042f60023c4f200035b6802221340002b37
:101c3400f5d142f60023c4f200034ff6ff725a6155
:101c440002210320fff7b5fb0320fff791fb0321db
:101c54000420fff7aefb0420fff78afb03210520d5
:101c6400fff7a7fb0520fff783fb03210920fff7fc
:101c7400a0fb0920fff77cfb4ef21003cef2000319
:101c840007221a60c046bd4680bd80b584b000af4f
:101c94000023fb6043f20023c4f20003b1229b5ce7
:101ca400dbb2fb60fb680f229343fb60fb680122fd
:101cb4001343fb6043f20023c4f20003fa68d1b279
:101cc400b122995443f20023c4f20003c1229b5c65
:101cd400dab243f20023c4f2000301210a43d1b271
:101ce400c122995441f60043c4f20003f022422178
:101cf400995000e0c04641f60043c4f20003f022cc
:101d04009b5840221340002bf4d043f60003c4f246
:101d140000231b78dab243f60003c4f20023012146
:101d24000a43d2b21a7000e0c04643f60003c4f27c
:101d340000231b8c9bb21a0001231340002bf3d108
:101d440043f60003c4f200239b78dab243f600039f
:101d5400c4f2002305210a43d2b29a7043f6000369
:101d6400c4f200235b899ab243f60003c4f2002351
:101d740020210a4392b25a8143f60003c4f200239d
:101d840004225a7043f60003c4f200231b899ab25a
:101d940043f60003c4f200230a210a4392b21a81d3
:101da40043f60003c4f200231b899ab243f60003ee
:101db400c4f2002341f600010a4392b21a8146f2aa
:101dc4002003c0f280031b68bb60bb1d00221a8085
:101dd400bb689bb21b029bb21bb240f20072134061
:101de4001ab2bb1d00215b5e13431ab2bb1d1a80dd
:101df400bb68db089bb20722134099b2bb1dba1d16
:101e040012880a431a8043f60003c4f20023ba1d61
:101e140012889a8543f60003c4f200231b78dab2d1
:101e240043f60003c4f2002302210a43d2b21a701b
:101e340000e0c04643f60003c4f200231b8c9bb2af
:101e44001a0002231340002bf3d143f60003c4f21b
:101e540000235b899ab243f60003c4f200230421f1
:101e64000a4392b25a8143f60003c4f200230222c9
:101e74001a76c046bd4604b080bd80b582b000afbe
:101e84004ef60053cef20003db687b607b680422cd
:101e940093437b607b68054a53407b604ef6005356
:101ea400cef200037a68da60c046fde70400ffff63
:020000040000fa
:101eb40080b582b000af7860396001f0c6f80300e5
:101ec4003bb17b681b88984a13439ab27b681a809b
:101ed4006be37b681b885b045b0c9ab27b681a809b
:101ee4007b681b88002b00d15ce37b6840f20812fe
:101ef400002199527b681b881a0001231340002b90
:101f040061d07b681b8847f6fb7213439ab27b68e7
:101f14001a807b681b881a00042313409bb17b68da
:101f240040f24c129b585a1c7b6840f24c115a5098
:101f34007b6840f24c129b58072b04d97b6840f213
:101f44004c12002199507b6840f24c1299587b68de
:101f540040f208129b5a78680133da0043f61c43b6
:101f6400c0f20003c90082185b1803cb03c27b686c
:101f740040f208129b5a013399b27b6840f208126e
:101f840099527b6840f208129b5a7a680133d9004f
:101f940043f64003c0f200038b507b6840f2081202
:101fa4009b5a7a680133db00d318043340f2793248
:101fb4001a607b6840f208129b5a013399b27b681d
:101fc40040f2081299527b681b881a0002231340be
:101fd400002b00d1d3e27b6840f208129b5a786848
:101fe4000133da0043f61c43c0f200033968c90028
:101ff40082185b1803cb03c27b6840f208129b5a19
:10200400013399b27b6840f2081299527b6840f21e
:1020140008129b5a7a680133d90043f65c43c0f234
:1020240000038b507b6840f208129b5a7a68013394
:10203400db00d31804330c221a607b6840f20812c8
:102044009b5a013399b27b6840f20812995240f2cc
:102054001003c2f200031b68042b00d980e09a002d
:10206400324bd3181b689f467b6840f208129b5a78
:102074007a680133d90043f66c43c0f200038b50f5
:102084007b6840f208129b5a7a680133db00d3184c
:10209400043304221a6063e07b6840f208129b5afe
:1020a4007a680133d90043f67443c0f200038b50bd
:1020b4007b6840f208129b5a7a680133db00d3181c
:1020c400043307221a604be07b6840f208129b5ae3
:1020d4007a680133d90043f67c43c0f200038b5085
:1020e4007b6840f208129b5a7a680133db00d318ec
:1020f400043308221a6033e07b6840f208129b5aca
:102104007a680133d90043f68843c0f200038b5048
:102114007b6840f208129b5a7a680133db00d318bb
:10212400043305221a601be00080ffff383d0000e5
:102134007b6840f208129b5a7a680133d90043f64f
:102144009043c0f200038b507b6840f208129b5a04
:102154007a680133db00d318043304221a60c046c2
:102164007b6840f208129b5a013399b27b6840f2b3
:10217400081299527b6840f208129b5a7a6801331c
:10218400d90043f69843c0f200038b507b6840f2b9
:1021940008129b5a7a680133db00d31804330c22eb
:1021a4001a607b6840f208129b5a013399b27b682b
:1021b40040f20812995240f20c03c2f200031b6869
:1021c400bbb97b6840f208129b5a7a680133d90084
:1021d40043f6a843c0f200038b507b6840f2081218
:1021e4009b5a7a680133db00d31804330b221a603c
:1021f400c0467b6840f208129b5a013399b27b684f
:1022040040f2081299527b6840f208129b5a7a688d
:102214000133d90043f6b443c0f200038b507b680a
:1022240040f208129b5a7a680133db00d318043356
:102234000c221a607b6840f208129b5a013399b24f
:102244007b6840f2081299523b68022b25d03b6808
:10225400022b03dc3b68012b07d066e03b68032bb1
:1022640033d03b68042b48d05fe07b6840f208120f
:102274009b5a7a680133d90043f6c443c0f2000381
:102284008b507b6840f208129b5a7a680133db005a
:10229400d318043306221a6047e07b6840f2081220
:1022a4009b5a7a680133d90043f6cc43c0f2000349
:1022b4008b507b6840f208129b5a7a680133db002a
:1022c400d31804330e221a602fe07b6840f2081200
:1022d4009b5a7a680133d90043f6dc43c0f2000309
:1022e4008b507b6840f208129b5a7a680133db00fa
:1022f400d31804330e221a6017e07b6840f20812e8
:102304009b5a7a680133d90043f6ec43c0f20003c8
:102314008b507b6840f208129b5a7a680133db00c9
:10232400d318043304221a60c0467b6840f20812b2
:102334009b5a013399b27b6840f2081299527b6828
:1023440040f208129b5a7a680133d90043f6f443e9
:10235400c0f200038b507b6840f208129b5a7a68e3
:102364000133db00d31804330c221a607b6840f27b
:1023740008129b5a013399b27b6840f208129952b1
:1023840040f20703c2f200031b78bbb17b6840f242
:1023940008129b5a7a680133d90043f60453c0f2f9
:1023a40000038b507b6840f208129b5a7a68013311
:1023b400db00d318043308221a6016e07b6840f26d
:1023c40008129b5a7a680133d90043f61053c0f2bd
:1023d40000038b507b6840f208129b5a7a680133e1
:1023e400db00d318043304221a607b6840f208121d
:1023f4009b5a013399b27b6840f2081299527b6868
:1024040040f208129b5a7a680133d90043f61853f4
:10241400c0f200038b507b6840f208129b5a7a6822
:102424000133db00d31804330c221a607b6840f2ba
:1024340008129b5a013399b27b6840f208129952f0
:1024440040f20803c2f200031b78bbb17b6840f280
:1024540008129b5a7a680133d90043f60453c0f238
:1024640000038b507b6840f208129b5a7a68013350
:10247400db00d318043308221a6016e07b6840f2ac
:1024840008129b5a7a680133d90043f61053c0f2fc
:1024940000038b507b6840f208129b5a7a68013320
:1024a400db00d318043304221a607b6840f208125c
:1024b4009b5a013399b27b6840f2081299527b68a7
:1024c40040f208129b5a7a680133d90043f6285324
:1024d400c0f200038b507b6840f208129b5a7a6862
:1024e4000133db00d31804330c221a607b6840f2fa
:1024f40008129b5a013399b27b6840f20812995230
:1025040040f20903c2f200031b78bbb17b6840f2be
:1025140008129b5a7a680133d90043f60453c0f277
:1025240000038b507b6840f208129b5a7a6801338f
:10253400db00d318043308221a6016e07b6840f2eb
:1025440008129b5a7a680133d90043f61053c0f23b
:1025540000038b507b6840f208129b5a7a6801335f
:10256400db00d318043304221a607b6840f208129b
:102574009b5a013399b27b6840f2081299527b68e6
:1025840040f208129b5a7bb17b68083318007b68c1
:1025940040f208129b5a190000f064fc7b68044a5c
:1025a4001a8002e0c04600e0c046bd4602b080bdcd
:1025b4000080ffff80b582b000af78607b685b6805
:1025c400012b17d02bb1022b23d0032b00d1ffe01a
:1025d40009e17b685d33ff331021180000f044fdee
:1025e4000300002b00d100e17b685b685a1c7b6808
:1025f4005a60fae07b685133ff33180000f0cafddb
:102604000300002b00d1f2e07b685b685a1c7b68f6
:102614005a607b681b881bb2002b00dae9e07b68f8
:1026240040f24812002199507b681b880222134310
:102634009ab27b681a807b685b685a1c7b685a6014
:102644007b6840f254129b58032b4ad17b6840f2ba
:1026540050129b5801331b785b2b42d17b6840f2ac
:1026640050129b5802331b78412b06d140f21003c1
:10267400c2f2000301221a60a9e07b6840f2501202
:102684009b5802331b78422b06d140f21003c2f24e
:10269400000302221a609ae07b6840f250129b58b1
:1026a40002331b78432b06d140f21003c2f200031d
:1026b40003221a608be07b6840f250129b5802336d
:1026c4001b78442b06d140f21003c2f2000304220b
:1026d4001a607ce040f21003c2f2000300221a6088
:1026e40075e07b6840f254129b58012b37d17b680c
:1026f40040f250129b581b78312b06d140f2000354
:10270400c2f2000301221a6075e07b6840f25012a5
:102714009b581b78322b06d140f20003c2f200030f
:1027240002221a6067e07b6840f250129b581b78c3
:10273400332b06d140f20003c2f2000303221a60d5
:1027440059e07b6840f250129b581b78202b52d1e1
:1027540040f21003c2f2000300221a604be07b68cf
:1027640040f254129b58012b29d97b6840f2501235
:102774009b581b781b2b22d17b6840f254129b5828
:10278400052b23d17b6840f250129b58581c43f60a
:102794004c53c0f200030422190002f02ff8030086
:1027a400a3b97b681b88012213439ab27b681a8001
:1027b40040f21003c2f2000300221a6006e040f265
:1027c4001003c2f2000300221a6014e0c04612e0b3
:1027d4007b681b881a0048f2020313406bb97b68bc
:1027e40000225a600ae0fff748fbc04606e0c046f4
:1027f40004e0c04602e0c04600e0c046c046bd4614
:1028040002b080bd80b586b000af00233b610023d9
:102814007b600023fb600023bb60fef741fe00f0f9
:10282400d5f8fef757fe40f22003c2f2000301225e
:102834001a8001f048fe03001a0040f20703c2f2b6
:1028440000031a7001f050fe03001a0040f208035e
:10285400c2f200031a7001f058fe03001a0040f29d
:102864000903c2f200031a7040f20003c2f200032b
:1028740002221a60fb68072b22d9bb687b6001f037
:1028840022fe03001a0040f20703c2f200031a708a
:1028940001f02afe03001a0040f20803c2f200030a
:1028a4001a7001f032fe03001a0040f20903c2f26a
:1028b40000031a7040f22003c2f2000302221a80bd
:1028c40001f084fb0300bb607a68bb681100180048
:1028d40001f02efc0300fb6040f20003c2f200038f
:1028e4001a6840f22003c2f2000311001800fff737
:1028f400dffa40f22003c2f200031800fff75afe89
:1029040040f20003c2f200031b68022b43d0032be6
:1029140054d0012baed140f21003c2f200031b6865
:10292400042b23d89a00284bd3181b689f4601f028
:10293400d9fa1be001f01bfb1e237b6121233b61c1
:1029440014e001f02bfb32237b6123233b610de078
:1029540001f0f6fa32237b6132233b6106e001f099
:10296400d8fa32237b6132233b61c04643f20043f1
:10297400c4f200239b688022134013bb43f200433c
:10298400c4f200237a695a6743f20043c4f2002375
:102994003a691a6715e040f20703c2f20003187897
:1029a40040f20803c2f20003197840f20903c2f2ac
:1029b40000031b781a0000f086fc03e0fdf792ff89
:0c29c40000e0c04656e7c046543d00004d
:020000040000fa
:1029d00080b500af41f60043c4f20003d02242218b
:1029e000995000e0c04641f60043c4f20003d022f3
:1029f0009b5840221340002bf4d040f28c13c2f2bb
:102a00000003a8220021180001f012ff41f2000388
:102a1000c4f2002301221a6000e0c04641f2000324
:102a2000c4f20023db6901221340002bf5d141f2ef
:102a30000003c4f2002304221a6041f20003c4f22e
:102a400000231a6841f20003c4f200238021c90563
:102a50000a431a6041f20003c4f200231a6841f2eb
:102a60000003c4f20023802149030a431a6041f2a3
:102a70000003c4f2002300225a6041f20003c4f2b2
:102a80000023802212059a6041f20003c4f2002361
:102a9000344a9a8141f20003c4f200235a6841f299
:102aa0000003c4f20023c32109040a435a6000e072
:102ab000c04641f20003c4f20023db690422134044
:102ac000002bf5d143f20023c4f20003942240f21c
:102ad0000021995043f20023c4f20003842240f203
:102ae0000021995043f20023c4f20003982240f2df
:102af0000011995043f20023c4f20003882240f2ef
:102b00000011995043f20023c4f20003b422332190
:102b1000995443f20023c4f20003c92203219954bb
:102b200043f20023c4f20003c8224121995441f228
:102b30000003c4f200231a6841f20003c4f2002328
:102b400002210a431a6000e0c04641f20003c4f2c9
:102b50000023db6906221340002bf5d1c046bd4699
:102b600080bdc04605c5ffff80b500af40f28c13a5
:102b7000c2f20003a4229b5cdbb2022b00d073e004
:102b800066e040f28c13c2f2000384229b584bb3e0
:102b900040f28c13c2f200031a681100083140f2af
:102ba0008c13c2f20003196040f28c13c2f20003ce
:102bb00088215b1803ca03c340f28c13c2f20003de
:102bc00084229b585a1e40f28c13c2f200038421c7
:102bd0005a5040f28c13c2f200038c229b58002bf7
:102be000cfd000e0c04640f28c13c2f200038c222a
:102bf0009b586bb941f20003c4f2002301221a75fd
:102c000040f28c13c2f20003a422002199542ce05c
:102c100040f28c13c2f2000388229a58511c40f2f1
:102c20008c13c2f2000388201950127841f200037d
:102c3000c4f200239a6240f28c13c2f200038c2289
:102c40009b585a1e40f28c13c2f200038c215a503a
:102c500041f20003c4f200231b7edbb21a00012301
:102c60001340002bb5d100e0c046bd4680bd90b5f5
:102c700083b000af40f28c13c2f20003a5229b5c2c
:102c8000dbb2022b00d0b0e0a2e041f20003c4f2bc
:102c90000023ba1d5b8b1380c04641f20003c4f2cf
:102ca00000239b6a3b6040f28c13c2f2000398221f
:102cb0009a5840f28c13c2f20003a0215b589a424a
:102cc00009d340f28c13c2f200039c22995c0420c9
:102cd000014399547ce0bb1d1b880122134043b182
:102ce00040f28c13c2f200039c22995c0120014344
:102cf0009954bb1d1b88022213409bb140f28c13d8
:102d0000c2f200039c22995c0220014399543b6863
:102d100043b940f28c13c2f200039c22995c10204c
:102d200001439954bb1d1b880422134043b140f258
:102d30008c13c2f200039c22995c04200143995435
:102d4000bb1d1b882022134043b140f28c13c2f2fa
:102d500000039c22995c08200143995440f28c1393
:102d6000c2f200039422995840f28c13c2f200037d
:102d700098229a58501c40f28c13c2f200039824f7
:102d800018518b183a68d2b21a7040f28c13c2f202
:102d9000000390220021995040f28c13c2f20003ec
:102da00098229a5840f28c13c2f20003a0215b587b
:102db0009a420dd341f20003c4f2002304221a7593
:102dc00040f28c13c2f20003a522032199540de0b6
:102dd00041f20003c4f200231b7edbb21a0004237d
:102de0001340002b00d050e700e0c046bd4603b0c2
:102df00090bd80b500af40f28c13c2f20003a52253
:102e00009b5cdbb2022b2ad140f28c13c2f200038e
:102e100098229b582bb340f28c13c2f200039022ed
:102e20009b585a1c40f28c13c2f2000390215a5056
:102e300040f28c13c2f2000390229b58062b11d94a
:102e400041f20003c4f2002304221a7540f28c13ed
:102e5000c2f20003a52203219954c04602e0c046f5
:102e600000e0c046bd4680bd80b584b000af78604c
:102e700039607b680bb13b680bb9012388e040f2f5
:102e80008c13c2f20003a4229b5cdbb20bb10023c3
:102e90007ee040f28c13c2f20003a4220121995477
:102ea00041f20003c4f200235a6841f20003c4f265
:102eb00000238021c9030a435a6000e0c04641f262
:102ec0000003c4f20023db6904221340002bf5d178
:102ed00040f28c13c2f2000388220021995040f284
:102ee0008c13c2f200038c220021995040f28c1303
:102ef000c2f20003284a1a600023fb6040f28c13e0
:102f0000c2f2000384220021995027e0fb68db0015
:102f10007a68d318bb60bb685b68dbb1bb681b68b1
:102f2000c3b140f28c13c2f2000384229a58511ca0
:102f300040f28c13c2f200038420195040f28c132b
:102f4000c2f20003d20004219b185b18ba6803cabe
:102f500003c300e0c046fb680133fb6040f28c1302
:102f6000c2f2000384229b580f2b03d8fa683b68f7
:102f70009a42cbd340f28c13c2f20003a422022166
:102f8000995441f20003c4f2002301229a750123ef
:102f90001800bd4604b080bd9001002080b500af90
:102fa00041f20003c4f2002301221a7540f28c138f
:102fb000c2f20003a4220121995441f20003c4f299
:102fc00000235a6841f20003c4f200238021c903a0
:102fd0000a435a6000e0c04641f20003c4f20023f5
:102fe000db6904221340002bf5d100e0c04641f21a
:102ff0000003c4f200231b7edbb21a00022313403d
:10300000002bf3d040f28c13c2f20003882200217f
:10301000995040f28c13c2f200038c220021995087
:1030200040f28c13c2f2000300221a6040f28c13ab
:10303000c2f2000384220021995040f28c13c2f2a4
:103040000003a42200219954c046bd4680bd80b52e
:1030500000af40f28c13c2f20003a4229b5cdbb2ef
:103060005a1e9341dbb21800bd4680bd80b582b0c8
:1030700000af786039607b680bb13b680bb9012306
:103080004ae040f28c13c2f20003a5229b5cdbb243
:103090000bb1002340e040f28c13c2f20003a522e2
:1030a000012199541e4b0c220021180001f0c0fb95
:1030b00040f28c13c2f2000394217a685a5040f215
:1030c0008c13c2f20003a0213a685a5041f2000367
:1030d000c4f200235a6841f20003c4f200238021a5
:1030e00009040a435a6000e0c04641f20003c4f2fa
:1030f0000023db6904221340002bf5d140f28c132e
:10310000c2f20003a5220221995441f20003c4f245
:10311000002304229a7501231800bd4602b080bd29
:103120002002002080b500af41f20003c4f200236a
:1031300004221a7540f28c13c2f20003a522012169
:10314000995441f20003c4f200235a6841f200038b
:10315000c4f20023802109040a435a6000e0c046fb
:1031600041f20003c4f20023db6904221340002b68
:10317000f5d1084b0c220021180001f059fb40f258
:103180008c13c2f20003a52200219954c046bd460b
:1031900080bdc0462002002090b583b000af7860ab
:1031a0007b680bb9002321e040f28c13c2f20003cc
:1031b000a5229b5cdbb2032b01d0002316e07a68ca
:1031c00040f28c13c2f2000394215b1813cb13c29c
:1031d000084b0c220021180001f02afb40f28c134e
:1031e000c2f20003a5220021995401231800bd4614
:1031f00003b090bd2002002080b500af40f28c13d8
:10320000c2f20003a5229b5cdbb25a1e9341dbb2e3
:083210001800bd4680bdc04658
:020000040000fa
:1032180080b582b000af7860396043f20043c4f2f1
:1032280000239b68802213405bb943f20043c4f239
:1032380000237a685a6743f20043c4f200233a68cd
:103248001a67c046bd4602b080bd80b586b000afe3
:10325800f860b9607a6000237b6116e043f20043ae
:10326800c4f200239b68802213405bb943f20043f9
:10327800c4f20023fa685a6743f20043c4f20023f9
:10328800ba681a677b6901337b617a697b689a42fd
:10329800e4dbc046bd4606b080bd80b500af01f096
:1032a80010f903003bb901f01df903001bb901f047
:1032b8002af903000bb1012300e000231800bd46e2
:1032c80080bd90b585b000af040008001100fb1d5b
:1032d800221c1a70bb1d021c1a707b1d0a1c1a7056
:1032e800fb1d1b7801225340dbb25bb3bb1d1b786f
:1032f80043b37b1d1b7801225340dbb213b300f0ac
:1033080034fe40f2e423c2f200031c221a6040f2a9
:10331800e823c2f200031d221a6040f2e423c2f23d
:1033280000031a6840f2e823c2f200031b68190080
:103338001000fff76dff40f2f823c2f200030022ed
:103348001a6075e2fb1d1b7843b3bb1d1b782bb3ba
:103358007b1d1b7813b300f008fe40f2e423c2f291
:1033680000031c221a6040f2e823c2f200031f2265
:103378001a6040f2e423c2f200031a6840f2e8231c
:10338800c2f200031b6819001000fff741ff40f26a
:10339800f823c2f2000300221a6049e2fb1d1b78e1
:1033a80063b3bb1d1b7801225340dbb233b37b1dd3
:1033b8001b781bb300f0abfd40f2e423c2f200031c
:1033c8000f221a6040f2e823c2f200030f221a60ab
:1033d80040f2e423c2f200031a6840f2e823c2f282
:1033e80000031b6819001000fff712ff40f2f823d2
:1033f800c2f20003022252421a6019e2fb1d1b7836
:1034080001225340dbb2002b00d128e1bb1d1b7801
:1034180001225340dbb2002b00d120e17b1d1b7839
:1034280001225340dbb2002b00d118e100f0ccfda3
:103438000300fb6040f2ec23c2f200031b78dbb907
:10344800fff72bff03001a0001235340dbb2002bc8
:1034580000d1ece140f2ec23c2f2000301221a7021
:1034680040f2f023c2f20003fa681a6040f2f42333
:10347800c2f2000300221a6040f2ec23c2f20003f9
:103488001b78022b47d0032b00d1a4e0012b00d0de
:10349800d8e000f053fd40f2e423c2f2000300221a
:1034a8001a6040f2e823c2f2000318221a6040f2c0
:1034b800e423c2f200031a6840f2e823c2f20003d0
:1034c8001b6819001000fff7a3fefff7e6fe0300d4
:1034d80033b140f2ec23c2f2000300221a70a7e1d4
:1034e80040f2f023c2f200031a68fb6811001800ca
:1034f80000f01cfe03000e2b00d8aae040f2ec23db
:10350800c2f2000302221a7040f2f023c2f2000352
:10351800fa681a609de000f0fafc40f2e423c2f277
:10352800000300221a6040f2e823c2f200031822c6
:103538001a6040f2e823c2f200031a6840f2e4235a
:10354800c2f200031b6819001000fff761fefff7c5
:10355800a4fe030033b140f2ec23c2f200030022c0
:103568001a7065e140f2f023c2f200031a68fb68a2
:103578001100180000f0dafd03000e2b6bd940f2a1
:10358800f423c2f200031b685a1c40f2f423c2f26f
:1035980000031a6040f2f423c2f200031b68022bf6
:1035a8000cdc40f2ec23c2f2000301221a7040f254
:1035b800f023c2f20003fa681a604ce040f2ec23f0
:1035c800c2f2000303221a7040f2f023c2f2000391
:1035d800fa681a603fe000f0dffc40f2e423c2f230
:1035e800000318221a6040f2e823c2f200031822ee
:1035f8001a6040f2e423c2f200031a6840f2e8239a
:10360800c2f200031b6819001000fff701fefff764
:1036180044fe030033b140f2ec23c2f2000300225f
:103628001a7005e140f2f023c2f200031a68fb6841
:103638001100180000f07afd0300f92b0dd900f0f5
:103648004ffc0ae040f2ec23c2f2000300221a7099
:1036580004e0c046ece0c046eae0c046e8e040f2dc
:10366800ec23c2f2000300221a70fb1d1b787bb307
:10367800bb1d1b7801225340dbb24bb37b1d1b786b
:1036880001225340dbb21bb300f041fc40f2e423bb
:10369800c2f2000319221a6040f2e823c2f20003c2
:1036a80019221a6040f2e423c2f200031a6840f2b9
:1036b800e823c2f200031b6819001000fff7a8fdf9
:1036c80040f2f823c2f20003022252421a60afe02d
:1036d800fb1d1b7863b3bb1d1b784bb37b1d1b788d
:1036e80001225340dbb21bb300f011fc40f2e4238b
:1036f800c2f200030f221a6040f2e823c2f200036c
:103708000f221a6040f2e423c2f200031a6840f262
:10371800e823c2f200031b6819001000fff778fdc8
:1037280040f2f823c2f20003012252421a607fe0fd
:10373800fb1d1b7801225340dbb25bb3bb1d1b781a
:1037480001225340dbb22bb37b1d1b7813b300f06f
:10375800f5fb40f2e423c2f2000319221a6040f29a
:10376800e823c2f2000319221a6040f2e423c2f2ed
:1037780000031a6840f2e823c2f200031b6819002c
:103788001000fff745fd40f2f823c2f200030222c1
:103798001a604de0fb1d1b7801225340dbb243b396
:1037a800bb1d1b782bb37b1d1b7813b300f0c6fb26
:1037b80040f2e423c2f200030f221a6040f2e82329
:1037c800c2f200030f221a6040f2e423c2f200039f
:1037d8001a6840f2e823c2f200031b6819001000bf
:1037e800fff716fd40f2f823c2f2000301221a6027
:1037f8001ee000f0bafb40f2e423c2f200031c22f0
:103808001a6040f2e823c2f200031d221a6040f257
:10381800e423c2f200031a6840f2e823c2f200036c
:103828001b6819001000fff7f3fcc04600e0c04613
:06383800bd4605b090bd85
:020000040000fa
:02383e00fee7a3
:020000040000fa
:103840001b5b324a1b5b313b31482b2d2d2d2d2d1f
:103850002d2d2d2d2d2d2d2d2d2d2d2d2d2d2d2d98
:103860002d2d2d2d2d2d2d2d2d2d2d2d2d2d2d2d88
:103870002d2d2d2d2d2d2d2d2d2d2d2d2d2d2d2d78
:103880002d2d2d2d2d2d2d2d2d2d2d2b0d0a7c206b
:10389000454545203139323a20456c65637472697b
:1038a00063616c20616e6420456c656374726f6e39
:1038b00069637320456e67696e656572696e67201e
:1038c0004c61626f7261746f727920564920207c5e
:1038d0000d0a7c2020202020202020202041636110
:1038e00064656d6963205965617220323032352d0f
:1038f000323032362c2053656d6573746572203218
:1039000020202020202020202020202020202020b7
:103910002020207c0d0a7c20202020202020202018
:103920002020202020202020202020202020202097
:103930002020202020202020202020202020202087
:103940002020202020202020202020202020202077
:10395000202020202020207c0d0a7c20526f6275c0
:1039600074742020202020202020202020202020af
:103970002020202020202020202020202020202047
:103980002020202020202020202020202020202037
:1039900020202020202020202020207c0d0a7c2098
:1039a0002020202020202020202020202020202017
:1039b0002020202020202020202020202020202007
:1039c00020202020202020202020202020202020f7
:1039d0002020202020202020202020202020207c8b
:1039e0000d0a7c20417574686f723a204d656f77bf
:1039f0007321202020202020202020202020202073
:103a000020202020202020202020202020202020b6
:103a100020202020202020202020202020202020a6
:103a20002020207c0d0a7c20202020202020202007
:103a30002020202020202020202020202020202086
:103a40002020202020202020202020202020202076
:103a50002020202020202020202020202020202066
:103a6000202020202020207c0d0a7c2044617465c9
:103a70003a202020203230323620202020202020e2
:103a80002020202020202020202020202020202036
:103a90002020202020202020202020202020202026
:103aa00020202020202020202020207c0d0a2b2dcb
:103ab0002d2d2d2d2d2d2d2d2d2d2d2d2d2d2d2d36
:103ac0002d2d2d2d2d2d2d2d2d2d2d2d2d2d2d2d26
:103ad0002d2d2d2d2d2d2d2d2d2d2d2d2d2d2d2d16
:103ae0002d2d2d2d2d2d2d2d2d2d2d2d2d2d2d2b08
:103af0000d0a7c20494e535452554354494f4e535e
:103b00003a2031202d2052656d6f74652c203220b3
:103b10002d204c696e652c2033202d2057616c6c54
:103b20002020202020202020202020202020202095
:103b30002020207c0d0a2b2d2d2d2d2d2d2d2d2dd2
:103b40002d2d2d2d2d2d2d2d2d2d2d2d2d2d2d2da5
:103b50002d2d2d2d2d2d2d2d2d2d2d2d2d2d2d2d95
:103b60002d2d2d2d2d2d2d2d2d2d2d2d2d2d2d2d85
:103b70002d2d2d2d2d2d2d2b0d0a0d0a446972652d
:103b80006374696f6e3a200d0a53706565643a205c
:103b90000d0a4d6f64653a200d0a49520d0a4c45d5
:103ba00046543a200d0a43454e5445523a200d0ad8
:103bb00052494748543a200d0a00c0461b5b333730
:103bc0003b34306d0000c0461b5b33363b34306df8
:103bd0000000c0461b5b33353b34306d0000c046ef
:103be0001b5b33333b34306d0000c0461b5b393701
:103bf0003b34316d0000c0461b5b39323b34306dc5
:103c00000000c0461b5b39373b34346d0000c046b2
:103c10001b5b33303b34376d0000c046bc3b0000bb
:103c200008000000c83b000008000000d43b000072
:103c300008000000e03b000008000000ec3b000032
:103c400008000000f83b000008000000043c0000f1
:103c500008000000103c0000080000001b5b31342d
:103c60003b3230481b5b304b0000c04653544f5032
:103c70000000c046464f5257415244004241434b18
:103c8000574152440000c046524947485400c0467c
:103c90004c4546540000c0461b5b31353b32304832
:103ca0001b5b304b0000c046706c616365686f6cd5
:103cb000646572001b5b31363b3230481b5b304b16
:103cc0000000c04652454d4f544500004c494e45fa
:103cd0002d464f4c4c4f57494e47000057414c4cd6
:103ce0002d464f4c4c4f57494e47000053414645d7
:103cf0000000c0461b5b31383b3230481b5b304b09
:103d00000000c04644455445435445440000c04665
:103d10004e4f4e450000c0461b5b31393b323048a8
:103d20001b5b304b0000c0461b5b32303b323048df
:103d30001b5b304b0000c0466c2000009c20000044
:103d4000cc200000fc200000342100005b31357ed7
:103d50000000c04632290000382900004629000032
:083d6000542900006229000053
:020000040000fa
:103d680080b500af43f20023c4f200031a6943f29e
:103d78000023c4f2000308218a431a6143f2002396
:103d8800c4f200031a6943f20023c4f200030421b9
:103d98008a431a61c046bd4680bd80b500af43f274
:103da8000023c4f2000390229a5843f20023c4f27d
:103db800000309490a4090215a5043f20023c4f2f3
:103dc80000031a6943f20023c4f2000303490a40be
:103dd8001a61c046bd4680bdffff7ffffffff7ffaa
:103de80080b500af43f20023c4f200031a6943f21e
:103df8000023c4f2000308218a431a6143f2002316
:103e0800c4f200031a6943f20023c4f20003042138
:103e18000a431a61c046bd4680bd80b500af43f273
:103e28000023c4f2000390229a5843f20023c4f2fc
:103e38000003802109040a4390215a5043f20023c9
:103e4800c4f200031a6943f20023c4f200030349d1
:103e58000a401a61c046bd4680bdc046fffff7ff55
:103e680080b500af43f20023c4f200031a6943f29d
:103e78000023c4f2000308210a431a6143f2002315
:103e8800c4f200031a6943f20023c4f200030421b8
:103e98008a431a61c046bd4680bd80b500af43f273
:103ea8000023c4f2000390229a5843f20023c4f27c
:103eb80000030a490a4090215a5043f20023c4f2f1
:103ec80000031a6943f20023c4f2000380210903a6
:103ed8000a431a61c046bd4680bdc046ffff7fff4a
:103ee80080b500af43f20023c4f2000390229a5831
:103ef80043f20023c4f2000308210a4390215a50d8
:103f0800fff74bfffff72cffc046bd4680bd80b5cd
:103f180000af43f20023c4f2000390229a5843f200
:103f28000023c4f2000308210a4390215a50fff7e6
:103f380074fffff795ffc046bd4680bd80b500af52
:103f480043f20023c4f2000390229a5843f200235c
:103f5800c4f2000308210a4390215a50fff79dff3d
:103f6800fff73effc046bd4680bd80b500af43f2b7
:103f78000023c4f2000390229a5843f20023c4f2ab
:103f8800000308210a4390215a50fff746fffff724
:103f980027ffc046bd4680bd80b500af43f2002371
:103fa800c4f2000390229a5843f20023c4f200039b
:103fb80008210a4390215a50fff76ffffff750ff7f
:083fc800c046bd4680bdc046a5
:020000040000fa
:103fd00080b582b000af40f2fc23c2f200031b6840
:103fe0007b60c04640f2fc23c2f200031b687a6883
:103ff0009a42f0d17b681800bd4602b080bd80b502
:1040000000affef7f6fe40f20833c2f200031b6871
:104010005a1c40f20833c2f200031a6016e040f264
:104020000833c2f200031b68403b1a0040f2083319
:10403000c2f200031a6040f2fc23c2f200031b68c4
:104040005a1c40f2fc23c2f200031a6040f208330b
:10405000c2f200031b683f2be1dc40f20433c2f2e2
:1040600000031b685a1c40f20433c2f200031a60ba
:10407000c046bd4680bd80b500af42f60023c4f205
:1040800000035b69012213405bb142f60023c4f2d6
:1040900000035a6942f60023c4f2000301210a43d7
:1040a0005a61c046bd4680bd80b500af42f60023d0
:1040b000c4f200035b69022213405bb142f60023a5
:1040c000c4f200035a6942f60023c4f2000302213d
:1040d0000a435a61c046bd4680bd80b500af42f676
:1040e0000023c4f200035b6904221340fbb140f2d9
:1040f0000003c2f200031b68022b06d140f200034a
:10410000c2f2000303221a6005e040f20003c2f28b
:10411000000302221a6042f60023c4f200035a6927
:1041200042f60023c4f2000304210a435a61c04648
:10413000bd4680bd80b584b000af786039603a6814
:104140007b689a4204d87a683b68d31afb6007e020
:104150003a687b68d31afb60c046fb680233fb6099
:10416000fb681800bd4604b080bd80b582b000afca
:1041700040f20433c2f200031b687b60c04640f289
:104180000433c2f200031b681a007b689342efd12c
:104190007b681800bd4602b080bd80b582b000af1c
:1041a000786040f20033c2f200031a687b681a4359
:1041b00040f20033c2f200031a60c046bd4602b0ae
:1041c00080bd80b582b000af40f20033c2f2000380
:1041d0001b687b60c0467b68da4340f20033c2f262
:1041e00000031b681a4040f20033c2f200031a6059
:0a41f0007b681800bd4602b080bdd8
:020000040000fa
:1041fa000122d20703004b403cd430b4431a01d207
:10420a00c01ac9184b004400240eff2c28d024b32e
:10421a001b0e20d0e31a182b1ddc09021143c40d12
:10422a00000210435d4219350a00aa40d209d9405a
:10423a00451801d36d080234013ce405280a01211e
:10424a00c9072d062a438a4160414100090eff2908
:10425a0001d3c00dc00530bc7047c00fc007fae7d4
:10426a0042001823da41ff2af5d07f2000010c30e2
:10427a000005f0e7a4465140431a02d25340c01a3f
:10428a00c9184b00090211431b0e4400240eff2ccf
:10429a0040d083b15b421b19012b10d322d1c30d2d
:1042aa004002401a10d3db050100400ac9059141ba
:1042ba005841644670472442fbd10020f9e7c30df8
:1042ca0040024900401af4d0002101314000fcd3d9
:1042da008c4204d95b1adb05400ac018e9e7180ac0
:1042ea00c007e6e7192be4d801330c00d940dc41ba
:1042fa004c40012c4941c30d00021043441a01d419
:10430a00a4006408013bdb05200a240694415841b5
:10431a0064467047ff2b01d04102cad07f200001ba
:06432a000c300005c5e7a0
:020000040000fa
:1043300030b405004d400124e407254042004b0005
:10434000120e32d01b0e3cd0ff2a33d0ff2b3fd0b1
:10435000d21800022043000a09022143090ac4b20c
:104360004c43000ac3b24b43000a4843210a5b187e
:10437000190a091801d44900013a080a7f3a2adbd0
:10438000fe2a0fd2d2051c43240601d0012421436a
:10439000c9b280295041802901d1400840002843fa
:1043a00030bc7047ff20c005f9e71b0eff2b0ad079
:1043b0002800f5e7400206d1ff2bf3d1490202d1d4
:1043c000f0e7ff2af4d17f2000010c300005e7e779
:1043d0004902f8d1e6e743020132e9d15b12023328
:0643e000e6d9d805e4e770
:020000040000fa
:0243e60070471e
:020000040000fa
:1043e800464f5257415244005455524e2052494765
:1043f800485400005455524e204c45465400c0467f
:104408005455524e2041524f554e4400554e4b4e36
:104418004f574e0028535445455220484152442096
:104428004c4546542900c046285354454552204c13
:10443800454654290000c046285354454552204853
:1044480041524420524947485429000028535445b2
:1044580045522052494748542900c0462843454ef2
:10446800544552290000c0469a0e00005010000022
:10447800c410000038110000c8120000ac11000080
:08448800081200005e120000a2
:020000040000fa
:1044900080b500af43f20023c4f200031b6a40f66c
:1044a000000213400bb9002300e001231800bd46b1
:1044b00080bd80b500af01231800bd4680bd80b52a
:1044c00000af01231800bd4680bd80b500af43f2a8
:1044d0000023c4f200031b6a40f6000213400bb92c
:1044e000002300e001231800bd4680bd80b500af69
:1044f00043f20023c4f200031b6a40f2004213405f
:104500000bb9002300e001231800bd4680bd80b533
:1045100000af43f20023c4f200031b6a40f2002202
:1045200013400bb9002300e001231800bd4680bdf5
:020000040000fa
:10453000140300200400000001000000000000003f
:10454000c80200201c000000000000000000002045
:104550008c01000000000000fc02002010000000a0
:10456000000000008c010020a800000000000000f6
:10457000840200204200000000000000e40200204d
:1045800018000000000000000c03002004000000e0
:104590000000000034020020500000000000000075
:1045a0001003002004000000000000001803002099
:1045b00004000000010000000000000000000000f6
:1045c0000000000066666666666666666666666623
:020000040000fa
:1045d00040f20003c0f2000323b140f20003c0f236
:1045e0000003984740f20003c0f2000323b140f2f9
:1045f0000003c0f20003984700f098f840f200036f
:10460000c0f200037f2293434ef60052cef2000226
:10461000936044f25163c0f20003984740f20003f4
:10462000c0f2000323b140f20003c0f20003984738
:1046300040f20003c0f2000323b140f20003c0f2d5
:0e4640000003984700210020fef7def8fee799
:020000040000fa
:02464e007047b3
:020000040000fa
:1046500000230e4a10b513600d4a0e4c13600e4a2b
:1046600013600e4a13600e4a13600e4a53621361c0
:1046700001339360fff7ebfffff7e9ff0a4b9c4222
:1046800000d310bd08cc9847f8e7c04610030020bf
:1046900040020020680100003c020020340200209b
:0c46a00038020020440200206c010000e1
:020000040000fa
:1046ac0010b5054c227832b9044b13b1044800e024
:1046bc0000bf0123237010bdc802002000000000c1
:1046cc0000000000034b10b51bb10349034800e088
:1046dc0000bf10bd00000000cc0200200000000054
:020000040000fa
:1046ec004200110e7f390fd40123db0749421f31e1
:1046fc000cdd400003d2c0011843c8407047c00114
:10470c001843c8404042704700207047ff210906fb
:0e471c008a4200d99843184000d4d843704711
:020000040000fa
:10472c0010b50a48016821b9436813b9fff755fe63
:10473c0010bd04008368064a9bb20c349b009b5846
:10474c0042682000984780002018ebe730450000b5
:04475c001c480000f5
:020000040000fa
:10476000012212064300da420fd84b00da420cd87d
:1047700002000a43520008d003d2814280414042e5
:0e4780007047884280414042704700207047d9
:020000040000fa
:10478e00012212064300da420fd84b00da420cd84f
:10479e0002000a43520008d003d2884280414042b0
:0e47ae007047814280414042704700207047b2
:020000040000fa
:1047bc00c20f12029d3201000cd001d5494202d425
:1047cc00013a4900fcd5d205080a0906494100d333
:0647dc0001295041704765
:020000040000fa
:1047e200002310b5934206d103201840421e904187
:0e47f2009b08c01810bdc45ccc540133f2e724
:020000040000fa
:1048000030b50024a24207d0035d4d1e01342d5d5a
:0c481000ab42f7d0581b00e0002030bd88
:020000040000fa
:10481c0045480000e3470000674800006748000077
:04482c0067480000d9
:020000040000fa
:1048300032b10300c9b28218197001339342fbd11f
:044840007047c046b7
:020000040000fa
:104844008a18914201d10020704700230b70013176
:02485400f7e784
:020000040000fa
:104856000122d207514044f2ff13c0f20003184769
:020000040000fa
:044866000020704777
:00000001FF
