:020000040000fa
:10000000f87f002071420000af340000af340000e0
:1000100000000000000000000000000000000000e0
:10002000000000000000000000000000af340000ed
:100030000000000000000000af3400006f3c000032
:10004000af340000af340000af340000e73c0000e4
:10005000193d00004b3d0000af340000af340000fc
:10006000af340000af340000af340000af34000004
:10007000af340000af340000af340000af340000f4
:10008000af340000af340000af340000af340000e4
:10009000af340000af340000af340000af340000d4
:1000a000af340000af340000af340000af340000c4
:1000b000af340000af340000af340000af340000b4
:1000c000af340000af340000af340000af340000a4
:1000d000af340000af340000af340000af34000094
:1000e000af340000af340000af340000b928000086
:1000f000af340000bf290000af340000af3400006f
:10010000af340000af340000af340000af34000063
:10011000af340000af340000af340000af34000053
:10012000af340000af340000af340000af34000043
:10013000af340000af340000af340000af34000033
:10014000af340000af340000af340000af34000023
:0c015000af340000af340000af340000fa
:020000040000fa
:10015c00f8b5c046f8bc08bc9e4670477143000019
:10016c00f8b5c046f8bc08bc9e4670474d4300002d
:020000040000fa
:10017c0080b584b000af78607b68002b01da002377
:10018c007b607b68642b01dd64237b607b68002bc8
:10019c0004dd7b68092b01dc0a237b607a68130081
:1001ac005b009b185a019b18642293fbf2f3fb60d3
:1001bc0043f20043c4f200239b68802213402bb906
:1001cc0043f20043c4f20023fa685a67fb68180034
:1001dc00bd4604b080bd80b584b000af78607b684c
:1001ec00002b01da00237b607b68642b01dd642328
:1001fc007b607b68002b04dd7b68092b01dc0a2308
:10020c007b607a6813005b009b185a019b18642270
:10021c0093fbf2f3fb6043f20043c4f200239b68b0
:10022c00802213402bb943f20043c4f20023fa6836
:10023c001a67fb681800bd4604b080bd80b584b059
:10024c0000af78600023fb6002e0fb680133fb60c9
:10025c007a6813009b009a18fb689a42f5d8c0463e
:10026c00bd4604b080bd80b584b000af786000237b
:10027c00fb600de00023bb6002e0bb680133bb6098
:10028c00bb6840f69f729342f7ddfb680133fb605d
:10029c00fa687b689a42eddbc046bd4604b080bd6f
:1002ac0080b582b000af00237b6043f20023c4f220
:1002bc0000039422042199500220fff7bfff43f260
:1002cc000023c4f200039822042199500a20fff75e
:1002dc00b5ff43f20023c4f2000394220421995089
:1002ec0041f288333b6009e03b68013b3b603b6873
:1002fc0023b948f29f63c0f2010327e043f20023c5
:10030c00c4f20003a0229a588023db031340002b75
:10031c00ead041f288333b600ce07b6801337b60b0
:10032c003b68013b3b603b6823b948f29f63c0f2da
:10033c0001030be043f20023c4f20003a0229a58fd
:10034c008023db031340002be7d17b681800bd46ec
:10035c0002b080bd80b582b000af00237b6043f259
:10036c000023c4f20003802292025a610220fff79c
:10037c0065ff43f20023c4f20003802292029a61cb
:10038c000a20fff75bff43f20023c4f20003802234
:10039c0092025a6141f288333b6009e03b68013bb1
:1003ac003b603b6823b948f29f63c0f2010325e030
:1003bc0043f20023c4f200031a6a8023db021340c9
:1003cc00002bebd041f288333b600ce07b680133af
:1003dc007b603b68013b3b603b6823b948f29f6301
:1003ec00c0f201030ae043f20023c4f200031a6acc
:1003fc008023db021340002be8d17b681800bd463c
:10040c0002b080bd80b582b000af00237b6043f2a8
:10041c000023c4f2000301225a610220fff70efff1
:10042c0043f20023c4f2000301229a610a20fff771
:10043c0005ff43f20023c4f2000301225a6141f28a
:10044c0088333b6009e03b68013b3b603b6823b968
:10045c0048f29f63c0f2010323e043f20023c4f28d
:10046c0000031b6a02221340002becd041f28833ac
:10047c003b600ce07b6801337b603b68013b3b607d
:10048c003b6823b948f29f63c0f2010309e043f2d1
:10049c000023c4f200031b6a02221340002be9d193
:1004ac007b681800bd4602b080bd80b500af43f23a
:1004bc000023c4f20003802292029a6043f20023cc
:1004cc00c4f200038022d2025a6043f20023c4f229
:1004dc00000352220221995443f20023c4f2000378
:1004ec0001229a6043f20023c4f2000302225a60f4
:1004fc0043f20023c4f2000341220221995443f237
:10050c000023c4f2000388220421995043f20023f3
:10051c00c4f2000384218022d2035a5043f20023f8
:10052c00c4f20003d62202219954c046bd4680bdb8
:10053c0080b582b000af78607b68552b01d8012361
:10054c0056e07b686e2b01d8022351e07b68822b2e
:10055c0001d803234ce07b68be2b01d8042347e071
:10056c007b68dc2b01d8052342e07b6840f2041247
:10057c00934201d806233be07b6840f22c12934255
:10058c0001d8072334e07b6840f25e12934201d815
:10059c0008232de07b6840f2ae12934201d8092368
:1005ac0026e07b6840f2d612934201d80a231fe062
:1005bc007b6840f20822934201d80b2318e07b6839
:1005cc0040f23022934201d80c2311e07b6840f2b8
:1005dc005822934201d80d230ae07b6840f28a220c
:1005ec00934201d80e2303e07b682c22b3fbf2f379
:1005fc001800bd4602b080bd80b582b000af7860f7
:10060c007b68642b01d801233ae07b68782b01d8f6
:10061c00022335e07b68872b01d8032330e07b680d
:10062c00be2b01d804232be07b68e62b01d80523d5
:10063c0026e07b6840f21812934201d806231fe093
:10064c007b6840f24012934201d8072318e07b6884
:10065c0040f27c12934201d8082311e07b6840f2ef
:10066c009012934201d809230ae07b6840f2c2122f
:10067c00934201d80a2303e07b682c22b3fbf2f3ec
:10068c001800bd4602b080bd80b582b000af786066
:10069c007b68642b01d801233ce07b68782b01d864
:1006ac00022337e07b68962b01d8032332e07b686a
:1006bc00e62b01d804232de07b6840f218129342fc
:1006cc0001d8052326e07b6840f24012934201d802
:1006dc0006231fe07b6840f27c12934201d807236b
:1006ec0018e07b6840f29a12934201d8082311e07b
:1006fc007b6840f2d612934201d809230ae07b684a
:10070c0040f20822934201d80a2303e07b682c2292
:10071c00b3fbf2f31800bd4602b080bd90b587b0b4
:10072c0000af786008e00023fb6002e0fb68013357
:10073c00fb60fb68632bf9dd02f02bfb0300002b45
:10074c00f1d110243b197a681a607b68180003f009
:10075c00affe02003b195a603b190121180002f050
:10076c0025fa08e00023bb6002e0bb680133bb60e4
:10077c00bb68632bf9dd02f00cfb0300002bf1d1fd
:10078c00c046bd4607b090bd80b582b000af786062
:10079c007b68012b0dd07b6833b17b68022b0dd0ad
:1007ac007b68032b0fd013e043f67873c0f2000381
:1007bc0012e043f68073c0f200030de043f68c7335
:1007cc00c0f2000308e043f69873c0f2000303e0a4
:1007dc0043f6a473c0f200031800bd4602b080bdfe
:1007ec0080b584b000aff860b9607a60002318005f
:1007fc00bd4604b080bd80b586b000aff860b9606e
:10080c007a603b60fb68642b01d9002314e0fb6821
:10081c00043b3b6100237b613b69012b02dd01231f
:10082c007b6108e03b69013303da01235b427b61a6
:10083c0001e000237b617b691800bd4606b080bdda
:10084c0080b582b000af78607b68073304da43f67a
:10085c00ac73c0f200031be07b68002b04da43f698
:10086c00c073c0f2000313e07b68072b04dd43f672
:10087c00d073c0f200030be07b68002b04dd43f661
:10088c00e473c0f2000303e043f6f473c0f2000318
:10089c001800bd4602b080bd80b584b000af786052
:1008ac0003f0c8f90300fb607b68022b36d140f2e1
:1008bc002c23c2f200031a68fb681100180003f025
:1008cc0057fa0300132b47d940f22c23c2f2000332
:1008dc00fa681a6040f23023c2f200031b785a42c5
:1008ec005341dbb21a0040f23023c2f200031a70fb
:1008fc0040f23023c2f200031b783bb143f20023d9
:10090c00c4f2000348f200029a6125e043f200238e
:10091c00c4f2000348f200025a611de07b68012b0f
:10092c000dd143f20023c4f2000348f200025a61d5
:10093c0040f23023c2f2000300221a700ce043f2a2
:10094c000023c4f2000348f200025a6140f2302343
:10095c00c2f2000300221a70c046bd4604b080bd2e
:10096c0080b592b000af40f23123c2f200031b7885
:10097c00c3b940f23123c2f2000301221a70fff70f
:10098c0094fd43f20023c4f2000348f200029a6083
:10099c000020fff781ff44f20003c0f200031800af
:1009ac00fff7bcfe03f046f903007b63fff778fc0e
:1009bc0003003b63fff7cefc0300fb62fff722fd55
:1009cc000300bb623b6b1800fff7b2fd03007b64b6
:1009dc00fb6a1800fff710fe03007b62bb6a18006d
:1009ec00fff752fe03003b623b6b41f288329342ad
:1009fc0002d87b6c022b01d801237b647a6c40f209
:100a0c003423c2f200031b68d31ada179b18534025
:100a1c00fb617a6a40f23823c2f200031b68d31ad6
:100a2c00da179b185340bb613a6a40f23c23c2f27e
:100a3c0000031b68d31ada179b1853407b61fb69c0
:100a4c00012b00dd83e0bb69012b00dd7fe07b69be
:100a5c00012b00dd7be040f24023c2f200031b6857
:100a6c0033b940f24023c2f200037a6b1a609ce067
:100a7c0040f24023c2f200031a687b6b110018008d
:100a8c0003f076f90300272b00d88ee040f24423c4
:100a9c00c2f200031b78002b00d086e040f2452305
:100aac00c2f200031b78002b00d07ee040f24823fa
:100abc00c2f200031b689133ff331a0040f2482343
:100acc00c2f200031a6040f24823c2f200031b6812
:100adc0042f20f7293421fd940f24523c2f2000337
:100aec0001221a7040f24423c2f2000301221a7050
:100afc000220fff7d1fe03f029f844f20803c0f2fc
:100b0c0000031800fff70afe44f23403c0f200039e
:100b1c001800fff703fefee740f24423c2f2000385
:100b2c0001221a7003f06ef81920fff754fb0f2006
:100b3c00fff71efb40f29010fff795fb03f006f851
:100b4c0040f24023c2f2000300221a602de040f272
:100b5c003423c2f200037a6c1a6040f23823c2f2da
:100b6c0000037a6a1a6040f23c23c2f200033a6a2c
:100b7c001a6040f24023c2f2000300221a6040f2d5
:100b8c004423c2f2000300221a7040f24523c2f241
:100b9c0000031b782bb940f24823c2f20003002259
:100bac001a600020fff778fe00e0c0467b6c042b37
:100bbc002ed840f24c23c2f200031b78022b27d014
:100bcc0040f24c23c2f200031b78012b20d040f2e0
:100bdc004c23c2f200031b78032b19d002f0cdff7b
:100bec000a20fff7c5fa0020fff7f5fa5020fff7af
:100bfc003afb40f24023c2f2000300221a6040f29a
:100c0c004423c2f2000300221a700020fff744feb6
:100c1c007b6a0c2b46d87b6c142b43d83b6a142b69
:100c2c0040d840f24c23c2f200031b78032b00d1b6
:100c3c007de040f24c23c2f200031b78022b00d162
:100c4c0075e040f24c23c2f200031b78012b6ed0ee
:100c5c0040f24c23c2f2000303221a7040f24d23df
:100c6c00c2f2000301221a7040f25023c2f20003b8
:100c7c007a6b1a6002f081ff1920fff7acfa192089
:100c8c00fff776fa40f24023c2f2000300221a600a
:100c9c0040f24423c2f2000300221a700020fff736
:100cac00fbfd44e07b6a0c2b42d87b6c142b3fd8a9
:100cbc0040f24c23c2f200031b78022b38d040f2d6
:100ccc004c23c2f200031b78012b31d040f24c2391
:100cdc00c2f200031b78032b2ad040f24c23c2f241
:100cec00000302221a7040f24d23c2f200030122cb
:100cfc001a7040f25023c2f200037a6b1a6002f0b1
:100d0c003cff1920fff767fa1920fff731fa40f280
:100d1c004023c2f2000300221a6040f24423c2f2c4
:100d2c00000300221a700020fff7b6fd00e0c04659
:100d3c0040f25423c2f200031b687bb140f25423ef
:100d4c00c2f200031a687b6b1100180003f010f854
:100d5c0040f25423c2f2000300221a6040f24c23ea
:100d6c00c2f200031b78042b00d9d6e19a00e94ba0
:100d7c00d3181b689f467b6c3b613b690422d31ada
:100d8c00180003f065fb031cfb6049f69a11c3f6cf
:100d9c009971f86803f072f9031cbb6040f2582398
:100dac00c2f200031b68191cf86803f0aafb031cb1
:100dbc000021181c03f062f9031c7b6040f25823dd
:100dcc00c2f20003fa681a607968b86803f033f865
:100ddc00031c3b64fc218905386c03f00bfb0300fe
:100dec0013b1fc239b053b64bf210906386c03f04f
:100dfc0018fb030013b1bf231b063b64fc218905c0
:100e0c00386c03f018f8031c181c03f0b9fa030033
:100e1c001933fb63fc218905386c03f00cf8031cb7
:100e2c00181c03f0adfa020018239b1abb63fb6b72
:100e3c00282b01dd2823fb63fb6b0e2b01dc0f231e
:100e4c00fb63bb6b282b01dd2823bb63bb6b0e2b19
:100e5c0001dc0f23bb6302f0befefb6b1800fff737
:100e6c00baf9bb6b1800fff783f97b6c142b53d9c1
:100e7c0040f25c23c2f200031b780133dab240f279
:100e8c005c23c2f200031a7040f25c23c2f200032e
:100e9c001b78012b00d834e140f25423c2f200033a
:100eac001b68002b00d02ce140f24c23c2f2000353
:100ebc001b78002b00d024e140f24c23c2f200033b
:100ecc0001221a7040f24d23c2f2000301221a7063
:100edc0040f25023c2f200037a6b1a6002f064fef7
:100eec001920fff778f91920fff742f940f25c233b
:100efc00c2f2000300221a7040f24023c2f2000337
:100f0c0000221a6040f24423c2f2000300221a703d
:100f1c000020fff7c1fcf4e040f25c23c2f20003b6
:100f2c0000221a70ede040f24d23c2f200031b7850
:100f3c00002b00d1e7e040f25023c2f200031a6804
:100f4c007b6b1100180002f013ff03001c2b00d860
:100f5c00d9e040f24d23c2f2000300221a7040f295
:100f6c004c23c2f2000304221a707b6b32331a003a
:100f7c0040f25423c2f200031a6040f24023c2f242
:100f8c00000300221a6040f24423c2f20003002244
:100f9c001a700020fff780fcb5e040f24d23c2f23e
:100fac0000031b78002b00d1afe040f25023c2f2bb
:100fbc0000031a687b6b1100180002f0d9fe0300c5
:100fcc00022b00d8a1e040f24d23c2f20003002214
:100fdc001a7040f24c23c2f2000304221a707b6b8d
:100fec0032331a0040f25423c2f200031a6040f26a
:100ffc004023c2f2000300221a6040f24423c2f2e2
:10100c00000300221a700020fff746fc7de040f23e
:10101c004d23c2f200031b78002b00d177e040f285
:10102c005023c2f200031a687b6b1100180002f007
:10103c009ffe0300152b6ad940f24d23c2f2000328
:10104c0000221a7040f24c23c2f2000304221a70e0
:10105c007b6b32331a0040f25423c2f200031a6045
:10106c0040f24023c2f2000300221a6040f24423f3
:10107c00c2f2000300221a700020fff70dfc46e0bc
:10108c0002f0a9fd1920fff7a6f81820fff770f859
:10109c007b6c142b2ed840f25d23c2f200031b781c
:1010ac000133dab240f25d23c2f200031a7040f24f
:1010bc005d23c2f200031b78022b2dd940f24c2386
:1010cc00c2f2000300221a7040f25d23c2f2000348
:1010dc0000221a7040f24023c2f2000300221a6070
:1010ec0040f24423c2f2000300221a700020fff7e2
:1010fc00d3fb11e040f25d23c2f2000300221a7010
:10110c000ae0c04609e0c04607e0c04605e0c0461c
:10111c0003e0c04660400000c04640f24c23c2f2df
:10112c0000031b78042b22d89a00174bd3181b688a
:10113c009f4644f25003c0f200033b601de043f6af
:10114c008073c0f200033b6017e043f68c73c0f26f
:10115c0000033b6011e043f69873c0f200033b6060
:10116c000be044f25803c0f200033b6005e043f689
:10117c00a473c0f200033b60c0460a20fff773f86b
:0c118c00c046bd4612b080bd744000009b
:020000040000fa
:1011980080b582b000af0200fb1d1a70fb1d1b78e2
:1011a8007f2b12d8fb1d1b781a001f231a40110031
:1011b8004ef20013cef20003fa1d127852b2520911
:1011c8000120884001009200d150c046bd4602b0bf
:1011d80080bd90b583b000af02003960fb1d1a7066
:1011e800fb1d1b787f2b2fd84ef20013cef2000385
:1011f800fa1d127852b29208c0329200d358fa1de2
:101208001278110003220a40d200ff2191400a00ff
:10121800d2431a4010003b689b01ff221a40fb1d75
:101228001b78190003230b40db009a4011004ef293
:101238000013cef20003fa1d127852b2920801434d
:10124800c0329200d15037e04ef60053cef2000380
:10125800fa1d127811000f220a40083a9208063245
:1012680092009b1804331b68fa1d127811000322a0
:101278000a40d200ff2191400a00d2431a401000d0
:101288003b689b01ff221a40fb1d1b7819000323b2
:101298000b40db009a404ef60053cef20003f91dd6
:1012a80009780c000f2121400839890802430631ca
:1012b80089005b1804331a60c046bd4603b090bd70
:1012c80080b500af00f02ff840f20023c4f20023ed
:1012d80001221a7000f0e0f800f002fa00f0f7fac4
:1012e8004ef21003cef2000340f6a6625a60c046e2
:1012f800bd4680bd80b500af00f0d7fb00f096fb7f
:1013080000f078fb03212b20fff763ff03212d203a
:10131800fff75fff2b20fff73bff2d20fff738ff7c
:10132800c046bd4680bd80b582b000af00237b605b
:1013380040f20043c4f2000301229a7140f20043d4
:10134800c4f2000302229a7000e0c04640f2004353
:10135800c4f200039b79dbb21a0001231340002b6f
:10136800f3d040f20043c4f2000301229a7145f21f
:101378000003c4f2001306225a6041f60003c4f2c7
:10138800000340f202221a6200e0c04641f6000360
:10139800c4f20003da688023db021340002bf4d088
:1013a80041f20003c4f2000300221a8600e0c0469e
:1013b80041f20003c4f200031a6980235b0413405e
:1013c800002bf4d046f22003c0f280031a68fc23f5
:1013d800db0513407b60c0467b68db0b7b607b686a
:1013e80040f2002213437b6041f20003c4f2000381
:1013f8007a685a6300e0c04641f20003c4f2000371
:101408001a6980235b041340002bf4d041f20003d7
:10141800c4f200031b8e9ab241f20003c4f2000327
:1014280002210a4392b21a8600e0c04641f2000344
:10143800c4f200031a6980235b041340002bf4d024
:1014480041f60043c4f2000340f20512c0f2010263
:101458009a6200e0c04641f60043c4f200035b68ac
:1014680010221340002bf5d141f60043c4f20003cb
:1014780040f20712c0f202021a6200e0c04641f6ca
:101488000043c4f200035b6804221340002bf5d12b
:10149800c046bd4602b080bd80b500af43f2002310
:1014a800c4f2000301225a6043f20023c4f200038d
:1014b80040220221995443f20023c4f2000302227d
:1014c8005a6043f20023c4f20003412202219954d6
:1014d80043f20023c4f2000304225a6143f20023ba
:1014e800c4f2000304229a6043f20023c4f200030a
:1014f80008225a6143f20023c4f2000308229a60ca
:1015080043f20023c4f2000340225a6143f200234d
:10151800c4f2000340229a6043f20023c4f200039d
:1015280080225a6143f20023c4f2000380229a60a9
:1015380043f20023c4f2000340f200225a6043f24f
:101548000023c4f2000349220221995443f20023e4
:10155800c4f2000340f200425a6043f20023c4f28e
:1015680000034a220221995443f20023c4f20003e3
:1015780040f600025a6043f20023c4f200034b22f3
:101588000221995443f20023c4f2000344f20002fa
:101598005a6143f20023c4f2000344f200029a6045
:1015a80043f20023c4f2000348f200025a6143f2f6
:1015b8000023c4f2000348f200029a6043f20023b9
:1015c800c4f20003802212035a6143f20023c4f2da
:1015d8000003802212039a6043f20023c4f200033e
:1015e800802292025a6043f20023c4f2000351227f
:1015f8000221995443f20023c4f200038022d2024c
:101608005a6043f20023c4f2000352220221995483
:1016180043f20023c4f20003802252035a6143f2ca
:101628000023c4f20003802252039a6043f200238d
:10163800c4f20003802292035a6043f20023c4f2ea
:10164800000355220221995443f20023c4f20003f7
:101658008022d2035a6043f20023c4f200035622c8
:101668000221995443f20023c4f200038022120499
:101678005a6043f20023c4f200035722022199540e
:1016880043f20023c4f2000394220821995043f244
:101698000023c4f2000388220821995043f2002352
:1016a800c4f2000384218022d2035a5043f200235b
:1016b800c4f2000356220221995443f20023c4f2d3
:1016c80000039421802212045a5043f20023c4f2ea
:1016d80000038821802212045a50c046bd4680bdae
:1016e80080b582b000affb1d00221a7041f600439e
:1016f800c4f2000390224221995000e0c04641f60e
:101708000043c4f2000390229b5840221340002b50
:10171800f4d042f60023c4f2000301221a7000e05c
:10172800c04642f60023c4f200035b68012213405e
:10173800002bf5d142f60023c4f2000340f6aa229a
:10174800c0f20022da6142f60023c4f200031a6be9
:1017580042f60023c4f2000303210a431a6342f647
:101768000023c4f200030e225a6342f60023c4f297
:10177800000347221a6143f20023c4f20003fa1d52
:101788003b215b5c1370fb1dfa1d12780f210a4088
:101798001a70fb1dfa1d12781a7043f20023c4f266
:1017a8000003fa1d3b2112785a5443f20023c4f275
:1017b800000357229b5cdab243f20023c4f2000311
:1017c80001210a43d1b25722995443f20023c4f2ab
:1017d8000003fa1dbb215b5c1370fb1dfa1d127818
:1017e8000f218a431a70fb1dfa1d12781a7043f2f2
:1017f8000023c4f20003fa1dbb2112785a5443f2a5
:101808000023c4f20003d6229b5cdab243f2002321
:10181800c4f2000301210a43d1b2d622995443f2fb
:101828000023c4f20003fa1d30215b5c1370fb1d1a
:10183800fa1d12780f218a431a70fb1dfa1d1278bf
:101848001a7043f20023c4f20003fa1d3021127803
:101858005a5443f20023c4f2000340229b5cdab2dc
:1018680043f20023c4f2000301210a43d1b240220b
:10187800995443f20023c4f20003fa1d30215b5c43
:101888001370fb1dfa1d12780f210a401a70fb1df8
:10189800fa1d12781a7043f20023c4f20003fa1ded
:1018a800302112785a5443f20023c4f20003412233
:1018b8009b5cdab243f20023c4f2000301210a431d
:1018c800d1b241229954c046bd4602b080bd80b510
:1018d80082b000af41f60043c4f20003ec2242217b
:1018e800995000e0c04641f60043c4f20003ec22e0
:1018f8009b5840221340002bf4d043f20043c4f21b
:10190800002301221a6000e0c04643f20043c4f2fb
:1019180000239b6801221340002bf5d143f20043ba
:10192800c4f200231a6843f20043c4f2002340f2d1
:1019380000410a431a6043f20043c4f20023022222
:10194800da6343f20043c4f2002363221a6443f2c9
:101958000043c4f2002300225a6443f20043c4f255
:10196800002300229a6400e0c04643f20043c4f218
:1019780000239b68a0221340002bf5d143f20023db
:10198800c4f2000333229b5cdbb27b607b68ff22de
:1019980093437b607b68992213437b6043f2002367
:1019a800c4f200037a68d1b23322995443f2002377
:1019b800c4f2000346229b5cdab243f20023c4f26d
:1019c800000341210a43d1b24622995443f200232d
:1019d800c4f2000347229b5cdab243f20023c4f24c
:1019e800000341210a43d1b247229954c046bd465b
:1019f80002b080bd80b500af43f20043c4f20023bb
:101a08001a6843f20043c4f2002302210a431a6011
:101a180000e0c04643f20043c4f200239b68022260
:101a28001340002bf5d1c046bd4680bd80b500af40
:101a380042f60023c4f2000302221a7000e0c046f6
:101a480042f60023c4f200035b6802221340002b15
:101a5800f5d142f60023c4f200034ff6ff725a6133
:101a680002210320fff7b5fb0320fff791fb0321b9
:101a78000420fff7aefb0420fff78afb03210520b3
:101a8800fff7a7fb0520fff783fb03210920fff7da
:101a9800a0fb0920fff77cfb4ef21003cef20003f7
:101aa80007221a60c046bd4680bd80b584b000af2d
:101ab8000023fb6043f20023c4f20003b1229b5cc5
:101ac800dbb2fb60fb680f229343fb60fb680122db
:101ad8001343fb6043f20023c4f20003fa68d1b257
:101ae800b122995443f20023c4f20003c1229b5c43
:101af800dab243f20023c4f2000301210a43d1b24f
:101b0800c122995441f60043c4f20003f022422155
:101b1800995000e0c04641f60043c4f20003f022a9
:101b28009b5840221340002bf4d043f60003c4f224
:101b380000231b78dab243f60003c4f20023012124
:101b48000a43d2b21a7000e0c04643f60003c4f25a
:101b580000231b8c9bb21a0001231340002bf3d1e6
:101b680043f60003c4f200239b78dab243f600037d
:101b7800c4f2002305210a43d2b29a7043f6000347
:101b8800c4f200235b899ab243f60003c4f200232f
:101b980020210a4392b25a8143f60003c4f200237b
:101ba80004225a7043f60003c4f200231b899ab238
:101bb80043f60003c4f200230a210a4392b21a81b1
:101bc80043f60003c4f200231b899ab243f60003cc
:101bd800c4f2002341f600010a4392b21a8146f288
:101be8002003c0f280031b68bb60bb1d00221a8063
:101bf800bb689bb21b029bb21bb240f2007213403f
:101c08001ab2bb1d00215b5e13431ab2bb1d1a80ba
:101c1800bb68db089bb20722134099b2bb1dba1df3
:101c280012880a431a8043f60003c4f20023ba1d3f
:101c380012889a8543f60003c4f200231b78dab2af
:101c480043f60003c4f2002302210a43d2b21a70f9
:101c580000e0c04643f60003c4f200231b8c9bb28d
:101c68001a0002231340002bf3d143f60003c4f2f9
:101c780000235b899ab243f60003c4f200230421cf
:101c88000a4392b25a8143f60003c4f200230222a7
:101c98001a76c046bd4604b080bd80b582b000af9c
:101ca8004ef60053cef20003db687b607b680422ab
:101cb80093437b607b68054a53407b604ef6005334
:101cc800cef200037a68da60c046fde70400ffff41
:020000040000fa
:101cd80080b582b000af7860396001f05cf803002d
:101ce8003bb17b681b88d14a13439ab27b681a8040
:101cf80016e37b681b885b045b0c9ab27b681a80ce
:101d08007b681b88002b00d107e37b68a822002191
:101d180099527b681b881a0001231340002b55d069
:101d28007b681b8847f6fb7213439ab27b681a805c
:101d38007b681b881a00042313407bb17b68ec2264
:101d48009b585a1c7b68ec215a507b68ec229b58a4
:101d5800072b03d97b68ec22002199507b68ec2281
:101d680099587b68a8229b5a78680133da0043f6b1
:101d78008c03c0f20003c90082185b1803cb03c2ae
:101d88007b68a8229b5a013399b27b68a822995292
:101d98007b68a8229b5a7a680133d90043f2b04382
:101da800c0f200038b507b68a8229b5a7a680133e3
:101db800db00d318043340f279321a607b68a8221a
:101dc8009b5a013399b27b68a82299527b681b8879
:101dd8001a0002231340002b00d18de27b68a82251
:101de8009b5a78680133da0043f68c03c0f200038b
:101df8003968c90082185b1803cb03c27b68a82224
:101e08009b5a013399b27b68a82299527b68a82211
:101e18009b5a7a680133d90043f6cc03c0f2000319
:101e28008b507b68a8229b5a7a680133db00d31851
:101e380004330c221a607b68a8229b5a013399b29a
:101e48007b68a822995240f21003c2f200031b6873
:101e5800042b00d972e09a00754bd3181b689f4673
:101e68007b68a8229b5a7a680133d90043f6dc03c1
:101e7800c0f200038b507b68a8229b5a7a68013312
:101e8800db00d318043304221a6057e07b68a822c9
:101e98009b5a7a680133d90043f6e403c0f2000381
:101ea8008b507b68a8229b5a7a680133db00d318d1
:101eb800043307221a6041e07b68a8229b5a7a689b
:101ec8000133d90043f6ec03c0f200038b507b6862
:101ed800a8229b5a7a680133db00d31804330822fe
:101ee8001a602be07b68a8229b5a7a680133d900d4
:101ef80043f6f803c0f200038b507b68a8229b5a74
:101f08007a680133db00d318043305221a6015e020
:101f18007b68a8229b5a7a680133d90043f60013dc
:101f2800c0f200038b507b68a8229b5a7a68013361
:101f3800db00d318043304221a60c0467b68a82249
:101f48009b5a013399b27b68a82299527b68a822d0
:101f58009b5a7a680133d90043f60813c0f200038c
:101f68008b507b68a8229b5a7a680133db00d31810
:101f780004330c221a607b68a8229b5a013399b259
:101f88007b68a822995240f20c03c2f200031b6836
:101f9800abb97b68a8229b5a7a680133d90043f60b
:101fa8001813c0f200038b507b68a8229b5a7a68ea
:101fb8000133db00d31804330b221a60c0467b6858
:101fc800a8229b5a013399b27b68a82299527b6850
:101fd800a8229b5a7a680133d90043f62413c0f229
:101fe80000038b507b68a8229b5a7a680133db0078
:101ff800d31804330c221a607b68a8229b5a013339
:1020080099b27b68a82299523b68022b28d03b687a
:10201800022b03dc3b68012b0cd063e03b68032bed
:1020280034d03b68042b47d05ce0c0460080fffffb
:10203800a83900007b68a8229b5a7a680133d90026
:1020480043f63413c0f200038b507b68a8229b5ad6
:102058007a680133db00d318043306221a6041e0a2
:102068007b68a8229b5a7a680133d90043f63c134f
:10207800c0f200038b507b68a8229b5a7a68013310
:10208800db00d31804330e221a602be07b68a822e9
:102098009b5a7a680133d90043f64c13c0f2000307
:1020a8008b507b68a8229b5a7a680133db00d318cf
:1020b80004330e221a6015e07b68a8229b5a7a68be
:1020c8000133d90043f65c13c0f200038b507b68e0
:1020d800a8229b5a7a680133db00d3180433042200
:1020e8001a60c0467b68a8229b5a013399b27b6864
:1020f800a82299527b68a8229b5a7a680133d90092
:1021080043f66413c0f200038b507b68a8229b5ae5
:102118007a680133db00d31804330c221a607b6819
:10212800a8229b5a013399b27b68a822995240f29f
:102138000703c2f200031b78abb17b68a8229b5a45
:102148007a680133d90043f67413c0f200038b5048
:102158007b68a8229b5a7a680133db00d3180433c2
:1021680008221a6014e07b68a8229b5a7a68013317
:10217800d90043f68013c0f200038b507b68a82275
:102188009b5a7a680133db00d318043304221a609f
:102198007b68a8229b5a013399b27b68a82299527e
:1021a8007b68a8229b5a7a680133d90043f68813c2
:1021b800c0f200038b507b68a8229b5a7a680133cf
:1021c800db00d31804330c221a607b68a8229b5ac0
:1021d800013399b27b68a822995240f20803c2f2ef
:1021e80000031b78abb17b68a8229b5a7a6801333d
:1021f800d90043f67413c0f200038b507b68a82201
:102208009b5a7a680133db00d318043308221a601a
:1022180014e07b68a8229b5a7a680133d90043f6f8
:102228008013c0f200038b507b68a8229b5a7a68ff
:102238000133db00d318043304221a607b68a82218
:102248009b5a013399b27b68a82299527b68a822cd
:102258009b5a7a680133d90043f69813c0f20003f9
:102268008b507b68a8229b5a7a680133db00d3180d
:1022780004330c221a607b68a8229b5a013399b256
:102288007b68a822995240f20903c2f200031b7826
:10229800abb17b68a8229b5a7a680133d90043f610
:1022a8007413c0f200038b507b68a8229b5a7a688b
:1022b8000133db00d318043308221a6014e07b686a
:1022c800a8229b5a7a680133d90043f68013c0f2da
:1022d80000038b507b68a8229b5a7a680133db0085
:1022e800d318043304221a607b68a8229b5a01334e
:1022f80099b27b68a82299527b68a8229b5a73b12d
:102308007b68083318007b68a8229b5a190000f0e4
:102318004ffc7b68044a1a8002e0c04600e0c046d1
:10232800bd4602b080bdc0460080ffff80b582b0c8
:1023380000af78607b685b68012b16d02bb1022b4d
:1023480021d0032b00d1ede0f7e07b68fc331021ae
:10235800180000f02ffd0300002b00d1efe07b6890
:102368005b685a1c7b685a60e9e07b68f0331800a8
:1023780000f0b6fd0300002b00d1e2e07b685b684b
:102388005a1c7b685a607b681b881bb2002b00dada
:10239800d9e07b68e822002199507b681b880222db
:1023a80013439ab27b681a807b685b685a1c7b6807
:1023b8005a607b68f4229b58032b45d17b68f02236
:1023c8009b5801331b785b2b3ed17b68f0229b58ce
:1023d80002331b78412b06d140f21003c2f20003ee
:1023e80001221a609de07b68f0229b5802331b781b
:1023f800422b06d140f21003c2f2000302221a60f7
:102408008fe07b68f0229b5802331b78432b06d160
:1024180040f21003c2f2000303221a6081e07b68d5
:10242800f0229b5802331b78442b06d140f210034c
:10243800c2f2000304221a6073e040f21003c2f2f1
:10244800000300221a606ce07b68f4229b58012b81
:1024580033d17b68f0229b581b78312b06d140f290
:102468000003c2f2000301221a606ee07b68f022ca
:102478009b581b78322b06d140f20003c2f20003ae
:1024880002221a6061e07b68f0229b581b78332b8c
:1024980006d140f20003c2f2000303221a6054e09e
:1024a8007b68f0229b581b78202b4ed140f21003fa
:1024b800c2f2000300221a6047e07b68f4229b58ae
:1024c800012b26d97b68f0229b581b781b2b20d127
:1024d8007b68f4229b58052b22d17b68f0229b58fd
:1024e800581c43f6bc13c0f200030422190001f083
:1024f800d3ff0300a3b97b681b88012213439ab258
:102508007b681a8040f21003c2f2000300221a60ae
:1025180006e040f21003c2f2000300221a6014e041
:10252800c04612e07b681b881a0048f20203134079
:102538006bb97b6800225a600ae0fff7aefbc04621
:1025480006e0c04604e0c04602e0c04600e0c046df
:10255800c046bd4602b080bd80b586b000af00233e
:102568003b6100237b60fef7abfe00f0d5f8fef779
:10257800c1fe40f22003c2f2000301221a8001f0da
:10258800f7fd03001a0040f20703c2f200031a70b5
:1025980001f0fffd03001a0040f20803c2f2000335
:1025a8001a7001f007fe03001a0040f20903c2f294
:1025b80000031a7040f20003c2f2000302221a60fc
:1025c800fb68072b22d9bb687b6001f0d1fd0300b3
:1025d8001a0040f20703c2f200031a7001f0d9fd95
:1025e80003001a0040f20803c2f200031a7001f057
:1025f800e1fd03001a0040f20903c2f200031a7059
:1026080040f22003c2f2000302221a8001f014fbf8
:102618000300bb607a68bb681100180001f0aafbd0
:102628000300fb6040f20003c2f200031a6840f2a4
:102638002003c2f2000311001800fff749fb40f223
:102648002003c2f200031800fff770fe40f20003f7
:10265800c2f200031b68022b43d0032b54d0012b7a
:10266800aed140f21003c2f200031b68042b23d83a
:102678009a00284bd3181b689f4601f069fa1be0a3
:1026880001f0abfa1e237b6121233b6114e001f0ca
:10269800bbfa32237b6123233b610de001f086fa0c
:1026a80032237b6132233b6106e001f068fa322372
:1026b8007b6132233b61c04643f20043c4f20023ee
:1026c8009b688022134013bb43f20043c4f20023eb
:1026d8007a695a6743f20043c4f200233a691a67d9
:1026e80015e040f20703c2f20003187840f208032d
:1026f800c2f20003197840f20903c2f200031b7802
:102708001a0000f086fc03e0fef72cf900e0c04652
:0827180056e7c046c439000079
:020000040000fa
:1027200080b500af41f60043c4f20003d02242213d
:10273000995000e0c04641f60043c4f20003d022a5
:102740009b5840221340002bf4d040f22c13c2f2cd
:102750000003a8220021180001f0c6fe41f2000388
:10276000c4f2002301221a6000e0c04641f20003d7
:10277000c4f20023db6901221340002bf5d141f2a2
:102780000003c4f2002304221a6041f20003c4f2e1
:1027900000231a6841f20003c4f200238021c90516
:1027a0000a431a6041f20003c4f200231a6841f29e
:1027b0000003c4f20023802149030a431a6041f256
:1027c0000003c4f2002300225a6041f20003c4f265
:1027d0000023802212059a6041f20003c4f2002314
:1027e000344a9a8141f20003c4f200235a6841f24c
:1027f0000003c4f20023c32109040a435a6000e025
:10280000c04641f20003c4f20023db6904221340f6
:10281000002bf5d143f20023c4f20003942240f2ce
:102820000021995043f20023c4f20003842240f2b5
:102830000021995043f20023c4f20003982240f291
:102840000011995043f20023c4f20003882240f2a1
:102850000011995043f20023c4f20003b422332143
:10286000995443f20023c4f20003c922032199546e
:1028700043f20023c4f20003c8224121995441f2db
:102880000003c4f200231a6841f20003c4f20023db
:1028900002210a431a6000e0c04641f20003c4f27c
:1028a0000023db6906221340002bf5d1c046bd464c
:1028b00080bdc04605c5ffff80b500af40f22c13b8
:1028c000c2f20003a4229b5cdbb2022b00d073e0b7
:1028d00066e040f22c13c2f2000384229b584bb3f3
:1028e00040f22c13c2f200031a681100083140f2c2
:1028f0002c13c2f20003196040f22c13c2f2000341
:1029000088215b1803ca03c340f22c13c2f20003f0
:1029100084229b585a1e40f22c13c2f200038421d9
:102920005a5040f22c13c2f200038c229b58002b09
:10293000cfd000e0c04640f22c13c2f200038c223c
:102940009b586bb941f20003c4f2002301221a75af
:1029500040f22c13c2f20003a422002199542ce06f
:1029600040f22c13c2f2000388229a58511c40f204
:102970002c13c2f2000388201950127841f2000390
:10298000c4f200239a6240f22c13c2f200038c229c
:102990009b585a1e40f22c13c2f200038c215a504d
:1029a00041f20003c4f200231b7edbb21a000123b4
:1029b0001340002bb5d100e0c046bd4680bd90b5a8
:1029c00083b000af40f22c13c2f20003a5229b5c3f
:1029d000dbb2022b00d0b0e0a2e041f20003c4f26f
:1029e0000023ba1d5b8b1380c04641f20003c4f282
:1029f00000239b6a3b6040f22c13c2f20003982232
:102a00009a5840f22c13c2f20003a0215b589a425c
:102a100009d340f22c13c2f200039c22995c0420db
:102a2000014399547ce0bb1d1b880122134043b134
:102a300040f22c13c2f200039c22995c0120014356
:102a40009954bb1d1b88022213409bb140f22c13ea
:102a5000c2f200039c22995c0220014399543b6816
:102a600043b940f22c13c2f200039c22995c10205f
:102a700001439954bb1d1b880422134043b140f20b
:102a80002c13c2f200039c22995c04200143995448
:102a9000bb1d1b882022134043b140f22c13c2f20d
:102aa00000039c22995c08200143995440f22c13a6
:102ab000c2f200039422995840f22c13c2f2000390
:102ac00098229a58501c40f22c13c2f2000398240a
:102ad00018518b183a68d2b21a7040f22c13c2f215
:102ae000000390220021995040f22c13c2f20003ff
:102af00098229a5840f22c13c2f20003a0215b588e
:102b00009a420dd341f20003c4f2002304221a7545
:102b100040f22c13c2f20003a522032199540de0c8
:102b200041f20003c4f200231b7edbb21a0004232f
:102b30001340002b00d050e700e0c046bd4603b074
:102b400090bd80b500af40f22c13c2f20003a52265
:102b50009b5cdbb2022b2ad140f22c13c2f20003a1
:102b600098229b582bb340f22c13c2f20003902200
:102b70009b585a1c40f22c13c2f2000390215a5069
:102b800040f22c13c2f2000390229b58062b11d95d
:102b900041f20003c4f2002304221a7540f22c1300
:102ba000c2f20003a52203219954c04602e0c046a8
:102bb00000e0c046bd4680bd80b584b000af7860ff
:102bc00039607b680bb13b680bb9012388e040f2a8
:102bd0002c13c2f20003a4229b5cdbb20bb10023d6
:102be0007ee040f22c13c2f20003a422012199548a
:102bf00041f20003c4f200235a6841f20003c4f218
:102c000000238021c9030a435a6000e0c04641f214
:102c10000003c4f20023db6904221340002bf5d12a
:102c200040f22c13c2f2000388220021995040f296
:102c30002c13c2f200038c220021995040f22c1375
:102c4000c2f20003284a1a600023fb6040f22c13f2
:102c5000c2f2000384220021995027e0fb68db00c8
:102c60007a68d318bb60bb685b68dbb1bb681b6864
:102c7000c3b140f22c13c2f2000384229a58511cb3
:102c800040f22c13c2f200038420195040f22c139e
:102c9000c2f20003d20004219b185b18ba6803ca71
:102ca00003c300e0c046fb680133fb6040f22c1315
:102cb000c2f2000384229b580f2b03d8fa683b68aa
:102cc0009a42cbd340f22c13c2f20003a422022179
:102cd000995441f20003c4f2002301229a750123a2
:102ce0001800bd4604b080bd3001002080b500afa3
:102cf00041f20003c4f2002301221a7540f22c13a2
:102d0000c2f20003a4220121995441f20003c4f24b
:102d100000235a6841f20003c4f200238021c90352
:102d20000a435a6000e0c04641f20003c4f20023a7
:102d3000db6904221340002bf5d100e0c04641f2cc
:102d40000003c4f200231b7edbb21a0002231340ef
:102d5000002bf3d040f22c13c2f200038822002192
:102d6000995040f22c13c2f200038c22002199509a
:102d700040f22c13c2f2000300221a6040f22c131e
:102d8000c2f2000384220021995040f22c13c2f2b7
:102d90000003a42200219954c046bd4680bd80b5e1
:102da00000af40f22c13c2f20003a4229b5cdbb202
:102db0005a1e9341dbb21800bd4680bd80b582b07b
:102dc00000af786039607b680bb13b680bb90123b9
:102dd0004ae040f22c13c2f20003a5229b5cdbb256
:102de0000bb1002340e040f22c13c2f20003a522f5
:102df000012199541e4b0c220021180001f074fb94
:102e000040f22c13c2f2000394217a685a5040f227
:102e10002c13c2f20003a0213a685a5041f2000379
:102e2000c4f200235a6841f20003c4f20023802157
:102e300009040a435a6000e0c04641f20003c4f2ac
:102e40000023db6904221340002bf5d140f22c1340
:102e5000c2f20003a5220221995441f20003c4f2f8
:102e6000002304229a7501231800bd4602b080bddc
:102e7000c001002080b500af41f20003c4f200237e
:102e800004221a7540f22c13c2f20003a52201217c
:102e9000995441f20003c4f200235a6841f200033e
:102ea000c4f20023802109040a435a6000e0c046ae
:102eb00041f20003c4f20023db6904221340002b1b
:102ec000f5d1084b0c220021180001f00dfb40f257
:102ed0002c13c2f20003a52200219954c046bd461e
:102ee00080bdc046c001002090b583b000af7860bf
:102ef0007b680bb9002321e040f22c13c2f20003df
:102f0000a5229b5cdbb2032b01d0002316e07a687c
:102f100040f22c13c2f2000394215b1813cb13c2ae
:102f2000084b0c220021180001f0defa40f22c13ad
:102f3000c2f20003a5220021995401231800bd46c6
:102f400003b090bdc001002080b500af40f22c134b
:102f5000c2f20003a5229b5cdbb25a1e9341dbb296
:082f60001800bd4680bdc0460b
:020000040000fa
:102f680080b582b000af7860396043f20043c4f2a4
:102f780000239b68802213405bb943f20043c4f2ec
:102f880000237a685a6743f20043c4f200233a6880
:102f98001a67c046bd4602b080bd80b586b000af96
:102fa800f860b9607a6000237b6116e043f2004361
:102fb800c4f200239b68802213405bb943f20043ac
:102fc800c4f20023fa685a6743f20043c4f20023ac
:102fd800ba681a677b6901337b617a697b689a42b0
:102fe800e4dbc046bd4606b080bd80b500af01f049
:102ff800bff803003bb901f0ccf803001bb901f09e
:10300800d9f803000bb1012300e000231800bd46e6
:1030180080bd90b587b000af040008001100fb1d0b
:10302800221c1a70bb1d021c1a707b1d0a1c1a7008
:10303800fb1d1b7801225340dbb25bb3bb1d1b7821
:1030480043b37b1d1b7801225340dbb213b300f05e
:10305800c4fd40f28c23c2f200031e221a6040f223
:103068009023c2f2000321221a6040f28c23c2f29c
:1030780000031a6840f29023c2f200031b6819008b
:103088001000fff76dff40f29423c2f20003002204
:103098001a6005e2fb1d1b7843b3bb1d1b782bb3dd
:1030a8007b1d1b7813b300f098fd40f28c23c2f20d
:1030b80000031e221a6040f29023c2f2000321226c
:1030c8001a6040f28c23c2f200031a6840f290237f
:1030d800c2f200031b6819001000fff741ff40f21d
:1030e8009423c2f2000300221a60d9e1fb1d1b7869
:1030f80063b3bb1d1b7801225340dbb233b37b1d86
:103108001b781bb300f03bfd40f28c23c2f2000396
:103118000f221a6040f29023c2f200030f221a60b5
:1031280040f28c23c2f200031a6840f29023c2f2e4
:1031380000031b6819001000fff712ff40f29423e8
:10314800c2f20003022252421a60a9e1fb1d1b7859
:1031580001225340dbb2002b00d1b6e0bb1d1b7827
:1031680001225340dbb2002b00d1aee07b1d1b785f
:1031780001225340dbb2002b00d1a6e040f28c23a1
:10318800c2f2000300221a6040f29023c2f2000348
:103198001b221a6000f021fd40f28c23c2f20003ca
:1031a8001a6840f29023c2f200031b68190010004d
:1031b800fff7d6fefff719ff03001a00012353405b
:1031c800dbb2002b00d162e100237b6144e00023e5
:1031d8003b6118e000f0eafc40f28c23c2f20003e5
:1031e8001a6840f29023c2f200031b68190010000d
:1031f800fff7b6fefff7f9fe0300002b00d048e109
:103208003b6901333b613b6941f287329342e1dd1f
:103218000023fb6018e000f0b2fc40f29023c2f2f9
:1032280000031a6840f28c23c2f200031b681900dd
:103238001000fff795fefff7d8fe0300002b00d023
:1032480029e1fb680133fb60fb6841f28732934256
:10325800e1dd7b6901337b617b69022bb7ddfff719
:10326800c4fe0300002b00d017e140f28c23c2f209
:1032780000031b221a6040f29023c2f200031b22b3
:103288001a600023bb6018e000f0befc40f28c23fb
:10329800c2f200031a6840f29023c2f200031b68ce
:1032a80019001000fff75cfefff79ffe0300002bdc
:1032b80000d0f4e0bb680133bb60ba6846f2ff4354
:1032c800c1f6cd539a42dfdde1e0fb1d1b787bb3ed
:1032d800bb1d1b7801225340dbb24bb37b1d1b780f
:1032e80001225340dbb21bb300f049fc40f28c23af
:1032f800c2f2000319221a6040f29023c2f20003be
:1033080019221a6040f28c23c2f200031a6840f2b4
:103318009023c2f200031b6819001000fff720fe7b
:1033280040f29423c2f20003022252421a60b7e02c
:10333800fb1d1b7863b3bb1d1b784bb37b1d1b7830
:1033480001225340dbb21bb300f019fc40f28c237e
:10335800c2f200030f221a6040f29023c2f2000367
:103368000f221a6040f28c23c2f200031a6840f25e
:103378009023c2f200031b6819001000fff7f0fd4c
:1033880040f29423c2f20003012252421a6087e0fd
:10339800fb1d1b7801225340dbb25bb3bb1d1b78be
:1033a80001225340dbb22bb37b1d1b7813b300f013
:1033b800fdfb40f28c23c2f2000319221a6040f28e
:1033c8009023c2f2000319221a6040f28c23c2f241
:1033d80000031a6840f29023c2f200031b68190028
:1033e8001000fff7bdfd40f29423c2f20003022251
:1033f8001a6055e0fb1d1b7801225340dbb243b332
:10340800bb1d1b782bb37b1d1b7813b300f0cefbc1
:1034180040f28c23c2f200030f221a6040f290237c
:10342800c2f200030f221a6040f28c23c2f200039a
:103438001a6840f29023c2f200031b6819001000ba
:10344800fff78efd40f29423c2f2000301221a60b6
:1034580026e000f0c2fb40f28c23c2f200031e22d9
:103468001a6040f29023c2f2000321221a6040f24f
:103478008c23c2f200031a6840f29023c2f20003c0
:103488001b6819001000fff76bfdc04608e0c04636
:1034980006e0c04604e0c04602e0c04600e0c04680
:0634a800bd4607b090bd17
:020000040000fa
:0234ae00fee737
:020000040000fa
:1034b0001b5b324a1b5b313b31482b2d2d2d2d2db3
:1034c0002d2d2d2d2d2d2d2d2d2d2d2d2d2d2d2d2c
:1034d0002d2d2d2d2d2d2d2d2d2d2d2d2d2d2d2d1c
:1034e0002d2d2d2d2d2d2d2d2d2d2d2d2d2d2d2d0c
:1034f0002d2d2d2d2d2d2d2d2d2d2d2b0d0a7c20ff
:10350000454545203139323a20456c65637472690e
:1035100063616c20616e6420456c656374726f6ecc
:1035200069637320456e67696e656572696e6720b1
:103530004c61626f7261746f727920564920207cf1
:103540000d0a7c20202020202020202020416361a3
:1035500064656d6963205965617220323032352da2
:10356000323032362c2053656d65737465722032ab
:10357000202020202020202020202020202020204b
:103580002020207c0d0a7c202020202020202020ac
:10359000202020202020202020202020202020202b
:1035a000202020202020202020202020202020201b
:1035b000202020202020202020202020202020200b
:1035c000202020202020207c0d0a7c20526f627554
:1035d0007474202020202020202020202020202043
:1035e00020202020202020202020202020202020db
:1035f00020202020202020202020202020202020cb
:1036000020202020202020202020207c0d0a7c202b
:1036100020202020202020202020202020202020aa
:10362000202020202020202020202020202020209a
:10363000202020202020202020202020202020208a
:103640002020202020202020202020202020207c1e
:103650000d0a7c20417574686f723a204d656f7752
:103660007321202020202020202020202020202006
:10367000202020202020202020202020202020204a
:10368000202020202020202020202020202020203a
:103690002020207c0d0a7c2020202020202020209b
:1036a000202020202020202020202020202020201a
:1036b000202020202020202020202020202020200a
:1036c00020202020202020202020202020202020fa
:1036d000202020202020207c0d0a7c20446174655d
:1036e0003a20202020323032362020202020202076
:1036f00020202020202020202020202020202020ca
:1037000020202020202020202020202020202020b9
:1037100020202020202020202020207c0d0a2b2d5e
:103720002d2d2d2d2d2d2d2d2d2d2d2d2d2d2d2dc9
:103730002d2d2d2d2d2d2d2d2d2d2d2d2d2d2d2db9
:103740002d2d2d2d2d2d2d2d2d2d2d2d2d2d2d2da9
:103750002d2d2d2d2d2d2d2d2d2d2d2d2d2d2d2b9b
:103760000d0a7c20494e535452554354494f4e53f1
:103770003a2031202d2052656d6f74652c20322047
:103780002d204c696e652c2033202d2057616c6ce8
:103790002020202020202020202020202020202029
:1037a0002020207c0d0a2b2d2d2d2d2d2d2d2d2d66
:1037b0002d2d2d2d2d2d2d2d2d2d2d2d2d2d2d2d39
:1037c0002d2d2d2d2d2d2d2d2d2d2d2d2d2d2d2d29
:1037d0002d2d2d2d2d2d2d2d2d2d2d2d2d2d2d2d19
:1037e0002d2d2d2d2d2d2d2b0d0a0d0a44697265c1
:1037f0006374696f6e3a200d0a53706565643a20f0
:103800000d0a4d6f64653a200d0a49520d0a4c4568
:1038100046543a200d0a43454e5445523a200d0a6b
:1038200052494748543a200d0a00c0461b5b3337c3
:103830003b34306d0000c0461b5b33363b34306d8b
:103840000000c0461b5b33353b34306d0000c04682
:103850001b5b33333b34306d0000c0461b5b393794
:103860003b34316d0000c0461b5b39323b34306d58
:103870000000c0461b5b39373b34346d0000c04646
:103880001b5b33303b34376d0000c0462c380000e2
:10389000080000003838000008000000443800002c
:1038a0000800000050380000080000005c380000ec
:1038b00008000000683800000800000074380000ac
:1038c0000800000080380000080000001b5b313455
:1038d0003b3230481b5b304b0000c04653544f50c6
:1038e0000000c046464f5257415244004241434bac
:1038f000574152440000c046524947485400c04610
:103900004c4546540000c0461b5b31353b323048c5
:103910001b5b304b0000c046706c616365686f6c68
:10392000646572001b5b31363b3230481b5b304ba9
:103930000000c04652454d4f544500004c494e458d
:103940002d464f4c4c4f57494e47000057414c4c69
:103950002d464f4c4c4f57494e470000534146456a
:103960000000c0461b5b31383b3230481b5b304b9c
:103970000000c04644455445435445440000c046f9
:103980004e4f4e450000c0461b5b31393b3230483c
:103990001b5b304b0000c0461b5b32303b32304873
:1039a0001b5b304b0000c046681e0000941e0000e8
:1039b000c01e0000ec1e0000181f00005b31357ea9
:1039c0000000c046822600008826000096260000df
:0839d000a4260000b22600004d
:020000040000fa
:1039d80080b500af43f20023c4f200031a6943f232
:1039e8000023c4f2000308218a431a6143f200232a
:1039f800c4f200031a6943f20023c4f2000304214d
:103a08008a431a61c046bd4680bd80b500af43f207
:103a18000023c4f2000390229a5843f20023c4f210
:103a2800000309490a4090215a5043f20023c4f286
:103a380000031a6943f20023c4f2000303490a4051
:103a48001a61c046bd4680bdffff7ffffffff7ff3d
:103a580080b500af43f20023c4f200031a6943f2b1
:103a68000023c4f2000308218a431a6143f20023a9
:103a7800c4f200031a6943f20023c4f200030421cc
:103a88000a431a61c046bd4680bd80b500af43f207
:103a98000023c4f2000390229a5843f20023c4f290
:103aa8000003802109040a4390215a5043f200235d
:103ab800c4f200031a6943f20023c4f20003034965
:103ac8000a401a61c046bd4680bdc046fffff7ffe9
:103ad80080b500af43f20023c4f200031a6943f231
:103ae8000023c4f2000308210a431a6143f20023a9
:103af800c4f200031a6943f20023c4f2000304214c
:103b08008a431a61c046bd4680bd80b500af43f206
:103b18000023c4f2000390229a5843f20023c4f20f
:103b280000030a490a4090215a5043f20023c4f284
:103b380000031a6943f20023c4f200038021090339
:103b48000a431a61c046bd4680bdc046ffff7fffdd
:103b580080b500af43f20023c4f2000390229a58c4
:103b680043f20023c4f2000308210a4390215a506b
:103b7800fff74bfffff72cffc046bd4680bd80b561
:103b880000af43f20023c4f2000390229a5843f294
:103b98000023c4f2000308210a4390215a50fff77a
:103ba80074fffff795ffc046bd4680bd80b500afe6
:103bb80043f20023c4f2000390229a5843f20023f0
:103bc800c4f2000308210a4390215a50fff79dffd1
:103bd800fff73effc046bd4680bd80b500af43f24b
:103be8000023c4f2000390229a5843f20023c4f23f
:103bf800000308210a4390215a50fff746fffff7b8
:103c080027ffc046bd4680bd80b500af43f2002304
:103c1800c4f2000390229a5843f20023c4f200032e
:103c280008210a4390215a50fff76ffffff750ff12
:083c3800c046bd4680bdc04638
:020000040000fa
:103c400080b582b000af40f27c23c2f200031b6853
:103c50007b60c04640f27c23c2f200031b687a6896
:103c60009a42f0d17b681800bd4602b080bd80b595
:103c700000affef766ff40f28823c2f200031b6824
:103c80005a1c40f28823c2f200031a6016e040f288
:103c90008823c2f200031b68403b1a0040f28823cd
:103ca000c2f200031a6040f27c23c2f200031b68d8
:103cb0005a1c40f27c23c2f200031a6040f28823af
:103cc000c2f200031b683f2be1dc40f28423c2f206
:103cd00000031b685a1c40f28423c2f200031a60de
:103ce000c046bd4680bd80b500af42f60023c4f299
:103cf00000035b69012213405bb142f60023c4f26a
:103d000000035a6942f60023c4f2000301210a436a
:103d10005a61c046bd4680bd80b500af42f6002363
:103d2000c4f200035b69022213405bb142f6002338
:103d3000c4f200035a6942f60023c4f200030221d0
:103d40000a435a61c046bd4680bd80b500af42f609
:103d50000023c4f200035b69042213405bb142f606
:103d60000023c4f200035a6942f60023c4f20003a0
:103d700004210a435a61c046bd4680bd80b584b067
:103d800000af786039603a687b689a4204d87a68f4
:103d90003b68d31afb6007e03a687b68d31afb6084
:103da000c046fb680233fb60fb681800bd4604b0e8
:103db00080bd80b582b000af40f28423c2f2000320
:103dc0001b687b60c04640f28423c2f200031b687c
:103dd0001a007b689342efd17b681800bd4602b0a1
:103de00080bd80b582b000af786040f28023c2f21f
:103df00000031a687b681a4340f28023c2f2000372
:103e00001a60c046bd4602b080bd80b582b000af2a
:103e100040f28023c2f200031b687b60c0467b68cf
:103e2000da4340f28023c2f200031b681a4040f2da
:103e30008023c2f200031a607b681800bd4602b0fe
:023e400080bd43
:020000040000fa
:103e42000122d20703004b403cd430b4431a01d2c2
:103e5200c01ac9184b004400240eff2c28d024b3ea
:103e62001b0e20d0e31a182b1ddc09021143c40dce
:103e7200000210435d4219350a00aa40d209d94016
:103e8200451801d36d080234013ce405280a0121da
:103e9200c9072d062a438a4160414100090eff29c4
:103ea20001d3c00dc00530bc7047c00fc007fae790
:103eb20042001823da41ff2af5d07f2000010c309e
:103ec2000005f0e7a4465140431a02d25340c01afb
:103ed200c9184b00090211431b0e4400240eff2c8b
:103ee20040d083b15b421b19012b10d322d1c30de9
:103ef2004002401a10d3db050100400ac905914176
:103f02005841644670472442fbd10020f9e7c30db3
:103f120040024900401af4d0002101314000fcd394
:103f22008c4204d95b1adb05400ac018e9e7180a7b
:103f3200c007e6e7192be4d801330c00d940dc4175
:103f42004c40012c4941c30d00021043441a01d4d4
:103f5200a4006408013bdb05200a24069441584171
:103f620064467047ff2b01d04102cad07f20000176
:063f72000c300005c5e75c
:020000040000fa
:103f7800464f5257415244005455524e20524947d9
:103f8800485400005455524e204c45465400c046f3
:103f98005455524e2041524f554e4400554e4b4eab
:103fa8004f574e002853544545522048415244200b
:103fb8004c4546542900c046285354454552204c88
:103fc800454654290000c0462853544545522048c8
:103fd8004152442052494748542900002853544527
:103fe80045522052494748542900c0462843454e67
:103ff800544552290000c0461b5b324a1b5b4800ef
:104008003e3e3e2053414645204d4f4445204143c6
:10401800544956415445442120526f626f742073ad
:10402800746f707065642e0d0a00c0463e3e3e20d7
:10403800526573657420746f20636f6e74696e7552
:10404800652e0d0a0000c046464f4c4c4f570000e5
:104058005345454b0000c046820d0000320f00005a
:10406800a60f00001a1000008c1000003e1100007e
:104078004a11000056110000621100006e11000084
:020000040000fa
:1040880030b405004d400124e407254042004b00b0
:10409800120e32d01b0e3cd0ff2a33d0ff2b3fd05c
:1040a800d21800022043000a09022143090ac4b2b7
:1040b8004c43000ac3b24b43000a4843210a5b1829
:1040c800190a091801d44900013a080a7f3a2adb7b
:1040d800fe2a0fd2d2051c43240601d00124214315
:1040e800c9b280295041802901d1400840002843a5
:1040f80030bc7047ff20c005f9e71b0eff2b0ad024
:104108002800f5e7400206d1ff2bf3d1490202d17e
:10411800f0e7ff2af4d17f2000010c300005e7e723
:104128004902f8d1e6e743020132e9d15b120233d2
:06413800e6d9d805e4e71a
:020000040000fa
:10413e0080b500af43f20023c4f200031b6a40f6c1
:10414e00000213400bb9002300e001231800bd4606
:10415e0080bd80b500af01231800bd4680bd80b57f
:10416e0000af01231800bd4680bd80b500af43f2fd
:10417e000023c4f200031b6a40f6000213400bb981
:10418e00002300e001231800bd4680bd80b500afbe
:10419e0043f20023c4f200031b6a40f200421340b4
:1041ae000bb9002300e001231800bd4680bd80b589
:1041be0000af43f20023c4f200031b6a40f2002258
:1041ce0013400bb9002300e001231800bd4680bd4b
:020000040000fa
:0241de00704728
:020000040000fa
:1041e000a002002004000000010000000000000008
:1041f000600200201c000000000000000000002001
:104200002c010000000000007c02002010000000d3
:10421000000000002c010020a800000000000000a9
:10422000240200203a000000000000008c02002060
:104230001000000000000000d40100205000000029
:10424000000000009c0200200400000000000000ac
:10425000a402002004000000010000000000000093
:10426000000000000000000066666666666666661e
:020000040000fa
:1042700040f20003c0f2000323b140f20003c0f299
:104280000003984740f20003c0f2000323b140f25c
:104290000003c0f20003984700f098f840f20003d2
:1042a000c0f200037f2293434ef60052cef200028a
:1042b000936044f2f123c0f20003984740f20003f8
:1042c000c0f2000323b140f20003c0f2000398479c
:1042d00040f20003c0f2000323b140f20003c0f239
:0e42e0000003984700210020fef73af9fee7a0
:020000040000fa
:0242ee00704717
:020000040000fa
:1042f00000230e4a10b513600d4a0e4c13600e4a8f
:1043000013600e4a13600e4a13600e4a5362136123
:1043100001339360fff7ebfffff7e9ff0a4b9c4285
:1043200000d310bd08cc9847f8e7c0469c02002097
:10433000e001002068010000dc010020d401002021
:0c434000d8010020e40100206c01000006
:020000040000fa
:10434c0010b5054c227832b9044b13b1044800e087
:10435c0000bf0123237010bd60020020000000008c
:10436c0000000000034b10b51bb10349034800e0eb
:10437c0000bf10bd0000000064020020000000001f
:020000040000fa
:10438c004200110e7f390fd40123db0749421f3144
:10439c000cdd400003d2c0011843c8407047c00177
:1043ac001843c8404042704700207047ff2109065f
:0e43bc008a4200d99843184000d4d843704775
:020000040000fa
:1043cc0010b50a48016821b9436813b9fff701ff1a
:1043dc0010bd04008368064a9bb20c349b009b58aa
:1043ec0042682000984780002018ebe7e04100006d
:0443fc00d4440000a5
:020000040000fa
:10440000012212064300da420fd84b00da420cd8e0
:1044100002000a43520008d003d281428041404248
:0e44200070478842804140427047002070473c
:020000040000fa
:10442e00012212064300da420fd84b00da420cd8b2
:10443e0002000a43520008d003d288428041404213
:0e444e00704781428041404270470020704715
:020000040000fa
:10445c00c20f12029d3201000cd001d5494202d488
:10446c00013a4900fcd5d205080a0906494100d396
:06447c00012950417047c8
:020000040000fa
:10448200002310b5934206d103201840421e9041ea
:0e4492009b08c01810bdc45ccc540133f2e787
:020000040000fa
:1044a00030b50024a24207d0035d4d1e01342d5dbe
:0c44b000ab42f7d0581b00e0002030bdec
:020000040000fa
:1044bc00037833b1030001331a78002afbd1181aa0
:0844cc0070470020fce7c04628
:020000040000fa
:1044d400fd440000834400001f4500001f45000008
:0444e4001f45000070
:020000040000fa
:1044e80032b10300c9b28218197001339342fbd16b
:0444f8007047c04603
:020000040000fa
:1044fc008a18914201d10020704700230b700131c2
:02450c00f7e7cf
:020000040000fa
:10450e000122d207514043f64763c0f20003184719
:020000040000fa
:04451e0000207047c2
:00000001FF
