:020000040000fa
:10000000f07f002029270000a7270000a727000075
:1000100000000000000000000000000000000000e0
:10002000000000000000000000000000a727000002
:100030000000000000000000a72700001f220000b1
:10004000a7270000a7270000a7270000972200008d
:10005000d522000013230000a7270000a7270000d7
:10006000a72700006b230000a7270000a727000098
:10007000a7270000a7270000a7270000a727000048
:10008000a7270000a7270000a7270000a727000038
:10009000a7270000a7270000a7270000a727000028
:1000a000a7270000a7270000a7270000a727000018
:1000b000a7270000a7270000a7270000a727000008
:1000c000a7270000a7270000a7270000a7270000f8
:1000d000a7270000a7270000a7270000a7270000e8
:1000e000a7270000a7270000a7270000351700005a
:1000f000a72700003b180000a7270000a727000043
:10010000a7270000a7270000a7270000a7270000b7
:10011000a7270000a7270000a7270000a7270000a7
:10012000a7270000a7270000a7270000a727000097
:10013000a7270000a7270000a7270000a727000087
:10014000a7270000a7270000a7270000a727000077
:0c015000a7270000a7270000a727000039
:020000040000fa
:10015c00f8b5c046f8bc08bc9e467047292800007c
:10016c00f8b5c046f8bc08bc9e4670470528000090
:020000040000fa
:10017c0080b582b000af7860396001f048fd0300b3
:10018c003bb17b681b88d54a13439ab27b681a80b3
:10019c00d6e17b681b885b045b0c9ab27b681a8087
:1001ac007b686822002199527b681b881a00012306
:1001bc001340002b55d07b681b8847f6fb7213430a
:1001cc009ab27b681a807b681b881a000423134040
:1001dc007bb17b68ac229b585a1c7b68ac215a5073
:1001ec007b68ac229b58072b03d97b68ac2200217f
:1001fc0099507b68ac2299587b6868229b5a786826
:10020c000133da0042f26413c0f20003c900821811
:10021c005b1803cb03c27b6868229b5a013399b2eb
:10022c007b68682299527b6868229b5a7a680133f2
:10023c00d90041f6e453c0f200038b507b6868226e
:10024c009b5a7a680133db00d318043340f25832de
:10025c001a607b6868229b5a013399b27b686822ca
:10026c0099527b681b881a0002231340002b00d183
:10027c0054e17b6868229b5a78680133da0042f2b9
:10028c006413c0f200033968c90082185b1803cbf1
:10029c0003c27b6868229b5a013399b27b6868223f
:1002ac0099527b6868229b5a7a680133d90042f2d2
:1002bc007c13c0f200038b507b6868229b5a7a68cf
:1002cc000133db00d31804330c221a607b686822dc
:1002dc009b5a013399b27b686822995240f20c0305
:1002ec00c2f200031b68012b19d0022b2dd0002b5e
:1002fc0041d17b6868229b5a7a680133d90042f25b
:10030c008c13c0f200038b507b6868229b5a7a686e
:10031c000133db00d318043304221a602be07b6812
:10032c0068229b5a7a680133d90042f29413c0f2c6
:10033c0000038b507b6868229b5a7a680133db0080
:10034c00d318043303221a6015e07b6868229b5a89
:10035c007a680133d90042f29813c0f200038b5033
:10036c007b6868229b5a7a680133db00d31804330c
:10037c0002221a60c0467b6868229b5a013399b2ec
:10038c007b68682299527b6868229b5a7a68013391
:10039c00d90042f29c13c0f200038b507b68682298
:1003ac009b5a7a680133db00d31804330c221a6091
:1003bc007b6868229b5a013399b27b6868229952f8
:1003cc0040f20803c2f200031b68012b19d0022b68
:1003dc002dd0002b41d17b6868229b5a7a6801335f
:1003ec00d90042f2ac13c0f200038b507b68682238
:1003fc009b5a7a680133db00d31804330a221a6043
:10040c002be07b6868229b5a7a680133d90042f250
:10041c00b413c0f200038b507b6868229b5a7a6835
:10042c000133db00d31804330a221a6015e07b6811
:10043c0068229b5a7a680133d90042f2c013c0f289
:10044c0000038b507b6868229b5a7a680133db006f
:10045c00d31804330a221a60c0467b6868229b5a60
:10046c00013399b27b68682299527b6868229b5a47
:10047c007a680133d90042f2c813c0f200038b50e2
:10048c007b6868229b5a7a680133db00d3180433eb
:10049c000c221a607b6868229b5a013399b27b68e4
:1004ac00682299523b681bb13b68012b18d02de098
:1004bc007b6868229b5a7a680133d90042f2d813c0
:1004cc00c0f200038b507b6868229b5a7a68013318
:1004dc00db00d318043304221a6017e00080fffffe
:1004ec007b6868229b5a7a680133d90042f2e01388
:1004fc00c0f200038b507b6868229b5a7a680133e8
:10050c00db00d318043305221a60c0467b686822ce
:10051c009b5a013399b27b68682299527b68682296
:10052c009b5a63b17b68083318007b6868229b5a1e
:10053c00190001f079fa7b68034a1a8000e0c04682
:10054c00bd4602b080bdc0460080ffff80b582b0c2
:10055c0000af78607b685b68012b14d023b1022b51
:10056c001ed0032b57d061e07b68bc3310211800e0
:10057c0001f05cfb0300002b5ad07b685b685a1cb3
:10058c007b685a6054e07b68b033180001f0e4fbe0
:10059c000300002b4ed07b685b685a1c7b685a604a
:1005ac007b681b881bb2002b46db7b68a8220021d2
:1005bc0099507b681b88022213439ab27b681a807d
:1005cc007b685b685a1c7b685a607b68b4229b58ba
:1005dc00012b33d97b68b0229b581b781b2b2dd158
:1005ec007b68b4229b58052b28d17b68b0229b5882
:1005fc00581c42f2e813c0f200030422190002f066
:10060c0077f90300d3b97b681b88012213439ab294
:10061c007b681a8012e07b681b881a0048f2020380
:10062c0013406bb97b6800225a600ae000f095ff1a
:10063c00c04606e0c04604e0c04602e0c04600e00a
:10064c00c046c046bd4602b080bd80b58cb000af80
:10065c0000237b620023bb6100233b6000f03efb68
:10066c0000f096ff00f04efb40f21c03c2f20003b8
:10067c0001221a8043f20023c4f2000398229a58f4
:10068c0043f20023c4f20003802109040a43982199
:10069c005a5043f20023c4f200031a6943f20023b8
:1006ac00c4f2000344f200010a431a6140f2fc1345
:1006bc00c2f200031a6840f20003c2f200031a608f
:1006cc0001f090fd03007b6140f20003c2f20003d5
:1006dc001a6840f21c03c2f2000311001800fff765
:1006ec0047fd40f21c03c2f200031800fff72eff77
:1006fc0043f20023c4f20003a0229a588023db03a8
:10070c0013402bb940f2fc13c2f2000300221a6012
:10071c0040f2fc13c2f200031b68002b5cd143f2c5
:10072c000023c4f2000390229a5843f20023c4f22f
:10073c000003d4490a4090215a5043f20023c4f2da
:10074c0000031a6943f20023c4f20003ce490a40a5
:10075c001a6143f20023c4f200031a6943f2002326
:10076c00c4f2000308218a431a6143f20023c4f245
:10077c0000031a6943f20023c4f2000340218a43a8
:10078c001a6140f20403c2f2000341f66b021a60d4
:10079c000023bb6240f20423c2f2000300221a6061
:1007ac0040f20c03c2f2000300221a603b6a012bd8
:1007bc000cd940f21c03c2f200031b880222134323
:1007cc009ab240f21c03c2f200031a8040f20803f2
:1007dc00c2f2000300221a6040f2fc13c2f20003c2
:1007ec001b68002b00d17ae143f20023c4f2000312
:1007fc009a6943f20023c4f2000348f200010a4351
:10080c009a613a687b691100180001f0d4fd03006d
:10081c003b6240f20423c2f200031b68002b00d1a0
:10082c000ee143f60003c4f200239b79dbb21a00fd
:10083c000123134033b343f60003c4f200239b8c13
:10084c009bb23b613a697b6a9a4204da7a6a3b69e9
:10085c00d31afb6103e03a697b6ad31afb61fb692b
:10086c00022b01dd3b697b6243f60003c4f20023db
:10087c009b79dab243f60003c4f2002301210a4348
:10088c00d2b29a71786a02f011f8031cfb608921cc
:10089c00c905f86801f0b8fe031cbb608921c905c5
:1008ac00f86801f0b1fe031c191cfe20800502f053
:1008bc004af8031c7b607b6a40f20022934231ddd4
:1008cc0045f20001c4f24351786801f042fe031c6a
:1008dc00181c01f0b1ff0300fb6243f20023c4f2c9
:1008ec0000031a6943f20023c4f2000344f200012e
:1008fc000a431a6140f20c03c2f2000301221a608f
:10090c007b6a40f2ce22934206dd40f20803c2f22b
:10091c00000302221a6005e040f20803c2f2000351
:10092c0001221a607b6a40f2002293422edc45f2cf
:10093c000001c4f24351b86801f00bfe031c181cf3
:10094c0001f07aff0300fb6243f20023c4f20003c0
:10095c001a6943f20023c4f200034c490a401a619d
:10096c0040f20c03c2f2000302221a607b6acd2b08
:10097c0006dc40f20803c2f2000302221a6005e012
:10098c0040f20803c2f2000301221a603b6a012bf9
:10099c002fd97b693b6040f20403c2f200031b6851
:1009ac00fa6a9a420cdb40f20403c2f200031b68a1
:1009bc0008331a0040f20403c2f200031a600be081
:1009cc0040f20403c2f200031b68083b1a0040f219
:1009dc000403c2f200031a6040f21c03c2f20003cb
:1009ec001b88022213439ab240f21c03c2f200038a
:1009fc001a8043f20023c4f200031a6943f2002365
:100a0c00c4f2000340218a431a6143f20023c4f26a
:100a1c0000039a6943f20023c4f2000308210a433d
:100a2c009a6143f20023c4f2000390229a5843f2d5
:100a3c000023c4f20003802109040a4390215a5078
:100a4c0040f20423c2f200031b68002b47d13b6a1f
:100a5c00012b2cd97b693b6040f20403c2f20003ea
:100a6c001b6841f66902934212dc40f20403c2f2a5
:100a7c0000031b6808331a0040f20403c2f200039f
:100a8c001a6007e0ffff7fffff7fffffffbfffff45
:100a9c000023bb6240f21c03c2f200031b8802223b
:100aac0013439ab240f21c03c2f200031a8043f2c1
:100abc000023c4f200031a6943f20023c4f20003ba
:100acc0038490a401a6140f20c03c2f200030022ba
:100adc001a6040f20803c2f2000300221a603223ab
:100aec00bb6240f20403c2f200031b6841f66902c8
:100afc0093422ddd40f2fc13c2f200031b683bb3a2
:100b0c000023bb6243f20023c4f200031a6943f2d0
:100b1c000023c4f2000340210a431a6143f200236c
:100b2c00c4f200031a6943f20023c4f20003082143
:100b3c008a431a6143f20023c4f2000390229a58ac
:100b4c0043f20023c4f2000317490a4090215a5083
:100b5c0040f20403c2f200031b684f2b05dc40f289
:100b6c000403c2f2000350221a6042f20003c4f2e2
:100b7c0000231b6980221340002b00d096e542f223
:100b8c000003c4f20023ba6a92b21a8640f204033c
:100b9c00c2f200031a6842f20003c4f2002392b2bc
:0c0bac005a8383e5ffffefffffff7fff90
:020000040000fa
:100bb80080b582b000af0200fb1d1a70fb1d1b78c8
:100bc8007f2b12d8fb1d1b781a001f231a40110017
:100bd8004ef20013cef20003fa1d127852b25209f7
:100be8000120884001009200d150c046bd4602b0a5
:100bf80080bd90b583b000af02003960fb1d1a704c
:100c0800fb1d1b787f2b2fd84ef20013cef200036a
:100c1800fa1d127852b29208c0329200d358fa1dc7
:100c28001278110003220a40d200ff2191400a00e5
:100c3800d2431a4010003b689b01ff221a40fb1d5b
:100c48001b78190003230b40db009a4011004ef279
:100c58000013cef20003fa1d127852b29208014333
:100c6800c0329200d15037e04ef60053cef2000366
:100c7800fa1d127811000f220a40083a920806322b
:100c880092009b1804331b68fa1d12781100032286
:100c98000a40d200ff2191400a00d2431a401000b6
:100ca8003b689b01ff221a40fb1d1b781900032398
:100cb8000b40db009a404ef60053cef20003f91dbc
:100cc80009780c000f2121400839890802430631b0
:100cd80089005b1804331a60c046bd4603b090bd56
:100ce80080b500af00f029f800f0e0f800f06cf9ea
:100cf80000f061fa4ef21003cef2000340f6a6624d
:100d08005a60c046bd4680bd80b500af00f02ffbdd
:100d180000f0eefa00f0d0fa03212b20fff769ff6c
:100d280003212d20fff765ff2b20fff741ff2d2022
:100d3800fff73effc046bd4680bd80b582b000af1c
:100d480000237b6040f20043c4f2000301229a7141
:100d580040f20043c4f2000302229a7000e0c04649
:100d680040f20043c4f200039b79dbb21a0001236e
:100d78001340002bf3d040f20043c4f200030122d9
:100d88009a7145f20003c4f2001306225a6041f634
:100d98000003c4f2000340f202221a6200e0c046d7
:100da80041f60003c4f20003da688023db02134033
:100db800002bf4d041f20003c4f2000300221a868b
:100dc80000e0c04641f20003c4f200031a69802320
:100dd8005b041340002bf4d046f22003c0f28003da
:100de8001a68fc23db0513407b60c0467b68db0b7d
:100df8007b607b6840f2002213437b6041f2000372
:100e0800c4f200037a685a6300e0c04641f2000366
:100e1800c4f200031a6980235b041340002bf4d04a
:100e280041f20003c4f200031b8e9ab241f20003a0
:100e3800c4f2000302210a4392b21a8600e0c046b7
:100e480041f20003c4f200031a6980235b041340d3
:100e5800002bf4d041f60043c4f2000340f205121f
:100e6800c0f201029a6200e0c04641f60043c4f2b3
:100e780000035b6810221340002bf5d141f60043b4
:100e8800c4f2000340f20712c0f202021a6200e044
:100e9800c04641f60043c4f200035b6804221340d5
:100ea800002bf5d1c046bd4602b080bd80b500af6d
:100eb80043f20023c4f2000308225a6143f20023dc
:100ec800c4f2000308229a6043f20023c4f200032c
:100ed80040225a6143f20023c4f2000340229a6080
:100ee80043f20023c4f20003802252035a6143f202
:100ef8000023c4f20003802252039a6043f20023c5
:100f0800c4f20003802252035a6143f20023c4f260
:100f18000003802252039a6043f20023c4f20003c4
:100f28009421802212045a5043f20023c4f2000391
:100f38008821802212045a5043f20023c4f200038d
:100f480048f200025a6143f20023c4f2000348f257
:100f580000029a6043f20023c4f2000380221204c4
:100f68005a6043f20023c4f2000357220221995425
:100f780043f20023c4f2000301225a6043f2002323
:100f8800c4f2000340220221995443f20023c4f220
:100f9800000302225a6043f20023c4f200034122f4
:100fa8000221995443f20023c4f2000384218022d1
:100fb800d2035a5043f20023c4f2000356220221fe
:100fc8009954c046bd4680bd80b582b000affb1db8
:100fd80000221a7041f60043c4f200039022422115
:100fe800995000e0c04641f60043c4f20003902245
:100ff8009b5840221340002bf4d042f60023c4f241
:10100800000301221a7000e0c04642f60023c4f231
:1010180000035b6801221340002bf5d142f6002340
:10102800c4f2000340f6aa22c0f20022da6142f6b6
:101038000023c4f200031a6b42f60023c4f2000333
:1010480003210a431a6342f60023c4f200030e2266
:101058005a6342f60023c4f2000347221a6143f29e
:101068000023c4f20003fa1d3b215b5c1370fb1dd7
:10107800fa1d12780f210a401a70fb1dfa1d12780a
:101088001a7043f20023c4f20003fa1d3b211278c0
:101098005a5443f20023c4f2000357229b5cdab28d
:1010a80043f20023c4f2000301210a43d1b25722bc
:1010b800995443f20023c4f20003fa1dbb215b5c80
:1010c8001370fb1dfa1d12780f218a431a70fb1d3d
:1010d800fa1d12781a7043f20023c4f20003fa1db5
:1010e800bb2112785a5443f20023c4f20003d622db
:1010f8009b5cdab243f20023c4f2000301210a43e5
:10110800d1b2d622995443f20023c4f20003fa1d47
:1011180030215b5c1370fb1dfa1d12780f218a4386
:101128001a70fb1dfa1d12781a7043f20023c4f2dc
:101138000003fa1d302112785a5443f20023c4f2f6
:10114800000340229b5cdab243f20023c4f200039e
:1011580001210a43d1b24022995443f20023c4f238
:101168000003fa1d30215b5c1370fb1dfa1d127819
:101178000f210a401a70fb1dfa1d12781a7043f2eb
:101188000023c4f20003fa1d302112785a5443f2a6
:101198000023c4f2000341229b5cdab243f200232d
:1011a800c4f2000301210a43d1b241229954c04636
:1011b800bd4602b080bd80b582b000af41f60043a5
:1011c800c4f20003dc224221995000e0c04641f6f7
:1011d8000043c4f20003dc229b5840221340002b3a
:1011e800f4d042f20003c4f2002301221a6000e0a6
:1011f800c04642f20003c4f200231b6901221340d7
:10120800002bf5d142f20003c4f200231a6842f21f
:101218000003c4f2002340f200410a431a6042f27c
:101228000003c4f2002302221a7342f20003c4f23c
:101238000023f9225a8342f20003c4f20023002259
:101248009a8300e0c04642f20003c4f200231b69ff
:10125800a0221340002bf5d143f20023c4f200036f
:10126800fa1d3a215b5c1370fb1dfa1d12780f21e1
:101278008a431a70fb1dfa1d127804210a431a705a
:1012880043f20023c4f20003fa1d3a2112785a549b
:1012980043f20023c4f2000354229b5cdab243f207
:1012a8000023c4f2000341210a43d1b254229954c5
:1012b800c046bd4602b080bd80b500af42f2000313
:1012c800c4f200231a6842f20003c4f20023022188
:1012d8000a431a6000e0c04642f20003c4f2002349
:1012e8001b6902221340002bf5d1c046bd4680bdc4
:1012f80080b500af42f60023c4f2000302221a7040
:1013080000e0c04642f60023c4f200035b680222f4
:101318001340002bf5d142f60023c4f200034ff628
:10132800ff725a6102210320fff763fc0320fff7d5
:101338003ffc03210420fff75cfc0420fff738fc86
:1013480003210520fff755fc0520fff731fc032199
:101358000920fff74efc0920fff72afc4ef2100384
:10136800cef2000307221a60c046bd4680bd80b594
:1013780084b000af0023fb6043f20023c4f20003f3
:10138800b1229b5cdbb2fb60fb680f229343fb60de
:10139800fb6801221343fb6043f20023c4f20003fd
:1013a800fa68d1b2b122995443f20023c4f200037f
:1013b800c1229b5cdab243f20023c4f2000301218c
:1013c8000a43d1b2c122995441f60043c4f2000342
:1013d800f0224221995000e0c04641f60043c4f291
:1013e8000003f0229b5840221340002bf4d043f610
:1013f8000003c4f200231b78dab243f60003c4f2f8
:10140800002301210a43d2b21a7000e0c04643f615
:101418000003c4f200231b8c9bb21a000123134063
:10142800002bf3d143f60003c4f200239b78dab211
:1014380043f60003c4f2002305210a43d2b29a708e
:1014480043f60003c4f200235b899ab243f6000313
:10145800c4f2002320210a4392b25a8143f60003c2
:10146800c4f2002304225a7043f60003c4f2002396
:101478001b899ab243f60003c4f200230a210a43e7
:1014880092b21a8143f60003c4f200231b899ab270
:1014980043f60003c4f2002341f600010a4392b266
:1014a8001a8146f22003c0f280031b68bb60bb1d93
:1014b80000221a80bb689bb21b029bb21bb240f28f
:1014c800007213401ab2bb1d00215b5e13431ab2af
:1014d800bb1d1a80bb68db089bb20722134099b278
:1014e800bb1dba1d12880a431a8043f60003c4f2d2
:1014f8000023ba1d12889a8543f60003c4f200231c
:101508001b78dab243f60003c4f2002302210a432f
:10151800d2b21a7000e0c04643f60003c4f20023ba
:101528001b8c9bb21a0002231340002bf3d143f605
:101538000003c4f200235b899ab243f60003c4f2a5
:10154800002304210a4392b25a8143f60003c4f2ed
:10155800002302221a76c046bd4604b080bd80b57d
:1015680082b000af4ef60053cef20003db687b601a
:101578007b68042293437b607b68054a53407b6009
:101588004ef60053cef200037a68da60c046fde7f3
:041598000400ffff4d
:020000040000fa
:10159c0080b500af41f60043c4f20003d0224221d3
:1015ac00995000e0c04641f60043c4f20003d0223b
:1015bc009b5840221340002bf4d040f2e803c2f2b7
:1015cc000003a8220021180001f0aaf941f200033f
:1015dc00c4f2002301221a6000e0c04641f200036d
:1015ec00c4f20023db6901221340002bf5d141f238
:1015fc000003c4f2002304221a6041f20003c4f277
:10160c0000231a6841f20003c4f200238021c905ab
:10161c000a431a6041f20003c4f200231a6841f233
:10162c000003c4f20023882149040a431a6041f2e2
:10163c000003c4f2002340225a6041f20003c4f2ba
:10164c000023802212059a6041f20003c4f20023a9
:10165c00344a9a8141f20003c4f200235a6841f2e1
:10166c000003c4f20023c32109040a435a6000e0ba
:10167c00c04641f20003c4f20023db69042213408c
:10168c00002bf5d143f20023c4f20003942240f264
:10169c000021995043f20023c4f20003842240f24b
:1016ac000021995043f20023c4f20003982240f227
:1016bc000011995043f20023c4f20003882240f237
:1016cc000011995043f20023c4f20003b4223321d9
:1016dc00995443f20023c4f20003c9220321995404
:1016ec0043f20023c4f20003c8224121995441f271
:1016fc000003c4f200231a6841f20003c4f2002371
:10170c0002210a431a6000e0c04641f20003c4f211
:10171c000023db6906221340002bf5d1c046bd46e1
:10172c0080bdc04605c5ffff80b500af40f2e803a1
:10173c00c2f20003a4229b5cdbb2022b00d073e04c
:10174c0066e040f2e803c2f2000384229b584bb3dc
:10175c0040f2e803c2f200031a681100083140f2ab
:10176c00e803c2f20003196040f2e803c2f200037e
:10177c0088215b1803ca03c340f2e803c2f20003da
:10178c0084229b585a1e40f2e803c2f200038421c3
:10179c005a5040f2e803c2f200038c229b58002bf3
:1017ac00cfd000e0c04640f2e803c2f200038c2226
:1017bc009b586bb941f20003c4f2002301221a7545
:1017cc0040f2e803c2f20003a422002199542ce059
:1017dc0040f2e803c2f2000388229a58511c40f2ee
:1017ec00e803c2f2000388201950127841f200037a
:1017fc00c4f200239a6240f2e803c2f200038c2286
:10180c009b585a1e40f2e803c2f200038c215a5036
:10181c0041f20003c4f200231b7edbb21a00012349
:10182c001340002bb5d100e0c046bd4680bd90b53d
:10183c0083b000af40f2e803c2f20003a5229b5c28
:10184c00dbb2022b00d0b0e0a2e041f20003c4f204
:10185c000023ba1d5b8b1380c04641f20003c4f217
:10186c0000239b6a3b6040f2e803c2f2000398221b
:10187c009a5840f2e803c2f20003a0215b589a4246
:10188c0009d340f2e803c2f200039c22995c0420c5
:10189c00014399547ce0bb1d1b880122134043b1ca
:1018ac0040f2e803c2f200039c22995c0120014340
:1018bc009954bb1d1b88022213409bb140f2e803d4
:1018cc00c2f200039c22995c0220014399543b68ac
:1018dc0043b940f2e803c2f200039c22995c102049
:1018ec0001439954bb1d1b880422134043b140f2a1
:1018fc00e803c2f200039c22995c04200143995432
:10190c00bb1d1b882022134043b140f2e803c2f2f6
:10191c0000039c22995c08200143995440f2e8038f
:10192c00c2f200039422995840f2e803c2f2000379
:10193c0098229a58501c40f2e803c2f200039824f3
:10194c0018518b183a68d2b21a7040f2e803c2f2fe
:10195c00000390220021995040f2e803c2f20003e8
:10196c0098229a5840f2e803c2f20003a0215b5877
:10197c009a420dd341f20003c4f2002304221a75db
:10198c0040f2e803c2f20003a522032199540de0b2
:10199c0041f20003c4f200231b7edbb21a000423c5
:1019ac001340002b00d050e700e0c046bd4603b00a
:1019bc0090bd80b500af40f2e803c2f20003a5224f
:1019cc009b5cdbb2022b2ad140f2e803c2f200038b
:1019dc0098229b582bb340f2e803c2f200039022ea
:1019ec009b585a1c40f2e803c2f2000390215a5053
:1019fc0040f2e803c2f2000390229b58062b11d947
:101a0c0041f20003c4f2002304221a7540f2e803e9
:101a1c00c2f20003a52203219954c04602e0c0463d
:101a2c0000e0c046bd4680bd80b584b000af786094
:101a3c0039607b680bb13b680bb9012388e040f23d
:101a4c00e803c2f20003a4229b5cdbb20bb10023bf
:101a5c007ee040f2e803c2f20003a4220121995473
:101a6c0041f20003c4f200235a6841f20003c4f2ad
:101a7c0000238021c9030a435a6000e0c04641f2aa
:101a8c000003c4f20023db6904221340002bf5d1c0
:101a9c0040f2e803c2f2000388220021995040f280
:101aac00e803c2f200038c220021995040f2e803b3
:101abc00c2f20003284a1a600023fb6040f2e803dc
:101acc00c2f2000384220021995027e0fb68db005e
:101adc007a68d318bb60bb685b68dbb1bb681b68fa
:101aec00c3b140f2e803c2f2000384229a58511c9d
:101afc0040f2e803c2f200038420195040f2e803dc
:101b0c00c2f20003d20004219b185b18ba6803ca06
:101b1c0003c300e0c046fb680133fb6040f2e803fe
:101b2c00c2f2000384229b580f2b03d8fa683b683f
:101b3c009a42cbd340f2e803c2f20003a422022162
:101b4c00995441f20003c4f2002301229a75012337
:101b5c001800bd4604b080bdec00002080b500af7d
:101b6c0041f20003c4f2002301221a7540f2e8038b
:101b7c00c2f20003a4220121995441f20003c4f2e1
:101b8c0000235a6841f20003c4f200238021c903e8
:101b9c000a435a6000e0c04641f20003c4f200233d
:101bac00db6904221340002bf5d100e0c04641f262
:101bbc000003c4f200231b7edbb21a000223134085
:101bcc00002bf3d040f2e803c2f20003882200217c
:101bdc00995040f2e803c2f200038c220021995084
:101bec0040f2e803c2f2000300221a6040f2e8035c
:101bfc00c2f2000384220021995040f2e803c2f2a1
:101c0c000003a42200219954c046bd4680bd80b576
:101c1c0000af40f2e803c2f20003a4229b5cdbb2eb
:101c2c005a1e9341dbb21800bd4680bd80b582b010
:101c3c0000af786039607b680bb13b680bb901234e
:101c4c004ae040f2e803c2f20003a5229b5cdbb23f
:101c5c000bb1002340e040f2e803c2f20003a522de
:101c6c00012199541e4b0c220021180000f058fe43
:101c7c0040f2e803c2f2000394217a685a5040f211
:101c8c00e803c2f20003a0213a685a5041f2000363
:101c9c00c4f200235a6841f20003c4f200238021ed
:101cac0009040a435a6000e0c04641f20003c4f242
:101cbc000023db6904221340002bf5d140f2e8032a
:101ccc00c2f20003a5220221995441f20003c4f28e
:101cdc00002304229a7501231800bd4602b080bd72
:101cec007c01002080b500af41f20003c4f2002358
:101cfc0004221a7540f2e803c2f20003a522012166
:101d0c00995441f20003c4f200235a6841f20003d3
:101d1c00c4f20023802109040a435a6000e0c04643
:101d2c0041f20003c4f20023db6904221340002bb0
:101d3c00f5d1084b0c220021180000f0f1fd40f207
:101d4c00e803c2f20003a52200219954c046bd4607
:101d5c0080bdc0467c01002090b583b000af786098
:101d6c007b680bb9002321e040f2e803c2f20003c8
:101d7c00a5229b5cdbb2032b01d0002316e07a6812
:101d8c0040f2e803c2f2000394215b1813cb13c298
:101d9c00084b0c220021180000f0c2fd40f2e803b1
:101dac00c2f20003a5220021995401231800bd465c
:101dbc0003b090bd7c01002080b500af40f2e80379
:101dcc00c2f20003a5229b5cdbb25a1e9341dbb22c
:081ddc001800bd4680bdc046a1
:020000040000fa
:101de4001b5b324a1b5b313b31482b2d2d2d2d2d96
:101df4002d2d2d2d2d2d2d2d2d2d2d2d2d2d2d2d0f
:101e04002d2d2d2d2d2d2d2d2d2d2d2d2d2d2d2dfe
:101e14002d2d2d2d2d2d2d2d2d2d2d2d2d2d2d2dee
:101e24002d2d2d2d2d2d2d2d2d2d2d2b0d0a7c20e1
:101e3400454545203135383a20456c6563747269ef
:101e440063616c20616e6420456c656374726f6eaf
:101e540069637320456e67696e656572696e672094
:101e64004c61626f7261746f727920562020207cfd
:101e74000d0a7c2020202020202020202041636186
:101e840064656d6963205965617220323032352d85
:101e9400323032362c2053656d657374657220318f
:101ea400202020202020202020202020202020202e
:101eb4002020207c0d0a7c2020202020202020208f
:101ec400202020202020202020202020202020200e
:101ed40020202020202020202020202020202020fe
:101ee40020202020202020202020202020202020ee
:101ef400202020202020207c0d0a7c204d61636856
:101f0400696e652050726f626c656d2031202020ef
:101f140020202020202020202020202020202020bd
:101f240020202020202020202020202020202020ad
:101f340020202020202020202020207c0d0a7c200e
:101f4400202020202020202020202020202020208d
:101f5400202020202020202020202020202020207d
:101f6400202020202020202020202020202020206d
:101f74002020202020202020202020202020207c01
:101f84000d0a7c20417574686f723a2045636c6158
:101f940072696e2c204a616d696e6120416e6765bd
:101fa4006c202020202020202020202020202020e1
:101fb400202020202020202020202020202020201d
:101fc4002020207c0d0a7c2020202020202020207e
:101fd40020202020202020202020202020202020fd
:101fe40020202020202020202020202020202020ed
:101ff40020202020202020202020202020202020dd
:10200400202020202020207c0d0a7c20446174653f
:102014003a20202020313720446563656d62657263
:102024002032303235202020202020202020202063
:10203400202020202020202020202020202020209c
:1020440020202020202020202020207c0d0a2b2d41
:102054002d2d2d2d2d2d2d2d2d2d2d2d2d2d2d2dac
:102064002d2d2d2d2d2d2d2d2d2d2d2d2d2d2d2d9c
:102074002d2d2d2d2d2d2d2d2d2d2d2d2d2d2d2d8c
:102084002d2d2d2d2d2d2d2d2d2d2d2d2d2d2d2b7e
:102094000d0a7c20494e535452554354494f4e53d4
:1020a4003a204861707079204368726973746d6175
:1020b4007320627265616b21202020202020202063
:1020c400202020202020202020202020202020200c
:1020d4002020207c0d0a2b2d2d2d2d2d2d2d2d2d49
:1020e4002d2d2d2d2d2d2d2d2d2d2d2d2d2d2d2d1c
:1020f4002d2d2d2d2d2d2d2d2d2d2d2d2d2d2d2d0c
:102104002d2d2d2d2d2d2d2d2d2d2d2d2d2d2d2dfb
:102114002d2d2d2d2d2d2d2b0d0a0d0a44697265a3
:102124006374696f6e3a200d0a53706565643a20d2
:102134000d0a4d6f64653a200000c0461b5b3337bf
:102144003b34306d0000c0461b5b33363b34306d8e
:102154000000c0461b5b33353b34306d0000c04685
:1021640040210000080000004c210000080000008d
:1021740058210000080000001b5b31343b3230481a
:102184001b5b304b0000c04653544f500000c04608
:1021940043435700435700001b5b31353b32304803
:1021a4001b5b304b0000c0466e6f20666173740089
:1021b4006d6564796f20666173740000534b5245fa
:1021c400454545001b5b31363b3230481b5b304b89
:1021d4000000c046545249500000c0464c4f434191
:0c21e4004c00c0465b31357e0000c04658
:020000040000fa
:1021f00080b582b000af40f20c23c2f200031b682e
:102200007b60c04640f20c23c2f200031b687a6870
:102210009a42f0d17b681800bd4602b080bd80b5ff
:1022200000affff7ccfb40f21023c2f200031b68a3
:102230005a1c40f21023c2f200031a6016e040f26a
:102240001023c2f200031b68403b1a0040f2102327
:10225000c2f200031a6040f20c23c2f200031b68b2
:102260005a1c40f20c23c2f200031a6040f2102301
:10227000c2f200031b683f2be1dc40f20823c2f2ec
:1022800000031b685a1c40f20823c2f200031a60c4
:10229000c046bd4680bd80b500af42f60023c4f203
:1022a00000035b69012213408bb140f20423c2f2a8
:1022b000000300221a6042f60023c4f200035a69a8
:1022c00042f60023c4f2000301210a435a61c046ca
:1022d000bd4680bd80b500af42f60023c4f20003c6
:1022e0005b69022213408bb140f20423c2f2000367
:1022f00001221a6042f60023c4f200035a6942f632
:102300000023c4f2000302210a435a61c046bd46bd
:1023100080bd80b500af42f60023c4f200035b69c4
:1023200004221340f3b140f2fc13c2f20003012275
:102330001a6040f21c03c2f200031b8802221343fe
:102340009ab240f21c03c2f200031a8042f6002344
:10235000c4f200035a6942f60023c4f200030421c8
:102360000a435a61c046bd4680bd80b500af42f603
:102370000023c4f200035b6940221340f3b140f232
:10238000fc13c2f2000300221a6040f21c03c2f2e6
:1023900000031b88022213439ab240f21c03c2f2cc
:1023a00000031a8042f60023c4f200035a6942f681
:1023b0000023c4f2000340210a435a61c046bd46cf
:1023c00080bd80b584b000af786039603a687b68c2
:1023d0009a4204d87a683b68d31afb6007e03a68ef
:1023e0007b68d31afb60c046fb680233fb60fb6866
:1023f0001800bd4604b080bd80b582b000af40f289
:102400000823c2f200031b687b60c04640f2082329
:10241000c2f200031b681a007b689342efd17b680d
:082420001800bd4602b080bdaa
:020000040000fa
:102428000122d20703004b403cd430b4431a01d2f6
:10243800c01ac9184b004400240eff2c28d024b31e
:102448001b0e20d0e31a182b1ddc09021143c40d02
:10245800000210435d4219350a00aa40d209d9404a
:10246800451801d36d080234013ce405280a01210e
:10247800c9072d062a438a4160414100090eff29f8
:1024880001d3c00dc00530bc7047c00fc007fae7c4
:1024980042001823da41ff2af5d07f2000010c30d2
:1024a8000005f0e7a4465140431a02d25340c01a2f
:1024b800c9184b00090211431b0e4400240eff2cbf
:1024c80040d083b15b421b19012b10d322d1c30d1d
:1024d8004002401a10d3db050100400ac9059141aa
:1024e8005841644670472442fbd10020f9e7c30de8
:1024f80040024900401af4d0002101314000fcd3c9
:102508008c4204d95b1adb05400ac018e9e7180aaf
:10251800c007e6e7192be4d801330c00d940dc41a9
:102528004c40012c4941c30d00021043441a01d408
:10253800a4006408013bdb05200a240694415841a5
:1025480064467047ff2b01d04102cad07f200001aa
:062558000c300005c5e790
:020000040000fa
:10255e0030b405004d400124e407254042004b00f5
:10256e00120e32d01b0e3cd0ff2a33d0ff2b3fd0a1
:10257e00d21800022043000a09022143090ac4b2fc
:10258e004c43000ac3b24b43000a4843210a5b186e
:10259e00190a091801d44900013a080a7f3a2adbc0
:1025ae00fe2a0fd2d2051c43240601d0012421435a
:1025be00c9b280295041802901d1400840002843ea
:1025ce0030bc7047ff20c005f9e71b0eff2b0ad069
:1025de002800f5e7400206d1ff2bf3d1490202d1c4
:1025ee00f0e7ff2af4d17f2000010c300005e7e769
:1025fe004902f8d1e6e743020132e9d15b12023318
:06260e00e6d9d805e4e75f
:020000040000fa
:1026140030b405004d400124e407254042004b003e
:10262400120e26d01b0e34d0ff2a2dd0ff2b35d00e
:10263400d21a000220430902214343084908a00d8d
:102644005b1a02d2013a5b005b185b008b4200d339
:102654005b1a4041f9d37f3222ddff2a06d2d2052c
:10266400c91a8b425041284330bc7047ff20c00533
:10267400f9e71b0e03d0ff2b12d1490210d07f20a3
:1026840000010c300005efe74002f8d1ff2bedd13b
:10269400f5e7ff2aead14002f1d1e7e74902eed19a
:0426a4002800e1e742
:020000040000fa
:1026a8001c020020040000000100000000000000df
:1026b800e00100201c0000000000000000000020d5
:1026c800e800000000000000fc01002018000000e5
:1026d80000000000e8000020a80000000000000042
:1026e80014020020040000000000000090010020f7
:1026f8005000000000000000180200200400000044
:10270800000000002002002004000000010000007a
:102718000000000000000000000000006666666619
:020000040000fa
:1027280040f20003c0f2000323b140f20003c0f2fc
:102738000003984740f20003c0f2000323b140f2bf
:102748000003c0f20003984700f098f840f2000335
:10275800c0f200037f2293434ef60052cef20002ed
:10276800936042f2a973c0f20003984740f2000355
:10277800c0f2000323b140f20003c0f200039847ff
:1027880040f20003c0f2000323b140f20003c0f29c
:0e2798000003984700210020fdf759fffee7df
:020000040000fa
:0227a600fee74c
:020000040000fa
:1027a80000230e4a10b513600d4a0e4c13600e4af2
:1027b80013600e4a13600e4a13600e4a5362136187
:1027c8000133936000f0cbf800f0c9f80a4b9c4243
:1027d80000d310bd08cc9847f8e7c046180200207f
:1027e8009c01002068010000980100209001002051
:0c27f80094010020a00100206c010000f2
:020000040000fa
:1028040010b5054c227832b9044b13b1044800e0ea
:1028140000bf0123237010bde00100200000000070
:1028240000000000034b10b51bb10349034800e04e
:1028340000bf10bd00000000e40100200000000003
:020000040000fa
:102844004200110e7f390fd40123db0749421f31a7
:102854000cdd400003d2c0011843c8407047c001da
:102864001843c8404042704700207047ff210906c2
:0e2874008a4200d99843184000d4d8437047d8
:020000040000fa
:0228820070479d
:020000040000fa
:1028840010b50a48016821b9436813b9fff7f7ff87
:1028940010bd04008368064a9bb20c349b009b580d
:1028a40042682000984780002018ebe7a826000023
:0428b40018290000df
:020000040000fa
:1028b800c20f12029d3201000cd001d5494202d448
:1028c800013a4900fcd5d205080a0906494100d356
:0628d80001295041704788
:020000040000fa
:1028de00002310b5934206d103201840421e9041aa
:0e28ee009b08c01810bdc45ccc540133f2e747
:020000040000fa
:1028fc0030b50024a24207d0035d4d1e01342d5d7e
:0c290c00ab42f7d0581b00e0002030bdab
:020000040000fa
:1029180041290000df280000632900006329000026
:04292800632900001f
:020000040000fa
:10292c0032b10300c9b28218197001339342fbd142
:04293c007047c046da
:020000040000fa
:102940008a18914201d10020704700230b70013199
:02295000f7e7a7
:020000040000fa
:102952000122d207514042f22d43c0f20003184730
:020000040000fa
:04296200002070479a
:020000040000fa
:022966007047b8
:00000001FF
